{
  "contractName": "RefundEscrow",
  "abi": [
    {
      "constant": false,
      "inputs": [
        {
          "name": "recipient",
          "type": "address"
        }
      ],
      "name": "transferPrimary",
      "outputs": [],
      "payable": false,
      "stateMutability": "nonpayable",
      "type": "function"
    },
    {
      "constant": false,
      "inputs": [
        {
          "name": "payee",
          "type": "address"
        }
      ],
      "name": "withdraw",
      "outputs": [],
      "payable": false,
      "stateMutability": "nonpayable",
      "type": "function"
    },
    {
      "constant": true,
      "inputs": [],
      "name": "primary",
      "outputs": [
        {
          "name": "",
          "type": "address"
        }
      ],
      "payable": false,
      "stateMutability": "view",
      "type": "function"
    },
    {
      "constant": true,
      "inputs": [
        {
          "name": "payee",
          "type": "address"
        }
      ],
      "name": "depositsOf",
      "outputs": [
        {
          "name": "",
          "type": "uint256"
        }
      ],
      "payable": false,
      "stateMutability": "view",
      "type": "function"
    },
    {
      "inputs": [
        {
          "name": "beneficiary",
          "type": "address"
        }
      ],
      "payable": false,
      "stateMutability": "nonpayable",
      "type": "constructor"
    },
    {
      "anonymous": false,
      "inputs": [],
      "name": "RefundsClosed",
      "type": "event"
    },
    {
      "anonymous": false,
      "inputs": [],
      "name": "RefundsEnabled",
      "type": "event"
    },
    {
      "anonymous": false,
      "inputs": [
        {
          "indexed": true,
          "name": "payee",
          "type": "address"
        },
        {
          "indexed": false,
          "name": "weiAmount",
          "type": "uint256"
        }
      ],
      "name": "Deposited",
      "type": "event"
    },
    {
      "anonymous": false,
      "inputs": [
        {
          "indexed": true,
          "name": "payee",
          "type": "address"
        },
        {
          "indexed": false,
          "name": "weiAmount",
          "type": "uint256"
        }
      ],
      "name": "Withdrawn",
      "type": "event"
    },
    {
      "anonymous": false,
      "inputs": [
        {
          "indexed": false,
          "name": "recipient",
          "type": "address"
        }
      ],
      "name": "PrimaryTransferred",
      "type": "event"
    },
    {
      "constant": true,
      "inputs": [],
      "name": "state",
      "outputs": [
        {
          "name": "",
          "type": "uint8"
        }
      ],
      "payable": false,
      "stateMutability": "view",
      "type": "function"
    },
    {
      "constant": true,
      "inputs": [],
      "name": "beneficiary",
      "outputs": [
        {
          "name": "",
          "type": "address"
        }
      ],
      "payable": false,
      "stateMutability": "view",
      "type": "function"
    },
    {
      "constant": false,
      "inputs": [
        {
          "name": "refundee",
          "type": "address"
        }
      ],
      "name": "deposit",
      "outputs": [],
      "payable": true,
      "stateMutability": "payable",
      "type": "function"
    },
    {
      "constant": false,
      "inputs": [],
      "name": "close",
      "outputs": [],
      "payable": false,
      "stateMutability": "nonpayable",
      "type": "function"
    },
    {
      "constant": false,
      "inputs": [],
      "name": "enableRefunds",
      "outputs": [],
      "payable": false,
      "stateMutability": "nonpayable",
      "type": "function"
    },
    {
      "constant": false,
      "inputs": [],
      "name": "beneficiaryWithdraw",
      "outputs": [],
      "payable": false,
      "stateMutability": "nonpayable",
      "type": "function"
    },
    {
      "constant": true,
      "inputs": [
        {
          "name": "",
          "type": "address"
        }
      ],
      "name": "withdrawalAllowed",
      "outputs": [
        {
          "name": "",
          "type": "bool"
        }
      ],
      "payable": false,
      "stateMutability": "view",
      "type": "function"
    }
  ],
  "bytecode": "0x608060405234801561001057600080fd5b506040516020806114918339810180604052602081101561003057600080fd5b8101908080519060200190929190505050336000806101000a81548173ffffffffffffffffffffffffffffffffffffffff021916908373ffffffffffffffffffffffffffffffffffffffff1602179055507f4101e71e974f68df5e9730cc223280b41654676bbb052cdcc735c3337e64d2d96000809054906101000a900473ffffffffffffffffffffffffffffffffffffffff16604051808273ffffffffffffffffffffffffffffffffffffffff1673ffffffffffffffffffffffffffffffffffffffff16815260200191505060405180910390a1600073ffffffffffffffffffffffffffffffffffffffff168173ffffffffffffffffffffffffffffffffffffffff16141515156101d0576040517f08c379a000000000000000000000000000000000000000000000000000000000815260040180806020018281038252602d8152602001807f526566756e64457363726f773a2062656e65666963696172792069732074686581526020017f207a65726f20616464726573730000000000000000000000000000000000000081525060400191505060405180910390fd5b80600260016101000a81548173ffffffffffffffffffffffffffffffffffffffff021916908373ffffffffffffffffffffffffffffffffffffffff1602179055506000600260006101000a81548160ff0219169083600281111561023057fe5b02179055505061124c806102456000396000f3fe6080604052600436106100af576000357c0100000000000000000000000000000000000000000000000000000000900463ffffffff1680632348238c146100b457806338af3eed1461010557806343d726d61461015c57806351cff8d914610173578063685ca194146101c45780638c52dc411461022d5780639af6549a14610244578063c19d93fb1461025b578063c6dbdf6114610294578063e3a9db1a146102eb578063f340fa0114610350575b600080fd5b3480156100c057600080fd5b50610103600480360360208110156100d757600080fd5b81019080803573ffffffffffffffffffffffffffffffffffffffff169060200190929190505050610394565b005b34801561011157600080fd5b5061011a610610565b604051808273ffffffffffffffffffffffffffffffffffffffff1673ffffffffffffffffffffffffffffffffffffffff16815260200191505060405180910390f35b34801561016857600080fd5b5061017161063a565b005b34801561017f57600080fd5b506101c26004803603602081101561019657600080fd5b81019080803573ffffffffffffffffffffffffffffffffffffffff169060200190929190505050610838565b005b3480156101d057600080fd5b50610213600480360360208110156101e757600080fd5b81019080803573ffffffffffffffffffffffffffffffffffffffff1690602001909291905050506108e7565b604051808215151515815260200191505060405180910390f35b34801561023957600080fd5b50610242610919565b005b34801561025057600080fd5b50610259610b18565b005b34801561026757600080fd5b50610270610c5c565b6040518082600281111561028057fe5b60ff16815260200191505060405180910390f35b3480156102a057600080fd5b506102a9610c73565b604051808273ffffffffffffffffffffffffffffffffffffffff1673ffffffffffffffffffffffffffffffffffffffff16815260200191505060405180910390f35b3480156102f757600080fd5b5061033a6004803603602081101561030e57600080fd5b81019080803573ffffffffffffffffffffffffffffffffffffffff169060200190929190505050610c9c565b6040518082815260200191505060405180910390f35b6103926004803603602081101561036657600080fd5b81019080803573ffffffffffffffffffffffffffffffffffffffff169060200190929190505050610ce5565b005b6000809054906101000a900473ffffffffffffffffffffffffffffffffffffffff1673ffffffffffffffffffffffffffffffffffffffff163373ffffffffffffffffffffffffffffffffffffffff1614151561047e576040517f08c379a000000000000000000000000000000000000000000000000000000000815260040180806020018281038252602c8152602001807f5365636f6e646172793a2063616c6c6572206973206e6f74207468652070726981526020017f6d617279206163636f756e74000000000000000000000000000000000000000081525060400191505060405180910390fd5b600073ffffffffffffffffffffffffffffffffffffffff168173ffffffffffffffffffffffffffffffffffffffff1614151515610549576040517f08c379a000000000000000000000000000000000000000000000000000000000815260040180806020018281038252602a8152602001807f5365636f6e646172793a206e6577207072696d61727920697320746865207a6581526020017f726f20616464726573730000000000000000000000000000000000000000000081525060400191505060405180910390fd5b806000806101000a81548173ffffffffffffffffffffffffffffffffffffffff021916908373ffffffffffffffffffffffffffffffffffffffff1602179055507f4101e71e974f68df5e9730cc223280b41654676bbb052cdcc735c3337e64d2d96000809054906101000a900473ffffffffffffffffffffffffffffffffffffffff16604051808273ffffffffffffffffffffffffffffffffffffffff1673ffffffffffffffffffffffffffffffffffffffff16815260200191505060405180910390a150565b6000600260019054906101000a900473ffffffffffffffffffffffffffffffffffffffff16905090565b6000809054906101000a900473ffffffffffffffffffffffffffffffffffffffff1673ffffffffffffffffffffffffffffffffffffffff163373ffffffffffffffffffffffffffffffffffffffff16141515610724576040517f08c379a000000000000000000000000000000000000000000000000000000000815260040180806020018281038252602c8152602001807f5365636f6e646172793a2063616c6c6572206973206e6f74207468652070726981526020017f6d617279206163636f756e74000000000000000000000000000000000000000081525060400191505060405180910390fd5b6000600281111561073157fe5b600260009054906101000a900460ff16600281111561074c57fe5b1415156107e7576040517f08c379a00000000000000000000000000000000000000000000000000000000081526004018080602001828103825260298152602001807f526566756e64457363726f773a2063616e206f6e6c7920636c6f73652077686981526020017f6c6520616374697665000000000000000000000000000000000000000000000081525060400191505060405180910390fd5b60028060006101000a81548160ff0219169083600281111561080557fe5b02179055507f088672c3a6e342f7cd94a65ba63b79df24a8973927b4d05d803c44bbf787d12f60405160405180910390a1565b610841816108e7565b15156108db576040517f08c379a00000000000000000000000000000000000000000000000000000000081526004018080602001828103825260338152602001807f436f6e646974696f6e616c457363726f773a207061796565206973206e6f742081526020017f616c6c6f77656420746f2077697468647261770000000000000000000000000081525060400191505060405180910390fd5b6108e481610db4565b50565b6000600160028111156108f657fe5b600260009054906101000a900460ff16600281111561091157fe5b149050919050565b6000809054906101000a900473ffffffffffffffffffffffffffffffffffffffff1673ffffffffffffffffffffffffffffffffffffffff163373ffffffffffffffffffffffffffffffffffffffff16141515610a03576040517f08c379a000000000000000000000000000000000000000000000000000000000815260040180806020018281038252602c8152602001807f5365636f6e646172793a2063616c6c6572206973206e6f74207468652070726981526020017f6d617279206163636f756e74000000000000000000000000000000000000000081525060400191505060405180910390fd5b60006002811115610a1057fe5b600260009054906101000a900460ff166002811115610a2b57fe5b141515610ac6576040517f08c379a00000000000000000000000000000000000000000000000000000000081526004018080602001828103825260328152602001807f526566756e64457363726f773a2063616e206f6e6c7920656e61626c6520726581526020017f66756e6473207768696c6520616374697665000000000000000000000000000081525060400191505060405180910390fd5b6001600260006101000a81548160ff02191690836002811115610ae557fe5b02179055507f599d8e5a83cffb867d051598c4d70e805d59802d8081c1c7d6dffc5b6aca2b8960405160405180910390a1565b600280811115610b2457fe5b600260009054906101000a900460ff166002811115610b3f57fe5b141515610bda576040517f08c379a00000000000000000000000000000000000000000000000000000000081526004018080602001828103825260388152602001807f526566756e64457363726f773a2062656e65666963696172792063616e206f6e81526020017f6c79207769746864726177207768696c6520636c6f736564000000000000000081525060400191505060405180910390fd5b600260019054906101000a900473ffffffffffffffffffffffffffffffffffffffff1673ffffffffffffffffffffffffffffffffffffffff166108fc3073ffffffffffffffffffffffffffffffffffffffff16319081150290604051600060405180830381858888f19350505050158015610c59573d6000803e3d6000fd5b50565b6000600260009054906101000a900460ff16905090565b60008060009054906101000a900473ffffffffffffffffffffffffffffffffffffffff16905090565b6000600160008373ffffffffffffffffffffffffffffffffffffffff1673ffffffffffffffffffffffffffffffffffffffff168152602001908152602001600020549050919050565b60006002811115610cf257fe5b600260009054906101000a900460ff166002811115610d0d57fe5b141515610da8576040517f08c379a000000000000000000000000000000000000000000000000000000000815260040180806020018281038252602b8152602001807f526566756e64457363726f773a2063616e206f6e6c79206465706f736974207781526020017f68696c652061637469766500000000000000000000000000000000000000000081525060400191505060405180910390fd5b610db181610fc0565b50565b6000809054906101000a900473ffffffffffffffffffffffffffffffffffffffff1673ffffffffffffffffffffffffffffffffffffffff163373ffffffffffffffffffffffffffffffffffffffff16141515610e9e576040517f08c379a000000000000000000000000000000000000000000000000000000000815260040180806020018281038252602c8152602001807f5365636f6e646172793a2063616c6c6572206973206e6f74207468652070726981526020017f6d617279206163636f756e74000000000000000000000000000000000000000081525060400191505060405180910390fd5b6000600160008373ffffffffffffffffffffffffffffffffffffffff1673ffffffffffffffffffffffffffffffffffffffff1681526020019081526020016000205490506000600160008473ffffffffffffffffffffffffffffffffffffffff1673ffffffffffffffffffffffffffffffffffffffff168152602001908152602001600020819055508173ffffffffffffffffffffffffffffffffffffffff166108fc829081150290604051600060405180830381858888f19350505050158015610f6d573d6000803e3d6000fd5b508173ffffffffffffffffffffffffffffffffffffffff167f7084f5476618d8e60b11ef0d7d3f06914655adb8793e28ff7f018d4c76d505d5826040518082815260200191505060405180910390a25050565b6000809054906101000a900473ffffffffffffffffffffffffffffffffffffffff1673ffffffffffffffffffffffffffffffffffffffff163373ffffffffffffffffffffffffffffffffffffffff161415156110aa576040517f08c379a000000000000000000000000000000000000000000000000000000000815260040180806020018281038252602c8152602001807f5365636f6e646172793a2063616c6c6572206973206e6f74207468652070726981526020017f6d617279206163636f756e74000000000000000000000000000000000000000081525060400191505060405180910390fd5b600034905061110181600160008573ffffffffffffffffffffffffffffffffffffffff1673ffffffffffffffffffffffffffffffffffffffff1681526020019081526020016000205461119690919063ffffffff16565b600160008473ffffffffffffffffffffffffffffffffffffffff1673ffffffffffffffffffffffffffffffffffffffff168152602001908152602001600020819055508173ffffffffffffffffffffffffffffffffffffffff167f2da466a7b24304f47e87fa2e1e5a81b9831ce54fec19055ce277ca2f39ba42c4826040518082815260200191505060405180910390a25050565b6000808284019050838110151515611216576040517f08c379a000000000000000000000000000000000000000000000000000000000815260040180806020018281038252601b8152602001807f536166654d6174683a206164646974696f6e206f766572666c6f77000000000081525060200191505060405180910390fd5b809150509291505056fea165627a7a72305820af8befd89a297147312ead6e255576c88584520eb738fcea8897f145235539bc0029",
  "source": "pragma solidity ^0.5.0;\n\nimport \"./ConditionalEscrow.sol\";\n\n/**\n * @title RefundEscrow\n * @dev Escrow that holds funds for a beneficiary, deposited from multiple\n * parties.\n * @dev Intended usage: See {Escrow}. Same usage guidelines apply here.\n * @dev The primary account (that is, the contract that instantiates this\n * contract) may deposit, close the deposit period, and allow for either\n * withdrawal by the beneficiary, or refunds to the depositors. All interactions\n * with `RefundEscrow` will be made through the primary contract. See the\n * `RefundableCrowdsale` contract for an example of `RefundEscrow`’s use.\n */\ncontract RefundEscrow is ConditionalEscrow {\n    enum State { Active, Refunding, Closed }\n\n    event RefundsClosed();\n    event RefundsEnabled();\n\n    State private _state;\n    address payable private _beneficiary;\n\n    /**\n     * @dev Constructor.\n     * @param beneficiary The beneficiary of the deposits.\n     */\n    constructor (address payable beneficiary) public {\n        require(beneficiary != address(0), \"RefundEscrow: beneficiary is the zero address\");\n        _beneficiary = beneficiary;\n        _state = State.Active;\n    }\n\n    /**\n     * @return The current state of the escrow.\n     */\n    function state() public view returns (State) {\n        return _state;\n    }\n\n    /**\n     * @return The beneficiary of the escrow.\n     */\n    function beneficiary() public view returns (address) {\n        return _beneficiary;\n    }\n\n    /**\n     * @dev Stores funds that may later be refunded.\n     * @param refundee The address funds will be sent to if a refund occurs.\n     */\n    function deposit(address refundee) public payable {\n        require(_state == State.Active, \"RefundEscrow: can only deposit while active\");\n        super.deposit(refundee);\n    }\n\n    /**\n     * @dev Allows for the beneficiary to withdraw their funds, rejecting\n     * further deposits.\n     */\n    function close() public onlyPrimary {\n        require(_state == State.Active, \"RefundEscrow: can only close while active\");\n        _state = State.Closed;\n        emit RefundsClosed();\n    }\n\n    /**\n     * @dev Allows for refunds to take place, rejecting further deposits.\n     */\n    function enableRefunds() public onlyPrimary {\n        require(_state == State.Active, \"RefundEscrow: can only enable refunds while active\");\n        _state = State.Refunding;\n        emit RefundsEnabled();\n    }\n\n    /**\n     * @dev Withdraws the beneficiary's funds.\n     */\n    function beneficiaryWithdraw() public {\n        require(_state == State.Closed, \"RefundEscrow: beneficiary can only withdraw while closed\");\n        _beneficiary.transfer(address(this).balance);\n    }\n\n    /**\n     * @dev Returns whether refundees can withdraw their deposits (be refunded). The overridden function receives a\n     * 'payee' argument, but we ignore it here since the condition is global, not per-payee.\n     */\n    function withdrawalAllowed(address) public view returns (bool) {\n        return _state == State.Refunding;\n    }\n}",
  "sourcePath": "/Users/mehranhydary/Desktop/dev/connect-bc/regions-blockchain/contracts/RefundEscrow.sol",
  "compiler": {
    "name": "solc",
    "version": "0.5.0+commit.1d4f565a.Emscripten.clang"
  },
  "schemaVersion": "3.0.0",
  "updatedAt": "2019-08-05T13:58:54.782Z",
  "devdoc": {
    "details": "Escrow that holds funds for a beneficiary, deposited from multiple parties.Intended usage: See {Escrow}. Same usage guidelines apply here.The primary account (that is, the contract that instantiates this contract) may deposit, close the deposit period, and allow for either withdrawal by the beneficiary, or refunds to the depositors. All interactions with `RefundEscrow` will be made through the primary contract. See the `RefundableCrowdsale` contract for an example of `RefundEscrow`’s use.",
    "methods": {
      "beneficiary()": {
        "return": "The beneficiary of the escrow."
      },
      "beneficiaryWithdraw()": {
        "details": "Withdraws the beneficiary's funds."
      },
      "close()": {
        "details": "Allows for the beneficiary to withdraw their funds, rejecting further deposits."
      },
      "constructor": {
        "details": "Constructor.",
        "params": {
          "beneficiary": "The beneficiary of the deposits."
        }
      },
      "deposit(address)": {
        "details": "Stores funds that may later be refunded.",
        "params": {
          "refundee": "The address funds will be sent to if a refund occurs."
        }
      },
      "enableRefunds()": {
        "details": "Allows for refunds to take place, rejecting further deposits."
      },
      "primary()": {
        "return": "the address of the primary."
      },
      "state()": {
        "return": "The current state of the escrow."
      },
      "transferPrimary(address)": {
        "details": "Transfers contract to a new primary.",
        "params": {
          "recipient": "The address of new primary."
        }
      },
      "withdrawalAllowed(address)": {
        "details": "Returns whether refundees can withdraw their deposits (be refunded). The overridden function receives a 'payee' argument, but we ignore it here since the condition is global, not per-payee."
      }
    },
    "title": "RefundEscrow"
  },
  "userdoc": {
    "methods": {}
  }
}