{
  "contractName": "Region",
  "abi": [
    {
      "constant": true,
      "inputs": [
        {
          "name": "",
          "type": "uint256"
        }
      ],
      "name": "owners",
      "outputs": [
        {
          "name": "",
          "type": "address"
        }
      ],
      "payable": false,
      "stateMutability": "view",
      "type": "function",
      "signature": "0x025e7c27"
    },
    {
      "constant": false,
      "inputs": [
        {
          "name": "account",
          "type": "address"
        }
      ],
      "name": "addWhitelisted",
      "outputs": [],
      "payable": false,
      "stateMutability": "nonpayable",
      "type": "function",
      "signature": "0x10154bad"
    },
    {
      "constant": false,
      "inputs": [
        {
          "name": "owner",
          "type": "address"
        }
      ],
      "name": "removeOwner",
      "outputs": [],
      "payable": false,
      "stateMutability": "nonpayable",
      "type": "function",
      "signature": "0x173825d9"
    },
    {
      "constant": false,
      "inputs": [
        {
          "name": "transactionId",
          "type": "uint256"
        }
      ],
      "name": "revokeConfirmation",
      "outputs": [],
      "payable": false,
      "stateMutability": "nonpayable",
      "type": "function",
      "signature": "0x20ea8d86"
    },
    {
      "constant": false,
      "inputs": [
        {
          "name": "account",
          "type": "address"
        }
      ],
      "name": "removeWhitelisted",
      "outputs": [],
      "payable": false,
      "stateMutability": "nonpayable",
      "type": "function",
      "signature": "0x291d9549"
    },
    {
      "constant": true,
      "inputs": [
        {
          "name": "",
          "type": "address"
        }
      ],
      "name": "isOwner",
      "outputs": [
        {
          "name": "",
          "type": "bool"
        }
      ],
      "payable": false,
      "stateMutability": "view",
      "type": "function",
      "signature": "0x2f54bf6e"
    },
    {
      "constant": true,
      "inputs": [
        {
          "name": "",
          "type": "uint256"
        },
        {
          "name": "",
          "type": "address"
        }
      ],
      "name": "confirmations",
      "outputs": [
        {
          "name": "",
          "type": "bool"
        }
      ],
      "payable": false,
      "stateMutability": "view",
      "type": "function",
      "signature": "0x3411c81c"
    },
    {
      "constant": true,
      "inputs": [
        {
          "name": "account",
          "type": "address"
        }
      ],
      "name": "isWhitelisted",
      "outputs": [
        {
          "name": "",
          "type": "bool"
        }
      ],
      "payable": false,
      "stateMutability": "view",
      "type": "function",
      "signature": "0x3af32abf"
    },
    {
      "constant": false,
      "inputs": [],
      "name": "renounceWhitelistAdmin",
      "outputs": [],
      "payable": false,
      "stateMutability": "nonpayable",
      "type": "function",
      "signature": "0x4c5a628c"
    },
    {
      "constant": true,
      "inputs": [
        {
          "name": "pending",
          "type": "bool"
        },
        {
          "name": "executed",
          "type": "bool"
        }
      ],
      "name": "getTransactionCount",
      "outputs": [
        {
          "name": "count",
          "type": "uint256"
        }
      ],
      "payable": false,
      "stateMutability": "view",
      "type": "function",
      "signature": "0x54741525"
    },
    {
      "constant": false,
      "inputs": [
        {
          "name": "owner",
          "type": "address"
        }
      ],
      "name": "addOwner",
      "outputs": [],
      "payable": false,
      "stateMutability": "nonpayable",
      "type": "function",
      "signature": "0x7065cb48"
    },
    {
      "constant": false,
      "inputs": [
        {
          "name": "account",
          "type": "address"
        }
      ],
      "name": "addWhitelistAdmin",
      "outputs": [],
      "payable": false,
      "stateMutability": "nonpayable",
      "type": "function",
      "signature": "0x7362d9c8"
    },
    {
      "constant": true,
      "inputs": [
        {
          "name": "transactionId",
          "type": "uint256"
        }
      ],
      "name": "isConfirmed",
      "outputs": [
        {
          "name": "",
          "type": "bool"
        }
      ],
      "payable": false,
      "stateMutability": "view",
      "type": "function",
      "signature": "0x784547a7"
    },
    {
      "constant": true,
      "inputs": [
        {
          "name": "transactionId",
          "type": "uint256"
        }
      ],
      "name": "getConfirmationCount",
      "outputs": [
        {
          "name": "count",
          "type": "uint256"
        }
      ],
      "payable": false,
      "stateMutability": "view",
      "type": "function",
      "signature": "0x8b51d13f"
    },
    {
      "constant": true,
      "inputs": [],
      "name": "numberOfSchools",
      "outputs": [
        {
          "name": "",
          "type": "uint256"
        }
      ],
      "payable": false,
      "stateMutability": "view",
      "type": "function",
      "signature": "0x947b8e64"
    },
    {
      "constant": true,
      "inputs": [
        {
          "name": "",
          "type": "uint256"
        }
      ],
      "name": "transactions",
      "outputs": [
        {
          "name": "destination",
          "type": "address"
        },
        {
          "name": "value",
          "type": "uint256"
        },
        {
          "name": "data",
          "type": "bytes"
        },
        {
          "name": "executed",
          "type": "bool"
        }
      ],
      "payable": false,
      "stateMutability": "view",
      "type": "function",
      "signature": "0x9ace38c2"
    },
    {
      "constant": true,
      "inputs": [],
      "name": "totalAreaOfRegion",
      "outputs": [
        {
          "name": "",
          "type": "uint256"
        }
      ],
      "payable": false,
      "stateMutability": "view",
      "type": "function",
      "signature": "0x9bb14844"
    },
    {
      "constant": true,
      "inputs": [],
      "name": "getOwners",
      "outputs": [
        {
          "name": "",
          "type": "address[]"
        }
      ],
      "payable": false,
      "stateMutability": "view",
      "type": "function",
      "signature": "0xa0e67e2b"
    },
    {
      "constant": true,
      "inputs": [
        {
          "name": "from",
          "type": "uint256"
        },
        {
          "name": "to",
          "type": "uint256"
        },
        {
          "name": "pending",
          "type": "bool"
        },
        {
          "name": "executed",
          "type": "bool"
        }
      ],
      "name": "getTransactionIds",
      "outputs": [
        {
          "name": "_transactionIds",
          "type": "uint256[]"
        }
      ],
      "payable": false,
      "stateMutability": "view",
      "type": "function",
      "signature": "0xa8abe69a"
    },
    {
      "constant": true,
      "inputs": [],
      "name": "regionCreatedBy",
      "outputs": [
        {
          "name": "",
          "type": "address"
        }
      ],
      "payable": false,
      "stateMutability": "view",
      "type": "function",
      "signature": "0xb3b57cda"
    },
    {
      "constant": true,
      "inputs": [
        {
          "name": "transactionId",
          "type": "uint256"
        }
      ],
      "name": "getConfirmations",
      "outputs": [
        {
          "name": "_confirmations",
          "type": "address[]"
        }
      ],
      "payable": false,
      "stateMutability": "view",
      "type": "function",
      "signature": "0xb5dc40c3"
    },
    {
      "constant": true,
      "inputs": [],
      "name": "transactionCount",
      "outputs": [
        {
          "name": "",
          "type": "uint256"
        }
      ],
      "payable": false,
      "stateMutability": "view",
      "type": "function",
      "signature": "0xb77bf600"
    },
    {
      "constant": false,
      "inputs": [
        {
          "name": "_required",
          "type": "uint256"
        }
      ],
      "name": "changeRequirement",
      "outputs": [],
      "payable": false,
      "stateMutability": "nonpayable",
      "type": "function",
      "signature": "0xba51a6df"
    },
    {
      "constant": true,
      "inputs": [],
      "name": "nameOfRegion",
      "outputs": [
        {
          "name": "",
          "type": "string"
        }
      ],
      "payable": false,
      "stateMutability": "view",
      "type": "function",
      "signature": "0xbaa105a8"
    },
    {
      "constant": true,
      "inputs": [
        {
          "name": "account",
          "type": "address"
        }
      ],
      "name": "isWhitelistAdmin",
      "outputs": [
        {
          "name": "",
          "type": "bool"
        }
      ],
      "payable": false,
      "stateMutability": "view",
      "type": "function",
      "signature": "0xbb5f747b"
    },
    {
      "constant": false,
      "inputs": [
        {
          "name": "transactionId",
          "type": "uint256"
        }
      ],
      "name": "confirmTransaction",
      "outputs": [],
      "payable": false,
      "stateMutability": "nonpayable",
      "type": "function",
      "signature": "0xc01a8c84"
    },
    {
      "constant": false,
      "inputs": [
        {
          "name": "destination",
          "type": "address"
        },
        {
          "name": "value",
          "type": "uint256"
        },
        {
          "name": "data",
          "type": "bytes"
        }
      ],
      "name": "submitTransaction",
      "outputs": [
        {
          "name": "transactionId",
          "type": "uint256"
        }
      ],
      "payable": false,
      "stateMutability": "nonpayable",
      "type": "function",
      "signature": "0xc6427474"
    },
    {
      "constant": false,
      "inputs": [],
      "name": "renounceWhitelisted",
      "outputs": [],
      "payable": false,
      "stateMutability": "nonpayable",
      "type": "function",
      "signature": "0xd6cd9473"
    },
    {
      "constant": true,
      "inputs": [],
      "name": "MAX_OWNER_COUNT",
      "outputs": [
        {
          "name": "",
          "type": "uint256"
        }
      ],
      "payable": false,
      "stateMutability": "view",
      "type": "function",
      "signature": "0xd74f8edd"
    },
    {
      "constant": true,
      "inputs": [],
      "name": "required",
      "outputs": [
        {
          "name": "",
          "type": "uint256"
        }
      ],
      "payable": false,
      "stateMutability": "view",
      "type": "function",
      "signature": "0xdc8452cd"
    },
    {
      "constant": false,
      "inputs": [
        {
          "name": "owner",
          "type": "address"
        },
        {
          "name": "newOwner",
          "type": "address"
        }
      ],
      "name": "replaceOwner",
      "outputs": [],
      "payable": false,
      "stateMutability": "nonpayable",
      "type": "function",
      "signature": "0xe20056e6"
    },
    {
      "constant": false,
      "inputs": [
        {
          "name": "transactionId",
          "type": "uint256"
        }
      ],
      "name": "executeTransaction",
      "outputs": [],
      "payable": false,
      "stateMutability": "nonpayable",
      "type": "function",
      "signature": "0xee22610b"
    },
    {
      "inputs": [
        {
          "name": "_nameOfRegion",
          "type": "string"
        },
        {
          "name": "_numberOfSchools",
          "type": "uint256"
        },
        {
          "name": "_totalAreaOfRegion",
          "type": "uint256"
        },
        {
          "name": "ownersOfMultiSigWallet",
          "type": "address[]"
        },
        {
          "name": "signaturesRequiredForMultiSigWallet",
          "type": "uint256"
        }
      ],
      "payable": false,
      "stateMutability": "nonpayable",
      "type": "constructor",
      "signature": "constructor"
    },
    {
      "payable": true,
      "stateMutability": "payable",
      "type": "fallback"
    },
    {
      "anonymous": false,
      "inputs": [
        {
          "indexed": true,
          "name": "account",
          "type": "address"
        }
      ],
      "name": "WhitelistedAdded",
      "type": "event",
      "signature": "0xee1504a83b6d4a361f4c1dc78ab59bfa30d6a3b6612c403e86bb01ef2984295f"
    },
    {
      "anonymous": false,
      "inputs": [
        {
          "indexed": true,
          "name": "account",
          "type": "address"
        }
      ],
      "name": "WhitelistedRemoved",
      "type": "event",
      "signature": "0x270d9b30cf5b0793bbfd54c9d5b94aeb49462b8148399000265144a8722da6b6"
    },
    {
      "anonymous": false,
      "inputs": [
        {
          "indexed": true,
          "name": "account",
          "type": "address"
        }
      ],
      "name": "WhitelistAdminAdded",
      "type": "event",
      "signature": "0x22380c05984257a1cb900161c713dd71d39e74820f1aea43bd3f1bdd20961299"
    },
    {
      "anonymous": false,
      "inputs": [
        {
          "indexed": true,
          "name": "account",
          "type": "address"
        }
      ],
      "name": "WhitelistAdminRemoved",
      "type": "event",
      "signature": "0x0a8eb35e5ca14b3d6f28e4abf2f128dbab231a58b56e89beb5d636115001e165"
    },
    {
      "anonymous": false,
      "inputs": [
        {
          "indexed": true,
          "name": "sender",
          "type": "address"
        },
        {
          "indexed": true,
          "name": "transactionId",
          "type": "uint256"
        }
      ],
      "name": "Confirmation",
      "type": "event",
      "signature": "0x4a504a94899432a9846e1aa406dceb1bcfd538bb839071d49d1e5e23f5be30ef"
    },
    {
      "anonymous": false,
      "inputs": [
        {
          "indexed": true,
          "name": "sender",
          "type": "address"
        },
        {
          "indexed": true,
          "name": "transactionId",
          "type": "uint256"
        }
      ],
      "name": "Revocation",
      "type": "event",
      "signature": "0xf6a317157440607f36269043eb55f1287a5a19ba2216afeab88cd46cbcfb88e9"
    },
    {
      "anonymous": false,
      "inputs": [
        {
          "indexed": true,
          "name": "transactionId",
          "type": "uint256"
        }
      ],
      "name": "Submission",
      "type": "event",
      "signature": "0xc0ba8fe4b176c1714197d43b9cc6bcf797a4a7461c5fe8d0ef6e184ae7601e51"
    },
    {
      "anonymous": false,
      "inputs": [
        {
          "indexed": true,
          "name": "transactionId",
          "type": "uint256"
        }
      ],
      "name": "Execution",
      "type": "event",
      "signature": "0x33e13ecb54c3076d8e8bb8c2881800a4d972b792045ffae98fdf46df365fed75"
    },
    {
      "anonymous": false,
      "inputs": [
        {
          "indexed": true,
          "name": "transactionId",
          "type": "uint256"
        }
      ],
      "name": "ExecutionFailure",
      "type": "event",
      "signature": "0x526441bb6c1aba3c9a4a6ca1d6545da9c2333c8c48343ef398eb858d72b79236"
    },
    {
      "anonymous": false,
      "inputs": [
        {
          "indexed": true,
          "name": "sender",
          "type": "address"
        },
        {
          "indexed": false,
          "name": "value",
          "type": "uint256"
        }
      ],
      "name": "Deposit",
      "type": "event",
      "signature": "0xe1fffcc4923d04b559f4d29a8bfc6cda04eb5b0d3c460751c2402c5c5cc9109c"
    },
    {
      "anonymous": false,
      "inputs": [
        {
          "indexed": true,
          "name": "owner",
          "type": "address"
        }
      ],
      "name": "OwnerAddition",
      "type": "event",
      "signature": "0xf39e6e1eb0edcf53c221607b54b00cd28f3196fed0a24994dc308b8f611b682d"
    },
    {
      "anonymous": false,
      "inputs": [
        {
          "indexed": true,
          "name": "owner",
          "type": "address"
        }
      ],
      "name": "OwnerRemoval",
      "type": "event",
      "signature": "0x8001553a916ef2f495d26a907cc54d96ed840d7bda71e73194bf5a9df7a76b90"
    },
    {
      "anonymous": false,
      "inputs": [
        {
          "indexed": false,
          "name": "required",
          "type": "uint256"
        }
      ],
      "name": "RequirementChange",
      "type": "event",
      "signature": "0xa3f1ee9126a074d9326c682f561767f710e927faa811f7a99829d49dc421797a"
    },
    {
      "constant": true,
      "inputs": [
        {
          "name": "payee",
          "type": "address"
        }
      ],
      "name": "depositsOf",
      "outputs": [
        {
          "name": "",
          "type": "uint256"
        }
      ],
      "payable": false,
      "stateMutability": "view",
      "type": "function",
      "signature": "0xe3a9db1a"
    }
  ],
  "bytecode": "0x60806040523480156200001157600080fd5b506040516200388f3803806200388f833981018060405260a08110156200003757600080fd5b8101908080516401000000008111156200005057600080fd5b828101905060208101848111156200006757600080fd5b81518560018202830111640100000000821117156200008557600080fd5b505092919060200180519060200190929190805190602001909291908051640100000000811115620000b657600080fd5b82810190506020810184811115620000cd57600080fd5b8151856020820283011164010000000082111715620000eb57600080fd5b505092919060200180519060200190929190505050818181518160328211158015620001175750818111155b801562000125575060008114155b801562000133575060008214155b15156200013f57600080fd5b60008090505b845181101562000291576002600086838151811015156200016257fe5b9060200190602002015173ffffffffffffffffffffffffffffffffffffffff1673ffffffffffffffffffffffffffffffffffffffff16815260200190815260200160002060009054906101000a900460ff16158015620002075750600073ffffffffffffffffffffffffffffffffffffffff168582815181101515620001e457fe5b9060200190602002015173ffffffffffffffffffffffffffffffffffffffff1614155b15156200021357600080fd5b60016002600087848151811015156200022857fe5b9060200190602002015173ffffffffffffffffffffffffffffffffffffffff1673ffffffffffffffffffffffffffffffffffffffff16815260200190815260200160002060006101000a81548160ff021916908315150217905550808060010191505062000145565b508360039080519060200190620002aa929190620005c0565b508260048190555050505050620002d03362000343640100000000026401000000009004565b8460089080519060200190620002e89291906200064f565b5083600a8190555082600b8190555033600960006101000a81548173ffffffffffffffffffffffffffffffffffffffff021916908373ffffffffffffffffffffffffffffffffffffffff160217905550505050505062000744565b62000367816006620003ad6401000000000262002e5f179091906401000000009004565b8073ffffffffffffffffffffffffffffffffffffffff167f22380c05984257a1cb900161c713dd71d39e74820f1aea43bd3f1bdd2096129960405160405180910390a250565b620003c882826200049c640100000000026401000000009004565b1515156200043e576040517f08c379a000000000000000000000000000000000000000000000000000000000815260040180806020018281038252601f8152602001807f526f6c65733a206163636f756e7420616c72656164792068617320726f6c650081525060200191505060405180910390fd5b60018260000160008373ffffffffffffffffffffffffffffffffffffffff1673ffffffffffffffffffffffffffffffffffffffff16815260200190815260200160002060006101000a81548160ff0219169083151502179055505050565b60008073ffffffffffffffffffffffffffffffffffffffff168273ffffffffffffffffffffffffffffffffffffffff161415151562000569576040517f08c379a00000000000000000000000000000000000000000000000000000000081526004018080602001828103825260228152602001807f526f6c65733a206163636f756e7420697320746865207a65726f20616464726581526020017f737300000000000000000000000000000000000000000000000000000000000081525060400191505060405180910390fd5b8260000160008373ffffffffffffffffffffffffffffffffffffffff1673ffffffffffffffffffffffffffffffffffffffff16815260200190815260200160002060009054906101000a900460ff16905092915050565b8280548282559060005260206000209081019282156200063c579160200282015b828111156200063b5782518260006101000a81548173ffffffffffffffffffffffffffffffffffffffff021916908373ffffffffffffffffffffffffffffffffffffffff16021790555091602001919060010190620005e1565b5b5090506200064b9190620006d6565b5090565b828054600181600116156101000203166002900490600052602060002090601f016020900481019282601f106200069257805160ff1916838001178555620006c3565b82800160010185558215620006c3579182015b82811115620006c2578251825591602001919060010190620006a5565b5b509050620006d291906200071c565b5090565b6200071991905b808211156200071557600081816101000a81549073ffffffffffffffffffffffffffffffffffffffff021916905550600101620006dd565b5090565b90565b6200074191905b808211156200073d57600081600090555060010162000723565b5090565b90565b61313b80620007546000396000f3fe6080604052600436106101a1576000357c0100000000000000000000000000000000000000000000000000000000900463ffffffff168063025e7c271461033957806310154bad146103b4578063173825d91461040557806320ea8d8614610456578063291d9549146104915780632f54bf6e146104e25780633411c81c1461054b5780633af32abf146105be5780634c5a628c14610627578063547415251461063e5780637065cb481461069b5780637362d9c8146106ec578063784547a71461073d5780638b51d13f14610790578063947b8e64146107df5780639ace38c21461080a5780639bb1484414610903578063a0e67e2b1461092e578063a8abe69a1461099a578063b3b57cda14610a4c578063b5dc40c314610aa3578063b77bf60014610b33578063ba51a6df14610b5e578063baa105a814610b99578063bb5f747b14610c29578063c01a8c8414610c92578063c642747414610ccd578063d6cd947314610dd3578063d74f8edd14610dea578063dc8452cd14610e15578063e20056e614610e40578063e3a9db1a14610eb1578063ee22610b14610f16575b6101aa33610f51565b1515610244576040517f08c379a000000000000000000000000000000000000000000000000000000000815260040180806020018281038252603a8152602001807f57686974656c6973746564526f6c653a2063616c6c657220646f6573206e6f7481526020017f2068617665207468652057686974656c697374656420726f6c6500000000000081525060400191505060405180910390fd5b6000341115610337573373ffffffffffffffffffffffffffffffffffffffff167fe1fffcc4923d04b559f4d29a8bfc6cda04eb5b0d3c460751c2402c5c5cc9109c346040518082815260200191505060405180910390a260003490506102f281600c60003373ffffffffffffffffffffffffffffffffffffffff1673ffffffffffffffffffffffffffffffffffffffff16815260200190815260200160002054610f6e90919063ffffffff16565b600c60003373ffffffffffffffffffffffffffffffffffffffff1673ffffffffffffffffffffffffffffffffffffffff16815260200190815260200160002081905550505b005b34801561034557600080fd5b506103726004803603602081101561035c57600080fd5b8101908080359060200190929190505050610ff8565b604051808273ffffffffffffffffffffffffffffffffffffffff1673ffffffffffffffffffffffffffffffffffffffff16815260200191505060405180910390f35b3480156103c057600080fd5b50610403600480360360208110156103d757600080fd5b81019080803573ffffffffffffffffffffffffffffffffffffffff169060200190929190505050611036565b005b34801561041157600080fd5b506104546004803603602081101561042857600080fd5b81019080803573ffffffffffffffffffffffffffffffffffffffff1690602001909291905050506110e5565b005b34801561046257600080fd5b5061048f6004803603602081101561047957600080fd5b810190808035906020019092919050505061137d565b005b34801561049d57600080fd5b506104e0600480360360208110156104b457600080fd5b81019080803573ffffffffffffffffffffffffffffffffffffffff169060200190929190505050611525565b005b3480156104ee57600080fd5b506105316004803603602081101561050557600080fd5b81019080803573ffffffffffffffffffffffffffffffffffffffff1690602001909291905050506115d4565b604051808215151515815260200191505060405180910390f35b34801561055757600080fd5b506105a46004803603604081101561056e57600080fd5b8101908080359060200190929190803573ffffffffffffffffffffffffffffffffffffffff1690602001909291905050506115f4565b604051808215151515815260200191505060405180910390f35b3480156105ca57600080fd5b5061060d600480360360208110156105e157600080fd5b81019080803573ffffffffffffffffffffffffffffffffffffffff169060200190929190505050610f51565b604051808215151515815260200191505060405180910390f35b34801561063357600080fd5b5061063c611623565b005b34801561064a57600080fd5b506106856004803603604081101561066157600080fd5b8101908080351515906020019092919080351515906020019092919050505061162e565b6040518082815260200191505060405180910390f35b3480156106a757600080fd5b506106ea600480360360208110156106be57600080fd5b81019080803573ffffffffffffffffffffffffffffffffffffffff1690602001909291905050506116c0565b005b3480156106f857600080fd5b5061073b6004803603602081101561070f57600080fd5b81019080803573ffffffffffffffffffffffffffffffffffffffff1690602001909291905050506118db565b005b34801561074957600080fd5b506107766004803603602081101561076057600080fd5b810190808035906020019092919050505061198a565b604051808215151515815260200191505060405180910390f35b34801561079c57600080fd5b506107c9600480360360208110156107b357600080fd5b8101908080359060200190929190505050611a71565b6040518082815260200191505060405180910390f35b3480156107eb57600080fd5b506107f4611b3c565b6040518082815260200191505060405180910390f35b34801561081657600080fd5b506108436004803603602081101561082d57600080fd5b8101908080359060200190929190505050611b42565b604051808573ffffffffffffffffffffffffffffffffffffffff1673ffffffffffffffffffffffffffffffffffffffff1681526020018481526020018060200183151515158152602001828103825284818151815260200191508051906020019080838360005b838110156108c55780820151818401526020810190506108aa565b50505050905090810190601f1680156108f25780820380516001836020036101000a031916815260200191505b509550505050505060405180910390f35b34801561090f57600080fd5b50610918611c37565b6040518082815260200191505060405180910390f35b34801561093a57600080fd5b50610943611c3d565b6040518080602001828103825283818151815260200191508051906020019060200280838360005b8381101561098657808201518184015260208101905061096b565b505050509050019250505060405180910390f35b3480156109a657600080fd5b506109f5600480360360808110156109bd57600080fd5b810190808035906020019092919080359060200190929190803515159060200190929190803515159060200190929190505050611ccb565b6040518080602001828103825283818151815260200191508051906020019060200280838360005b83811015610a38578082015181840152602081019050610a1d565b505050509050019250505060405180910390f35b348015610a5857600080fd5b50610a61611e3b565b604051808273ffffffffffffffffffffffffffffffffffffffff1673ffffffffffffffffffffffffffffffffffffffff16815260200191505060405180910390f35b348015610aaf57600080fd5b50610adc60048036036020811015610ac657600080fd5b8101908080359060200190929190505050611e61565b6040518080602001828103825283818151815260200191508051906020019060200280838360005b83811015610b1f578082015181840152602081019050610b04565b505050509050019250505060405180910390f35b348015610b3f57600080fd5b50610b4861209d565b6040518082815260200191505060405180910390f35b348015610b6a57600080fd5b50610b9760048036036020811015610b8157600080fd5b81019080803590602001909291905050506120a3565b005b348015610ba557600080fd5b50610bae61215d565b6040518080602001828103825283818151815260200191508051906020019080838360005b83811015610bee578082015181840152602081019050610bd3565b50505050905090810190601f168015610c1b5780820380516001836020036101000a031916815260200191505b509250505060405180910390f35b348015610c3557600080fd5b50610c7860048036036020811015610c4c57600080fd5b81019080803573ffffffffffffffffffffffffffffffffffffffff1690602001909291905050506121fb565b604051808215151515815260200191505060405180910390f35b348015610c9e57600080fd5b50610ccb60048036036020811015610cb557600080fd5b8101908080359060200190929190505050612218565b005b348015610cd957600080fd5b50610dbd60048036036060811015610cf057600080fd5b81019080803573ffffffffffffffffffffffffffffffffffffffff1690602001909291908035906020019092919080359060200190640100000000811115610d3757600080fd5b820183602082011115610d4957600080fd5b80359060200191846001830284011164010000000083111715610d6b57600080fd5b91908080601f016020809104026020016040519081016040528093929190818152602001838380828437600081840152601f19601f82011690508083019250505050505050919291929050505061240b565b6040518082815260200191505060405180910390f35b348015610ddf57600080fd5b50610de861242a565b005b348015610df657600080fd5b50610dff612435565b6040518082815260200191505060405180910390f35b348015610e2157600080fd5b50610e2a61243a565b6040518082815260200191505060405180910390f35b348015610e4c57600080fd5b50610eaf60048036036040811015610e6357600080fd5b81019080803573ffffffffffffffffffffffffffffffffffffffff169060200190929190803573ffffffffffffffffffffffffffffffffffffffff169060200190929190505050612440565b005b348015610ebd57600080fd5b50610f0060048036036020811015610ed457600080fd5b81019080803573ffffffffffffffffffffffffffffffffffffffff169060200190929190505050612754565b6040518082815260200191505060405180910390f35b348015610f2257600080fd5b50610f4f60048036036020811015610f3957600080fd5b810190808035906020019092919050505061279d565b005b6000610f67826007612a4590919063ffffffff16565b9050919050565b6000808284019050838110151515610fee576040517f08c379a000000000000000000000000000000000000000000000000000000000815260040180806020018281038252601b8152602001807f536166654d6174683a206164646974696f6e206f766572666c6f77000000000081525060200191505060405180910390fd5b8091505092915050565b60038181548110151561100757fe5b906000526020600020016000915054906101000a900473ffffffffffffffffffffffffffffffffffffffff1681565b61103f336121fb565b15156110d9576040517f08c379a00000000000000000000000000000000000000000000000000000000081526004018080602001828103825260408152602001807f57686974656c69737441646d696e526f6c653a2063616c6c657220646f65732081526020017f6e6f742068617665207468652057686974656c69737441646d696e20726f6c6581525060400191505060405180910390fd5b6110e281612b68565b50565b3073ffffffffffffffffffffffffffffffffffffffff163373ffffffffffffffffffffffffffffffffffffffff1614151561111f57600080fd5b80600260008273ffffffffffffffffffffffffffffffffffffffff1673ffffffffffffffffffffffffffffffffffffffff16815260200190815260200160002060009054906101000a900460ff16151561117857600080fd5b6000600260008473ffffffffffffffffffffffffffffffffffffffff1673ffffffffffffffffffffffffffffffffffffffff16815260200190815260200160002060006101000a81548160ff02191690831515021790555060008090505b6001600380549050038110156112fe578273ffffffffffffffffffffffffffffffffffffffff1660038281548110151561120c57fe5b9060005260206000200160009054906101000a900473ffffffffffffffffffffffffffffffffffffffff1673ffffffffffffffffffffffffffffffffffffffff1614156112f157600360016003805490500381548110151561126a57fe5b9060005260206000200160009054906101000a900473ffffffffffffffffffffffffffffffffffffffff166003828154811015156112a457fe5b9060005260206000200160006101000a81548173ffffffffffffffffffffffffffffffffffffffff021916908373ffffffffffffffffffffffffffffffffffffffff1602179055506112fe565b80806001019150506111d6565b506001600381818054905003915081611317919061303e565b506003805490506004541115611336576113356003805490506120a3565b5b8173ffffffffffffffffffffffffffffffffffffffff167f8001553a916ef2f495d26a907cc54d96ed840d7bda71e73194bf5a9df7a76b9060405160405180910390a25050565b33600260008273ffffffffffffffffffffffffffffffffffffffff1673ffffffffffffffffffffffffffffffffffffffff16815260200190815260200160002060009054906101000a900460ff1615156113d657600080fd5b81336001600083815260200190815260200160002060008273ffffffffffffffffffffffffffffffffffffffff1673ffffffffffffffffffffffffffffffffffffffff16815260200190815260200160002060009054906101000a900460ff16151561144157600080fd5b8360008082815260200190815260200160002060030160009054906101000a900460ff1615151561147157600080fd5b60006001600087815260200190815260200160002060003373ffffffffffffffffffffffffffffffffffffffff1673ffffffffffffffffffffffffffffffffffffffff16815260200190815260200160002060006101000a81548160ff021916908315150217905550843373ffffffffffffffffffffffffffffffffffffffff167ff6a317157440607f36269043eb55f1287a5a19ba2216afeab88cd46cbcfb88e960405160405180910390a35050505050565b61152e336121fb565b15156115c8576040517f08c379a00000000000000000000000000000000000000000000000000000000081526004018080602001828103825260408152602001807f57686974656c69737441646d696e526f6c653a2063616c6c657220646f65732081526020017f6e6f742068617665207468652057686974656c69737441646d696e20726f6c6581525060400191505060405180910390fd5b6115d181612bc2565b50565b60026020528060005260406000206000915054906101000a900460ff1681565b60016020528160005260406000206020528060005260406000206000915091509054906101000a900460ff1681565b61162c33612c1c565b565b600080600090505b6005548110156116b95783801561166d575060008082815260200190815260200160002060030160009054906101000a900460ff16155b806116a0575082801561169f575060008082815260200190815260200160002060030160009054906101000a900460ff165b5b156116ac576001820191505b8080600101915050611636565b5092915050565b3073ffffffffffffffffffffffffffffffffffffffff163373ffffffffffffffffffffffffffffffffffffffff161415156116fa57600080fd5b80600260008273ffffffffffffffffffffffffffffffffffffffff1673ffffffffffffffffffffffffffffffffffffffff16815260200190815260200160002060009054906101000a900460ff1615151561175457600080fd5b81600073ffffffffffffffffffffffffffffffffffffffff168173ffffffffffffffffffffffffffffffffffffffff161415151561179157600080fd5b600160038054905001600454603282111580156117ae5750818111155b80156117bb575060008114155b80156117c8575060008214155b15156117d357600080fd5b6001600260008773ffffffffffffffffffffffffffffffffffffffff1673ffffffffffffffffffffffffffffffffffffffff16815260200190815260200160002060006101000a81548160ff02191690831515021790555060038590806001815401808255809150509060018203906000526020600020016000909192909190916101000a81548173ffffffffffffffffffffffffffffffffffffffff021916908373ffffffffffffffffffffffffffffffffffffffff160217905550508473ffffffffffffffffffffffffffffffffffffffff167ff39e6e1eb0edcf53c221607b54b00cd28f3196fed0a24994dc308b8f611b682d60405160405180910390a25050505050565b6118e4336121fb565b151561197e576040517f08c379a00000000000000000000000000000000000000000000000000000000081526004018080602001828103825260408152602001807f57686974656c69737441646d696e526f6c653a2063616c6c657220646f65732081526020017f6e6f742068617665207468652057686974656c69737441646d696e20726f6c6581525060400191505060405180910390fd5b61198781612c76565b50565b6000806000905060008090505b600380549050811015611a69576001600085815260200190815260200160002060006003838154811015156119c857fe5b9060005260206000200160009054906101000a900473ffffffffffffffffffffffffffffffffffffffff1673ffffffffffffffffffffffffffffffffffffffff1673ffffffffffffffffffffffffffffffffffffffff16815260200190815260200160002060009054906101000a900460ff1615611a47576001820191505b600454821415611a5c57600192505050611a6c565b8080600101915050611997565b50505b919050565b600080600090505b600380549050811015611b3657600160008481526020019081526020016000206000600383815481101515611aaa57fe5b9060005260206000200160009054906101000a900473ffffffffffffffffffffffffffffffffffffffff1673ffffffffffffffffffffffffffffffffffffffff1673ffffffffffffffffffffffffffffffffffffffff16815260200190815260200160002060009054906101000a900460ff1615611b29576001820191505b8080600101915050611a79565b50919050565b600a5481565b60006020528060005260406000206000915090508060000160009054906101000a900473ffffffffffffffffffffffffffffffffffffffff1690806001015490806002018054600181600116156101000203166002900480601f016020809104026020016040519081016040528092919081815260200182805460018160011615610100020316600290048015611c1a5780601f10611bef57610100808354040283529160200191611c1a565b820191906000526020600020905b815481529060010190602001808311611bfd57829003601f168201915b5050505050908060030160009054906101000a900460ff16905084565b600b5481565b60606003805480602002602001604051908101604052809291908181526020018280548015611cc157602002820191906000526020600020905b8160009054906101000a900473ffffffffffffffffffffffffffffffffffffffff1673ffffffffffffffffffffffffffffffffffffffff1681526020019060010190808311611c77575b5050505050905090565b606080600554604051908082528060200260200182016040528015611cff5781602001602082028038833980820191505090505b509050600080905060008090505b600554811015611dad57858015611d44575060008082815260200190815260200160002060030160009054906101000a900460ff16155b80611d775750848015611d76575060008082815260200190815260200160002060030160009054906101000a900460ff165b5b15611da057808383815181101515611d8b57fe5b90602001906020020181815250506001820191505b8080600101915050611d0d565b878703604051908082528060200260200182016040528015611dde5781602001602082028038833980820191505090505b5093508790505b86811015611e30578281815181101515611dfb57fe5b9060200190602002015184898303815181101515611e1557fe5b90602001906020020181815250508080600101915050611de5565b505050949350505050565b600960009054906101000a900473ffffffffffffffffffffffffffffffffffffffff1681565b606080600380549050604051908082528060200260200182016040528015611e985781602001602082028038833980820191505090505b509050600080905060008090505b600380549050811015611fe757600160008681526020019081526020016000206000600383815481101515611ed757fe5b9060005260206000200160009054906101000a900473ffffffffffffffffffffffffffffffffffffffff1673ffffffffffffffffffffffffffffffffffffffff1673ffffffffffffffffffffffffffffffffffffffff16815260200190815260200160002060009054906101000a900460ff1615611fda57600381815481101515611f5e57fe5b9060005260206000200160009054906101000a900473ffffffffffffffffffffffffffffffffffffffff168383815181101515611f9757fe5b9060200190602002019073ffffffffffffffffffffffffffffffffffffffff16908173ffffffffffffffffffffffffffffffffffffffff16815250506001820191505b8080600101915050611ea6565b816040519080825280602002602001820160405280156120165781602001602082028038833980820191505090505b509350600090505b8181101561209557828181518110151561203457fe5b90602001906020020151848281518110151561204c57fe5b9060200190602002019073ffffffffffffffffffffffffffffffffffffffff16908173ffffffffffffffffffffffffffffffffffffffff1681525050808060010191505061201e565b505050919050565b60055481565b3073ffffffffffffffffffffffffffffffffffffffff163373ffffffffffffffffffffffffffffffffffffffff161415156120dd57600080fd5b60038054905081603282111580156120f55750818111155b8015612102575060008114155b801561210f575060008214155b151561211a57600080fd5b826004819055507fa3f1ee9126a074d9326c682f561767f710e927faa811f7a99829d49dc421797a836040518082815260200191505060405180910390a1505050565b60088054600181600116156101000203166002900480601f0160208091040260200160405190810160405280929190818152602001828054600181600116156101000203166002900480156121f35780601f106121c8576101008083540402835291602001916121f3565b820191906000526020600020905b8154815290600101906020018083116121d657829003601f168201915b505050505081565b6000612211826006612a4590919063ffffffff16565b9050919050565b33600260008273ffffffffffffffffffffffffffffffffffffffff1673ffffffffffffffffffffffffffffffffffffffff16815260200190815260200160002060009054906101000a900460ff16151561227157600080fd5b81600073ffffffffffffffffffffffffffffffffffffffff1660008083815260200190815260200160002060000160009054906101000a900473ffffffffffffffffffffffffffffffffffffffff1673ffffffffffffffffffffffffffffffffffffffff16141515156122e357600080fd5b82336001600083815260200190815260200160002060008273ffffffffffffffffffffffffffffffffffffffff1673ffffffffffffffffffffffffffffffffffffffff16815260200190815260200160002060009054906101000a900460ff1615151561234f57600080fd5b600180600087815260200190815260200160002060003373ffffffffffffffffffffffffffffffffffffffff1673ffffffffffffffffffffffffffffffffffffffff16815260200190815260200160002060006101000a81548160ff021916908315150217905550843373ffffffffffffffffffffffffffffffffffffffff167f4a504a94899432a9846e1aa406dceb1bcfd538bb839071d49d1e5e23f5be30ef60405160405180910390a36124048561279d565b5050505050565b6000612418848484612cd0565b905061242381612218565b9392505050565b61243333612bc2565b565b603281565b60045481565b3073ffffffffffffffffffffffffffffffffffffffff163373ffffffffffffffffffffffffffffffffffffffff1614151561247a57600080fd5b81600260008273ffffffffffffffffffffffffffffffffffffffff1673ffffffffffffffffffffffffffffffffffffffff16815260200190815260200160002060009054906101000a900460ff1615156124d357600080fd5b81600260008273ffffffffffffffffffffffffffffffffffffffff1673ffffffffffffffffffffffffffffffffffffffff16815260200190815260200160002060009054906101000a900460ff1615151561252d57600080fd5b60008090505b600380549050811015612617578473ffffffffffffffffffffffffffffffffffffffff1660038281548110151561256657fe5b9060005260206000200160009054906101000a900473ffffffffffffffffffffffffffffffffffffffff1673ffffffffffffffffffffffffffffffffffffffff16141561260a57836003828154811015156125bd57fe5b9060005260206000200160006101000a81548173ffffffffffffffffffffffffffffffffffffffff021916908373ffffffffffffffffffffffffffffffffffffffff160217905550612617565b8080600101915050612533565b506000600260008673ffffffffffffffffffffffffffffffffffffffff1673ffffffffffffffffffffffffffffffffffffffff16815260200190815260200160002060006101000a81548160ff0219169083151502179055506001600260008573ffffffffffffffffffffffffffffffffffffffff1673ffffffffffffffffffffffffffffffffffffffff16815260200190815260200160002060006101000a81548160ff0219169083151502179055508373ffffffffffffffffffffffffffffffffffffffff167f8001553a916ef2f495d26a907cc54d96ed840d7bda71e73194bf5a9df7a76b9060405160405180910390a28273ffffffffffffffffffffffffffffffffffffffff167ff39e6e1eb0edcf53c221607b54b00cd28f3196fed0a24994dc308b8f611b682d60405160405180910390a250505050565b6000600c60008373ffffffffffffffffffffffffffffffffffffffff1673ffffffffffffffffffffffffffffffffffffffff168152602001908152602001600020549050919050565b33600260008273ffffffffffffffffffffffffffffffffffffffff1673ffffffffffffffffffffffffffffffffffffffff16815260200190815260200160002060009054906101000a900460ff1615156127f657600080fd5b81336001600083815260200190815260200160002060008273ffffffffffffffffffffffffffffffffffffffff1673ffffffffffffffffffffffffffffffffffffffff16815260200190815260200160002060009054906101000a900460ff16151561286157600080fd5b8360008082815260200190815260200160002060030160009054906101000a900460ff1615151561289157600080fd5b61289a8561198a565b15612a3e576000806000878152602001908152602001600020905060018160030160006101000a81548160ff0219169083151502179055506129ba8160000160009054906101000a900473ffffffffffffffffffffffffffffffffffffffff16826001015483600201805460018160011615610100020316600290049050846002018054600181600116156101000203166002900480601f0160208091040260200160405190810160405280929190818152602001828054600181600116156101000203166002900480156129b05780601f10612985576101008083540402835291602001916129b0565b820191906000526020600020905b81548152906001019060200180831161299357829003601f168201915b5050505050612e38565b156129f157857f33e13ecb54c3076d8e8bb8c2881800a4d972b792045ffae98fdf46df365fed7560405160405180910390a2612a3c565b857f526441bb6c1aba3c9a4a6ca1d6545da9c2333c8c48343ef398eb858d72b7923660405160405180910390a260008160030160006101000a81548160ff0219169083151502179055505b505b5050505050565b60008073ffffffffffffffffffffffffffffffffffffffff168273ffffffffffffffffffffffffffffffffffffffff1614151515612b11576040517f08c379a00000000000000000000000000000000000000000000000000000000081526004018080602001828103825260228152602001807f526f6c65733a206163636f756e7420697320746865207a65726f20616464726581526020017f737300000000000000000000000000000000000000000000000000000000000081525060400191505060405180910390fd5b8260000160008373ffffffffffffffffffffffffffffffffffffffff1673ffffffffffffffffffffffffffffffffffffffff16815260200190815260200160002060009054906101000a900460ff16905092915050565b612b7c816007612e5f90919063ffffffff16565b8073ffffffffffffffffffffffffffffffffffffffff167fee1504a83b6d4a361f4c1dc78ab59bfa30d6a3b6612c403e86bb01ef2984295f60405160405180910390a250565b612bd6816007612f3c90919063ffffffff16565b8073ffffffffffffffffffffffffffffffffffffffff167f270d9b30cf5b0793bbfd54c9d5b94aeb49462b8148399000265144a8722da6b660405160405180910390a250565b612c30816006612f3c90919063ffffffff16565b8073ffffffffffffffffffffffffffffffffffffffff167f0a8eb35e5ca14b3d6f28e4abf2f128dbab231a58b56e89beb5d636115001e16560405160405180910390a250565b612c8a816006612e5f90919063ffffffff16565b8073ffffffffffffffffffffffffffffffffffffffff167f22380c05984257a1cb900161c713dd71d39e74820f1aea43bd3f1bdd2096129960405160405180910390a250565b600083600073ffffffffffffffffffffffffffffffffffffffff168173ffffffffffffffffffffffffffffffffffffffff1614151515612d0f57600080fd5b60055491506080604051908101604052808673ffffffffffffffffffffffffffffffffffffffff1681526020018581526020018481526020016000151581525060008084815260200190815260200160002060008201518160000160006101000a81548173ffffffffffffffffffffffffffffffffffffffff021916908373ffffffffffffffffffffffffffffffffffffffff160217905550602082015181600101556040820151816002019080519060200190612dce92919061306a565b5060608201518160030160006101000a81548160ff0219169083151502179055509050506001600560008282540192505081905550817fc0ba8fe4b176c1714197d43b9cc6bcf797a4a7461c5fe8d0ef6e184ae7601e5160405160405180910390a2509392505050565b6000806040516020840160008287838a8c6187965a03f19250505080915050949350505050565b612e698282612a45565b151515612ede576040517f08c379a000000000000000000000000000000000000000000000000000000000815260040180806020018281038252601f8152602001807f526f6c65733a206163636f756e7420616c72656164792068617320726f6c650081525060200191505060405180910390fd5b60018260000160008373ffffffffffffffffffffffffffffffffffffffff1673ffffffffffffffffffffffffffffffffffffffff16815260200190815260200160002060006101000a81548160ff0219169083151502179055505050565b612f468282612a45565b1515612fe0576040517f08c379a00000000000000000000000000000000000000000000000000000000081526004018080602001828103825260218152602001807f526f6c65733a206163636f756e7420646f6573206e6f74206861766520726f6c81526020017f650000000000000000000000000000000000000000000000000000000000000081525060400191505060405180910390fd5b60008260000160008373ffffffffffffffffffffffffffffffffffffffff1673ffffffffffffffffffffffffffffffffffffffff16815260200190815260200160002060006101000a81548160ff0219169083151502179055505050565b8154818355818111156130655781836000526020600020918201910161306491906130ea565b5b505050565b828054600181600116156101000203166002900490600052602060002090601f016020900481019282601f106130ab57805160ff19168380011785556130d9565b828001600101855582156130d9579182015b828111156130d85782518255916020019190600101906130bd565b5b5090506130e691906130ea565b5090565b61310c91905b808211156131085760008160009055506001016130f0565b5090565b9056fea165627a7a723058207b542b6c9fa71922b8921668111c4ced9d6da069a5c3cea54ba8c742914f972d0029",
  "source": "pragma solidity ^0.5.0;\nimport \"./roles/WhitelistedRole.sol\";\nimport \"./multisig/MultiSigWallet.sol\";\nimport './math/SafeMath.sol';\n/**\n * @title Region\n * @dev Region is responsible for creating fundable region.  The region will have money / funds sent to it\n * and the funds will be managed by a ConditionalEscrow smart contract.  This smart contract will only release\n * funds when a specific condition is met (still TBD).  The Region smart contract also inherits a WhitelistedRole\n * smart contract and with this contract, the Region smart contract can control who is sending funds to\n * the region.\n */\ncontract Region is MultiSigWallet, WhitelistedRole {\n    using SafeMath for uint256;\n    string public nameOfRegion;\n    address public regionCreatedBy;\n    uint256 public numberOfSchools;\n    uint256 public totalAreaOfRegion;\n    mapping(address => uint256) private _deposits;\n    constructor (\n        string memory _nameOfRegion,\n        uint256 _numberOfSchools,\n        uint256 _totalAreaOfRegion,\n        address[] memory ownersOfMultiSigWallet,\n        uint signaturesRequiredForMultiSigWallet\n    ) MultiSigWallet(\n        ownersOfMultiSigWallet,\n        signaturesRequiredForMultiSigWallet\n    ) public {\n        nameOfRegion = _nameOfRegion;\n        numberOfSchools = _numberOfSchools;\n        totalAreaOfRegion = _totalAreaOfRegion;\n        regionCreatedBy = msg.sender;\n    }\n    function depositsOf(\n        address payee\n    ) public view returns (uint256) {\n        return _deposits[payee];\n    }\n    function()\n        external\n        onlyWhitelisted\n        payable\n    {\n        if (msg.value > 0) {\n            emit Deposit(msg.sender, msg.value);\n            uint256 amount = msg.value;\n            _deposits[msg.sender] = _deposits[msg.sender].add(amount);\n        }\n    }\n}\n",
  "sourcePath": "/Users/mehranhydary/Desktop/dev/connect-bc/regions-blockchain/contracts/Region.sol",
  "compiler": {
    "name": "solc",
    "version": "0.5.0+commit.1d4f565a.Emscripten.clang"
  },
  "schemaVersion": "3.0.0",
  "updatedAt": "2019-08-28T21:16:53.783Z",
  "devdoc": {
    "details": "Region is responsible for creating fundable region.  The region will have money / funds sent to it and the funds will be managed by a ConditionalEscrow smart contract.  This smart contract will only release funds when a specific condition is met (still TBD).  The Region smart contract also inherits a WhitelistedRole smart contract and with this contract, the Region smart contract can control who is sending funds to the region.",
    "methods": {
      "addOwner(address)": {
        "details": "Allows to add a new owner. Transaction has to be sent by wallet.",
        "params": {
          "owner": "Address of new owner."
        }
      },
      "changeRequirement(uint256)": {
        "details": "Allows to change the number of required confirmations. Transaction has to be sent by wallet.",
        "params": {
          "_required": "Number of required confirmations."
        }
      },
      "confirmTransaction(uint256)": {
        "details": "Allows an owner to confirm a transaction.",
        "params": {
          "transactionId": "Transaction ID."
        }
      },
      "executeTransaction(uint256)": {
        "details": "Allows anyone to execute a confirmed transaction.",
        "params": {
          "transactionId": "Transaction ID."
        }
      },
      "getConfirmationCount(uint256)": {
        "details": "Returns number of confirmations of a transaction.",
        "params": {
          "transactionId": "Transaction ID."
        },
        "return": "Number of confirmations."
      },
      "getConfirmations(uint256)": {
        "details": "Returns array with owner addresses, which confirmed transaction.",
        "params": {
          "transactionId": "Transaction ID."
        },
        "return": "Returns array of owner addresses."
      },
      "getOwners()": {
        "details": "Returns list of owners.",
        "return": "List of owner addresses."
      },
      "getTransactionCount(bool,bool)": {
        "details": "Returns total number of transactions after filers are applied.",
        "params": {
          "executed": "Include executed transactions.",
          "pending": "Include pending transactions."
        },
        "return": "Total number of transactions after filters are applied."
      },
      "getTransactionIds(uint256,uint256,bool,bool)": {
        "details": "Returns list of transaction IDs in defined range.",
        "params": {
          "executed": "Include executed transactions.",
          "from": "Index start position of transaction array.",
          "pending": "Include pending transactions.",
          "to": "Index end position of transaction array."
        },
        "return": "Returns array of transaction IDs."
      },
      "isConfirmed(uint256)": {
        "details": "Returns the confirmation status of a transaction.",
        "params": {
          "transactionId": "Transaction ID."
        },
        "return": "Confirmation status."
      },
      "removeOwner(address)": {
        "details": "Allows to remove an owner. Transaction has to be sent by wallet.",
        "params": {
          "owner": "Address of owner."
        }
      },
      "replaceOwner(address,address)": {
        "details": "Allows to replace an owner with a new owner. Transaction has to be sent by wallet.",
        "params": {
          "newOwner": "Address of new owner.",
          "owner": "Address of owner to be replaced."
        }
      },
      "revokeConfirmation(uint256)": {
        "details": "Allows an owner to revoke a confirmation for a transaction.",
        "params": {
          "transactionId": "Transaction ID."
        }
      },
      "submitTransaction(address,uint256,bytes)": {
        "details": "Allows an owner to submit and confirm a transaction.",
        "params": {
          "data": "Transaction data payload.",
          "destination": "Transaction target address.",
          "value": "Transaction ether value."
        },
        "return": "Returns transaction ID."
      }
    },
    "title": "Region"
  },
  "userdoc": {
    "methods": {}
  }
}