{
  "contractName": "WhitelistedRole",
  "abi": [
    {
      "constant": false,
      "inputs": [],
      "name": "renounceWhitelistAdmin",
      "outputs": [],
      "payable": false,
      "stateMutability": "nonpayable",
      "type": "function"
    },
    {
      "constant": false,
      "inputs": [
        {
          "name": "account",
          "type": "address"
        }
      ],
      "name": "addWhitelistAdmin",
      "outputs": [],
      "payable": false,
      "stateMutability": "nonpayable",
      "type": "function"
    },
    {
      "constant": true,
      "inputs": [
        {
          "name": "account",
          "type": "address"
        }
      ],
      "name": "isWhitelistAdmin",
      "outputs": [
        {
          "name": "",
          "type": "bool"
        }
      ],
      "payable": false,
      "stateMutability": "view",
      "type": "function"
    },
    {
      "anonymous": false,
      "inputs": [
        {
          "indexed": true,
          "name": "account",
          "type": "address"
        }
      ],
      "name": "WhitelistedAdded",
      "type": "event"
    },
    {
      "anonymous": false,
      "inputs": [
        {
          "indexed": true,
          "name": "account",
          "type": "address"
        }
      ],
      "name": "WhitelistedRemoved",
      "type": "event"
    },
    {
      "anonymous": false,
      "inputs": [
        {
          "indexed": true,
          "name": "account",
          "type": "address"
        }
      ],
      "name": "WhitelistAdminAdded",
      "type": "event"
    },
    {
      "anonymous": false,
      "inputs": [
        {
          "indexed": true,
          "name": "account",
          "type": "address"
        }
      ],
      "name": "WhitelistAdminRemoved",
      "type": "event"
    },
    {
      "constant": true,
      "inputs": [
        {
          "name": "account",
          "type": "address"
        }
      ],
      "name": "isWhitelisted",
      "outputs": [
        {
          "name": "",
          "type": "bool"
        }
      ],
      "payable": false,
      "stateMutability": "view",
      "type": "function"
    },
    {
      "constant": false,
      "inputs": [
        {
          "name": "account",
          "type": "address"
        }
      ],
      "name": "addWhitelisted",
      "outputs": [],
      "payable": false,
      "stateMutability": "nonpayable",
      "type": "function"
    },
    {
      "constant": false,
      "inputs": [
        {
          "name": "account",
          "type": "address"
        }
      ],
      "name": "removeWhitelisted",
      "outputs": [],
      "payable": false,
      "stateMutability": "nonpayable",
      "type": "function"
    },
    {
      "constant": false,
      "inputs": [],
      "name": "renounceWhitelisted",
      "outputs": [],
      "payable": false,
      "stateMutability": "nonpayable",
      "type": "function"
    }
  ],
  "bytecode": "0x608060405261001c33610021640100000000026401000000009004565b610297565b61004281600061008864010000000002610763179091906401000000009004565b8073ffffffffffffffffffffffffffffffffffffffff167f22380c05984257a1cb900161c713dd71d39e74820f1aea43bd3f1bdd2096129960405160405180910390a250565b6100a18282610174640100000000026401000000009004565b151515610116576040517f08c379a000000000000000000000000000000000000000000000000000000000815260040180806020018281038252601f8152602001807f526f6c65733a206163636f756e7420616c72656164792068617320726f6c650081525060200191505060405180910390fd5b60018260000160008373ffffffffffffffffffffffffffffffffffffffff1673ffffffffffffffffffffffffffffffffffffffff16815260200190815260200160002060006101000a81548160ff0219169083151502179055505050565b60008073ffffffffffffffffffffffffffffffffffffffff168273ffffffffffffffffffffffffffffffffffffffff1614151515610240576040517f08c379a00000000000000000000000000000000000000000000000000000000081526004018080602001828103825260228152602001807f526f6c65733a206163636f756e7420697320746865207a65726f20616464726581526020017f737300000000000000000000000000000000000000000000000000000000000081525060400191505060405180910390fd5b8260000160008373ffffffffffffffffffffffffffffffffffffffff1673ffffffffffffffffffffffffffffffffffffffff16815260200190815260200160002060009054906101000a900460ff16905092915050565b61096e806102a66000396000f3fe608060405260043610610083576000357c0100000000000000000000000000000000000000000000000000000000900463ffffffff16806310154bad14610088578063291d9549146100d95780633af32abf1461012a5780634c5a628c146101935780637362d9c8146101aa578063bb5f747b146101fb578063d6cd947314610264575b600080fd5b34801561009457600080fd5b506100d7600480360360208110156100ab57600080fd5b81019080803573ffffffffffffffffffffffffffffffffffffffff16906020019092919050505061027b565b005b3480156100e557600080fd5b50610128600480360360208110156100fc57600080fd5b81019080803573ffffffffffffffffffffffffffffffffffffffff16906020019092919050505061032a565b005b34801561013657600080fd5b506101796004803603602081101561014d57600080fd5b81019080803573ffffffffffffffffffffffffffffffffffffffff1690602001909291905050506103d9565b604051808215151515815260200191505060405180910390f35b34801561019f57600080fd5b506101a86103f6565b005b3480156101b657600080fd5b506101f9600480360360208110156101cd57600080fd5b81019080803573ffffffffffffffffffffffffffffffffffffffff169060200190929190505050610401565b005b34801561020757600080fd5b5061024a6004803603602081101561021e57600080fd5b81019080803573ffffffffffffffffffffffffffffffffffffffff1690602001909291905050506104b0565b604051808215151515815260200191505060405180910390f35b34801561027057600080fd5b506102796104cd565b005b610284336104b0565b151561031e576040517f08c379a00000000000000000000000000000000000000000000000000000000081526004018080602001828103825260408152602001807f57686974656c69737441646d696e526f6c653a2063616c6c657220646f65732081526020017f6e6f742068617665207468652057686974656c69737441646d696e20726f6c6581525060400191505060405180910390fd5b610327816104d8565b50565b610333336104b0565b15156103cd576040517f08c379a00000000000000000000000000000000000000000000000000000000081526004018080602001828103825260408152602001807f57686974656c69737441646d696e526f6c653a2063616c6c657220646f65732081526020017f6e6f742068617665207468652057686974656c69737441646d696e20726f6c6581525060400191505060405180910390fd5b6103d681610532565b50565b60006103ef82600161058c90919063ffffffff16565b9050919050565b6103ff336106af565b565b61040a336104b0565b15156104a4576040517f08c379a00000000000000000000000000000000000000000000000000000000081526004018080602001828103825260408152602001807f57686974656c69737441646d696e526f6c653a2063616c6c657220646f65732081526020017f6e6f742068617665207468652057686974656c69737441646d696e20726f6c6581525060400191505060405180910390fd5b6104ad81610709565b50565b60006104c682600061058c90919063ffffffff16565b9050919050565b6104d633610532565b565b6104ec81600161076390919063ffffffff16565b8073ffffffffffffffffffffffffffffffffffffffff167fee1504a83b6d4a361f4c1dc78ab59bfa30d6a3b6612c403e86bb01ef2984295f60405160405180910390a250565b61054681600161084090919063ffffffff16565b8073ffffffffffffffffffffffffffffffffffffffff167f270d9b30cf5b0793bbfd54c9d5b94aeb49462b8148399000265144a8722da6b660405160405180910390a250565b60008073ffffffffffffffffffffffffffffffffffffffff168273ffffffffffffffffffffffffffffffffffffffff1614151515610658576040517f08c379a00000000000000000000000000000000000000000000000000000000081526004018080602001828103825260228152602001807f526f6c65733a206163636f756e7420697320746865207a65726f20616464726581526020017f737300000000000000000000000000000000000000000000000000000000000081525060400191505060405180910390fd5b8260000160008373ffffffffffffffffffffffffffffffffffffffff1673ffffffffffffffffffffffffffffffffffffffff16815260200190815260200160002060009054906101000a900460ff16905092915050565b6106c381600061084090919063ffffffff16565b8073ffffffffffffffffffffffffffffffffffffffff167f0a8eb35e5ca14b3d6f28e4abf2f128dbab231a58b56e89beb5d636115001e16560405160405180910390a250565b61071d81600061076390919063ffffffff16565b8073ffffffffffffffffffffffffffffffffffffffff167f22380c05984257a1cb900161c713dd71d39e74820f1aea43bd3f1bdd2096129960405160405180910390a250565b61076d828261058c565b1515156107e2576040517f08c379a000000000000000000000000000000000000000000000000000000000815260040180806020018281038252601f8152602001807f526f6c65733a206163636f756e7420616c72656164792068617320726f6c650081525060200191505060405180910390fd5b60018260000160008373ffffffffffffffffffffffffffffffffffffffff1673ffffffffffffffffffffffffffffffffffffffff16815260200190815260200160002060006101000a81548160ff0219169083151502179055505050565b61084a828261058c565b15156108e4576040517f08c379a00000000000000000000000000000000000000000000000000000000081526004018080602001828103825260218152602001807f526f6c65733a206163636f756e7420646f6573206e6f74206861766520726f6c81526020017f650000000000000000000000000000000000000000000000000000000000000081525060400191505060405180910390fd5b60008260000160008373ffffffffffffffffffffffffffffffffffffffff1673ffffffffffffffffffffffffffffffffffffffff16815260200190815260200160002060006101000a81548160ff021916908315150217905550505056fea165627a7a72305820f4c737bb2ab68706d4811c3f45ef0775efb5da77cfd36c4ea5b43a2019ebf33e0029",
  "source": "pragma solidity ^0.5.0;\n\nimport \"./Roles.sol\";\nimport \"./WhitelistAdminRole.sol\";\n\n/**\n * @title WhitelistedRole\n * @dev Whitelisted accounts have been approved by a WhitelistAdmin to perform certain actions (e.g. participate in a\n * crowdsale). This role is special in that the only accounts that can add it are WhitelistAdmins (who can also remove\n * it), and not Whitelisteds themselves.\n */\ncontract WhitelistedRole is WhitelistAdminRole {\n    using Roles for Roles.Role;\n\n    event WhitelistedAdded(address indexed account);\n    event WhitelistedRemoved(address indexed account);\n\n    Roles.Role private _whitelisteds;\n\n    modifier onlyWhitelisted() {\n        require(isWhitelisted(msg.sender), \"WhitelistedRole: caller does not have the Whitelisted role\");\n        _;\n    }\n\n    function isWhitelisted(address account) public view returns (bool) {\n        return _whitelisteds.has(account);\n    }\n\n    function addWhitelisted(address account) public onlyWhitelistAdmin {\n        _addWhitelisted(account);\n    }\n\n    function removeWhitelisted(address account) public onlyWhitelistAdmin {\n        _removeWhitelisted(account);\n    }\n\n    function renounceWhitelisted() public {\n        _removeWhitelisted(msg.sender);\n    }\n\n    function _addWhitelisted(address account) internal {\n        _whitelisteds.add(account);\n        emit WhitelistedAdded(account);\n    }\n\n    function _removeWhitelisted(address account) internal {\n        _whitelisteds.remove(account);\n        emit WhitelistedRemoved(account);\n    }\n}",
  "sourcePath": "/Users/mehranhydary/Desktop/dev/connect-bc/regions-blockchain/contracts/roles/WhitelistedRole.sol",
  "compiler": {
    "name": "solc",
    "version": "0.5.0+commit.1d4f565a.Emscripten.clang"
  },
  "schemaVersion": "3.0.0",
  "updatedAt": "2019-08-05T20:10:28.801Z",
  "devdoc": {
    "details": "Whitelisted accounts have been approved by a WhitelistAdmin to perform certain actions (e.g. participate in a crowdsale). This role is special in that the only accounts that can add it are WhitelistAdmins (who can also remove it), and not Whitelisteds themselves.",
    "methods": {},
    "title": "WhitelistedRole"
  },
  "userdoc": {
    "methods": {}
  }
}