{
  "contractName": "AddressStorageLogic",
  "abi": [
    {
      "constant": true,
      "inputs": [
        {
          "name": "_address",
          "type": "address"
        }
      ],
      "name": "isAllowedFactProvider",
      "outputs": [
        {
          "name": "",
          "type": "bool"
        }
      ],
      "payable": false,
      "stateMutability": "view",
      "type": "function"
    },
    {
      "constant": false,
      "inputs": [
        {
          "name": "_onlyWhitelist",
          "type": "bool"
        }
      ],
      "name": "setWhitelistOnlyPermission",
      "outputs": [],
      "payable": false,
      "stateMutability": "nonpayable",
      "type": "function"
    },
    {
      "constant": false,
      "inputs": [],
      "name": "claimOwnership",
      "outputs": [],
      "payable": false,
      "stateMutability": "nonpayable",
      "type": "function"
    },
    {
      "constant": true,
      "inputs": [],
      "name": "isWhitelistOnlyPermissionSet",
      "outputs": [
        {
          "name": "",
          "type": "bool"
        }
      ],
      "payable": false,
      "stateMutability": "view",
      "type": "function"
    },
    {
      "constant": false,
      "inputs": [
        {
          "name": "_address",
          "type": "address"
        }
      ],
      "name": "removeFactProviderFromWhitelist",
      "outputs": [],
      "payable": false,
      "stateMutability": "nonpayable",
      "type": "function"
    },
    {
      "constant": true,
      "inputs": [
        {
          "name": "",
          "type": "uint256"
        }
      ],
      "name": "privateDataExchanges",
      "outputs": [
        {
          "name": "dataRequester",
          "type": "address"
        },
        {
          "name": "dataRequesterValue",
          "type": "uint256"
        },
        {
          "name": "passportOwner",
          "type": "address"
        },
        {
          "name": "passportOwnerValue",
          "type": "uint256"
        },
        {
          "name": "factProvider",
          "type": "address"
        },
        {
          "name": "key",
          "type": "bytes32"
        },
        {
          "name": "dataIPFSHash",
          "type": "string"
        },
        {
          "name": "dataKeyHash",
          "type": "bytes32"
        },
        {
          "name": "encryptedExchangeKey",
          "type": "bytes"
        },
        {
          "name": "exchangeKeyHash",
          "type": "bytes32"
        },
        {
          "name": "encryptedDataKey",
          "type": "bytes32"
        },
        {
          "name": "state",
          "type": "uint8"
        },
        {
          "name": "stateExpired",
          "type": "uint256"
        }
      ],
      "payable": false,
      "stateMutability": "view",
      "type": "function"
    },
    {
      "constant": false,
      "inputs": [],
      "name": "renounceOwnership",
      "outputs": [],
      "payable": false,
      "stateMutability": "nonpayable",
      "type": "function"
    },
    {
      "constant": true,
      "inputs": [
        {
          "name": "_address",
          "type": "address"
        }
      ],
      "name": "isFactProviderInWhitelist",
      "outputs": [
        {
          "name": "",
          "type": "bool"
        }
      ],
      "payable": false,
      "stateMutability": "view",
      "type": "function"
    },
    {
      "constant": true,
      "inputs": [],
      "name": "owner",
      "outputs": [
        {
          "name": "",
          "type": "address"
        }
      ],
      "payable": false,
      "stateMutability": "view",
      "type": "function"
    },
    {
      "constant": false,
      "inputs": [
        {
          "name": "_address",
          "type": "address"
        }
      ],
      "name": "addFactProviderToWhitelist",
      "outputs": [],
      "payable": false,
      "stateMutability": "nonpayable",
      "type": "function"
    },
    {
      "constant": true,
      "inputs": [],
      "name": "openPrivateDataExchangesCount",
      "outputs": [
        {
          "name": "",
          "type": "uint256"
        }
      ],
      "payable": false,
      "stateMutability": "view",
      "type": "function"
    },
    {
      "constant": true,
      "inputs": [],
      "name": "pendingOwner",
      "outputs": [
        {
          "name": "",
          "type": "address"
        }
      ],
      "payable": false,
      "stateMutability": "view",
      "type": "function"
    },
    {
      "constant": false,
      "inputs": [
        {
          "name": "newOwner",
          "type": "address"
        }
      ],
      "name": "transferOwnership",
      "outputs": [],
      "payable": false,
      "stateMutability": "nonpayable",
      "type": "function"
    },
    {
      "anonymous": false,
      "inputs": [
        {
          "indexed": true,
          "name": "factProvider",
          "type": "address"
        },
        {
          "indexed": true,
          "name": "key",
          "type": "bytes32"
        }
      ],
      "name": "AddressUpdated",
      "type": "event"
    },
    {
      "anonymous": false,
      "inputs": [
        {
          "indexed": true,
          "name": "factProvider",
          "type": "address"
        },
        {
          "indexed": true,
          "name": "key",
          "type": "bytes32"
        }
      ],
      "name": "AddressDeleted",
      "type": "event"
    },
    {
      "anonymous": false,
      "inputs": [
        {
          "indexed": true,
          "name": "onlyWhitelist",
          "type": "bool"
        }
      ],
      "name": "WhitelistOnlyPermissionSet",
      "type": "event"
    },
    {
      "anonymous": false,
      "inputs": [
        {
          "indexed": true,
          "name": "factProvider",
          "type": "address"
        }
      ],
      "name": "WhitelistFactProviderAdded",
      "type": "event"
    },
    {
      "anonymous": false,
      "inputs": [
        {
          "indexed": true,
          "name": "factProvider",
          "type": "address"
        }
      ],
      "name": "WhitelistFactProviderRemoved",
      "type": "event"
    },
    {
      "anonymous": false,
      "inputs": [
        {
          "indexed": true,
          "name": "previousOwner",
          "type": "address"
        }
      ],
      "name": "OwnershipRenounced",
      "type": "event"
    },
    {
      "anonymous": false,
      "inputs": [
        {
          "indexed": true,
          "name": "previousOwner",
          "type": "address"
        },
        {
          "indexed": true,
          "name": "newOwner",
          "type": "address"
        }
      ],
      "name": "OwnershipTransferred",
      "type": "event"
    },
    {
      "constant": false,
      "inputs": [
        {
          "name": "_key",
          "type": "bytes32"
        },
        {
          "name": "_value",
          "type": "address"
        }
      ],
      "name": "setAddress",
      "outputs": [],
      "payable": false,
      "stateMutability": "nonpayable",
      "type": "function"
    },
    {
      "constant": false,
      "inputs": [
        {
          "name": "_key",
          "type": "bytes32"
        }
      ],
      "name": "deleteAddress",
      "outputs": [],
      "payable": false,
      "stateMutability": "nonpayable",
      "type": "function"
    },
    {
      "constant": true,
      "inputs": [
        {
          "name": "_factProvider",
          "type": "address"
        },
        {
          "name": "_key",
          "type": "bytes32"
        }
      ],
      "name": "getAddress",
      "outputs": [
        {
          "name": "success",
          "type": "bool"
        },
        {
          "name": "value",
          "type": "address"
        }
      ],
      "payable": false,
      "stateMutability": "view",
      "type": "function"
    }
  ],
  "bytecode": "0x608060405260405180807f6f72672e6d6f6e657468612e70726f78792e706175736564000000000000000081525060180190506040518091039020600019167f9e7945c55c116aa3404b99fe56db7af9613d3b899554a437c2616a4749a94d8a6001026000191614151561006f57fe5b60405180807f6f72672e6d6f6e657468612e70726f78792e6f776e657200000000000000000081525060170190506040518091039020600019167f3ca57e4b51fc2e18497b219410298879868edada7e6fe5132c8feceb0a080d22600102600019161415156100da57fe5b6100f233610162640100000000026401000000009004565b60405180807f6f72672e6d6f6e657468612e70726f78792e70656e64696e674f776e65720000815250601e0190506040518091039020600019167fcfd0c6ea5352192d7d4c5d4e7a73c5da12c871730cb60ff57879cbe7b403bb526001026000191614151561015d57fe5b610191565b60007f3ca57e4b51fc2e18497b219410298879868edada7e6fe5132c8feceb0a080d2260010290508181555050565b6113e1806101a06000396000f3006080604052600436106100e6576000357c0100000000000000000000000000000000000000000000000000000000900463ffffffff1680630e14a376146100eb578063208881581461011c5780632b42a89a146101775780634e71e0c8146101a657806361a2d076146101bd5780636d4e7802146101ec5780636f618f9a1461022f578063715018a6146104405780637ac4ed64146104575780638ae44a08146104f35780638da5cb5b1461054e578063ac0aeb1a146105a5578063ca446dd9146105e8578063caa95f1b14610639578063e30c397814610664578063f2fde38b146106bb575b600080fd5b3480156100f757600080fd5b5061011a60048036038101908080356000191690602001909291905050506106fe565b005b34801561012857600080fd5b5061015d600480360381019080803573ffffffffffffffffffffffffffffffffffffffff16906020019092919050505061070a565b604051808215151515815260200191505060405180910390f35b34801561018357600080fd5b506101a46004803603810190808035151590602001909291905050506107b5565b005b3480156101b257600080fd5b506101bb610842565b005b3480156101c957600080fd5b506101d2610984565b604051808215151515815260200191505060405180910390f35b3480156101f857600080fd5b5061022d600480360381019080803573ffffffffffffffffffffffffffffffffffffffff16906020019092919050505061099b565b005b34801561023b57600080fd5b5061025a60048036038101908080359060200190929190505050610a71565b604051808e73ffffffffffffffffffffffffffffffffffffffff1673ffffffffffffffffffffffffffffffffffffffff1681526020018d81526020018c73ffffffffffffffffffffffffffffffffffffffff1673ffffffffffffffffffffffffffffffffffffffff1681526020018b81526020018a73ffffffffffffffffffffffffffffffffffffffff1673ffffffffffffffffffffffffffffffffffffffff1681526020018960001916600019168152602001806020018860001916600019168152602001806020018760001916600019168152602001866000191660001916815260200185600281111561034c57fe5b60ff16815260200184815260200183810383528a818151815260200191508051906020019080838360005b83811015610392578082015181840152602081019050610377565b50505050905090810190601f1680156103bf5780820380516001836020036101000a031916815260200191505b50838103825288818151815260200191508051906020019080838360005b838110156103f85780820151818401526020810190506103dd565b50505050905090810190601f1680156104255780820380516001836020036101000a031916815260200191505b509f5050505050505050505050505050505060405180910390f35b34801561044c57600080fd5b50610455610c83565b005b34801561046357600080fd5b506104a6600480360381019080803573ffffffffffffffffffffffffffffffffffffffff1690602001909291908035600019169060200190929190505050610d97565b60405180831515151581526020018273ffffffffffffffffffffffffffffffffffffffff1673ffffffffffffffffffffffffffffffffffffffff1681526020019250505060405180910390f35b3480156104ff57600080fd5b50610534600480360381019080803573ffffffffffffffffffffffffffffffffffffffff169060200190929190505050610daf565b604051808215151515815260200191505060405180910390f35b34801561055a57600080fd5b50610563610e05565b604051808273ffffffffffffffffffffffffffffffffffffffff1673ffffffffffffffffffffffffffffffffffffffff16815260200191505060405180910390f35b3480156105b157600080fd5b506105e6600480360381019080803573ffffffffffffffffffffffffffffffffffffffff169060200190929190505050610e14565b005b3480156105f457600080fd5b506106376004803603810190808035600019169060200190929190803573ffffffffffffffffffffffffffffffffffffffff169060200190929190505050610ef3565b005b34801561064557600080fd5b5061064e610f01565b6040518082815260200191505060405180910390f35b34801561067057600080fd5b50610679610f07565b604051808273ffffffffffffffffffffffffffffffffffffffff1673ffffffffffffffffffffffffffffffffffffffff16815260200191505060405180910390f35b3480156106c757600080fd5b506106fc600480360381019080803573ffffffffffffffffffffffffffffffffffffffff169060200190929190505050610f16565b005b61070781610fe0565b50565b6000600760009054906101000a900460ff1615806107715750600860008373ffffffffffffffffffffffffffffffffffffffff1673ffffffffffffffffffffffffffffffffffffffff16815260200190815260200160002060009054906101000a900460ff165b806107ae575061077f6110d4565b73ffffffffffffffffffffffffffffffffffffffff168273ffffffffffffffffffffffffffffffffffffffff16145b9050919050565b6107bd6110d4565b73ffffffffffffffffffffffffffffffffffffffff163373ffffffffffffffffffffffffffffffffffffffff161415156107f657600080fd5b80600760006101000a81548160ff0219169083151502179055508015157f6e1eb3fa845047cf9d5fd1deb1b7770b4e26163dd4d88cefb14fe7964a70059560405160405180910390a250565b61084a611105565b73ffffffffffffffffffffffffffffffffffffffff163373ffffffffffffffffffffffffffffffffffffffff1614151561088357600080fd5b61088b611136565b151515610900576040517f08c379a000000000000000000000000000000000000000000000000000000000815260040180806020018281038252601d8152602001807f636f6e74726163742073686f756c64206e6f742062652070617573656400000081525060200191505060405180910390fd5b610908611105565b73ffffffffffffffffffffffffffffffffffffffff166109266110d4565b73ffffffffffffffffffffffffffffffffffffffff167f8be0079c531659141344cd1fd0a4f28419497f9722a3daafe3b4186f6b6457e060405160405180910390a3610978610973611105565b611167565b6109826000611196565b565b6000600760009054906101000a900460ff16905090565b6109a36110d4565b73ffffffffffffffffffffffffffffffffffffffff163373ffffffffffffffffffffffffffffffffffffffff161415156109dc57600080fd5b600860008273ffffffffffffffffffffffffffffffffffffffff1673ffffffffffffffffffffffffffffffffffffffff16815260200190815260200160002060006101000a81549060ff02191690558073ffffffffffffffffffffffffffffffffffffffff167f5bf47f016603dfff957e6086bd9a350212686e8f1d9208b3db47c5a3107c787860405160405180910390a250565b600c81815481101515610a8057fe5b90600052602060002090600d02016000915090508060000160009054906101000a900473ffffffffffffffffffffffffffffffffffffffff16908060010154908060020160009054906101000a900473ffffffffffffffffffffffffffffffffffffffff16908060030154908060040160009054906101000a900473ffffffffffffffffffffffffffffffffffffffff1690806005015490806006018054600181600116156101000203166002900480601f016020809104026020016040519081016040528092919081815260200182805460018160011615610100020316600290048015610bb05780601f10610b8557610100808354040283529160200191610bb0565b820191906000526020600020905b815481529060010190602001808311610b9357829003601f168201915b505050505090806007015490806008018054600181600116156101000203166002900480601f016020809104026020016040519081016040528092919081815260200182805460018160011615610100020316600290048015610c545780601f10610c2957610100808354040283529160200191610c54565b820191906000526020600020905b815481529060010190602001808311610c3757829003601f168201915b50505050509080600901549080600a01549080600b0160009054906101000a900460ff169080600c015490508d565b610c8b6110d4565b73ffffffffffffffffffffffffffffffffffffffff163373ffffffffffffffffffffffffffffffffffffffff16141515610cc457600080fd5b610ccc611136565b151515610d41576040517f08c379a000000000000000000000000000000000000000000000000000000000815260040180806020018281038252601d8152602001807f636f6e74726163742073686f756c64206e6f742062652070617573656400000081525060200191505060405180910390fd5b610d496110d4565b73ffffffffffffffffffffffffffffffffffffffff167ff8df31144d9c2f0f6b59d69b8b98abd5459d07f2742c4df920b25aae33c6482060405160405180910390a2610d956000611167565b565b600080610da484846111c5565b915091509250929050565b6000600860008373ffffffffffffffffffffffffffffffffffffffff1673ffffffffffffffffffffffffffffffffffffffff16815260200190815260200160002060009054906101000a900460ff169050919050565b6000610e0f6110d4565b905090565b610e1c6110d4565b73ffffffffffffffffffffffffffffffffffffffff163373ffffffffffffffffffffffffffffffffffffffff16141515610e5557600080fd5b6001600860008373ffffffffffffffffffffffffffffffffffffffff1673ffffffffffffffffffffffffffffffffffffffff16815260200190815260200160002060006101000a81548160ff0219169083151502179055508073ffffffffffffffffffffffffffffffffffffffff167fff8ac5f0e9cdc8f7ffbbc29ab1301ee649cf01cf7a6a9265a2d90587612c417560405160405180910390a250565b610efd8282611266565b5050565b600b5481565b6000610f11611105565b905090565b610f1e6110d4565b73ffffffffffffffffffffffffffffffffffffffff163373ffffffffffffffffffffffffffffffffffffffff16141515610f5757600080fd5b610f5f611136565b151515610fd4576040517f08c379a000000000000000000000000000000000000000000000000000000000815260040180806020018281038252601d8152602001807f636f6e74726163742073686f756c64206e6f742062652070617573656400000081525060200191505060405180910390fd5b610fdd81611196565b50565b610fe93361070a565b1515610ff457600080fd5b6000803373ffffffffffffffffffffffffffffffffffffffff1673ffffffffffffffffffffffffffffffffffffffff16815260200190815260200160002060008260001916600019168152602001908152602001600020600080820160006101000a81549060ff02191690556000820160016101000a81549073ffffffffffffffffffffffffffffffffffffffff0219169055505080600019163373ffffffffffffffffffffffffffffffffffffffff167fed9474c4702ee9da4d0d2085840fafed5912b8e13daf1d6ea341ebe98803aec260405160405180910390a350565b6000807f3ca57e4b51fc2e18497b219410298879868edada7e6fe5132c8feceb0a080d226001029050805491505090565b6000807fcfd0c6ea5352192d7d4c5d4e7a73c5da12c871730cb60ff57879cbe7b403bb526001029050805491505090565b6000807f9e7945c55c116aa3404b99fe56db7af9613d3b899554a437c2616a4749a94d8a6001029050805491505090565b60007f3ca57e4b51fc2e18497b219410298879868edada7e6fe5132c8feceb0a080d2260010290508181555050565b60007fcfd0c6ea5352192d7d4c5d4e7a73c5da12c871730cb60ff57879cbe7b403bb5260010290508181555050565b60008060008060008673ffffffffffffffffffffffffffffffffffffffff1673ffffffffffffffffffffffffffffffffffffffff1681526020019081526020016000206000856000191660001916815260200190815260200160002090508060000160009054906101000a900460ff168160000160019054906101000a900473ffffffffffffffffffffffffffffffffffffffff1692509250509250929050565b61126f3361070a565b151561127a57600080fd5b60408051908101604052806001151581526020018273ffffffffffffffffffffffffffffffffffffffff168152506000803373ffffffffffffffffffffffffffffffffffffffff1673ffffffffffffffffffffffffffffffffffffffff1681526020019081526020016000206000846000191660001916815260200190815260200160002060008201518160000160006101000a81548160ff02191690831515021790555060208201518160000160016101000a81548173ffffffffffffffffffffffffffffffffffffffff021916908373ffffffffffffffffffffffffffffffffffffffff16021790555090505081600019163373ffffffffffffffffffffffffffffffffffffffff167f8e7e6ab6c4613205e833e1faf5415d78dd10130a8828f729c08036e2a7a6277060405160405180910390a350505600a165627a7a72305820b5b6ce17bb116b96080e1870053327d369931f14e8f4d3713c18c43a38e97d9b0029",
  "source": "pragma solidity ^0.4.24;\r\n\r\nimport \"./Storage.sol\";\r\n\r\ncontract AddressStorageLogic is Storage {\r\n    event AddressUpdated(address indexed factProvider, bytes32 indexed key);\r\n    event AddressDeleted(address indexed factProvider, bytes32 indexed key);\r\n\r\n    /// @param _key The key for the record\r\n    /// @param _value The value for the record\r\n    function setAddress(bytes32 _key, address _value) external {\r\n        _setAddress(_key, _value);\r\n    }\r\n\r\n    /// @param _key The key for the record\r\n    function deleteAddress(bytes32 _key) external {\r\n        _deleteAddress(_key);\r\n    }\r\n\r\n    /// @param _factProvider The fact provider\r\n    /// @param _key The key for the record\r\n    function getAddress(address _factProvider, bytes32 _key) external view returns (bool success, address value) {\r\n        return _getAddress(_factProvider, _key);\r\n    }\r\n\r\n    function _setAddress(bytes32 _key, address _value) allowedFactProvider internal {\r\n        addressStorage[msg.sender][_key] = AddressValue({\r\n            initialized : true,\r\n            value : _value\r\n            });\r\n        emit AddressUpdated(msg.sender, _key);\r\n    }\r\n\r\n    function _deleteAddress(bytes32 _key) allowedFactProvider internal {\r\n        delete addressStorage[msg.sender][_key];\r\n        emit AddressDeleted(msg.sender, _key);\r\n    }\r\n\r\n    function _getAddress(address _factProvider, bytes32 _key) internal view returns (bool success, address value) {\r\n        AddressValue storage initValue = addressStorage[_factProvider][_key];\r\n        return (initValue.initialized, initValue.value);\r\n    }\r\n}",
  "sourcePath": "c:\\UNICEF\\dev\\connect-bc\\bids-api\\blockchain\\contracts\\storage\\AddressStorageLogic.sol",
  "compiler": {
    "name": "solc",
    "version": "0.4.25+commit.59dbf8f1.Emscripten.clang"
  },
  "schemaVersion": "3.0.23",
  "updatedAt": "2020-04-28T17:42:08.749Z",
  "devdoc": {
    "methods": {
      "claimOwnership()": {
        "details": "Allows the pendingOwner address to finalize the transfer.\r"
      },
      "deleteAddress(bytes32)": {
        "params": {
          "_key": "The key for the record"
        }
      },
      "getAddress(address,bytes32)": {
        "params": {
          "_key": "The key for the record"
        }
      },
      "owner()": {
        "return": "The owner address.\r"
      },
      "renounceOwnership()": {
        "details": "Allows the current owner to relinquish control of the contract.\r"
      },
      "setAddress(bytes32,address)": {
        "params": {
          "_value": "The value for the record"
        }
      },
      "transferOwnership(address)": {
        "details": "Allows the current owner to set the pendingOwner address.\r",
        "params": {
          "newOwner": "The address to transfer ownership to.\r"
        }
      }
    }
  },
  "userdoc": {
    "methods": {
      "addFactProviderToWhitelist(address)": {
        "notice": "Allows owner to add fact provider to whitelist.\r"
      },
      "isAllowedFactProvider(address)": {
        "notice": "Returns true when the given address is an allowed fact provider.\r"
      },
      "isFactProviderInWhitelist(address)": {
        "notice": "Returns true if fact provider is added to the whitelist.\r"
      },
      "isWhitelistOnlyPermissionSet()": {
        "notice": "Returns true when a whitelist of fact providers is enabled.\r"
      },
      "removeFactProviderFromWhitelist(address)": {
        "notice": "Allows owner to remove fact provider from whitelist.\r"
      },
      "renounceOwnership()": {
        "notice": "Renouncing to ownership will leave the contract without an owner.\r It will not be possible to call the functions with the `onlyOwner`\r modifier anymore.\r"
      },
      "setWhitelistOnlyPermission(bool)": {
        "notice": "Enables or disables the use of a whitelist of fact providers.\r"
      }
    }
  }
}