{
  "contractName": "Claimable",
  "abi": [
    {
      "constant": true,
      "inputs": [],
      "name": "owner",
      "outputs": [
        {
          "name": "",
          "type": "address"
        }
      ],
      "payable": false,
      "stateMutability": "view",
      "type": "function"
    },
    {
      "constant": true,
      "inputs": [],
      "name": "pendingOwner",
      "outputs": [
        {
          "name": "",
          "type": "address"
        }
      ],
      "payable": false,
      "stateMutability": "view",
      "type": "function"
    },
    {
      "anonymous": false,
      "inputs": [
        {
          "indexed": true,
          "name": "previousOwner",
          "type": "address"
        },
        {
          "indexed": true,
          "name": "newOwner",
          "type": "address"
        }
      ],
      "name": "OwnershipTransferred",
      "type": "event"
    },
    {
      "constant": false,
      "inputs": [
        {
          "name": "newOwner",
          "type": "address"
        }
      ],
      "name": "transferOwnership",
      "outputs": [],
      "payable": false,
      "stateMutability": "nonpayable",
      "type": "function"
    },
    {
      "constant": false,
      "inputs": [],
      "name": "claimOwnership",
      "outputs": [],
      "payable": false,
      "stateMutability": "nonpayable",
      "type": "function"
    }
  ],
  "bytecode": "0x6080604052336000806101000a81548173ffffffffffffffffffffffffffffffffffffffff021916908373ffffffffffffffffffffffffffffffffffffffff160217905550610424806100536000396000f300608060405260043610610062576000357c0100000000000000000000000000000000000000000000000000000000900463ffffffff1680634e71e0c8146100675780638da5cb5b1461007e578063e30c3978146100d5578063f2fde38b1461012c575b600080fd5b34801561007357600080fd5b5061007c61016f565b005b34801561008a57600080fd5b5061009361030e565b604051808273ffffffffffffffffffffffffffffffffffffffff1673ffffffffffffffffffffffffffffffffffffffff16815260200191505060405180910390f35b3480156100e157600080fd5b506100ea610333565b604051808273ffffffffffffffffffffffffffffffffffffffff1673ffffffffffffffffffffffffffffffffffffffff16815260200191505060405180910390f35b34801561013857600080fd5b5061016d600480360381019080803573ffffffffffffffffffffffffffffffffffffffff169060200190929190505050610359565b005b600160009054906101000a900473ffffffffffffffffffffffffffffffffffffffff1673ffffffffffffffffffffffffffffffffffffffff163373ffffffffffffffffffffffffffffffffffffffff161415156101cb57600080fd5b600160009054906101000a900473ffffffffffffffffffffffffffffffffffffffff1673ffffffffffffffffffffffffffffffffffffffff166000809054906101000a900473ffffffffffffffffffffffffffffffffffffffff1673ffffffffffffffffffffffffffffffffffffffff167f8be0079c531659141344cd1fd0a4f28419497f9722a3daafe3b4186f6b6457e060405160405180910390a3600160009054906101000a900473ffffffffffffffffffffffffffffffffffffffff166000806101000a81548173ffffffffffffffffffffffffffffffffffffffff021916908373ffffffffffffffffffffffffffffffffffffffff1602179055506000600160006101000a81548173ffffffffffffffffffffffffffffffffffffffff021916908373ffffffffffffffffffffffffffffffffffffffff160217905550565b6000809054906101000a900473ffffffffffffffffffffffffffffffffffffffff1681565b600160009054906101000a900473ffffffffffffffffffffffffffffffffffffffff1681565b6000809054906101000a900473ffffffffffffffffffffffffffffffffffffffff1673ffffffffffffffffffffffffffffffffffffffff163373ffffffffffffffffffffffffffffffffffffffff161415156103b457600080fd5b80600160006101000a81548173ffffffffffffffffffffffffffffffffffffffff021916908373ffffffffffffffffffffffffffffffffffffffff160217905550505600a165627a7a72305820fbe5d155e4bcb1b985d83e0003ac77c185f24ac8fac9290e4c2e33dbf3dfb8ce0029",
  "source": "pragma solidity ^0.4.11;\r\n\r\n\r\nimport './Ownable.sol';\r\n\r\n\r\n/**\r\n * @title Claimable\r\n * @dev Extension for the Ownable contract, where the ownership needs to be claimed.\r\n * This allows the new owner to accept the transfer.\r\n */\r\ncontract Claimable is Ownable {\r\n  address public pendingOwner;\r\n\r\n  /**\r\n   * @dev Modifier throws if called by any account other than the pendingOwner.\r\n   */\r\n  modifier onlyPendingOwner() {\r\n    require(msg.sender == pendingOwner);\r\n    _;\r\n  }\r\n\r\n  /**\r\n   * @dev Allows the current owner to set the pendingOwner address.\r\n   * @param newOwner The address to transfer ownership to.\r\n   */\r\n  function transferOwnership(address newOwner) onlyOwner public {\r\n    pendingOwner = newOwner;\r\n  }\r\n\r\n  /**\r\n   * @dev Allows the pendingOwner address to finalize the transfer.\r\n   */\r\n  function claimOwnership() onlyPendingOwner public {\r\n    OwnershipTransferred(owner, pendingOwner);\r\n    owner = pendingOwner;\r\n    pendingOwner = 0x0;\r\n  }\r\n}\r\n",
  "sourcePath": "c:\\UNICEF\\dev\\connect-bc\\bids-api\\blockchain\\contracts\\openzeppelin-solidity\\contracts\\ownership\\Claimable.sol",
  "compiler": {
    "name": "solc",
    "version": "0.4.25+commit.59dbf8f1.Emscripten.clang"
  },
  "schemaVersion": "3.0.23",
  "updatedAt": "2020-04-28T17:42:08.633Z",
  "devdoc": {
    "methods": {
      "claimOwnership()": {
        "details": "Allows the pendingOwner address to finalize the transfer.\r"
      },
      "transferOwnership(address)": {
        "details": "Allows the current owner to set the pendingOwner address.\r",
        "params": {
          "newOwner": "The address to transfer ownership to.\r"
        }
      }
    },
    "title": "Claimable\r"
  },
  "userdoc": {
    "methods": {}
  }
}