{
  "contractName": "ClaimableProxyMock",
  "abi": [
    {
      "constant": false,
      "inputs": [],
      "name": "claimOwnership",
      "outputs": [],
      "payable": false,
      "stateMutability": "nonpayable",
      "type": "function"
    },
    {
      "constant": false,
      "inputs": [],
      "name": "renounceOwnership",
      "outputs": [],
      "payable": false,
      "stateMutability": "nonpayable",
      "type": "function"
    },
    {
      "constant": true,
      "inputs": [],
      "name": "owner",
      "outputs": [
        {
          "name": "",
          "type": "address"
        }
      ],
      "payable": false,
      "stateMutability": "view",
      "type": "function"
    },
    {
      "constant": true,
      "inputs": [],
      "name": "pendingOwner",
      "outputs": [
        {
          "name": "",
          "type": "address"
        }
      ],
      "payable": false,
      "stateMutability": "view",
      "type": "function"
    },
    {
      "constant": false,
      "inputs": [
        {
          "name": "newOwner",
          "type": "address"
        }
      ],
      "name": "transferOwnership",
      "outputs": [],
      "payable": false,
      "stateMutability": "nonpayable",
      "type": "function"
    },
    {
      "anonymous": false,
      "inputs": [
        {
          "indexed": true,
          "name": "previousOwner",
          "type": "address"
        }
      ],
      "name": "OwnershipRenounced",
      "type": "event"
    },
    {
      "anonymous": false,
      "inputs": [
        {
          "indexed": true,
          "name": "previousOwner",
          "type": "address"
        },
        {
          "indexed": true,
          "name": "newOwner",
          "type": "address"
        }
      ],
      "name": "OwnershipTransferred",
      "type": "event"
    },
    {
      "constant": false,
      "inputs": [],
      "name": "pause",
      "outputs": [],
      "payable": false,
      "stateMutability": "nonpayable",
      "type": "function"
    },
    {
      "constant": false,
      "inputs": [],
      "name": "unpause",
      "outputs": [],
      "payable": false,
      "stateMutability": "nonpayable",
      "type": "function"
    }
  ],
  "bytecode": "0x608060405260405180807f6f72672e6d6f6e657468612e70726f78792e706175736564000000000000000081525060180190506040518091039020600019167f9e7945c55c116aa3404b99fe56db7af9613d3b899554a437c2616a4749a94d8a6001026000191614151561006f57fe5b60405180807f6f72672e6d6f6e657468612e70726f78792e6f776e657200000000000000000081525060170190506040518091039020600019167f3ca57e4b51fc2e18497b219410298879868edada7e6fe5132c8feceb0a080d22600102600019161415156100da57fe5b6100f233610162640100000000026401000000009004565b60405180807f6f72672e6d6f6e657468612e70726f78792e70656e64696e674f776e65720000815250601e0190506040518091039020600019167fcfd0c6ea5352192d7d4c5d4e7a73c5da12c871730cb60ff57879cbe7b403bb526001026000191614151561015d57fe5b610191565b60007f3ca57e4b51fc2e18497b219410298879868edada7e6fe5132c8feceb0a080d2260010290508181555050565b610677806101a06000396000f300608060405260043610610083576000357c0100000000000000000000000000000000000000000000000000000000900463ffffffff1680633f4ba83a146100885780634e71e0c81461009f578063715018a6146100b65780638456cb59146100cd5780638da5cb5b146100e4578063e30c39781461013b578063f2fde38b14610192575b600080fd5b34801561009457600080fd5b5061009d6101d5565b005b3480156100ab57600080fd5b506100b46101e1565b005b3480156100c257600080fd5b506100cb610323565b005b3480156100d957600080fd5b506100e2610437565b005b3480156100f057600080fd5b506100f9610443565b604051808273ffffffffffffffffffffffffffffffffffffffff1673ffffffffffffffffffffffffffffffffffffffff16815260200191505060405180910390f35b34801561014757600080fd5b50610150610452565b604051808273ffffffffffffffffffffffffffffffffffffffff1673ffffffffffffffffffffffffffffffffffffffff16815260200191505060405180910390f35b34801561019e57600080fd5b506101d3600480360381019080803573ffffffffffffffffffffffffffffffffffffffff169060200190929190505050610461565b005b6101df600061052b565b565b6101e961055a565b73ffffffffffffffffffffffffffffffffffffffff163373ffffffffffffffffffffffffffffffffffffffff1614151561022257600080fd5b61022a61058b565b15151561029f576040517f08c379a000000000000000000000000000000000000000000000000000000000815260040180806020018281038252601d8152602001807f636f6e74726163742073686f756c64206e6f742062652070617573656400000081525060200191505060405180910390fd5b6102a761055a565b73ffffffffffffffffffffffffffffffffffffffff166102c56105bc565b73ffffffffffffffffffffffffffffffffffffffff167f8be0079c531659141344cd1fd0a4f28419497f9722a3daafe3b4186f6b6457e060405160405180910390a361031761031261055a565b6105ed565b610321600061061c565b565b61032b6105bc565b73ffffffffffffffffffffffffffffffffffffffff163373ffffffffffffffffffffffffffffffffffffffff1614151561036457600080fd5b61036c61058b565b1515156103e1576040517f08c379a000000000000000000000000000000000000000000000000000000000815260040180806020018281038252601d8152602001807f636f6e74726163742073686f756c64206e6f742062652070617573656400000081525060200191505060405180910390fd5b6103e96105bc565b73ffffffffffffffffffffffffffffffffffffffff167ff8df31144d9c2f0f6b59d69b8b98abd5459d07f2742c4df920b25aae33c6482060405160405180910390a261043560006105ed565b565b610441600161052b565b565b600061044d6105bc565b905090565b600061045c61055a565b905090565b6104696105bc565b73ffffffffffffffffffffffffffffffffffffffff163373ffffffffffffffffffffffffffffffffffffffff161415156104a257600080fd5b6104aa61058b565b15151561051f576040517f08c379a000000000000000000000000000000000000000000000000000000000815260040180806020018281038252601d8152602001807f636f6e74726163742073686f756c64206e6f742062652070617573656400000081525060200191505060405180910390fd5b6105288161061c565b50565b60007f9e7945c55c116aa3404b99fe56db7af9613d3b899554a437c2616a4749a94d8a60010290508181555050565b6000807fcfd0c6ea5352192d7d4c5d4e7a73c5da12c871730cb60ff57879cbe7b403bb526001029050805491505090565b6000807f9e7945c55c116aa3404b99fe56db7af9613d3b899554a437c2616a4749a94d8a6001029050805491505090565b6000807f3ca57e4b51fc2e18497b219410298879868edada7e6fe5132c8feceb0a080d226001029050805491505090565b60007f3ca57e4b51fc2e18497b219410298879868edada7e6fe5132c8feceb0a080d2260010290508181555050565b60007fcfd0c6ea5352192d7d4c5d4e7a73c5da12c871730cb60ff57879cbe7b403bb52600102905081815550505600a165627a7a723058201d6735e2d0990e2a39e2d187c72c93085fe0684eaa542b68a65725697d02eeaf0029",
  "source": "pragma solidity ^0.4.24;\n\nimport \"../ownership/ClaimableProxy.sol\";\n\ncontract ClaimableProxyMock is ClaimableProxy {\n    function pause() public {\n        _setPaused(true);\n    }\n\n    function unpause() public {\n        _setPaused(false);\n    }\n}",
  "sourcePath": "/Users/mehranhydary/Desktop/dev/connect-bc/bids-api/blockchain/contracts/mocks/ClaimableProxyMock.sol",
  "compiler": {
    "name": "solc",
    "version": "0.4.25+commit.59dbf8f1.Emscripten.clang"
  },
  "schemaVersion": "3.0.0",
  "updatedAt": "2019-09-20T21:39:24.002Z",
  "devdoc": {
    "methods": {
      "claimOwnership()": {
        "details": "Allows the pendingOwner address to finalize the transfer."
      },
      "owner()": {
        "return": "The owner address."
      },
      "renounceOwnership()": {
        "details": "Allows the current owner to relinquish control of the contract."
      },
      "transferOwnership(address)": {
        "details": "Allows the current owner to set the pendingOwner address.",
        "params": {
          "newOwner": "The address to transfer ownership to."
        }
      }
    }
  },
  "userdoc": {
    "methods": {
      "renounceOwnership()": {
        "notice": "Renouncing to ownership will leave the contract without an owner. It will not be possible to call the functions with the `onlyOwner` modifier anymore."
      }
    }
  }
}