{
  "contractName": "Crowdsale",
  "abi": [
    {
      "constant": true,
      "inputs": [],
      "name": "rate",
      "outputs": [
        {
          "name": "",
          "type": "uint256"
        }
      ],
      "payable": false,
      "stateMutability": "view",
      "type": "function"
    },
    {
      "constant": true,
      "inputs": [],
      "name": "endTime",
      "outputs": [
        {
          "name": "",
          "type": "uint256"
        }
      ],
      "payable": false,
      "stateMutability": "view",
      "type": "function"
    },
    {
      "constant": true,
      "inputs": [],
      "name": "weiRaised",
      "outputs": [
        {
          "name": "",
          "type": "uint256"
        }
      ],
      "payable": false,
      "stateMutability": "view",
      "type": "function"
    },
    {
      "constant": true,
      "inputs": [],
      "name": "wallet",
      "outputs": [
        {
          "name": "",
          "type": "address"
        }
      ],
      "payable": false,
      "stateMutability": "view",
      "type": "function"
    },
    {
      "constant": true,
      "inputs": [],
      "name": "startTime",
      "outputs": [
        {
          "name": "",
          "type": "uint256"
        }
      ],
      "payable": false,
      "stateMutability": "view",
      "type": "function"
    },
    {
      "constant": true,
      "inputs": [],
      "name": "token",
      "outputs": [
        {
          "name": "",
          "type": "address"
        }
      ],
      "payable": false,
      "stateMutability": "view",
      "type": "function"
    },
    {
      "inputs": [
        {
          "name": "_startTime",
          "type": "uint256"
        },
        {
          "name": "_endTime",
          "type": "uint256"
        },
        {
          "name": "_rate",
          "type": "uint256"
        },
        {
          "name": "_wallet",
          "type": "address"
        }
      ],
      "payable": false,
      "stateMutability": "nonpayable",
      "type": "constructor"
    },
    {
      "payable": true,
      "stateMutability": "payable",
      "type": "fallback"
    },
    {
      "anonymous": false,
      "inputs": [
        {
          "indexed": true,
          "name": "purchaser",
          "type": "address"
        },
        {
          "indexed": true,
          "name": "beneficiary",
          "type": "address"
        },
        {
          "indexed": false,
          "name": "value",
          "type": "uint256"
        },
        {
          "indexed": false,
          "name": "amount",
          "type": "uint256"
        }
      ],
      "name": "TokenPurchase",
      "type": "event"
    },
    {
      "constant": false,
      "inputs": [
        {
          "name": "beneficiary",
          "type": "address"
        }
      ],
      "name": "buyTokens",
      "outputs": [],
      "payable": true,
      "stateMutability": "payable",
      "type": "function"
    },
    {
      "constant": true,
      "inputs": [],
      "name": "hasEnded",
      "outputs": [
        {
          "name": "",
          "type": "bool"
        }
      ],
      "payable": false,
      "stateMutability": "view",
      "type": "function"
    }
  ],
  "bytecode": "0x608060405234801561001057600080fd5b50604051608080611ca28339810180604052810190808051906020019092919080519060200190929190805190602001909291908051906020019092919050505042841015151561006057600080fd5b83831015151561006f57600080fd5b60008211151561007e57600080fd5b60008173ffffffffffffffffffffffffffffffffffffffff16141515156100a457600080fd5b6100bb610159640100000000026401000000009004565b6000806101000a81548173ffffffffffffffffffffffffffffffffffffffff021916908373ffffffffffffffffffffffffffffffffffffffff16021790555083600181905550826002819055508160048190555080600360006101000a81548173ffffffffffffffffffffffffffffffffffffffff021916908373ffffffffffffffffffffffffffffffffffffffff16021790555050505050610195565b6000610163610185565b604051809103906000f08015801561017f573d6000803e3d6000fd5b50905090565b6040516115318061077183390190565b6105cd806101a46000396000f30060806040526004361061008e576000357c0100000000000000000000000000000000000000000000000000000000900463ffffffff1680632c4e722e146100995780633197cbb6146100c45780634042b66f146100ef578063521eb2731461011a57806378e9792514610171578063ec8ac4d81461019c578063ecb70fb7146101d2578063fc0c546a14610201575b61009733610258565b005b3480156100a557600080fd5b506100ae610443565b6040518082815260200191505060405180910390f35b3480156100d057600080fd5b506100d9610449565b6040518082815260200191505060405180910390f35b3480156100fb57600080fd5b5061010461044f565b6040518082815260200191505060405180910390f35b34801561012657600080fd5b5061012f610455565b604051808273ffffffffffffffffffffffffffffffffffffffff1673ffffffffffffffffffffffffffffffffffffffff16815260200191505060405180910390f35b34801561017d57600080fd5b5061018661047b565b6040518082815260200191505060405180910390f35b6101d0600480360381019080803573ffffffffffffffffffffffffffffffffffffffff169060200190929190505050610258565b005b3480156101de57600080fd5b506101e7610481565b604051808215151515815260200191505060405180910390f35b34801561020d57600080fd5b5061021661048d565b604051808273ffffffffffffffffffffffffffffffffffffffff1673ffffffffffffffffffffffffffffffffffffffff16815260200191505060405180910390f35b60008060008373ffffffffffffffffffffffffffffffffffffffff161415151561028157600080fd5b6102896104b2565b151561029457600080fd5b3491506102ac600454836104e590919063ffffffff16565b90506102c38260055461051890919063ffffffff16565b6005819055506000809054906101000a900473ffffffffffffffffffffffffffffffffffffffff1673ffffffffffffffffffffffffffffffffffffffff166340c10f1984836040518363ffffffff167c0100000000000000000000000000000000000000000000000000000000028152600401808373ffffffffffffffffffffffffffffffffffffffff1673ffffffffffffffffffffffffffffffffffffffff16815260200182815260200192505050602060405180830381600087803b15801561038d57600080fd5b505af11580156103a1573d6000803e3d6000fd5b505050506040513d60208110156103b757600080fd5b8101908080519060200190929190505050508273ffffffffffffffffffffffffffffffffffffffff163373ffffffffffffffffffffffffffffffffffffffff167f623b3804fa71d67900d064613da8f94b9617215ee90799290593e1745087ad188484604051808381526020018281526020019250505060405180910390a361043e610536565b505050565b60045481565b60025481565b60055481565b600360009054906101000a900473ffffffffffffffffffffffffffffffffffffffff1681565b60015481565b60006002544211905090565b6000809054906101000a900473ffffffffffffffffffffffffffffffffffffffff1681565b600080600060015442101580156104cb57506002544211155b9150600034141590508180156104de5750805b9250505090565b60008082840290506000841480610506575082848281151561050357fe5b04145b151561050e57fe5b8091505092915050565b600080828401905083811015151561052c57fe5b8091505092915050565b600360009054906101000a900473ffffffffffffffffffffffffffffffffffffffff1673ffffffffffffffffffffffffffffffffffffffff166108fc349081150290604051600060405180830381858888f1935050505015801561059e573d6000803e3d6000fd5b505600a165627a7a723058205a7c9852277a2761881020a8995a14d36cf85a65f4650777087707c00d713e61002960806040526000600360146101000a81548160ff02191690831515021790555033600360006101000a81548173ffffffffffffffffffffffffffffffffffffffff021916908373ffffffffffffffffffffffffffffffffffffffff1602179055506114c28061006f6000396000f3006080604052600436106100c5576000357c0100000000000000000000000000000000000000000000000000000000900463ffffffff16806305d2035b146100ca578063095ea7b3146100f957806318160ddd1461015e57806323b872dd1461018957806340c10f191461020e578063661884631461027357806370a08231146102d85780637d64bcb41461032f5780638da5cb5b1461035e578063a9059cbb146103b5578063d73dd6231461041a578063dd62ed3e1461047f578063f2fde38b146104f6575b600080fd5b3480156100d657600080fd5b506100df610539565b604051808215151515815260200191505060405180910390f35b34801561010557600080fd5b50610144600480360381019080803573ffffffffffffffffffffffffffffffffffffffff1690602001909291908035906020019092919050505061054c565b604051808215151515815260200191505060405180910390f35b34801561016a57600080fd5b5061017361063e565b6040518082815260200191505060405180910390f35b34801561019557600080fd5b506101f4600480360381019080803573ffffffffffffffffffffffffffffffffffffffff169060200190929190803573ffffffffffffffffffffffffffffffffffffffff16906020019092919080359060200190929190505050610644565b604051808215151515815260200191505060405180910390f35b34801561021a57600080fd5b50610259600480360381019080803573ffffffffffffffffffffffffffffffffffffffff16906020019092919080359060200190929190505050610930565b604051808215151515815260200191505060405180910390f35b34801561027f57600080fd5b506102be600480360381019080803573ffffffffffffffffffffffffffffffffffffffff16906020019092919080359060200190929190505050610b02565b604051808215151515815260200191505060405180910390f35b3480156102e457600080fd5b50610319600480360381019080803573ffffffffffffffffffffffffffffffffffffffff169060200190929190505050610d93565b6040518082815260200191505060405180910390f35b34801561033b57600080fd5b50610344610ddc565b604051808215151515815260200191505060405180910390f35b34801561036a57600080fd5b50610373610e88565b604051808273ffffffffffffffffffffffffffffffffffffffff1673ffffffffffffffffffffffffffffffffffffffff16815260200191505060405180910390f35b3480156103c157600080fd5b50610400600480360381019080803573ffffffffffffffffffffffffffffffffffffffff16906020019092919080359060200190929190505050610eae565b604051808215151515815260200191505060405180910390f35b34801561042657600080fd5b50610465600480360381019080803573ffffffffffffffffffffffffffffffffffffffff16906020019092919080359060200190929190505050611084565b604051808215151515815260200191505060405180910390f35b34801561048b57600080fd5b506104e0600480360381019080803573ffffffffffffffffffffffffffffffffffffffff169060200190929190803573ffffffffffffffffffffffffffffffffffffffff169060200190929190505050611280565b6040518082815260200191505060405180910390f35b34801561050257600080fd5b50610537600480360381019080803573ffffffffffffffffffffffffffffffffffffffff169060200190929190505050611307565b005b600360149054906101000a900460ff1681565b600081600260003373ffffffffffffffffffffffffffffffffffffffff1673ffffffffffffffffffffffffffffffffffffffff16815260200190815260200160002060008573ffffffffffffffffffffffffffffffffffffffff1673ffffffffffffffffffffffffffffffffffffffff168152602001908152602001600020819055508273ffffffffffffffffffffffffffffffffffffffff163373ffffffffffffffffffffffffffffffffffffffff167f8c5be1e5ebec7d5bd14f71427d1e84f3dd0314c0f7b2291e5b200ac8c7c3b925846040518082815260200191505060405180910390a36001905092915050565b60005481565b600080600073ffffffffffffffffffffffffffffffffffffffff168473ffffffffffffffffffffffffffffffffffffffff161415151561068357600080fd5b600260008673ffffffffffffffffffffffffffffffffffffffff1673ffffffffffffffffffffffffffffffffffffffff16815260200190815260200160002060003373ffffffffffffffffffffffffffffffffffffffff1673ffffffffffffffffffffffffffffffffffffffff16815260200190815260200160002054905061075483600160008873ffffffffffffffffffffffffffffffffffffffff1673ffffffffffffffffffffffffffffffffffffffff1681526020019081526020016000205461145f90919063ffffffff16565b600160008773ffffffffffffffffffffffffffffffffffffffff1673ffffffffffffffffffffffffffffffffffffffff168152602001908152602001600020819055506107e983600160008773ffffffffffffffffffffffffffffffffffffffff1673ffffffffffffffffffffffffffffffffffffffff1681526020019081526020016000205461147890919063ffffffff16565b600160008673ffffffffffffffffffffffffffffffffffffffff1673ffffffffffffffffffffffffffffffffffffffff1681526020019081526020016000208190555061083f838261145f90919063ffffffff16565b600260008773ffffffffffffffffffffffffffffffffffffffff1673ffffffffffffffffffffffffffffffffffffffff16815260200190815260200160002060003373ffffffffffffffffffffffffffffffffffffffff1673ffffffffffffffffffffffffffffffffffffffff168152602001908152602001600020819055508373ffffffffffffffffffffffffffffffffffffffff168573ffffffffffffffffffffffffffffffffffffffff167fddf252ad1be2c89b69c2b068fc378daa952ba7f163c4a11628f55a4df523b3ef856040518082815260200191505060405180910390a360019150509392505050565b6000600360009054906101000a900473ffffffffffffffffffffffffffffffffffffffff1673ffffffffffffffffffffffffffffffffffffffff163373ffffffffffffffffffffffffffffffffffffffff1614151561098e57600080fd5b600360149054906101000a900460ff161515156109aa57600080fd5b6109bf8260005461147890919063ffffffff16565b600081905550610a1782600160008673ffffffffffffffffffffffffffffffffffffffff1673ffffffffffffffffffffffffffffffffffffffff1681526020019081526020016000205461147890919063ffffffff16565b600160008573ffffffffffffffffffffffffffffffffffffffff1673ffffffffffffffffffffffffffffffffffffffff168152602001908152602001600020819055508273ffffffffffffffffffffffffffffffffffffffff167f0f6798a560793a54c3bcfe86a93cde1e73087d944c0ea20544137d4121396885836040518082815260200191505060405180910390a28273ffffffffffffffffffffffffffffffffffffffff1660007fddf252ad1be2c89b69c2b068fc378daa952ba7f163c4a11628f55a4df523b3ef846040518082815260200191505060405180910390a36001905092915050565b600080600260003373ffffffffffffffffffffffffffffffffffffffff1673ffffffffffffffffffffffffffffffffffffffff16815260200190815260200160002060008573ffffffffffffffffffffffffffffffffffffffff1673ffffffffffffffffffffffffffffffffffffffff16815260200190815260200160002054905080831115610c13576000600260003373ffffffffffffffffffffffffffffffffffffffff1673ffffffffffffffffffffffffffffffffffffffff16815260200190815260200160002060008673ffffffffffffffffffffffffffffffffffffffff1673ffffffffffffffffffffffffffffffffffffffff16815260200190815260200160002081905550610ca7565b610c26838261145f90919063ffffffff16565b600260003373ffffffffffffffffffffffffffffffffffffffff1673ffffffffffffffffffffffffffffffffffffffff16815260200190815260200160002060008673ffffffffffffffffffffffffffffffffffffffff1673ffffffffffffffffffffffffffffffffffffffff168152602001908152602001600020819055505b8373ffffffffffffffffffffffffffffffffffffffff163373ffffffffffffffffffffffffffffffffffffffff167f8c5be1e5ebec7d5bd14f71427d1e84f3dd0314c0f7b2291e5b200ac8c7c3b925600260003373ffffffffffffffffffffffffffffffffffffffff1673ffffffffffffffffffffffffffffffffffffffff16815260200190815260200160002060008873ffffffffffffffffffffffffffffffffffffffff1673ffffffffffffffffffffffffffffffffffffffff168152602001908152602001600020546040518082815260200191505060405180910390a3600191505092915050565b6000600160008373ffffffffffffffffffffffffffffffffffffffff1673ffffffffffffffffffffffffffffffffffffffff168152602001908152602001600020549050919050565b6000600360009054906101000a900473ffffffffffffffffffffffffffffffffffffffff1673ffffffffffffffffffffffffffffffffffffffff163373ffffffffffffffffffffffffffffffffffffffff16141515610e3a57600080fd5b6001600360146101000a81548160ff0219169083151502179055507fae5184fba832cb2b1f702aca6117b8d265eaf03ad33eb133f19dde0f5920fa0860405160405180910390a16001905090565b600360009054906101000a900473ffffffffffffffffffffffffffffffffffffffff1681565b60008073ffffffffffffffffffffffffffffffffffffffff168373ffffffffffffffffffffffffffffffffffffffff1614151515610eeb57600080fd5b610f3d82600160003373ffffffffffffffffffffffffffffffffffffffff1673ffffffffffffffffffffffffffffffffffffffff1681526020019081526020016000205461145f90919063ffffffff16565b600160003373ffffffffffffffffffffffffffffffffffffffff1673ffffffffffffffffffffffffffffffffffffffff16815260200190815260200160002081905550610fd282600160008673ffffffffffffffffffffffffffffffffffffffff1673ffffffffffffffffffffffffffffffffffffffff1681526020019081526020016000205461147890919063ffffffff16565b600160008573ffffffffffffffffffffffffffffffffffffffff1673ffffffffffffffffffffffffffffffffffffffff168152602001908152602001600020819055508273ffffffffffffffffffffffffffffffffffffffff163373ffffffffffffffffffffffffffffffffffffffff167fddf252ad1be2c89b69c2b068fc378daa952ba7f163c4a11628f55a4df523b3ef846040518082815260200191505060405180910390a36001905092915050565b600061111582600260003373ffffffffffffffffffffffffffffffffffffffff1673ffffffffffffffffffffffffffffffffffffffff16815260200190815260200160002060008673ffffffffffffffffffffffffffffffffffffffff1673ffffffffffffffffffffffffffffffffffffffff1681526020019081526020016000205461147890919063ffffffff16565b600260003373ffffffffffffffffffffffffffffffffffffffff1673ffffffffffffffffffffffffffffffffffffffff16815260200190815260200160002060008573ffffffffffffffffffffffffffffffffffffffff1673ffffffffffffffffffffffffffffffffffffffff168152602001908152602001600020819055508273ffffffffffffffffffffffffffffffffffffffff163373ffffffffffffffffffffffffffffffffffffffff167f8c5be1e5ebec7d5bd14f71427d1e84f3dd0314c0f7b2291e5b200ac8c7c3b925600260003373ffffffffffffffffffffffffffffffffffffffff1673ffffffffffffffffffffffffffffffffffffffff16815260200190815260200160002060008773ffffffffffffffffffffffffffffffffffffffff1673ffffffffffffffffffffffffffffffffffffffff168152602001908152602001600020546040518082815260200191505060405180910390a36001905092915050565b6000600260008473ffffffffffffffffffffffffffffffffffffffff1673ffffffffffffffffffffffffffffffffffffffff16815260200190815260200160002060008373ffffffffffffffffffffffffffffffffffffffff1673ffffffffffffffffffffffffffffffffffffffff16815260200190815260200160002054905092915050565b600360009054906101000a900473ffffffffffffffffffffffffffffffffffffffff1673ffffffffffffffffffffffffffffffffffffffff163373ffffffffffffffffffffffffffffffffffffffff1614151561136357600080fd5b600073ffffffffffffffffffffffffffffffffffffffff168173ffffffffffffffffffffffffffffffffffffffff161415151561139f57600080fd5b8073ffffffffffffffffffffffffffffffffffffffff16600360009054906101000a900473ffffffffffffffffffffffffffffffffffffffff1673ffffffffffffffffffffffffffffffffffffffff167f8be0079c531659141344cd1fd0a4f28419497f9722a3daafe3b4186f6b6457e060405160405180910390a380600360006101000a81548173ffffffffffffffffffffffffffffffffffffffff021916908373ffffffffffffffffffffffffffffffffffffffff16021790555050565b600082821115151561146d57fe5b818303905092915050565b600080828401905083811015151561148c57fe5b80915050929150505600a165627a7a72305820dfbacece40e06464dbb8a3034f2a5e599207162ea42f493e9192f553a84a96990029",
  "source": "pragma solidity ^0.4.11;\r\n\r\nimport '../token/MintableToken.sol';\r\nimport '../math/SafeMath.sol';\r\n\r\n/**\r\n * @title Crowdsale\r\n * @dev Crowdsale is a base contract for managing a token crowdsale.\r\n * Crowdsales have a start and end timestamps, where investors can make\r\n * token purchases and the crowdsale will assign them tokens based\r\n * on a token per ETH rate. Funds collected are forwarded to a wallet\r\n * as they arrive.\r\n */\r\ncontract Crowdsale {\r\n  using SafeMath for uint256;\r\n\r\n  // The token being sold\r\n  MintableToken public token;\r\n\r\n  // start and end timestamps where investments are allowed (both inclusive)\r\n  uint256 public startTime;\r\n  uint256 public endTime;\r\n\r\n  // address where funds are collected\r\n  address public wallet;\r\n\r\n  // how many token units a buyer gets per wei\r\n  uint256 public rate;\r\n\r\n  // amount of raised money in wei\r\n  uint256 public weiRaised;\r\n\r\n  /**\r\n   * event for token purchase logging\r\n   * @param purchaser who paid for the tokens\r\n   * @param beneficiary who got the tokens\r\n   * @param value weis paid for purchase\r\n   * @param amount amount of tokens purchased\r\n   */\r\n  event TokenPurchase(address indexed purchaser, address indexed beneficiary, uint256 value, uint256 amount);\r\n\r\n\r\n  function Crowdsale(uint256 _startTime, uint256 _endTime, uint256 _rate, address _wallet) {\r\n    require(_startTime >= now);\r\n    require(_endTime >= _startTime);\r\n    require(_rate > 0);\r\n    require(_wallet != 0x0);\r\n\r\n    token = createTokenContract();\r\n    startTime = _startTime;\r\n    endTime = _endTime;\r\n    rate = _rate;\r\n    wallet = _wallet;\r\n  }\r\n\r\n  // creates the token to be sold.\r\n  // override this method to have crowdsale of a specific mintable token.\r\n  function createTokenContract() internal returns (MintableToken) {\r\n    return new MintableToken();\r\n  }\r\n\r\n\r\n  // fallback function can be used to buy tokens\r\n  function () payable {\r\n    buyTokens(msg.sender);\r\n  }\r\n\r\n  // low level token purchase function\r\n  function buyTokens(address beneficiary) public payable {\r\n    require(beneficiary != 0x0);\r\n    require(validPurchase());\r\n\r\n    uint256 weiAmount = msg.value;\r\n\r\n    // calculate token amount to be created\r\n    uint256 tokens = weiAmount.mul(rate);\r\n\r\n    // update state\r\n    weiRaised = weiRaised.add(weiAmount);\r\n\r\n    token.mint(beneficiary, tokens);\r\n    TokenPurchase(msg.sender, beneficiary, weiAmount, tokens);\r\n\r\n    forwardFunds();\r\n  }\r\n\r\n  // send ether to the fund collection wallet\r\n  // override to create custom fund forwarding mechanisms\r\n  function forwardFunds() internal {\r\n    wallet.transfer(msg.value);\r\n  }\r\n\r\n  // @return true if the transaction can buy tokens\r\n  function validPurchase() internal constant returns (bool) {\r\n    bool withinPeriod = now >= startTime && now <= endTime;\r\n    bool nonZeroPurchase = msg.value != 0;\r\n    return withinPeriod && nonZeroPurchase;\r\n  }\r\n\r\n  // @return true if crowdsale event has ended\r\n  function hasEnded() public constant returns (bool) {\r\n    return now > endTime;\r\n  }\r\n\r\n\r\n}\r\n",
  "sourcePath": "c:\\UNICEF\\dev\\connect-bc\\bids-api\\blockchain\\contracts\\openzeppelin-solidity\\contracts\\crowdsale\\Crowdsale.sol",
  "compiler": {
    "name": "solc",
    "version": "0.4.25+commit.59dbf8f1.Emscripten.clang"
  },
  "schemaVersion": "3.0.23",
  "updatedAt": "2020-04-28T17:42:08.577Z",
  "devdoc": {
    "methods": {},
    "title": "Crowdsale\r"
  },
  "userdoc": {
    "methods": {}
  }
}