{
  "contractName": "DayLimit",
  "abi": [
    {
      "constant": true,
      "inputs": [],
      "name": "dailyLimit",
      "outputs": [
        {
          "name": "",
          "type": "uint256"
        }
      ],
      "payable": false,
      "stateMutability": "view",
      "type": "function"
    },
    {
      "constant": true,
      "inputs": [],
      "name": "lastDay",
      "outputs": [
        {
          "name": "",
          "type": "uint256"
        }
      ],
      "payable": false,
      "stateMutability": "view",
      "type": "function"
    },
    {
      "constant": true,
      "inputs": [],
      "name": "spentToday",
      "outputs": [
        {
          "name": "",
          "type": "uint256"
        }
      ],
      "payable": false,
      "stateMutability": "view",
      "type": "function"
    },
    {
      "inputs": [
        {
          "name": "_limit",
          "type": "uint256"
        }
      ],
      "payable": false,
      "stateMutability": "nonpayable",
      "type": "constructor"
    }
  ],
  "bytecode": "0x608060405234801561001057600080fd5b50604051602080610190833981018060405281019080805190602001909291905050508060008190555061005161005d640100000000026401000000009004565b60028190555050610073565b6000620151804281151561006d57fe5b04905090565b61010e806100826000396000f3006080604052600436106053576000357c0100000000000000000000000000000000000000000000000000000000900463ffffffff16806367eeba0c1460585780636b0c932d146080578063f059cf2b1460a8575b600080fd5b348015606357600080fd5b50606a60d0565b6040518082815260200191505060405180910390f35b348015608b57600080fd5b50609260d6565b6040518082815260200191505060405180910390f35b34801560b357600080fd5b5060ba60dc565b6040518082815260200191505060405180910390f35b60005481565b60025481565b600154815600a165627a7a72305820eaf0574461fde07cbbcb0472bd6fcf3ee665439243525622653042d8a73b990c0029",
  "source": "pragma solidity ^0.4.11;\n\n/**\n * @title DayLimit\n * @dev Base contract that enables methods to be protected by placing a linear limit (specifiable)\n * on a particular resource per calendar day. Is multiowned to allow the limit to be altered.\n */\ncontract DayLimit {\n\n  uint256 public dailyLimit;\n  uint256 public spentToday;\n  uint256 public lastDay;\n\n  /**\n   * @dev Constructor that sets the passed value as a dailyLimit.\n   * @param _limit uint256 to represent the daily limit.\n   */\n  function DayLimit(uint256 _limit) {\n    dailyLimit = _limit;\n    lastDay = today();\n  }\n\n  /**\n   * @dev sets the daily limit. Does not alter the amount already spent today.\n   * @param _newLimit uint256 to represent the new limit.\n   */\n  function _setDailyLimit(uint256 _newLimit) internal {\n    dailyLimit = _newLimit;\n  }\n\n  /**\n   * @dev Resets the amount already spent today.\n   */\n  function _resetSpentToday() internal {\n    spentToday = 0;\n  }\n\n  /**\n   * @dev Checks to see if there is enough resource to spend today. If true, the resource may be expended.\n   * @param _value uint256 representing the amount of resource to spend.\n   * @return A boolean that is True if the resource was spent and false otherwise.\n   */\n  function underLimit(uint256 _value) internal returns (bool) {\n    // reset the spend limit if we're on a different day to last time.\n    if (today() > lastDay) {\n      spentToday = 0;\n      lastDay = today();\n    }\n    // check to see if there's enough left - if so, subtract and return true.\n    // overflow protection                    // dailyLimit check\n    if (spentToday + _value >= spentToday && spentToday + _value <= dailyLimit) {\n      spentToday += _value;\n      return true;\n    }\n    return false;\n  }\n\n  /**\n   * @dev Private function to determine today's index\n   * @return uint256 of today's index.\n   */\n  function today() private constant returns (uint256) {\n    return now / 1 days;\n  }\n\n  /**\n   * @dev Simple modifier for daily limit.\n   */\n  modifier limitedDaily(uint256 _value) {\n    require(underLimit(_value));\n    _;\n  }\n}\n",
  "sourcePath": "/Users/mehranhydary/Desktop/dev/connect-bc/bids-api/blockchain/contracts/openzeppelin-solidity/contracts/DayLimit.sol",
  "compiler": {
    "name": "solc",
    "version": "0.4.25+commit.59dbf8f1.Emscripten.clang"
  },
  "schemaVersion": "3.0.0",
  "updatedAt": "2019-09-20T21:39:24.005Z",
  "devdoc": {
    "methods": {},
    "title": "DayLimit"
  },
  "userdoc": {
    "methods": {}
  }
}