{
  "contractName": "DayLimit",
  "abi": [
    {
      "constant": true,
      "inputs": [],
      "name": "dailyLimit",
      "outputs": [
        {
          "name": "",
          "type": "uint256"
        }
      ],
      "payable": false,
      "stateMutability": "view",
      "type": "function"
    },
    {
      "constant": true,
      "inputs": [],
      "name": "lastDay",
      "outputs": [
        {
          "name": "",
          "type": "uint256"
        }
      ],
      "payable": false,
      "stateMutability": "view",
      "type": "function"
    },
    {
      "constant": true,
      "inputs": [],
      "name": "spentToday",
      "outputs": [
        {
          "name": "",
          "type": "uint256"
        }
      ],
      "payable": false,
      "stateMutability": "view",
      "type": "function"
    },
    {
      "inputs": [
        {
          "name": "_limit",
          "type": "uint256"
        }
      ],
      "payable": false,
      "stateMutability": "nonpayable",
      "type": "constructor"
    }
  ],
  "bytecode": "0x608060405234801561001057600080fd5b50604051602080610190833981018060405281019080805190602001909291905050508060008190555061005161005d640100000000026401000000009004565b60028190555050610073565b6000620151804281151561006d57fe5b04905090565b61010e806100826000396000f3006080604052600436106053576000357c0100000000000000000000000000000000000000000000000000000000900463ffffffff16806367eeba0c1460585780636b0c932d146080578063f059cf2b1460a8575b600080fd5b348015606357600080fd5b50606a60d0565b6040518082815260200191505060405180910390f35b348015608b57600080fd5b50609260d6565b6040518082815260200191505060405180910390f35b34801560b357600080fd5b5060ba60dc565b6040518082815260200191505060405180910390f35b60005481565b60025481565b600154815600a165627a7a723058207c77286b58b5ce5df017af778faa7ed3ebdeefd2e07b35092ac2d7bc4e64cdf80029",
  "source": "pragma solidity ^0.4.11;\r\n\r\n/**\r\n * @title DayLimit\r\n * @dev Base contract that enables methods to be protected by placing a linear limit (specifiable)\r\n * on a particular resource per calendar day. Is multiowned to allow the limit to be altered.\r\n */\r\ncontract DayLimit {\r\n\r\n  uint256 public dailyLimit;\r\n  uint256 public spentToday;\r\n  uint256 public lastDay;\r\n\r\n  /**\r\n   * @dev Constructor that sets the passed value as a dailyLimit.\r\n   * @param _limit uint256 to represent the daily limit.\r\n   */\r\n  function DayLimit(uint256 _limit) {\r\n    dailyLimit = _limit;\r\n    lastDay = today();\r\n  }\r\n\r\n  /**\r\n   * @dev sets the daily limit. Does not alter the amount already spent today.\r\n   * @param _newLimit uint256 to represent the new limit.\r\n   */\r\n  function _setDailyLimit(uint256 _newLimit) internal {\r\n    dailyLimit = _newLimit;\r\n  }\r\n\r\n  /**\r\n   * @dev Resets the amount already spent today.\r\n   */\r\n  function _resetSpentToday() internal {\r\n    spentToday = 0;\r\n  }\r\n\r\n  /**\r\n   * @dev Checks to see if there is enough resource to spend today. If true, the resource may be expended.\r\n   * @param _value uint256 representing the amount of resource to spend.\r\n   * @return A boolean that is True if the resource was spent and false otherwise.\r\n   */\r\n  function underLimit(uint256 _value) internal returns (bool) {\r\n    // reset the spend limit if we're on a different day to last time.\r\n    if (today() > lastDay) {\r\n      spentToday = 0;\r\n      lastDay = today();\r\n    }\r\n    // check to see if there's enough left - if so, subtract and return true.\r\n    // overflow protection                    // dailyLimit check\r\n    if (spentToday + _value >= spentToday && spentToday + _value <= dailyLimit) {\r\n      spentToday += _value;\r\n      return true;\r\n    }\r\n    return false;\r\n  }\r\n\r\n  /**\r\n   * @dev Private function to determine today's index\r\n   * @return uint256 of today's index.\r\n   */\r\n  function today() private constant returns (uint256) {\r\n    return now / 1 days;\r\n  }\r\n\r\n  /**\r\n   * @dev Simple modifier for daily limit.\r\n   */\r\n  modifier limitedDaily(uint256 _value) {\r\n    require(underLimit(_value));\r\n    _;\r\n  }\r\n}\r\n",
  "sourcePath": "c:\\UNICEF\\dev\\connect-bc\\bids-api\\blockchain\\contracts\\openzeppelin-solidity\\contracts\\DayLimit.sol",
  "compiler": {
    "name": "solc",
    "version": "0.4.25+commit.59dbf8f1.Emscripten.clang"
  },
  "schemaVersion": "3.0.23",
  "updatedAt": "2020-04-28T17:42:08.555Z",
  "devdoc": {
    "methods": {},
    "title": "DayLimit\r"
  },
  "userdoc": {
    "methods": {}
  }
}