{
  "contractName": "DestructibleProxy",
  "abi": [
    {
      "constant": false,
      "inputs": [],
      "name": "renounceOwnership",
      "outputs": [],
      "payable": false,
      "stateMutability": "nonpayable",
      "type": "function"
    },
    {
      "constant": true,
      "inputs": [],
      "name": "owner",
      "outputs": [
        {
          "name": "",
          "type": "address"
        }
      ],
      "payable": false,
      "stateMutability": "view",
      "type": "function"
    },
    {
      "constant": false,
      "inputs": [
        {
          "name": "_newOwner",
          "type": "address"
        }
      ],
      "name": "transferOwnership",
      "outputs": [],
      "payable": false,
      "stateMutability": "nonpayable",
      "type": "function"
    },
    {
      "anonymous": false,
      "inputs": [
        {
          "indexed": true,
          "name": "previousOwner",
          "type": "address"
        }
      ],
      "name": "OwnershipRenounced",
      "type": "event"
    },
    {
      "anonymous": false,
      "inputs": [
        {
          "indexed": true,
          "name": "previousOwner",
          "type": "address"
        },
        {
          "indexed": true,
          "name": "newOwner",
          "type": "address"
        }
      ],
      "name": "OwnershipTransferred",
      "type": "event"
    },
    {
      "constant": false,
      "inputs": [],
      "name": "destroy",
      "outputs": [],
      "payable": false,
      "stateMutability": "nonpayable",
      "type": "function"
    },
    {
      "constant": false,
      "inputs": [
        {
          "name": "_recipient",
          "type": "address"
        }
      ],
      "name": "destroyAndSend",
      "outputs": [],
      "payable": false,
      "stateMutability": "nonpayable",
      "type": "function"
    }
  ],
  "bytecode": "0x608060405260405180807f6f72672e6d6f6e657468612e70726f78792e706175736564000000000000000081525060180190506040518091039020600019167f9e7945c55c116aa3404b99fe56db7af9613d3b899554a437c2616a4749a94d8a6001026000191614151561006f57fe5b60405180807f6f72672e6d6f6e657468612e70726f78792e6f776e657200000000000000000081525060170190506040518091039020600019167f3ca57e4b51fc2e18497b219410298879868edada7e6fe5132c8feceb0a080d22600102600019161415156100da57fe5b6100f2336100f7640100000000026401000000009004565b610126565b60007f3ca57e4b51fc2e18497b219410298879868edada7e6fe5132c8feceb0a080d2260010290508181555050565b610685806101356000396000f30060806040526004361061006d576000357c0100000000000000000000000000000000000000000000000000000000900463ffffffff168063715018a61461007257806383197ef0146100895780638da5cb5b146100a0578063f2fde38b146100f7578063f5074f411461013a575b600080fd5b34801561007e57600080fd5b5061008761017d565b005b34801561009557600080fd5b5061009e610291565b005b3480156100ac57600080fd5b506100b561036f565b604051808273ffffffffffffffffffffffffffffffffffffffff1673ffffffffffffffffffffffffffffffffffffffff16815260200191505060405180910390f35b34801561010357600080fd5b50610138600480360381019080803573ffffffffffffffffffffffffffffffffffffffff16906020019092919050505061037e565b005b34801561014657600080fd5b5061017b600480360381019080803573ffffffffffffffffffffffffffffffffffffffff169060200190929190505050610448565b005b61018561051f565b73ffffffffffffffffffffffffffffffffffffffff163373ffffffffffffffffffffffffffffffffffffffff161415156101be57600080fd5b6101c6610550565b15151561023b576040517f08c379a000000000000000000000000000000000000000000000000000000000815260040180806020018281038252601d8152602001807f636f6e74726163742073686f756c64206e6f742062652070617573656400000081525060200191505060405180910390fd5b61024361051f565b73ffffffffffffffffffffffffffffffffffffffff167ff8df31144d9c2f0f6b59d69b8b98abd5459d07f2742c4df920b25aae33c6482060405160405180910390a261028f6000610581565b565b61029961051f565b73ffffffffffffffffffffffffffffffffffffffff163373ffffffffffffffffffffffffffffffffffffffff161415156102d257600080fd5b6102da610550565b15151561034f576040517f08c379a000000000000000000000000000000000000000000000000000000000815260040180806020018281038252601d8152602001807f636f6e74726163742073686f756c64206e6f742062652070617573656400000081525060200191505060405180910390fd5b61035761051f565b73ffffffffffffffffffffffffffffffffffffffff16ff5b600061037961051f565b905090565b61038661051f565b73ffffffffffffffffffffffffffffffffffffffff163373ffffffffffffffffffffffffffffffffffffffff161415156103bf57600080fd5b6103c7610550565b15151561043c576040517f08c379a000000000000000000000000000000000000000000000000000000000815260040180806020018281038252601d8152602001807f636f6e74726163742073686f756c64206e6f742062652070617573656400000081525060200191505060405180910390fd5b610445816105b0565b50565b61045061051f565b73ffffffffffffffffffffffffffffffffffffffff163373ffffffffffffffffffffffffffffffffffffffff1614151561048957600080fd5b610491610550565b151515610506576040517f08c379a000000000000000000000000000000000000000000000000000000000815260040180806020018281038252601d8152602001807f636f6e74726163742073686f756c64206e6f742062652070617573656400000081525060200191505060405180910390fd5b8073ffffffffffffffffffffffffffffffffffffffff16ff5b6000807f3ca57e4b51fc2e18497b219410298879868edada7e6fe5132c8feceb0a080d226001029050805491505090565b6000807f9e7945c55c116aa3404b99fe56db7af9613d3b899554a437c2616a4749a94d8a6001029050805491505090565b60007f3ca57e4b51fc2e18497b219410298879868edada7e6fe5132c8feceb0a080d2260010290508181555050565b600073ffffffffffffffffffffffffffffffffffffffff168173ffffffffffffffffffffffffffffffffffffffff16141515156105ec57600080fd5b8073ffffffffffffffffffffffffffffffffffffffff1661060b61051f565b73ffffffffffffffffffffffffffffffffffffffff167f8be0079c531659141344cd1fd0a4f28419497f9722a3daafe3b4186f6b6457e060405160405180910390a361065681610581565b505600a165627a7a72305820a3732d07b92ef15f6921c5755dcf6d9f332b706463146f1ce085c4c1a8ea4cc40029",
  "source": "pragma solidity ^0.4.24;\n\nimport \"../ownership/OwnableProxy.sol\";\n\n/**\n * @title Destructible\n * @dev Base contract that can be destroyed by owner. All funds in contract will be sent to the owner.\n */\ncontract DestructibleProxy is OwnableProxy {\n    /**\n     * @dev Transfers the current balance to the owner and terminates the contract.\n     */\n    function destroy() public onlyOwner whenNotPaused {\n        selfdestruct(_getOwner());\n    }\n\n    function destroyAndSend(address _recipient) public onlyOwner whenNotPaused {\n        selfdestruct(_recipient);\n    }\n}\n",
  "sourcePath": "/Users/mehranhydary/Desktop/dev/connect-bc/bids-api/blockchain/contracts/lifecycle/DestructibleProxy.sol",
  "compiler": {
    "name": "solc",
    "version": "0.4.25+commit.59dbf8f1.Emscripten.clang"
  },
  "schemaVersion": "3.0.0",
  "updatedAt": "2019-09-20T21:39:24.002Z",
  "devdoc": {
    "methods": {
      "destroy()": {
        "details": "Transfers the current balance to the owner and terminates the contract."
      },
      "owner()": {
        "return": "The owner address."
      },
      "renounceOwnership()": {
        "details": "Allows the current owner to relinquish control of the contract."
      },
      "transferOwnership(address)": {
        "details": "Allows the current owner to transfer control of the contract to a newOwner.",
        "params": {
          "_newOwner": "The address to transfer ownership to."
        }
      }
    },
    "title": "Destructible"
  },
  "userdoc": {
    "methods": {
      "renounceOwnership()": {
        "notice": "Renouncing to ownership will leave the contract without an owner. It will not be possible to call the functions with the `onlyOwner` modifier anymore."
      }
    }
  }
}