{
  "contractName": "ECRecovery",
  "abi": [
    {
      "constant": true,
      "inputs": [
        {
          "name": "hash",
          "type": "bytes32"
        },
        {
          "name": "sig",
          "type": "bytes"
        }
      ],
      "name": "recover",
      "outputs": [
        {
          "name": "",
          "type": "address"
        }
      ],
      "payable": false,
      "stateMutability": "view",
      "type": "function"
    }
  ],
  "bytecode": "0x61022b610030600b82828239805160001a6073146000811461002057610022565bfe5b5030600052607381538281f3007300000000000000000000000000000000000000003014608060405260043610610058576000357c0100000000000000000000000000000000000000000000000000000000900463ffffffff16806319045a251461005d575b600080fd5b6100c56004803603810190808035600019169060200190929190803590602001908201803590602001908080601f0160208091040260200160405190810160405280939291908181526020018383808284378201915050505050509192919290505050610107565b604051808273ffffffffffffffffffffffffffffffffffffffff1673ffffffffffffffffffffffffffffffffffffffff16815260200191505060405180910390f35b6000806000806041855114151561012157600093506101f6565b6020850151925060408501519150606085015160001a9050601b8160ff16101561014c57601b810190505b601b8160ff16141580156101645750601c8160ff1614155b1561017257600093506101f6565b600186828585604051600081526020016040526040518085600019166000191681526020018460ff1660ff1681526020018360001916600019168152602001826000191660001916815260200194505050505060206040516020810390808403906000865af11580156101e9573d6000803e3d6000fd5b5050506020604051035193505b505050929150505600a165627a7a72305820edaf34612ecd07a7183fda8fa144ef08fa54be4a257f93ecf8843d56642ca9340029",
  "source": "pragma solidity ^0.4.11;\r\n\r\n\r\n/**\r\n * @title Eliptic curve signature operations\r\n *\r\n * @dev Based on https://gist.github.com/axic/5b33912c6f61ae6fd96d6c4a47afde6d\r\n */\r\n\r\nlibrary ECRecovery {\r\n\r\n  /**\r\n   * @dev Recover signer address from a message by using his signature\r\n   * @param hash bytes32 message, the hash is the signed message. What is recovered is the signer address.\r\n   * @param sig bytes signature, the signature is generated using web3.eth.sign()\r\n   */\r\n  function recover(bytes32 hash, bytes sig) public constant returns (address) {\r\n    bytes32 r;\r\n    bytes32 s;\r\n    uint8 v;\r\n\r\n    //Check the signature length\r\n    if (sig.length != 65) {\r\n      return (address(0));\r\n    }\r\n\r\n    // Divide the signature in r, s and v variables\r\n    assembly {\r\n      r := mload(add(sig, 32))\r\n      s := mload(add(sig, 64))\r\n      v := byte(0, mload(add(sig, 96)))\r\n    }\r\n\r\n    // Version of signature should be 27 or 28, but 0 and 1 are also possible versions\r\n    if (v < 27) {\r\n      v += 27;\r\n    }\r\n\r\n    // If the version is correct return the signer address\r\n    if (v != 27 && v != 28) {\r\n      return (address(0));\r\n    } else {\r\n      return ecrecover(hash, v, r, s);\r\n    }\r\n  }\r\n\r\n}\r\n",
  "sourcePath": "c:\\UNICEF\\dev\\connect-bc\\bids-api\\blockchain\\contracts\\openzeppelin-solidity\\contracts\\ECRecovery.sol",
  "compiler": {
    "name": "solc",
    "version": "0.4.25+commit.59dbf8f1.Emscripten.clang"
  },
  "schemaVersion": "3.0.23",
  "updatedAt": "2020-04-28T17:42:08.559Z",
  "devdoc": {
    "methods": {
      "recover(bytes32,bytes)": {
        "details": "Recover signer address from a message by using his signature\r",
        "params": {
          "hash": "bytes32 message, the hash is the signed message. What is recovered is the signer address.\r",
          "sig": "bytes signature, the signature is generated using web3.eth.sign()\r"
        }
      }
    },
    "title": "Eliptic curve signature operations\r "
  },
  "userdoc": {
    "methods": {}
  }
}