{
  "contractName": "HasNoEther",
  "abi": [
    {
      "constant": true,
      "inputs": [],
      "name": "owner",
      "outputs": [
        {
          "name": "",
          "type": "address"
        }
      ],
      "payable": false,
      "stateMutability": "view",
      "type": "function"
    },
    {
      "constant": false,
      "inputs": [
        {
          "name": "newOwner",
          "type": "address"
        }
      ],
      "name": "transferOwnership",
      "outputs": [],
      "payable": false,
      "stateMutability": "nonpayable",
      "type": "function"
    },
    {
      "inputs": [],
      "payable": true,
      "stateMutability": "payable",
      "type": "constructor"
    },
    {
      "payable": false,
      "stateMutability": "nonpayable",
      "type": "fallback"
    },
    {
      "anonymous": false,
      "inputs": [
        {
          "indexed": true,
          "name": "previousOwner",
          "type": "address"
        },
        {
          "indexed": true,
          "name": "newOwner",
          "type": "address"
        }
      ],
      "name": "OwnershipTransferred",
      "type": "event"
    },
    {
      "constant": false,
      "inputs": [],
      "name": "reclaimEther",
      "outputs": [],
      "payable": false,
      "stateMutability": "nonpayable",
      "type": "function"
    }
  ],
  "bytecode": "0x6080604052336000806101000a81548173ffffffffffffffffffffffffffffffffffffffff021916908373ffffffffffffffffffffffffffffffffffffffff16021790555060003414151561005357600080fd5b61038f806100626000396000f300608060405260043610610057576000357c0100000000000000000000000000000000000000000000000000000000900463ffffffff1680638da5cb5b146100665780639f727c27146100bd578063f2fde38b146100d4575b34801561006357600080fd5b50005b34801561007257600080fd5b5061007b610117565b604051808273ffffffffffffffffffffffffffffffffffffffff1673ffffffffffffffffffffffffffffffffffffffff16815260200191505060405180910390f35b3480156100c957600080fd5b506100d261013c565b005b3480156100e057600080fd5b50610115600480360381019080803573ffffffffffffffffffffffffffffffffffffffff16906020019092919050505061020e565b005b6000809054906101000a900473ffffffffffffffffffffffffffffffffffffffff1681565b6000809054906101000a900473ffffffffffffffffffffffffffffffffffffffff1673ffffffffffffffffffffffffffffffffffffffff163373ffffffffffffffffffffffffffffffffffffffff1614151561019757600080fd5b6000809054906101000a900473ffffffffffffffffffffffffffffffffffffffff1673ffffffffffffffffffffffffffffffffffffffff166108fc3073ffffffffffffffffffffffffffffffffffffffff16319081150290604051600060405180830381858888f19350505050151561020c57fe5b565b6000809054906101000a900473ffffffffffffffffffffffffffffffffffffffff1673ffffffffffffffffffffffffffffffffffffffff163373ffffffffffffffffffffffffffffffffffffffff1614151561026957600080fd5b600073ffffffffffffffffffffffffffffffffffffffff168173ffffffffffffffffffffffffffffffffffffffff16141515156102a557600080fd5b8073ffffffffffffffffffffffffffffffffffffffff166000809054906101000a900473ffffffffffffffffffffffffffffffffffffffff1673ffffffffffffffffffffffffffffffffffffffff167f8be0079c531659141344cd1fd0a4f28419497f9722a3daafe3b4186f6b6457e060405160405180910390a3806000806101000a81548173ffffffffffffffffffffffffffffffffffffffff021916908373ffffffffffffffffffffffffffffffffffffffff160217905550505600a165627a7a7230582062e0571494055ec43b9e289191cada49b23adb935133137a63eb0e57a908acff0029",
  "source": "pragma solidity ^0.4.11;\r\n\r\nimport \"./Ownable.sol\";\r\n\r\n/**\r\n * @title Contracts that should not own Ether\r\n * @author Remco Bloemen <remco@2π.com>\r\n * @dev This tries to block incoming ether to prevent accidental loss of Ether. Should Ether end up\r\n * in the contract, it will allow the owner to reclaim this ether.\r\n * @notice Ether can still be send to this contract by:\r\n * calling functions labeled `payable`\r\n * `selfdestruct(contract_address)`\r\n * mining directly to the contract address\r\n*/\r\ncontract HasNoEther is Ownable {\r\n\r\n  /**\r\n  * @dev Constructor that rejects incoming Ether\r\n  * @dev The `payable` flag is added so we can access `msg.value` without compiler warning. If we\r\n  * leave out payable, then Solidity will allow inheriting contracts to implement a payable\r\n  * constructor. By doing it this way we prevent a payable constructor from working. Alternatively\r\n  * we could use assembly to access msg.value.\r\n  */\r\n  function HasNoEther() payable {\r\n    require(msg.value == 0);\r\n  }\r\n\r\n  /**\r\n   * @dev Disallows direct send by settings a default function without the `payable` flag.\r\n   */\r\n  function() external {\r\n  }\r\n\r\n  /**\r\n   * @dev Transfer all Ether held by the contract to the owner.\r\n   */\r\n  function reclaimEther() external onlyOwner {\r\n    assert(owner.send(this.balance));\r\n  }\r\n}\r\n",
  "sourcePath": "c:\\UNICEF\\dev\\connect-bc\\bids-api\\blockchain\\contracts\\openzeppelin-solidity\\contracts\\ownership\\HasNoEther.sol",
  "compiler": {
    "name": "solc",
    "version": "0.4.25+commit.59dbf8f1.Emscripten.clang"
  },
  "schemaVersion": "3.0.23",
  "updatedAt": "2020-04-28T17:42:08.659Z",
  "devdoc": {
    "author": "Remco Bloemen <remco@2π.com>\r",
    "methods": {
      "reclaimEther()": {
        "details": "Transfer all Ether held by the contract to the owner.\r"
      },
      "transferOwnership(address)": {
        "details": "Allows the current owner to transfer control of the contract to a newOwner.\r",
        "params": {
          "newOwner": "The address to transfer ownership to.\r"
        }
      }
    },
    "title": "Contracts that should not own Ether\r"
  },
  "userdoc": {
    "methods": {}
  }
}