{
  "contractName": "HasNoTokens",
  "abi": [
    {
      "constant": false,
      "inputs": [
        {
          "name": "token",
          "type": "address"
        }
      ],
      "name": "reclaimToken",
      "outputs": [],
      "payable": false,
      "stateMutability": "nonpayable",
      "type": "function"
    },
    {
      "constant": true,
      "inputs": [],
      "name": "owner",
      "outputs": [
        {
          "name": "",
          "type": "address"
        }
      ],
      "payable": false,
      "stateMutability": "view",
      "type": "function"
    },
    {
      "constant": false,
      "inputs": [
        {
          "name": "newOwner",
          "type": "address"
        }
      ],
      "name": "transferOwnership",
      "outputs": [],
      "payable": false,
      "stateMutability": "nonpayable",
      "type": "function"
    },
    {
      "anonymous": false,
      "inputs": [
        {
          "indexed": true,
          "name": "previousOwner",
          "type": "address"
        },
        {
          "indexed": true,
          "name": "newOwner",
          "type": "address"
        }
      ],
      "name": "OwnershipTransferred",
      "type": "event"
    },
    {
      "constant": false,
      "inputs": [
        {
          "name": "from_",
          "type": "address"
        },
        {
          "name": "value_",
          "type": "uint256"
        },
        {
          "name": "data_",
          "type": "bytes"
        }
      ],
      "name": "tokenFallback",
      "outputs": [],
      "payable": false,
      "stateMutability": "nonpayable",
      "type": "function"
    }
  ],
  "bytecode": "0x6080604052336000806101000a81548173ffffffffffffffffffffffffffffffffffffffff021916908373ffffffffffffffffffffffffffffffffffffffff1602179055506105c4806100536000396000f300608060405260043610610062576000357c0100000000000000000000000000000000000000000000000000000000900463ffffffff16806317ffc320146100675780638da5cb5b146100aa578063c0ee0b8a14610101578063f2fde38b14610166575b600080fd5b34801561007357600080fd5b506100a8600480360381019080803573ffffffffffffffffffffffffffffffffffffffff1690602001909291905050506101a9565b005b3480156100b657600080fd5b506100bf61032e565b604051808273ffffffffffffffffffffffffffffffffffffffff1673ffffffffffffffffffffffffffffffffffffffff16815260200191505060405180910390f35b34801561010d57600080fd5b50610164600480360381019080803573ffffffffffffffffffffffffffffffffffffffff16906020019092919080359060200190929190803590602001908201803590602001919091929391929390505050610353565b005b34801561017257600080fd5b506101a7600480360381019080803573ffffffffffffffffffffffffffffffffffffffff169060200190929190505050610358565b005b60008060009054906101000a900473ffffffffffffffffffffffffffffffffffffffff1673ffffffffffffffffffffffffffffffffffffffff163373ffffffffffffffffffffffffffffffffffffffff1614151561020657600080fd5b8173ffffffffffffffffffffffffffffffffffffffff166370a08231306040518263ffffffff167c0100000000000000000000000000000000000000000000000000000000028152600401808273ffffffffffffffffffffffffffffffffffffffff1673ffffffffffffffffffffffffffffffffffffffff168152602001915050602060405180830381600087803b1580156102a157600080fd5b505af11580156102b5573d6000803e3d6000fd5b505050506040513d60208110156102cb57600080fd5b8101908080519060200190929190505050905061032a6000809054906101000a900473ffffffffffffffffffffffffffffffffffffffff16828473ffffffffffffffffffffffffffffffffffffffff166104ad9092919063ffffffff16565b5050565b6000809054906101000a900473ffffffffffffffffffffffffffffffffffffffff1681565b600080fd5b6000809054906101000a900473ffffffffffffffffffffffffffffffffffffffff1673ffffffffffffffffffffffffffffffffffffffff163373ffffffffffffffffffffffffffffffffffffffff161415156103b357600080fd5b600073ffffffffffffffffffffffffffffffffffffffff168173ffffffffffffffffffffffffffffffffffffffff16141515156103ef57600080fd5b8073ffffffffffffffffffffffffffffffffffffffff166000809054906101000a900473ffffffffffffffffffffffffffffffffffffffff1673ffffffffffffffffffffffffffffffffffffffff167f8be0079c531659141344cd1fd0a4f28419497f9722a3daafe3b4186f6b6457e060405160405180910390a3806000806101000a81548173ffffffffffffffffffffffffffffffffffffffff021916908373ffffffffffffffffffffffffffffffffffffffff16021790555050565b8273ffffffffffffffffffffffffffffffffffffffff1663a9059cbb83836040518363ffffffff167c0100000000000000000000000000000000000000000000000000000000028152600401808373ffffffffffffffffffffffffffffffffffffffff1673ffffffffffffffffffffffffffffffffffffffff16815260200182815260200192505050602060405180830381600087803b15801561055057600080fd5b505af1158015610564573d6000803e3d6000fd5b505050506040513d602081101561057a57600080fd5b8101908080519060200190929190505050151561059357fe5b5050505600a165627a7a723058207f7385d34d97d38b17756dbd69949ff5a1d0a5aa40087865a0779edffb20f9ac0029",
  "source": "pragma solidity ^0.4.11;\r\n\r\nimport \"./CanReclaimToken.sol\";\r\n\r\n/**\r\n * @title Contracts that should not own Tokens\r\n * @author Remco Bloemen <remco@2π.com>\r\n * @dev This blocks incoming ERC23 tokens to prevent accidental loss of tokens.\r\n * Should tokens (any ERC20Basic compatible) end up in the contract, it allows the\r\n * owner to reclaim the tokens.\r\n */\r\ncontract HasNoTokens is CanReclaimToken {\r\n\r\n /**\r\n  * @dev Reject all ERC23 compatible tokens\r\n  * @param from_ address The address that is transferring the tokens\r\n  * @param value_ uint256 the amount of the specified token\r\n  * @param data_ Bytes The data passed from the caller.\r\n  */\r\n  function tokenFallback(address from_, uint256 value_, bytes data_) external {\r\n    revert();\r\n  }\r\n\r\n}\r\n",
  "sourcePath": "c:\\UNICEF\\dev\\connect-bc\\bids-api\\blockchain\\contracts\\openzeppelin-solidity\\contracts\\ownership\\HasNoTokens.sol",
  "compiler": {
    "name": "solc",
    "version": "0.4.25+commit.59dbf8f1.Emscripten.clang"
  },
  "schemaVersion": "3.0.23",
  "updatedAt": "2020-04-28T17:42:08.662Z",
  "devdoc": {
    "author": "Remco Bloemen <remco@2π.com>\r",
    "methods": {
      "reclaimToken(address)": {
        "details": "Reclaim all ERC20Basic compatible tokens\r",
        "params": {
          "token": "ERC20Basic The address of the token contract\r"
        }
      },
      "tokenFallback(address,uint256,bytes)": {
        "details": "Reject all ERC23 compatible tokens\r",
        "params": {
          "data_": "Bytes The data passed from the caller.\r",
          "from_": "address The address that is transferring the tokens\r",
          "value_": "uint256 the amount of the specified token\r"
        }
      },
      "transferOwnership(address)": {
        "details": "Allows the current owner to transfer control of the contract to a newOwner.\r",
        "params": {
          "newOwner": "The address to transfer ownership to.\r"
        }
      }
    },
    "title": "Contracts that should not own Tokens\r"
  },
  "userdoc": {
    "methods": {}
  }
}