{
  "contractName": "IPFSStorageLogic",
  "abi": [
    {
      "constant": true,
      "inputs": [
        {
          "name": "_address",
          "type": "address"
        }
      ],
      "name": "isAllowedFactProvider",
      "outputs": [
        {
          "name": "",
          "type": "bool"
        }
      ],
      "payable": false,
      "stateMutability": "view",
      "type": "function"
    },
    {
      "constant": false,
      "inputs": [
        {
          "name": "_onlyWhitelist",
          "type": "bool"
        }
      ],
      "name": "setWhitelistOnlyPermission",
      "outputs": [],
      "payable": false,
      "stateMutability": "nonpayable",
      "type": "function"
    },
    {
      "constant": false,
      "inputs": [],
      "name": "claimOwnership",
      "outputs": [],
      "payable": false,
      "stateMutability": "nonpayable",
      "type": "function"
    },
    {
      "constant": true,
      "inputs": [],
      "name": "isWhitelistOnlyPermissionSet",
      "outputs": [
        {
          "name": "",
          "type": "bool"
        }
      ],
      "payable": false,
      "stateMutability": "view",
      "type": "function"
    },
    {
      "constant": false,
      "inputs": [
        {
          "name": "_address",
          "type": "address"
        }
      ],
      "name": "removeFactProviderFromWhitelist",
      "outputs": [],
      "payable": false,
      "stateMutability": "nonpayable",
      "type": "function"
    },
    {
      "constant": true,
      "inputs": [
        {
          "name": "",
          "type": "uint256"
        }
      ],
      "name": "privateDataExchanges",
      "outputs": [
        {
          "name": "dataRequester",
          "type": "address"
        },
        {
          "name": "dataRequesterValue",
          "type": "uint256"
        },
        {
          "name": "passportOwner",
          "type": "address"
        },
        {
          "name": "passportOwnerValue",
          "type": "uint256"
        },
        {
          "name": "factProvider",
          "type": "address"
        },
        {
          "name": "key",
          "type": "bytes32"
        },
        {
          "name": "dataIPFSHash",
          "type": "string"
        },
        {
          "name": "dataKeyHash",
          "type": "bytes32"
        },
        {
          "name": "encryptedExchangeKey",
          "type": "bytes"
        },
        {
          "name": "exchangeKeyHash",
          "type": "bytes32"
        },
        {
          "name": "encryptedDataKey",
          "type": "bytes32"
        },
        {
          "name": "state",
          "type": "uint8"
        },
        {
          "name": "stateExpired",
          "type": "uint256"
        }
      ],
      "payable": false,
      "stateMutability": "view",
      "type": "function"
    },
    {
      "constant": false,
      "inputs": [],
      "name": "renounceOwnership",
      "outputs": [],
      "payable": false,
      "stateMutability": "nonpayable",
      "type": "function"
    },
    {
      "constant": true,
      "inputs": [
        {
          "name": "_address",
          "type": "address"
        }
      ],
      "name": "isFactProviderInWhitelist",
      "outputs": [
        {
          "name": "",
          "type": "bool"
        }
      ],
      "payable": false,
      "stateMutability": "view",
      "type": "function"
    },
    {
      "constant": true,
      "inputs": [],
      "name": "owner",
      "outputs": [
        {
          "name": "",
          "type": "address"
        }
      ],
      "payable": false,
      "stateMutability": "view",
      "type": "function"
    },
    {
      "constant": false,
      "inputs": [
        {
          "name": "_address",
          "type": "address"
        }
      ],
      "name": "addFactProviderToWhitelist",
      "outputs": [],
      "payable": false,
      "stateMutability": "nonpayable",
      "type": "function"
    },
    {
      "constant": true,
      "inputs": [],
      "name": "openPrivateDataExchangesCount",
      "outputs": [
        {
          "name": "",
          "type": "uint256"
        }
      ],
      "payable": false,
      "stateMutability": "view",
      "type": "function"
    },
    {
      "constant": true,
      "inputs": [],
      "name": "pendingOwner",
      "outputs": [
        {
          "name": "",
          "type": "address"
        }
      ],
      "payable": false,
      "stateMutability": "view",
      "type": "function"
    },
    {
      "constant": false,
      "inputs": [
        {
          "name": "newOwner",
          "type": "address"
        }
      ],
      "name": "transferOwnership",
      "outputs": [],
      "payable": false,
      "stateMutability": "nonpayable",
      "type": "function"
    },
    {
      "anonymous": false,
      "inputs": [
        {
          "indexed": true,
          "name": "factProvider",
          "type": "address"
        },
        {
          "indexed": true,
          "name": "key",
          "type": "bytes32"
        }
      ],
      "name": "IPFSHashUpdated",
      "type": "event"
    },
    {
      "anonymous": false,
      "inputs": [
        {
          "indexed": true,
          "name": "factProvider",
          "type": "address"
        },
        {
          "indexed": true,
          "name": "key",
          "type": "bytes32"
        }
      ],
      "name": "IPFSHashDeleted",
      "type": "event"
    },
    {
      "anonymous": false,
      "inputs": [
        {
          "indexed": true,
          "name": "onlyWhitelist",
          "type": "bool"
        }
      ],
      "name": "WhitelistOnlyPermissionSet",
      "type": "event"
    },
    {
      "anonymous": false,
      "inputs": [
        {
          "indexed": true,
          "name": "factProvider",
          "type": "address"
        }
      ],
      "name": "WhitelistFactProviderAdded",
      "type": "event"
    },
    {
      "anonymous": false,
      "inputs": [
        {
          "indexed": true,
          "name": "factProvider",
          "type": "address"
        }
      ],
      "name": "WhitelistFactProviderRemoved",
      "type": "event"
    },
    {
      "anonymous": false,
      "inputs": [
        {
          "indexed": true,
          "name": "previousOwner",
          "type": "address"
        }
      ],
      "name": "OwnershipRenounced",
      "type": "event"
    },
    {
      "anonymous": false,
      "inputs": [
        {
          "indexed": true,
          "name": "previousOwner",
          "type": "address"
        },
        {
          "indexed": true,
          "name": "newOwner",
          "type": "address"
        }
      ],
      "name": "OwnershipTransferred",
      "type": "event"
    },
    {
      "constant": false,
      "inputs": [
        {
          "name": "_key",
          "type": "bytes32"
        },
        {
          "name": "_value",
          "type": "string"
        }
      ],
      "name": "setIPFSHash",
      "outputs": [],
      "payable": false,
      "stateMutability": "nonpayable",
      "type": "function"
    },
    {
      "constant": false,
      "inputs": [
        {
          "name": "_key",
          "type": "bytes32"
        }
      ],
      "name": "deleteIPFSHash",
      "outputs": [],
      "payable": false,
      "stateMutability": "nonpayable",
      "type": "function"
    },
    {
      "constant": true,
      "inputs": [
        {
          "name": "_factProvider",
          "type": "address"
        },
        {
          "name": "_key",
          "type": "bytes32"
        }
      ],
      "name": "getIPFSHash",
      "outputs": [
        {
          "name": "success",
          "type": "bool"
        },
        {
          "name": "value",
          "type": "string"
        }
      ],
      "payable": false,
      "stateMutability": "view",
      "type": "function"
    }
  ],
  "bytecode": "0x608060405260405180807f6f72672e6d6f6e657468612e70726f78792e706175736564000000000000000081525060180190506040518091039020600019167f9e7945c55c116aa3404b99fe56db7af9613d3b899554a437c2616a4749a94d8a6001026000191614151561006f57fe5b60405180807f6f72672e6d6f6e657468612e70726f78792e6f776e657200000000000000000081525060170190506040518091039020600019167f3ca57e4b51fc2e18497b219410298879868edada7e6fe5132c8feceb0a080d22600102600019161415156100da57fe5b6100f233610162640100000000026401000000009004565b60405180807f6f72672e6d6f6e657468612e70726f78792e70656e64696e674f776e65720000815250601e0190506040518091039020600019167fcfd0c6ea5352192d7d4c5d4e7a73c5da12c871730cb60ff57879cbe7b403bb526001026000191614151561015d57fe5b610191565b60007f3ca57e4b51fc2e18497b219410298879868edada7e6fe5132c8feceb0a080d2260010290508181555050565b61155b806101a06000396000f3006080604052600436106100e6576000357c0100000000000000000000000000000000000000000000000000000000900463ffffffff16806320888158146100eb57806322b96b6314610146578063257781e71461021b5780632b42a89a1461024c5780634e71e0c81461027b57806361a2d076146102925780636bfc8bb5146102c15780636d4e78021461030a5780636f618f9a1461034d578063715018a61461055e5780638ae44a08146105755780638da5cb5b146105d0578063ac0aeb1a14610627578063caa95f1b1461066a578063e30c397814610695578063f2fde38b146106ec575b600080fd5b3480156100f757600080fd5b5061012c600480360381019080803573ffffffffffffffffffffffffffffffffffffffff16906020019092919050505061072f565b604051808215151515815260200191505060405180910390f35b34801561015257600080fd5b50610195600480360381019080803573ffffffffffffffffffffffffffffffffffffffff16906020019092919080356000191690602001909291905050506107da565b604051808315151515815260200180602001828103825283818151815260200191508051906020019080838360005b838110156101df5780820151818401526020810190506101c4565b50505050905090810190601f16801561020c5780820380516001836020036101000a031916815260200191505b50935050505060405180910390f35b34801561022757600080fd5b5061024a60048036038101908080356000191690602001909291905050506107f3565b005b34801561025857600080fd5b506102796004803603810190808035151590602001909291905050506107ff565b005b34801561028757600080fd5b5061029061088c565b005b34801561029e57600080fd5b506102a76109ce565b604051808215151515815260200191505060405180910390f35b3480156102cd57600080fd5b5061030860048036038101908080356000191690602001909291908035906020019082018035906020019190919293919293905050506109e5565b005b34801561031657600080fd5b5061034b600480360381019080803573ffffffffffffffffffffffffffffffffffffffff169060200190929190505050610a26565b005b34801561035957600080fd5b5061037860048036038101908080359060200190929190505050610afc565b604051808e73ffffffffffffffffffffffffffffffffffffffff1673ffffffffffffffffffffffffffffffffffffffff1681526020018d81526020018c73ffffffffffffffffffffffffffffffffffffffff1673ffffffffffffffffffffffffffffffffffffffff1681526020018b81526020018a73ffffffffffffffffffffffffffffffffffffffff1673ffffffffffffffffffffffffffffffffffffffff1681526020018960001916600019168152602001806020018860001916600019168152602001806020018760001916600019168152602001866000191660001916815260200185600281111561046a57fe5b60ff16815260200184815260200183810383528a818151815260200191508051906020019080838360005b838110156104b0578082015181840152602081019050610495565b50505050905090810190601f1680156104dd5780820380516001836020036101000a031916815260200191505b50838103825288818151815260200191508051906020019080838360005b838110156105165780820151818401526020810190506104fb565b50505050905090810190601f1680156105435780820380516001836020036101000a031916815260200191505b509f5050505050505050505050505050505060405180910390f35b34801561056a57600080fd5b50610573610d0e565b005b34801561058157600080fd5b506105b6600480360381019080803573ffffffffffffffffffffffffffffffffffffffff169060200190929190505050610e22565b604051808215151515815260200191505060405180910390f35b3480156105dc57600080fd5b506105e5610e78565b604051808273ffffffffffffffffffffffffffffffffffffffff1673ffffffffffffffffffffffffffffffffffffffff16815260200191505060405180910390f35b34801561063357600080fd5b50610668600480360381019080803573ffffffffffffffffffffffffffffffffffffffff169060200190929190505050610e87565b005b34801561067657600080fd5b5061067f610f66565b6040518082815260200191505060405180910390f35b3480156106a157600080fd5b506106aa610f6c565b604051808273ffffffffffffffffffffffffffffffffffffffff1673ffffffffffffffffffffffffffffffffffffffff16815260200191505060405180910390f35b3480156106f857600080fd5b5061072d600480360381019080803573ffffffffffffffffffffffffffffffffffffffff169060200190929190505050610f7b565b005b6000600760009054906101000a900460ff1615806107965750600860008373ffffffffffffffffffffffffffffffffffffffff1673ffffffffffffffffffffffffffffffffffffffff16815260200190815260200160002060009054906101000a900460ff165b806107d357506107a4611045565b73ffffffffffffffffffffffffffffffffffffffff168273ffffffffffffffffffffffffffffffffffffffff16145b9050919050565b600060606107e88484611076565b915091509250929050565b6107fc81611194565b50565b610807611045565b73ffffffffffffffffffffffffffffffffffffffff163373ffffffffffffffffffffffffffffffffffffffff1614151561084057600080fd5b80600760006101000a81548160ff0219169083151502179055508015157f6e1eb3fa845047cf9d5fd1deb1b7770b4e26163dd4d88cefb14fe7964a70059560405160405180910390a250565b610894611272565b73ffffffffffffffffffffffffffffffffffffffff163373ffffffffffffffffffffffffffffffffffffffff161415156108cd57600080fd5b6108d56112a3565b15151561094a576040517f08c379a000000000000000000000000000000000000000000000000000000000815260040180806020018281038252601d8152602001807f636f6e74726163742073686f756c64206e6f742062652070617573656400000081525060200191505060405180910390fd5b610952611272565b73ffffffffffffffffffffffffffffffffffffffff16610970611045565b73ffffffffffffffffffffffffffffffffffffffff167f8be0079c531659141344cd1fd0a4f28419497f9722a3daafe3b4186f6b6457e060405160405180910390a36109c26109bd611272565b6112d4565b6109cc6000611303565b565b6000600760009054906101000a900460ff16905090565b610a218383838080601f016020809104026020016040519081016040528093929190818152602001838380828437820191505050505050611332565b505050565b610a2e611045565b73ffffffffffffffffffffffffffffffffffffffff163373ffffffffffffffffffffffffffffffffffffffff16141515610a6757600080fd5b600860008273ffffffffffffffffffffffffffffffffffffffff1673ffffffffffffffffffffffffffffffffffffffff16815260200190815260200160002060006101000a81549060ff02191690558073ffffffffffffffffffffffffffffffffffffffff167f5bf47f016603dfff957e6086bd9a350212686e8f1d9208b3db47c5a3107c787860405160405180910390a250565b600c81815481101515610b0b57fe5b90600052602060002090600d02016000915090508060000160009054906101000a900473ffffffffffffffffffffffffffffffffffffffff16908060010154908060020160009054906101000a900473ffffffffffffffffffffffffffffffffffffffff16908060030154908060040160009054906101000a900473ffffffffffffffffffffffffffffffffffffffff1690806005015490806006018054600181600116156101000203166002900480601f016020809104026020016040519081016040528092919081815260200182805460018160011615610100020316600290048015610c3b5780601f10610c1057610100808354040283529160200191610c3b565b820191906000526020600020905b815481529060010190602001808311610c1e57829003601f168201915b505050505090806007015490806008018054600181600116156101000203166002900480601f016020809104026020016040519081016040528092919081815260200182805460018160011615610100020316600290048015610cdf5780601f10610cb457610100808354040283529160200191610cdf565b820191906000526020600020905b815481529060010190602001808311610cc257829003601f168201915b50505050509080600901549080600a01549080600b0160009054906101000a900460ff169080600c015490508d565b610d16611045565b73ffffffffffffffffffffffffffffffffffffffff163373ffffffffffffffffffffffffffffffffffffffff16141515610d4f57600080fd5b610d576112a3565b151515610dcc576040517f08c379a000000000000000000000000000000000000000000000000000000000815260040180806020018281038252601d8152602001807f636f6e74726163742073686f756c64206e6f742062652070617573656400000081525060200191505060405180910390fd5b610dd4611045565b73ffffffffffffffffffffffffffffffffffffffff167ff8df31144d9c2f0f6b59d69b8b98abd5459d07f2742c4df920b25aae33c6482060405160405180910390a2610e2060006112d4565b565b6000600860008373ffffffffffffffffffffffffffffffffffffffff1673ffffffffffffffffffffffffffffffffffffffff16815260200190815260200160002060009054906101000a900460ff169050919050565b6000610e82611045565b905090565b610e8f611045565b73ffffffffffffffffffffffffffffffffffffffff163373ffffffffffffffffffffffffffffffffffffffff16141515610ec857600080fd5b6001600860008373ffffffffffffffffffffffffffffffffffffffff1673ffffffffffffffffffffffffffffffffffffffff16815260200190815260200160002060006101000a81548160ff0219169083151502179055508073ffffffffffffffffffffffffffffffffffffffff167fff8ac5f0e9cdc8f7ffbbc29ab1301ee649cf01cf7a6a9265a2d90587612c417560405160405180910390a250565b600b5481565b6000610f76611272565b905090565b610f83611045565b73ffffffffffffffffffffffffffffffffffffffff163373ffffffffffffffffffffffffffffffffffffffff16141515610fbc57600080fd5b610fc46112a3565b151515611039576040517f08c379a000000000000000000000000000000000000000000000000000000000815260040180806020018281038252601d8152602001807f636f6e74726163742073686f756c64206e6f742062652070617573656400000081525060200191505060405180910390fd5b61104281611303565b50565b6000807f3ca57e4b51fc2e18497b219410298879868edada7e6fe5132c8feceb0a080d226001029050805491505090565b600060606000600960008673ffffffffffffffffffffffffffffffffffffffff1673ffffffffffffffffffffffffffffffffffffffff1681526020019081526020016000206000856000191660001916815260200190815260200160002090508060000160009054906101000a900460ff1681600101808054600181600116156101000203166002900480601f0160208091040260200160405190810160405280929190818152602001828054600181600116156101000203166002900480156111815780601f1061115657610100808354040283529160200191611181565b820191906000526020600020905b81548152906001019060200180831161116457829003601f168201915b5050505050905092509250509250929050565b61119d3361072f565b15156111a857600080fd5b600960003373ffffffffffffffffffffffffffffffffffffffff1673ffffffffffffffffffffffffffffffffffffffff16815260200190815260200160002060008260001916600019168152602001908152602001600020600080820160006101000a81549060ff02191690556001820160006112259190611442565b505080600019163373ffffffffffffffffffffffffffffffffffffffff167f140278d2322b9671bf293aea878e7717c46d5b7cd955e3e426ee67e01b90165460405160405180910390a350565b6000807fcfd0c6ea5352192d7d4c5d4e7a73c5da12c871730cb60ff57879cbe7b403bb526001029050805491505090565b6000807f9e7945c55c116aa3404b99fe56db7af9613d3b899554a437c2616a4749a94d8a6001029050805491505090565b60007f3ca57e4b51fc2e18497b219410298879868edada7e6fe5132c8feceb0a080d2260010290508181555050565b60007fcfd0c6ea5352192d7d4c5d4e7a73c5da12c871730cb60ff57879cbe7b403bb5260010290508181555050565b61133b3361072f565b151561134657600080fd5b604080519081016040528060011515815260200182815250600960003373ffffffffffffffffffffffffffffffffffffffff1673ffffffffffffffffffffffffffffffffffffffff1681526020019081526020016000206000846000191660001916815260200190815260200160002060008201518160000160006101000a81548160ff02191690831515021790555060208201518160010190805190602001906113f292919061148a565b5090505081600019163373ffffffffffffffffffffffffffffffffffffffff167fdb23beee028623a85d5af1d247423ca471d20e499b131cd5e5c76277eaa2ad5b60405160405180910390a35050565b50805460018160011615610100020316600290046000825580601f106114685750611487565b601f016020900490600052602060002090810190611486919061150a565b5b50565b828054600181600116156101000203166002900490600052602060002090601f016020900481019282601f106114cb57805160ff19168380011785556114f9565b828001600101855582156114f9579182015b828111156114f85782518255916020019190600101906114dd565b5b509050611506919061150a565b5090565b61152c91905b80821115611528576000816000905550600101611510565b5090565b905600a165627a7a7230582083e6ae3fe9adf9c12ec1f1f285aab28d6dc10596072136e920c1b45a69d32d1f0029",
  "source": "pragma solidity ^0.4.24;\r\n\r\nimport \"./Storage.sol\";\r\n\r\ncontract IPFSStorageLogic is Storage {\r\n    event IPFSHashUpdated(address indexed factProvider, bytes32 indexed key);\r\n    event IPFSHashDeleted(address indexed factProvider, bytes32 indexed key);\r\n\r\n    /// @param _key The key for the record\r\n    /// @param _value The value for the record\r\n    function setIPFSHash(bytes32 _key, string  _value) external {\r\n        _setIPFSHash(_key, _value);\r\n    }\r\n\r\n    /// @param _key The key for the record\r\n    function deleteIPFSHash(bytes32 _key) external {\r\n        _deleteIPFSHash(_key);\r\n    }\r\n\r\n    /// @param _factProvider The fact provider\r\n    /// @param _key The key for the record\r\n    function getIPFSHash(address _factProvider, bytes32 _key) external view returns (bool success, string memory value) {\r\n        return _getIPFSHash(_factProvider, _key);\r\n    }\r\n\r\n    function _setIPFSHash(bytes32 _key, string memory _value) allowedFactProvider internal {\r\n        ipfsHashStorage[msg.sender][_key] = IPFSHashValue({\r\n            initialized : true,\r\n            value : _value\r\n            });\r\n        emit IPFSHashUpdated(msg.sender, _key);\r\n    }\r\n\r\n    function _deleteIPFSHash(bytes32 _key) allowedFactProvider internal {\r\n        delete ipfsHashStorage[msg.sender][_key];\r\n        emit IPFSHashDeleted(msg.sender, _key);\r\n    }\r\n\r\n    function _getIPFSHash(address _factProvider, bytes32 _key) internal view returns (bool success, string memory value) {\r\n        IPFSHashValue storage initValue = ipfsHashStorage[_factProvider][_key];\r\n        return (initValue.initialized, initValue.value);\r\n    }\r\n}",
  "sourcePath": "c:\\UNICEF\\dev\\connect-bc\\bids-api\\blockchain\\contracts\\storage\\IPFSStorageLogic.sol",
  "compiler": {
    "name": "solc",
    "version": "0.4.25+commit.59dbf8f1.Emscripten.clang"
  },
  "schemaVersion": "3.0.23",
  "updatedAt": "2020-04-28T17:42:08.766Z",
  "devdoc": {
    "methods": {
      "claimOwnership()": {
        "details": "Allows the pendingOwner address to finalize the transfer.\r"
      },
      "deleteIPFSHash(bytes32)": {
        "params": {
          "_key": "The key for the record"
        }
      },
      "getIPFSHash(address,bytes32)": {
        "params": {
          "_key": "The key for the record"
        }
      },
      "owner()": {
        "return": "The owner address.\r"
      },
      "renounceOwnership()": {
        "details": "Allows the current owner to relinquish control of the contract.\r"
      },
      "setIPFSHash(bytes32,string)": {
        "params": {
          "_value": "The value for the record"
        }
      },
      "transferOwnership(address)": {
        "details": "Allows the current owner to set the pendingOwner address.\r",
        "params": {
          "newOwner": "The address to transfer ownership to.\r"
        }
      }
    }
  },
  "userdoc": {
    "methods": {
      "addFactProviderToWhitelist(address)": {
        "notice": "Allows owner to add fact provider to whitelist.\r"
      },
      "isAllowedFactProvider(address)": {
        "notice": "Returns true when the given address is an allowed fact provider.\r"
      },
      "isFactProviderInWhitelist(address)": {
        "notice": "Returns true if fact provider is added to the whitelist.\r"
      },
      "isWhitelistOnlyPermissionSet()": {
        "notice": "Returns true when a whitelist of fact providers is enabled.\r"
      },
      "removeFactProviderFromWhitelist(address)": {
        "notice": "Allows owner to remove fact provider from whitelist.\r"
      },
      "renounceOwnership()": {
        "notice": "Renouncing to ownership will leave the contract without an owner.\r It will not be possible to call the functions with the `onlyOwner`\r modifier anymore.\r"
      },
      "setWhitelistOnlyPermission(bool)": {
        "notice": "Enables or disables the use of a whitelist of fact providers.\r"
      }
    }
  }
}