{
  "contractName": "LimitBalance",
  "abi": [
    {
      "constant": true,
      "inputs": [],
      "name": "limit",
      "outputs": [
        {
          "name": "",
          "type": "uint256"
        }
      ],
      "payable": false,
      "stateMutability": "view",
      "type": "function"
    },
    {
      "inputs": [
        {
          "name": "_limit",
          "type": "uint256"
        }
      ],
      "payable": false,
      "stateMutability": "nonpayable",
      "type": "constructor"
    }
  ],
  "bytecode": "0x608060405234801561001057600080fd5b506040516020806100e7833981018060405281019080805190602001909291905050508060008190555050609e806100496000396000f300608060405260043610603f576000357c0100000000000000000000000000000000000000000000000000000000900463ffffffff168063a4d66daf146044575b600080fd5b348015604f57600080fd5b506056606c565b6040518082815260200191505060405180910390f35b600054815600a165627a7a723058204e95973f201ac96748345144fff7f5b021fd7086950573ead4b0686d052b30490029",
  "source": "pragma solidity ^0.4.11;\r\n\r\n\r\n/**\r\n * @title LimitBalance\r\n * @dev Simple contract to limit the balance of child contract.\r\n * @dev Note this doesn't prevent other contracts to send funds by using selfdestruct(address);\r\n * @dev See: https://github.com/ConsenSys/smart-contract-best-practices#remember-that-ether-can-be-forcibly-sent-to-an-account\r\n */\r\ncontract LimitBalance {\r\n\r\n  uint256 public limit;\r\n\r\n  /**\r\n   * @dev Constructor that sets the passed value as a limit.\r\n   * @param _limit uint256 to represent the limit.\r\n   */\r\n  function LimitBalance(uint256 _limit) {\r\n    limit = _limit;\r\n  }\r\n\r\n  /**\r\n   * @dev Checks if limit was reached. Case true, it throws.\r\n   */\r\n  modifier limitedPayable() {\r\n    require(this.balance <= limit);\r\n    _;\r\n\r\n  }\r\n\r\n}\r\n",
  "sourcePath": "c:\\UNICEF\\dev\\connect-bc\\bids-api\\blockchain\\contracts\\openzeppelin-solidity\\contracts\\LimitBalance.sol",
  "compiler": {
    "name": "solc",
    "version": "0.4.25+commit.59dbf8f1.Emscripten.clang"
  },
  "schemaVersion": "3.0.23",
  "updatedAt": "2020-04-28T17:42:08.562Z",
  "devdoc": {
    "methods": {},
    "title": "LimitBalance\r"
  },
  "userdoc": {
    "methods": {}
  }
}