{
  "contractName": "MerkleProof",
  "abi": [
    {
      "constant": true,
      "inputs": [
        {
          "name": "_proof",
          "type": "bytes"
        },
        {
          "name": "_root",
          "type": "bytes32"
        },
        {
          "name": "_leaf",
          "type": "bytes32"
        }
      ],
      "name": "verifyProof",
      "outputs": [
        {
          "name": "",
          "type": "bool"
        }
      ],
      "payable": false,
      "stateMutability": "view",
      "type": "function"
    }
  ],
  "bytecode": "0x6101f0610030600b82828239805160001a6073146000811461002057610022565bfe5b5030600052607381538281f3007300000000000000000000000000000000000000003014608060405260043610610058576000357c0100000000000000000000000000000000000000000000000000000000900463ffffffff168063101f13e21461005d575b600080fd5b6100d3600480360381019080803590602001908201803590602001908080601f0160208091040260200160405190810160405280939291908181526020018383808284378201915050505050509192919290803560001916906020019092919080356000191690602001909291905050506100ed565b604051808215151515815260200191505060405180910390f35b60008060008060006020885181151561010257fe5b0614151561011357600093506101ba565b849150602090505b8651811115156101ac57808701519250826000191682600019161015610170578183604051808360001916600019168152602001826000191660001916815260200192505050604051809103902091506101a1565b8282604051808360001916600019168152602001826000191660001916815260200192505050604051809103902091505b60208101905061011b565b856000191682600019161493505b50505093925050505600a165627a7a7230582085fd76a21448614ab6303c6437f2fbec0985ee117183902b9367416b9de3d0980029",
  "source": "pragma solidity ^0.4.11;\n\n/*\n * @title MerkleProof\n * @dev Merkle proof verification\n * @note Based on https://github.com/ameensol/merkle-tree-solidity/blob/master/src/MerkleProof.sol\n */\nlibrary MerkleProof {\n  /*\n   * @dev Verifies a Merkle proof proving the existence of a leaf in a Merkle tree. Assumes that each pair of leaves\n   * and each pair of pre-images is sorted.\n   * @param _proof Merkle proof containing sibling hashes on the branch from the leaf to the root of the Merkle tree\n   * @param _root Merkle root\n   * @param _leaf Leaf of Merkle tree\n   */\n  function verifyProof(bytes _proof, bytes32 _root, bytes32 _leaf) constant returns (bool) {\n    // Check if proof length is a multiple of 32\n    if (_proof.length % 32 != 0) return false;\n\n    bytes32 proofElement;\n    bytes32 computedHash = _leaf;\n\n    for (uint256 i = 32; i <= _proof.length; i += 32) {\n      assembly {\n        // Load the current element of the proof\n        proofElement := mload(add(_proof, i))\n      }\n\n      if (computedHash < proofElement) {\n        // Hash(current computed hash + current element of the proof)\n        computedHash = keccak256(computedHash, proofElement);\n      } else {\n        // Hash(current element of the proof + current computed hash)\n        computedHash = keccak256(proofElement, computedHash);\n      }\n    }\n\n    // Check if the computed hash (root) is equal to the provided root\n    return computedHash == _root;\n  }\n}\n",
  "sourcePath": "/Users/mehranhydary/Desktop/dev/connect-bc/bids-api/blockchain/contracts/openzeppelin-solidity/contracts/MerkleProof.sol",
  "compiler": {
    "name": "solc",
    "version": "0.4.25+commit.59dbf8f1.Emscripten.clang"
  },
  "schemaVersion": "3.0.0",
  "updatedAt": "2019-09-20T21:39:24.008Z",
  "devdoc": {
    "methods": {}
  },
  "userdoc": {
    "methods": {}
  }
}