{
  "contractName": "PassportFactory",
  "abi": [
    {
      "constant": false,
      "inputs": [
        {
          "name": "token",
          "type": "address"
        }
      ],
      "name": "reclaimToken",
      "outputs": [],
      "payable": false,
      "stateMutability": "nonpayable",
      "type": "function"
    },
    {
      "constant": true,
      "inputs": [],
      "name": "owner",
      "outputs": [
        {
          "name": "",
          "type": "address"
        }
      ],
      "payable": false,
      "stateMutability": "view",
      "type": "function"
    },
    {
      "constant": false,
      "inputs": [],
      "name": "reclaimEther",
      "outputs": [],
      "payable": false,
      "stateMutability": "nonpayable",
      "type": "function"
    },
    {
      "constant": false,
      "inputs": [
        {
          "name": "from_",
          "type": "address"
        },
        {
          "name": "value_",
          "type": "uint256"
        },
        {
          "name": "data_",
          "type": "bytes"
        }
      ],
      "name": "tokenFallback",
      "outputs": [],
      "payable": false,
      "stateMutability": "nonpayable",
      "type": "function"
    },
    {
      "constant": false,
      "inputs": [
        {
          "name": "newOwner",
          "type": "address"
        }
      ],
      "name": "transferOwnership",
      "outputs": [],
      "payable": false,
      "stateMutability": "nonpayable",
      "type": "function"
    },
    {
      "inputs": [
        {
          "name": "_registry",
          "type": "address"
        }
      ],
      "payable": false,
      "stateMutability": "nonpayable",
      "type": "constructor"
    },
    {
      "payable": false,
      "stateMutability": "nonpayable",
      "type": "fallback"
    },
    {
      "anonymous": false,
      "inputs": [
        {
          "indexed": true,
          "name": "passport",
          "type": "address"
        },
        {
          "indexed": true,
          "name": "owner",
          "type": "address"
        }
      ],
      "name": "PassportCreated",
      "type": "event"
    },
    {
      "anonymous": false,
      "inputs": [
        {
          "indexed": true,
          "name": "oldRegistry",
          "type": "address"
        },
        {
          "indexed": true,
          "name": "newRegistry",
          "type": "address"
        }
      ],
      "name": "PassportLogicRegistryChanged",
      "type": "event"
    },
    {
      "anonymous": false,
      "inputs": [
        {
          "indexed": true,
          "name": "previousOwner",
          "type": "address"
        },
        {
          "indexed": true,
          "name": "newOwner",
          "type": "address"
        }
      ],
      "name": "OwnershipTransferred",
      "type": "event"
    },
    {
      "constant": false,
      "inputs": [
        {
          "name": "_registry",
          "type": "address"
        }
      ],
      "name": "setRegistry",
      "outputs": [],
      "payable": false,
      "stateMutability": "nonpayable",
      "type": "function"
    },
    {
      "constant": true,
      "inputs": [],
      "name": "getRegistry",
      "outputs": [
        {
          "name": "",
          "type": "address"
        }
      ],
      "payable": false,
      "stateMutability": "view",
      "type": "function"
    },
    {
      "constant": false,
      "inputs": [],
      "name": "createPassport",
      "outputs": [
        {
          "name": "",
          "type": "address"
        }
      ],
      "payable": false,
      "stateMutability": "nonpayable",
      "type": "function"
    }
  ],
  "bytecode": "0x608060405234801561001057600080fd5b506040516020806118fa83398101806040528101908080519060200190929190505050336000806101000a81548173ffffffffffffffffffffffffffffffffffffffff021916908373ffffffffffffffffffffffffffffffffffffffff16021790555060003414151561008257600080fd5b61009a816100a0640100000000026401000000009004565b5061010a565b60008173ffffffffffffffffffffffffffffffffffffffff16141515156100c657600080fd5b80600160006101000a81548173ffffffffffffffffffffffffffffffffffffffff021916908373ffffffffffffffffffffffffffffffffffffffff16021790555050565b6117e1806101196000396000f30060806040526004361061008e576000357c0100000000000000000000000000000000000000000000000000000000900463ffffffff16806317ffc3201461009d5780632ec0faad146100e05780635ab1bd53146101375780638da5cb5b1461018e5780639f727c27146101e5578063a91ee0dc146101fc578063c0ee0b8a1461023f578063f2fde38b146102a4575b34801561009a57600080fd5b50005b3480156100a957600080fd5b506100de600480360381019080803573ffffffffffffffffffffffffffffffffffffffff1690602001909291905050506102e7565b005b3480156100ec57600080fd5b506100f561046c565b604051808273ffffffffffffffffffffffffffffffffffffffff1673ffffffffffffffffffffffffffffffffffffffff16815260200191505060405180910390f35b34801561014357600080fd5b5061014c610603565b604051808273ffffffffffffffffffffffffffffffffffffffff1673ffffffffffffffffffffffffffffffffffffffff16815260200191505060405180910390f35b34801561019a57600080fd5b506101a361062d565b604051808273ffffffffffffffffffffffffffffffffffffffff1673ffffffffffffffffffffffffffffffffffffffff16815260200191505060405180910390f35b3480156101f157600080fd5b506101fa610652565b005b34801561020857600080fd5b5061023d600480360381019080803573ffffffffffffffffffffffffffffffffffffffff169060200190929190505050610724565b005b34801561024b57600080fd5b506102a2600480360381019080803573ffffffffffffffffffffffffffffffffffffffff16906020019092919080359060200190929190803590602001908201803590602001919091929391929390505050610807565b005b3480156102b057600080fd5b506102e5600480360381019080803573ffffffffffffffffffffffffffffffffffffffff16906020019092919050505061080c565b005b60008060009054906101000a900473ffffffffffffffffffffffffffffffffffffffff1673ffffffffffffffffffffffffffffffffffffffff163373ffffffffffffffffffffffffffffffffffffffff1614151561034457600080fd5b8173ffffffffffffffffffffffffffffffffffffffff166370a08231306040518263ffffffff167c0100000000000000000000000000000000000000000000000000000000028152600401808273ffffffffffffffffffffffffffffffffffffffff1673ffffffffffffffffffffffffffffffffffffffff168152602001915050602060405180830381600087803b1580156103df57600080fd5b505af11580156103f3573d6000803e3d6000fd5b505050506040513d602081101561040957600080fd5b810190808051906020019092919050505090506104686000809054906101000a900473ffffffffffffffffffffffffffffffffffffffff16828473ffffffffffffffffffffffffffffffffffffffff166109619092919063ffffffff16565b5050565b600080600160009054906101000a900473ffffffffffffffffffffffffffffffffffffffff1661049a610ab6565b808273ffffffffffffffffffffffffffffffffffffffff1673ffffffffffffffffffffffffffffffffffffffff168152602001915050604051809103906000f0801580156104ec573d6000803e3d6000fd5b5090508073ffffffffffffffffffffffffffffffffffffffff1663f2fde38b336040518263ffffffff167c0100000000000000000000000000000000000000000000000000000000028152600401808273ffffffffffffffffffffffffffffffffffffffff1673ffffffffffffffffffffffffffffffffffffffff168152602001915050600060405180830381600087803b15801561058a57600080fd5b505af115801561059e573d6000803e3d6000fd5b505050503373ffffffffffffffffffffffffffffffffffffffff168173ffffffffffffffffffffffffffffffffffffffff167f03f096f07a4d27c54645fa682640d44179c821150e16c48b27130ca928fa937c60405160405180910390a38091505090565b6000600160009054906101000a900473ffffffffffffffffffffffffffffffffffffffff16905090565b6000809054906101000a900473ffffffffffffffffffffffffffffffffffffffff1681565b6000809054906101000a900473ffffffffffffffffffffffffffffffffffffffff1673ffffffffffffffffffffffffffffffffffffffff163373ffffffffffffffffffffffffffffffffffffffff161415156106ad57600080fd5b6000809054906101000a900473ffffffffffffffffffffffffffffffffffffffff1673ffffffffffffffffffffffffffffffffffffffff166108fc3073ffffffffffffffffffffffffffffffffffffffff16319081150290604051600060405180830381858888f19350505050151561072257fe5b565b6000809054906101000a900473ffffffffffffffffffffffffffffffffffffffff1673ffffffffffffffffffffffffffffffffffffffff163373ffffffffffffffffffffffffffffffffffffffff1614151561077f57600080fd5b8073ffffffffffffffffffffffffffffffffffffffff16600160009054906101000a900473ffffffffffffffffffffffffffffffffffffffff1673ffffffffffffffffffffffffffffffffffffffff167f5c2abfd67230c0e47d6de28402bfe206c7a57283cba891416ed657fd70a714c260405160405180910390a361080481610a4c565b50565b600080fd5b6000809054906101000a900473ffffffffffffffffffffffffffffffffffffffff1673ffffffffffffffffffffffffffffffffffffffff163373ffffffffffffffffffffffffffffffffffffffff1614151561086757600080fd5b600073ffffffffffffffffffffffffffffffffffffffff168173ffffffffffffffffffffffffffffffffffffffff16141515156108a357600080fd5b8073ffffffffffffffffffffffffffffffffffffffff166000809054906101000a900473ffffffffffffffffffffffffffffffffffffffff1673ffffffffffffffffffffffffffffffffffffffff167f8be0079c531659141344cd1fd0a4f28419497f9722a3daafe3b4186f6b6457e060405160405180910390a3806000806101000a81548173ffffffffffffffffffffffffffffffffffffffff021916908373ffffffffffffffffffffffffffffffffffffffff16021790555050565b8273ffffffffffffffffffffffffffffffffffffffff1663a9059cbb83836040518363ffffffff167c0100000000000000000000000000000000000000000000000000000000028152600401808373ffffffffffffffffffffffffffffffffffffffff1673ffffffffffffffffffffffffffffffffffffffff16815260200182815260200192505050602060405180830381600087803b158015610a0457600080fd5b505af1158015610a18573d6000803e3d6000fd5b505050506040513d6020811015610a2e57600080fd5b81019080805190602001909291905050501515610a4757fe5b505050565b60008173ffffffffffffffffffffffffffffffffffffffff1614151515610a7257600080fd5b80600160006101000a81548173ffffffffffffffffffffffffffffffffffffffff021916908373ffffffffffffffffffffffffffffffffffffffff16021790555050565b604051610cef80610ac7833901905600608060405234801561001057600080fd5b50604051602080610cef8339810180604052810190808051906020019092919050505060405180807f6f72672e6d6f6e657468612e70726f78792e706175736564000000000000000081525060180190506040518091039020600019167f9e7945c55c116aa3404b99fe56db7af9613d3b899554a437c2616a4749a94d8a6001026000191614151561009e57fe5b60405180807f6f72672e6d6f6e657468612e70726f78792e6f776e657200000000000000000081525060170190506040518091039020600019167f3ca57e4b51fc2e18497b219410298879868edada7e6fe5132c8feceb0a080d226001026000191614151561010957fe5b6101213361023b640100000000026401000000009004565b60405180807f6f72672e6d6f6e657468612e70726f78792e70656e64696e674f776e65720000815250601e0190506040518091039020600019167fcfd0c6ea5352192d7d4c5d4e7a73c5da12c871730cb60ff57879cbe7b403bb526001026000191614151561018c57fe5b60405180807f6f72672e6d6f6e657468612e70617373706f72742e70726f78792e726567697381526020017f747279000000000000000000000000000000000000000000000000000000000081525060230190506040518091039020600019167fa04bab69e45aeb4c94a78ba5bc1be67ef28977c4fdf815a30b829a794eb67a4a6001026000191614151561021d57fe5b6102358161026a640100000000026401000000009004565b5061034d565b60007f3ca57e4b51fc2e18497b219410298879868edada7e6fe5132c8feceb0a080d2260010290508181555050565b6000808273ffffffffffffffffffffffffffffffffffffffff1614151515610320576040517f08c379a00000000000000000000000000000000000000000000000000000000081526004018080602001828103825260258152602001807f43616e6e6f742073657420726567697374727920746f2061207a65726f20616481526020017f647265737300000000000000000000000000000000000000000000000000000081525060400191505060405180910390fd5b7fa04bab69e45aeb4c94a78ba5bc1be67ef28977c4fdf815a30b829a794eb67a4a60010290508181555050565b6109938061035c6000396000f30060806040526004361061008e576000357c0100000000000000000000000000000000000000000000000000000000900463ffffffff1680634e71e0c8146100a0578063715018a6146100b757806383197ef0146100ce57806386d5c5f9146100e55780638da5cb5b1461013c578063e30c397814610193578063f2fde38b146101ea578063f5074f411461022d575b61009e610099610270565b61031d565b005b3480156100ac57600080fd5b506100b5610343565b005b3480156100c357600080fd5b506100cc610485565b005b3480156100da57600080fd5b506100e3610599565b005b3480156100f157600080fd5b506100fa610677565b604051808273ffffffffffffffffffffffffffffffffffffffff1673ffffffffffffffffffffffffffffffffffffffff16815260200191505060405180910390f35b34801561014857600080fd5b50610151610686565b604051808273ffffffffffffffffffffffffffffffffffffffff1673ffffffffffffffffffffffffffffffffffffffff16815260200191505060405180910390f35b34801561019f57600080fd5b506101a8610695565b604051808273ffffffffffffffffffffffffffffffffffffffff1673ffffffffffffffffffffffffffffffffffffffff16815260200191505060405180910390f35b3480156101f657600080fd5b5061022b600480360381019080803573ffffffffffffffffffffffffffffffffffffffff1690602001909291905050506106a4565b005b34801561023957600080fd5b5061026e600480360381019080803573ffffffffffffffffffffffffffffffffffffffff16906020019092919050505061076e565b005b600061027a610845565b73ffffffffffffffffffffffffffffffffffffffff1663609725ef6040518163ffffffff167c0100000000000000000000000000000000000000000000000000000000028152600401602060405180830381600087803b1580156102dd57600080fd5b505af11580156102f1573d6000803e3d6000fd5b505050506040513d602081101561030757600080fd5b8101908080519060200190929190505050905090565b3660008037600080366000845af43d6000803e806000811461033e573d6000f35b3d6000fd5b61034b610876565b73ffffffffffffffffffffffffffffffffffffffff163373ffffffffffffffffffffffffffffffffffffffff1614151561038457600080fd5b61038c6108a7565b151515610401576040517f08c379a000000000000000000000000000000000000000000000000000000000815260040180806020018281038252601d8152602001807f636f6e74726163742073686f756c64206e6f742062652070617573656400000081525060200191505060405180910390fd5b610409610876565b73ffffffffffffffffffffffffffffffffffffffff166104276108d8565b73ffffffffffffffffffffffffffffffffffffffff167f8be0079c531659141344cd1fd0a4f28419497f9722a3daafe3b4186f6b6457e060405160405180910390a3610479610474610876565b610909565b6104836000610938565b565b61048d6108d8565b73ffffffffffffffffffffffffffffffffffffffff163373ffffffffffffffffffffffffffffffffffffffff161415156104c657600080fd5b6104ce6108a7565b151515610543576040517f08c379a000000000000000000000000000000000000000000000000000000000815260040180806020018281038252601d8152602001807f636f6e74726163742073686f756c64206e6f742062652070617573656400000081525060200191505060405180910390fd5b61054b6108d8565b73ffffffffffffffffffffffffffffffffffffffff167ff8df31144d9c2f0f6b59d69b8b98abd5459d07f2742c4df920b25aae33c6482060405160405180910390a26105976000610909565b565b6105a16108d8565b73ffffffffffffffffffffffffffffffffffffffff163373ffffffffffffffffffffffffffffffffffffffff161415156105da57600080fd5b6105e26108a7565b151515610657576040517f08c379a000000000000000000000000000000000000000000000000000000000815260040180806020018281038252601d8152602001807f636f6e74726163742073686f756c64206e6f742062652070617573656400000081525060200191505060405180910390fd5b61065f6108d8565b73ffffffffffffffffffffffffffffffffffffffff16ff5b6000610681610845565b905090565b60006106906108d8565b905090565b600061069f610876565b905090565b6106ac6108d8565b73ffffffffffffffffffffffffffffffffffffffff163373ffffffffffffffffffffffffffffffffffffffff161415156106e557600080fd5b6106ed6108a7565b151515610762576040517f08c379a000000000000000000000000000000000000000000000000000000000815260040180806020018281038252601d8152602001807f636f6e74726163742073686f756c64206e6f742062652070617573656400000081525060200191505060405180910390fd5b61076b81610938565b50565b6107766108d8565b73ffffffffffffffffffffffffffffffffffffffff163373ffffffffffffffffffffffffffffffffffffffff161415156107af57600080fd5b6107b76108a7565b15151561082c576040517f08c379a000000000000000000000000000000000000000000000000000000000815260040180806020018281038252601d8152602001807f636f6e74726163742073686f756c64206e6f742062652070617573656400000081525060200191505060405180910390fd5b8073ffffffffffffffffffffffffffffffffffffffff16ff5b6000807fa04bab69e45aeb4c94a78ba5bc1be67ef28977c4fdf815a30b829a794eb67a4a6001029050805491505090565b6000807fcfd0c6ea5352192d7d4c5d4e7a73c5da12c871730cb60ff57879cbe7b403bb526001029050805491505090565b6000807f9e7945c55c116aa3404b99fe56db7af9613d3b899554a437c2616a4749a94d8a6001029050805491505090565b6000807f3ca57e4b51fc2e18497b219410298879868edada7e6fe5132c8feceb0a080d226001029050805491505090565b60007f3ca57e4b51fc2e18497b219410298879868edada7e6fe5132c8feceb0a080d2260010290508181555050565b60007fcfd0c6ea5352192d7d4c5d4e7a73c5da12c871730cb60ff57879cbe7b403bb52600102905081815550505600a165627a7a72305820f08ef5d8a99b6400d98af9db059e60b4c054bbc5f5b5c41ca8909621c6da47720029a165627a7a723058209834701056adbb363d355ff404e2b451f776e16a03235168378864590528e84f0029",
  "source": "pragma solidity ^0.4.24;\n\nimport \"./openzeppelin-solidity/contracts/ownership/Ownable.sol\";\nimport \"./openzeppelin-solidity/contracts/ownership/HasNoEther.sol\";\nimport \"./openzeppelin-solidity/contracts/ownership/HasNoTokens.sol\";\nimport \"./Passport.sol\";\n\n/**\n * @title PassportFactory\n * @dev This contract works as a passport factory.\n */\ncontract PassportFactory is Ownable, HasNoEther, HasNoTokens {\n    // IPassportLogicRegistry private registry;\n    IPassportLogicRegistry private registry;\n\n    /**\n    * @dev This event will be emitted every time a new passport is created\n    * @param passport representing the address of the passport created\n    * @param owner representing the address of the passport owner\n    */\n    event PassportCreated(address indexed passport, address indexed owner);\n\n    /**\n    * @dev This event will be emitted every time a passport logic registry is changed\n    * @param oldRegistry representing the address of the old passport logic registry\n    * @param newRegistry representing the address of the new passport logic registry\n    */\n    event PassportLogicRegistryChanged(address indexed oldRegistry, address indexed newRegistry);\n\n    constructor(IPassportLogicRegistry _registry) public {\n        _setRegistry(_registry);\n    }\n\n    function setRegistry(IPassportLogicRegistry _registry) public onlyOwner {\n        emit PassportLogicRegistryChanged(registry, _registry);\n        _setRegistry(_registry);\n    }\n\n    function getRegistry() external view returns (address) {\n        return registry;\n    }\n\n    /**\n    * @dev Creates new passport. The method should be called by the owner of the created passport.\n    * After the passport is created, the owner must call the claimOwnership() passport method to become a full owner.\n    * @return address of the created passport\n    */\n    function createPassport() public returns (Passport) {\n        Passport pass = new Passport(registry);\n        pass.transferOwnership(msg.sender); // owner needs to call claimOwnership()\n        emit PassportCreated(pass, msg.sender);\n        return pass;\n    }\n\n    function _setRegistry(IPassportLogicRegistry _registry) internal {\n        require(address(_registry) != 0x0);\n        registry = _registry;\n    }\n}",
  "sourcePath": "/Users/mehranhydary/Desktop/dev/connect-bc/bids-api/blockchain/contracts/PassportFactory.sol",
  "compiler": {
    "name": "solc",
    "version": "0.4.25+commit.59dbf8f1.Emscripten.clang"
  },
  "schemaVersion": "3.0.0",
  "updatedAt": "2019-10-03T20:39:37.515Z",
  "devdoc": {
    "methods": {
      "createPassport()": {
        "details": "Creates new passport. The method should be called by the owner of the created passport. After the passport is created, the owner must call the claimOwnership() passport method to become a full owner.",
        "return": "address of the created passport"
      },
      "reclaimEther()": {
        "details": "Transfer all Ether held by the contract to the owner."
      },
      "reclaimToken(address)": {
        "details": "Reclaim all ERC20Basic compatible tokens",
        "params": {
          "token": "ERC20Basic The address of the token contract"
        }
      },
      "tokenFallback(address,uint256,bytes)": {
        "details": "Reject all ERC23 compatible tokens",
        "params": {
          "data_": "Bytes The data passed from the caller.",
          "from_": "address The address that is transferring the tokens",
          "value_": "uint256 the amount of the specified token"
        }
      },
      "transferOwnership(address)": {
        "details": "Allows the current owner to transfer control of the contract to a newOwner.",
        "params": {
          "newOwner": "The address to transfer ownership to."
        }
      }
    },
    "title": "PassportFactory"
  },
  "userdoc": {
    "methods": {}
  }
}