{
  "contractName": "PassportLogicRegistry",
  "abi": [
    {
      "constant": false,
      "inputs": [
        {
          "name": "token",
          "type": "address"
        }
      ],
      "name": "reclaimToken",
      "outputs": [],
      "payable": false,
      "stateMutability": "nonpayable",
      "type": "function"
    },
    {
      "constant": true,
      "inputs": [],
      "name": "owner",
      "outputs": [
        {
          "name": "",
          "type": "address"
        }
      ],
      "payable": false,
      "stateMutability": "view",
      "type": "function"
    },
    {
      "constant": false,
      "inputs": [],
      "name": "reclaimEther",
      "outputs": [],
      "payable": false,
      "stateMutability": "nonpayable",
      "type": "function"
    },
    {
      "constant": false,
      "inputs": [
        {
          "name": "from_",
          "type": "address"
        },
        {
          "name": "value_",
          "type": "uint256"
        },
        {
          "name": "data_",
          "type": "bytes"
        }
      ],
      "name": "tokenFallback",
      "outputs": [],
      "payable": false,
      "stateMutability": "nonpayable",
      "type": "function"
    },
    {
      "constant": false,
      "inputs": [
        {
          "name": "newOwner",
          "type": "address"
        }
      ],
      "name": "transferOwnership",
      "outputs": [],
      "payable": false,
      "stateMutability": "nonpayable",
      "type": "function"
    },
    {
      "inputs": [
        {
          "name": "_version",
          "type": "string"
        },
        {
          "name": "_implementation",
          "type": "address"
        }
      ],
      "payable": false,
      "stateMutability": "nonpayable",
      "type": "constructor"
    },
    {
      "payable": false,
      "stateMutability": "nonpayable",
      "type": "fallback"
    },
    {
      "anonymous": false,
      "inputs": [
        {
          "indexed": true,
          "name": "previousOwner",
          "type": "address"
        },
        {
          "indexed": true,
          "name": "newOwner",
          "type": "address"
        }
      ],
      "name": "OwnershipTransferred",
      "type": "event"
    },
    {
      "anonymous": false,
      "inputs": [
        {
          "indexed": false,
          "name": "version",
          "type": "string"
        },
        {
          "indexed": false,
          "name": "implementation",
          "type": "address"
        }
      ],
      "name": "PassportLogicAdded",
      "type": "event"
    },
    {
      "anonymous": false,
      "inputs": [
        {
          "indexed": false,
          "name": "version",
          "type": "string"
        },
        {
          "indexed": false,
          "name": "implementation",
          "type": "address"
        }
      ],
      "name": "CurrentPassportLogicSet",
      "type": "event"
    },
    {
      "constant": false,
      "inputs": [
        {
          "name": "_version",
          "type": "string"
        },
        {
          "name": "_implementation",
          "type": "address"
        }
      ],
      "name": "addPassportLogic",
      "outputs": [],
      "payable": false,
      "stateMutability": "nonpayable",
      "type": "function"
    },
    {
      "constant": true,
      "inputs": [
        {
          "name": "_version",
          "type": "string"
        }
      ],
      "name": "getPassportLogic",
      "outputs": [
        {
          "name": "",
          "type": "address"
        }
      ],
      "payable": false,
      "stateMutability": "view",
      "type": "function"
    },
    {
      "constant": false,
      "inputs": [
        {
          "name": "_version",
          "type": "string"
        }
      ],
      "name": "setCurrentPassportLogic",
      "outputs": [],
      "payable": false,
      "stateMutability": "nonpayable",
      "type": "function"
    },
    {
      "constant": true,
      "inputs": [],
      "name": "getCurrentPassportLogicVersion",
      "outputs": [
        {
          "name": "",
          "type": "string"
        }
      ],
      "payable": false,
      "stateMutability": "view",
      "type": "function"
    },
    {
      "constant": true,
      "inputs": [],
      "name": "getCurrentPassportLogic",
      "outputs": [
        {
          "name": "",
          "type": "address"
        }
      ],
      "payable": false,
      "stateMutability": "view",
      "type": "function"
    }
  ],
  "bytecode": "0x60806040523480156200001157600080fd5b5060405162001ad138038062001ad18339810180604052810190808051820192919060200180519060200190929190505050336000806101000a81548173ffffffffffffffffffffffffffffffffffffffff021916908373ffffffffffffffffffffffffffffffffffffffff1602179055506000341415156200009357600080fd5b620000ae8282620000d0640100000000026401000000009004565b620000c8826200044b640100000000026401000000009004565b50506200083b565b60008173ffffffffffffffffffffffffffffffffffffffff161415151562000186576040517f08c379a000000000000000000000000000000000000000000000000000000000815260040180806020018281038252602b8152602001807f43616e6e6f742073657420696d706c656d656e746174696f6e20746f2061207a81526020017f65726f206164647265737300000000000000000000000000000000000000000081525060400191505060405180910390fd5b60006003836040518082805190602001908083835b602083101515620001c257805182526020820191506020810190506020830392506200019b565b6001836020036101000a038019825116818451168082178552505050505050905001915050908152602001604051809103902060009054906101000a900473ffffffffffffffffffffffffffffffffffffffff1673ffffffffffffffffffffffffffffffffffffffff16141515620002c8576040517f08c379a000000000000000000000000000000000000000000000000000000000815260040180806020018281038252602e8152602001807f43616e6e6f74207265706c616365206578697374696e672076657273696f6e2081526020017f696d706c656d656e746174696f6e00000000000000000000000000000000000081525060400191505060405180910390fd5b806003836040518082805190602001908083835b602083101515620003035780518252602082019150602081019050602083039250620002dc565b6001836020036101000a038019825116818451168082178552505050505050905001915050908152602001604051809103902060006101000a81548173ffffffffffffffffffffffffffffffffffffffff021916908373ffffffffffffffffffffffffffffffffffffffff1602179055507f7471eb04045ae72adb2fb73deb1e873113901110dd66dbde715232f2495a0cd8828260405180806020018373ffffffffffffffffffffffffffffffffffffffff1673ffffffffffffffffffffffffffffffffffffffff168152602001828103825284818151815260200191508051906020019080838360005b838110156200040b578082015181840152602081019050620003ee565b50505050905090810190601f168015620004395780820380516001836020036101000a031916815260200191505b50935050505060405180910390a15050565b60006003826040518082805190602001908083835b60208310151562000487578051825260208201915060208101905060208303925062000460565b6001836020036101000a038019825116818451168082178552505050505050905001915050908152602001604051809103902060009054906101000a900473ffffffffffffffffffffffffffffffffffffffff1673ffffffffffffffffffffffffffffffffffffffff16141515156200058e576040517f08c379a00000000000000000000000000000000000000000000000000000000081526004018080602001828103825260408152602001807f43616e6e6f7420736574206e6f6e2d6578697374696e672070617373706f727481526020017f206c6f6769632061732063757272656e7420696d706c656d656e746174696f6e81525060400191505060405180910390fd5b8060019080519060200190620005a69291906200078c565b506003816040518082805190602001908083835b602083101515620005e15780518252602082019150602081019050602083039250620005ba565b6001836020036101000a038019825116818451168082178552505050505050905001915050908152602001604051809103902060009054906101000a900473ffffffffffffffffffffffffffffffffffffffff16600260006101000a81548173ffffffffffffffffffffffffffffffffffffffff021916908373ffffffffffffffffffffffffffffffffffffffff1602179055507f4e366bf178b123bb29442cddeceedf743c23cbb40cffa5f577217fe2c54a0b196001600260009054906101000a900473ffffffffffffffffffffffffffffffffffffffff1660405180806020018373ffffffffffffffffffffffffffffffffffffffff1673ffffffffffffffffffffffffffffffffffffffff1681526020018281038252848181546001816001161561010002031660029004815260200191508054600181600116156101000203166002900480156200077a5780601f106200074e576101008083540402835291602001916200077a565b820191906000526020600020905b8154815290600101906020018083116200075c57829003601f168201915b5050935050505060405180910390a150565b828054600181600116156101000203166002900490600052602060002090601f016020900481019282601f10620007cf57805160ff191683800117855562000800565b8280016001018555821562000800579182015b82811115620007ff578251825591602001919060010190620007e2565b5b5090506200080f919062000813565b5090565b6200083891905b80821115620008345760008160009055506001016200081a565b5090565b90565b611286806200084b6000396000f3006080604052600436106100a4576000357c0100000000000000000000000000000000000000000000000000000000900463ffffffff16806317ffc320146100b3578063593efdf1146100f6578063609725ef1461015f5780638da5cb5b146101b65780639a1295d91461020d5780639f727c2714610288578063ba6124931461029f578063c0ee0b8a1461032f578063c7c40fbb14610394578063f2fde38b1461041d575b3480156100b057600080fd5b50005b3480156100bf57600080fd5b506100f4600480360381019080803573ffffffffffffffffffffffffffffffffffffffff169060200190929190505050610460565b005b34801561010257600080fd5b5061015d600480360381019080803590602001908201803590602001908080601f01602080910402602001604051908101604052809392919081815260200183838082843782019150505050505091929192905050506105e5565b005b34801561016b57600080fd5b5061017461064c565b604051808273ffffffffffffffffffffffffffffffffffffffff1673ffffffffffffffffffffffffffffffffffffffff16815260200191505060405180910390f35b3480156101c257600080fd5b506101cb610676565b604051808273ffffffffffffffffffffffffffffffffffffffff1673ffffffffffffffffffffffffffffffffffffffff16815260200191505060405180910390f35b34801561021957600080fd5b5061024660048036038101908080359060200190820180359060200191909192939192939050505061069b565b604051808273ffffffffffffffffffffffffffffffffffffffff1673ffffffffffffffffffffffffffffffffffffffff16815260200191505060405180910390f35b34801561029457600080fd5b5061029d6106eb565b005b3480156102ab57600080fd5b506102b46107bd565b6040518080602001828103825283818151815260200191508051906020019080838360005b838110156102f45780820151818401526020810190506102d9565b50505050905090810190601f1680156103215780820380516001836020036101000a031916815260200191505b509250505060405180910390f35b34801561033b57600080fd5b50610392600480360381019080803573ffffffffffffffffffffffffffffffffffffffff1690602001909291908035906020019092919080359060200190820180359060200191909192939192939050505061085f565b005b3480156103a057600080fd5b5061041b600480360381019080803590602001908201803590602001908080601f0160208091040260200160405190810160405280939291908181526020018383808284378201915050505050509192919290803573ffffffffffffffffffffffffffffffffffffffff169060200190929190505050610864565b005b34801561042957600080fd5b5061045e600480360381019080803573ffffffffffffffffffffffffffffffffffffffff1690602001909291905050506108cd565b005b60008060009054906101000a900473ffffffffffffffffffffffffffffffffffffffff1673ffffffffffffffffffffffffffffffffffffffff163373ffffffffffffffffffffffffffffffffffffffff161415156104bd57600080fd5b8173ffffffffffffffffffffffffffffffffffffffff166370a08231306040518263ffffffff167c0100000000000000000000000000000000000000000000000000000000028152600401808273ffffffffffffffffffffffffffffffffffffffff1673ffffffffffffffffffffffffffffffffffffffff168152602001915050602060405180830381600087803b15801561055857600080fd5b505af115801561056c573d6000803e3d6000fd5b505050506040513d602081101561058257600080fd5b810190808051906020019092919050505090506105e16000809054906101000a900473ffffffffffffffffffffffffffffffffffffffff16828473ffffffffffffffffffffffffffffffffffffffff16610a229092919063ffffffff16565b5050565b6000809054906101000a900473ffffffffffffffffffffffffffffffffffffffff1673ffffffffffffffffffffffffffffffffffffffff163373ffffffffffffffffffffffffffffffffffffffff1614151561064057600080fd5b61064981610b0d565b50565b6000600260009054906101000a900473ffffffffffffffffffffffffffffffffffffffff16905090565b6000809054906101000a900473ffffffffffffffffffffffffffffffffffffffff1681565b60006003838360405180838380828437820191505092505050908152602001604051809103902060009054906101000a900473ffffffffffffffffffffffffffffffffffffffff16905092915050565b6000809054906101000a900473ffffffffffffffffffffffffffffffffffffffff1673ffffffffffffffffffffffffffffffffffffffff163373ffffffffffffffffffffffffffffffffffffffff1614151561074657600080fd5b6000809054906101000a900473ffffffffffffffffffffffffffffffffffffffff1673ffffffffffffffffffffffffffffffffffffffff166108fc3073ffffffffffffffffffffffffffffffffffffffff16319081150290604051600060405180830381858888f1935050505015156107bb57fe5b565b606060018054600181600116156101000203166002900480601f0160208091040260200160405190810160405280929190818152602001828054600181600116156101000203166002900480156108555780601f1061082a57610100808354040283529160200191610855565b820191906000526020600020905b81548152906001019060200180831161083857829003601f168201915b5050505050905090565b600080fd5b6000809054906101000a900473ffffffffffffffffffffffffffffffffffffffff1673ffffffffffffffffffffffffffffffffffffffff163373ffffffffffffffffffffffffffffffffffffffff161415156108bf57600080fd5b6108c98282610e43565b5050565b6000809054906101000a900473ffffffffffffffffffffffffffffffffffffffff1673ffffffffffffffffffffffffffffffffffffffff163373ffffffffffffffffffffffffffffffffffffffff1614151561092857600080fd5b600073ffffffffffffffffffffffffffffffffffffffff168173ffffffffffffffffffffffffffffffffffffffff161415151561096457600080fd5b8073ffffffffffffffffffffffffffffffffffffffff166000809054906101000a900473ffffffffffffffffffffffffffffffffffffffff1673ffffffffffffffffffffffffffffffffffffffff167f8be0079c531659141344cd1fd0a4f28419497f9722a3daafe3b4186f6b6457e060405160405180910390a3806000806101000a81548173ffffffffffffffffffffffffffffffffffffffff021916908373ffffffffffffffffffffffffffffffffffffffff16021790555050565b8273ffffffffffffffffffffffffffffffffffffffff1663a9059cbb83836040518363ffffffff167c0100000000000000000000000000000000000000000000000000000000028152600401808373ffffffffffffffffffffffffffffffffffffffff1673ffffffffffffffffffffffffffffffffffffffff16815260200182815260200192505050602060405180830381600087803b158015610ac557600080fd5b505af1158015610ad9573d6000803e3d6000fd5b505050506040513d6020811015610aef57600080fd5b81019080805190602001909291905050501515610b0857fe5b505050565b60006003826040518082805190602001908083835b602083101515610b475780518252602082019150602081019050602083039250610b22565b6001836020036101000a038019825116818451168082178552505050505050905001915050908152602001604051809103902060009054906101000a900473ffffffffffffffffffffffffffffffffffffffff1673ffffffffffffffffffffffffffffffffffffffff1614151515610c4d576040517f08c379a00000000000000000000000000000000000000000000000000000000081526004018080602001828103825260408152602001807f43616e6e6f7420736574206e6f6e2d6578697374696e672070617373706f727481526020017f206c6f6769632061732063757272656e7420696d706c656d656e746174696f6e81525060400191505060405180910390fd5b8060019080519060200190610c639291906111b5565b506003816040518082805190602001908083835b602083101515610c9c5780518252602082019150602081019050602083039250610c77565b6001836020036101000a038019825116818451168082178552505050505050905001915050908152602001604051809103902060009054906101000a900473ffffffffffffffffffffffffffffffffffffffff16600260006101000a81548173ffffffffffffffffffffffffffffffffffffffff021916908373ffffffffffffffffffffffffffffffffffffffff1602179055507f4e366bf178b123bb29442cddeceedf743c23cbb40cffa5f577217fe2c54a0b196001600260009054906101000a900473ffffffffffffffffffffffffffffffffffffffff1660405180806020018373ffffffffffffffffffffffffffffffffffffffff1673ffffffffffffffffffffffffffffffffffffffff168152602001828103825284818154600181600116156101000203166002900481526020019150805460018160011615610100020316600290048015610e315780601f10610e0657610100808354040283529160200191610e31565b820191906000526020600020905b815481529060010190602001808311610e1457829003601f168201915b5050935050505060405180910390a150565b60008173ffffffffffffffffffffffffffffffffffffffff1614151515610ef8576040517f08c379a000000000000000000000000000000000000000000000000000000000815260040180806020018281038252602b8152602001807f43616e6e6f742073657420696d706c656d656e746174696f6e20746f2061207a81526020017f65726f206164647265737300000000000000000000000000000000000000000081525060400191505060405180910390fd5b60006003836040518082805190602001908083835b602083101515610f325780518252602082019150602081019050602083039250610f0d565b6001836020036101000a038019825116818451168082178552505050505050905001915050908152602001604051809103902060009054906101000a900473ffffffffffffffffffffffffffffffffffffffff1673ffffffffffffffffffffffffffffffffffffffff16141515611037576040517f08c379a000000000000000000000000000000000000000000000000000000000815260040180806020018281038252602e8152602001807f43616e6e6f74207265706c616365206578697374696e672076657273696f6e2081526020017f696d706c656d656e746174696f6e00000000000000000000000000000000000081525060400191505060405180910390fd5b806003836040518082805190602001908083835b602083101515611070578051825260208201915060208101905060208303925061104b565b6001836020036101000a038019825116818451168082178552505050505050905001915050908152602001604051809103902060006101000a81548173ffffffffffffffffffffffffffffffffffffffff021916908373ffffffffffffffffffffffffffffffffffffffff1602179055507f7471eb04045ae72adb2fb73deb1e873113901110dd66dbde715232f2495a0cd8828260405180806020018373ffffffffffffffffffffffffffffffffffffffff1673ffffffffffffffffffffffffffffffffffffffff168152602001828103825284818151815260200191508051906020019080838360005b8381101561117657808201518184015260208101905061115b565b50505050905090810190601f1680156111a35780820380516001836020036101000a031916815260200191505b50935050505060405180910390a15050565b828054600181600116156101000203166002900490600052602060002090601f016020900481019282601f106111f657805160ff1916838001178555611224565b82800160010185558215611224579182015b82811115611223578251825591602001919060010190611208565b5b5090506112319190611235565b5090565b61125791905b8082111561125357600081600090555060010161123b565b5090565b905600a165627a7a72305820100230b4fa6688caec0a9b9fd8f6694b829a2f235445d8445206453804f7ce8c0029",
  "source": "pragma solidity ^0.4.24;\r\n\r\nimport \"./openzeppelin-solidity/contracts/ownership/Ownable.sol\";\r\nimport \"./openzeppelin-solidity/contracts/ownership/HasNoEther.sol\";\r\nimport \"./openzeppelin-solidity/contracts/ownership/HasNoTokens.sol\";\r\nimport \"./IPassportLogicRegistry.sol\";\r\n\r\n/**\r\n * @title PassportImplRegistry\r\n * @dev This contract works as a registry of passport implementations, it holds the implementations for the registered versions.\r\n */\r\ncontract PassportLogicRegistry is IPassportLogicRegistry, Ownable, HasNoEther, HasNoTokens {\r\n    // current passport version/implementation\r\n    string internal currentPassportLogicVersion;\r\n    address internal currentPassportLogic;\r\n\r\n    // Mapping of versions to passport implementations\r\n    mapping(string => address) internal passportLogicImplementations;\r\n\r\n    /**\r\n     * @dev The PassportImplRegistry constructor sets the current passport version and implementation.\r\n     */\r\n    constructor (string memory _version, address _implementation) public {\r\n        _addPassportLogic(_version, _implementation);\r\n        _setCurrentPassportLogic(_version);\r\n    }\r\n\r\n    /**\r\n     * @dev Registers a new passport version with its logic implementation address\r\n     * @param _version representing the version name of the new passport logic implementation to be registered\r\n     * @param _implementation representing the address of the new passport logic implementation to be registered\r\n     */\r\n    function addPassportLogic(string memory _version, address _implementation) public onlyOwner {\r\n        _addPassportLogic(_version, _implementation);\r\n    }\r\n\r\n    /**\r\n     * @dev Tells the address of the passport logic implementation for a given version\r\n     * @param _version to query the implementation of\r\n     * @return address of the passport logic implementation registered for the given version\r\n     */\r\n    function getPassportLogic(string _version) external view returns (address) {\r\n        return passportLogicImplementations[_version];\r\n    }\r\n\r\n    /**\r\n     * @dev Sets a new passport logic implementation as current one\r\n     * @param _version representing the version name of the passport logic implementation to be set as current one\r\n     */\r\n    function setCurrentPassportLogic(string memory _version) public onlyOwner {\r\n        _setCurrentPassportLogic(_version);\r\n    }\r\n\r\n    /**\r\n     * @dev Tells the version of the current passport logic implementation\r\n     * @return version of the current passport logic implementation\r\n     */\r\n    function getCurrentPassportLogicVersion() external view returns (string memory) {\r\n        return currentPassportLogicVersion;\r\n    }\r\n\r\n    /**\r\n     * @dev Tells the address of the current passport logic implementation\r\n     * @return address of the current passport logic implementation\r\n     */\r\n    function getCurrentPassportLogic() external view returns (address) {\r\n        return currentPassportLogic;\r\n    }\r\n\r\n    function _addPassportLogic(string memory _version, address _implementation) internal {\r\n        require(_implementation != 0x0, \"Cannot set implementation to a zero address\");\r\n        require(passportLogicImplementations[_version] == 0x0, \"Cannot replace existing version implementation\");\r\n\r\n        passportLogicImplementations[_version] = _implementation;\r\n        emit PassportLogicAdded(_version, _implementation);\r\n    }\r\n\r\n    function _setCurrentPassportLogic(string memory _version) internal {\r\n        require(passportLogicImplementations[_version] != 0x0, \"Cannot set non-existing passport logic as current implementation\");\r\n\r\n        currentPassportLogicVersion = _version;\r\n        currentPassportLogic = passportLogicImplementations[_version];\r\n        emit CurrentPassportLogicSet(currentPassportLogicVersion, currentPassportLogic);\r\n    }\r\n}",
  "sourcePath": "c:\\UNICEF\\dev\\connect-bc\\bids-api\\blockchain\\contracts\\PassportLogicRegistry.sol",
  "compiler": {
    "name": "solc",
    "version": "0.4.25+commit.59dbf8f1.Emscripten.clang"
  },
  "schemaVersion": "3.0.23",
  "updatedAt": "2020-04-28T17:42:08.505Z",
  "devdoc": {
    "methods": {
      "addPassportLogic(string,address)": {
        "details": "Registers a new passport version with its logic implementation address\r",
        "params": {
          "_implementation": "representing the address of the new passport logic implementation to be registered\r",
          "_version": "representing the version name of the new passport logic implementation to be registered\r"
        }
      },
      "getCurrentPassportLogic()": {
        "details": "Tells the address of the current passport logic implementation\r",
        "return": "address of the current passport logic implementation\r"
      },
      "getCurrentPassportLogicVersion()": {
        "details": "Tells the version of the current passport logic implementation\r",
        "return": "version of the current passport logic implementation\r"
      },
      "getPassportLogic(string)": {
        "details": "Tells the address of the passport logic implementation for a given version\r",
        "params": {
          "_version": "to query the implementation of\r"
        },
        "return": "address of the passport logic implementation registered for the given version\r"
      },
      "reclaimEther()": {
        "details": "Transfer all Ether held by the contract to the owner.\r"
      },
      "reclaimToken(address)": {
        "details": "Reclaim all ERC20Basic compatible tokens\r",
        "params": {
          "token": "ERC20Basic The address of the token contract\r"
        }
      },
      "setCurrentPassportLogic(string)": {
        "details": "Sets a new passport logic implementation as current one\r",
        "params": {
          "_version": "representing the version name of the passport logic implementation to be set as current one\r"
        }
      },
      "tokenFallback(address,uint256,bytes)": {
        "details": "Reject all ERC23 compatible tokens\r",
        "params": {
          "data_": "Bytes The data passed from the caller.\r",
          "from_": "address The address that is transferring the tokens\r",
          "value_": "uint256 the amount of the specified token\r"
        }
      },
      "transferOwnership(address)": {
        "details": "Allows the current owner to transfer control of the contract to a newOwner.\r",
        "params": {
          "newOwner": "The address to transfer ownership to.\r"
        }
      }
    },
    "title": "PassportImplRegistry\r"
  },
  "userdoc": {
    "methods": {}
  }
}