{
  "contractName": "PassportLogic",
  "abi": [
    {
      "constant": false,
      "inputs": [
        {
          "name": "_exchangeIdx",
          "type": "uint256"
        }
      ],
      "name": "finishPrivateDataExchange",
      "outputs": [],
      "payable": false,
      "stateMutability": "nonpayable",
      "type": "function"
    },
    {
      "constant": false,
      "inputs": [
        {
          "name": "_exchangeIdx",
          "type": "uint256"
        }
      ],
      "name": "timeoutPrivateDataExchange",
      "outputs": [],
      "payable": false,
      "stateMutability": "nonpayable",
      "type": "function"
    },
    {
      "constant": true,
      "inputs": [],
      "name": "privateDataExchangeAcceptTimeout",
      "outputs": [
        {
          "name": "",
          "type": "uint256"
        }
      ],
      "payable": false,
      "stateMutability": "view",
      "type": "function"
    },
    {
      "constant": false,
      "inputs": [
        {
          "name": "_key",
          "type": "bytes32"
        }
      ],
      "name": "deleteAddress",
      "outputs": [],
      "payable": false,
      "stateMutability": "nonpayable",
      "type": "function"
    },
    {
      "constant": true,
      "inputs": [
        {
          "name": "_factProvider",
          "type": "address"
        },
        {
          "name": "_key",
          "type": "bytes32"
        }
      ],
      "name": "getTxDataBlockNumber",
      "outputs": [
        {
          "name": "success",
          "type": "bool"
        },
        {
          "name": "blockNumber",
          "type": "uint256"
        }
      ],
      "payable": false,
      "stateMutability": "view",
      "type": "function"
    },
    {
      "constant": true,
      "inputs": [
        {
          "name": "_address",
          "type": "address"
        }
      ],
      "name": "isAllowedFactProvider",
      "outputs": [
        {
          "name": "",
          "type": "bool"
        }
      ],
      "payable": false,
      "stateMutability": "view",
      "type": "function"
    },
    {
      "constant": true,
      "inputs": [
        {
          "name": "_factProvider",
          "type": "address"
        },
        {
          "name": "_key",
          "type": "bytes32"
        }
      ],
      "name": "getIPFSHash",
      "outputs": [
        {
          "name": "success",
          "type": "bool"
        },
        {
          "name": "value",
          "type": "string"
        }
      ],
      "payable": false,
      "stateMutability": "view",
      "type": "function"
    },
    {
      "constant": false,
      "inputs": [
        {
          "name": "_key",
          "type": "bytes32"
        }
      ],
      "name": "deleteIPFSHash",
      "outputs": [],
      "payable": false,
      "stateMutability": "nonpayable",
      "type": "function"
    },
    {
      "constant": false,
      "inputs": [
        {
          "name": "_onlyWhitelist",
          "type": "bool"
        }
      ],
      "name": "setWhitelistOnlyPermission",
      "outputs": [],
      "payable": false,
      "stateMutability": "nonpayable",
      "type": "function"
    },
    {
      "constant": false,
      "inputs": [
        {
          "name": "_key",
          "type": "bytes32"
        }
      ],
      "name": "deleteBool",
      "outputs": [],
      "payable": false,
      "stateMutability": "nonpayable",
      "type": "function"
    },
    {
      "constant": true,
      "inputs": [
        {
          "name": "_factProvider",
          "type": "address"
        },
        {
          "name": "_key",
          "type": "bytes32"
        }
      ],
      "name": "getPrivateDataHashes",
      "outputs": [
        {
          "name": "success",
          "type": "bool"
        },
        {
          "name": "dataIPFSHash",
          "type": "string"
        },
        {
          "name": "dataKeyHash",
          "type": "bytes32"
        }
      ],
      "payable": false,
      "stateMutability": "view",
      "type": "function"
    },
    {
      "constant": false,
      "inputs": [
        {
          "name": "_key",
          "type": "bytes32"
        },
        {
          "name": "_value",
          "type": "bytes"
        }
      ],
      "name": "setBytes",
      "outputs": [],
      "payable": false,
      "stateMutability": "nonpayable",
      "type": "function"
    },
    {
      "constant": false,
      "inputs": [
        {
          "name": "_key",
          "type": "bytes32"
        },
        {
          "name": "_value",
          "type": "int256"
        }
      ],
      "name": "setInt",
      "outputs": [],
      "payable": false,
      "stateMutability": "nonpayable",
      "type": "function"
    },
    {
      "constant": false,
      "inputs": [],
      "name": "claimOwnership",
      "outputs": [],
      "payable": false,
      "stateMutability": "nonpayable",
      "type": "function"
    },
    {
      "constant": false,
      "inputs": [
        {
          "name": "_key",
          "type": "bytes32"
        },
        {
          "name": "_data",
          "type": "bytes"
        }
      ],
      "name": "setTxDataBlockNumber",
      "outputs": [],
      "payable": false,
      "stateMutability": "nonpayable",
      "type": "function"
    },
    {
      "constant": false,
      "inputs": [
        {
          "name": "_key",
          "type": "bytes32"
        }
      ],
      "name": "deleteBytes",
      "outputs": [],
      "payable": false,
      "stateMutability": "nonpayable",
      "type": "function"
    },
    {
      "constant": true,
      "inputs": [],
      "name": "isWhitelistOnlyPermissionSet",
      "outputs": [
        {
          "name": "",
          "type": "bool"
        }
      ],
      "payable": false,
      "stateMutability": "view",
      "type": "function"
    },
    {
      "constant": false,
      "inputs": [
        {
          "name": "_key",
          "type": "bytes32"
        }
      ],
      "name": "deletePrivateDataHashes",
      "outputs": [],
      "payable": false,
      "stateMutability": "nonpayable",
      "type": "function"
    },
    {
      "constant": true,
      "inputs": [
        {
          "name": "_factProvider",
          "type": "address"
        },
        {
          "name": "_key",
          "type": "bytes32"
        }
      ],
      "name": "getBytes",
      "outputs": [
        {
          "name": "success",
          "type": "bool"
        },
        {
          "name": "value",
          "type": "bytes"
        }
      ],
      "payable": false,
      "stateMutability": "view",
      "type": "function"
    },
    {
      "constant": false,
      "inputs": [
        {
          "name": "_key",
          "type": "bytes32"
        },
        {
          "name": "_value",
          "type": "string"
        }
      ],
      "name": "setIPFSHash",
      "outputs": [],
      "payable": false,
      "stateMutability": "nonpayable",
      "type": "function"
    },
    {
      "constant": false,
      "inputs": [
        {
          "name": "_address",
          "type": "address"
        }
      ],
      "name": "removeFactProviderFromWhitelist",
      "outputs": [],
      "payable": false,
      "stateMutability": "nonpayable",
      "type": "function"
    },
    {
      "constant": false,
      "inputs": [
        {
          "name": "_key",
          "type": "bytes32"
        },
        {
          "name": "_value",
          "type": "string"
        }
      ],
      "name": "setString",
      "outputs": [],
      "payable": false,
      "stateMutability": "nonpayable",
      "type": "function"
    },
    {
      "constant": true,
      "inputs": [
        {
          "name": "",
          "type": "uint256"
        }
      ],
      "name": "privateDataExchanges",
      "outputs": [
        {
          "name": "dataRequester",
          "type": "address"
        },
        {
          "name": "dataRequesterValue",
          "type": "uint256"
        },
        {
          "name": "passportOwner",
          "type": "address"
        },
        {
          "name": "passportOwnerValue",
          "type": "uint256"
        },
        {
          "name": "factProvider",
          "type": "address"
        },
        {
          "name": "key",
          "type": "bytes32"
        },
        {
          "name": "dataIPFSHash",
          "type": "string"
        },
        {
          "name": "dataKeyHash",
          "type": "bytes32"
        },
        {
          "name": "encryptedExchangeKey",
          "type": "bytes"
        },
        {
          "name": "exchangeKeyHash",
          "type": "bytes32"
        },
        {
          "name": "encryptedDataKey",
          "type": "bytes32"
        },
        {
          "name": "state",
          "type": "uint8"
        },
        {
          "name": "stateExpired",
          "type": "uint256"
        }
      ],
      "payable": false,
      "stateMutability": "view",
      "type": "function"
    },
    {
      "constant": false,
      "inputs": [],
      "name": "renounceOwnership",
      "outputs": [],
      "payable": false,
      "stateMutability": "nonpayable",
      "type": "function"
    },
    {
      "constant": true,
      "inputs": [
        {
          "name": "_factProvider",
          "type": "address"
        },
        {
          "name": "_key",
          "type": "bytes32"
        }
      ],
      "name": "getUint",
      "outputs": [
        {
          "name": "success",
          "type": "bool"
        },
        {
          "name": "value",
          "type": "uint256"
        }
      ],
      "payable": false,
      "stateMutability": "view",
      "type": "function"
    },
    {
      "constant": true,
      "inputs": [
        {
          "name": "_factProvider",
          "type": "address"
        },
        {
          "name": "_key",
          "type": "bytes32"
        }
      ],
      "name": "getAddress",
      "outputs": [
        {
          "name": "success",
          "type": "bool"
        },
        {
          "name": "value",
          "type": "address"
        }
      ],
      "payable": false,
      "stateMutability": "view",
      "type": "function"
    },
    {
      "constant": true,
      "inputs": [],
      "name": "getPrivateDataExchangesCount",
      "outputs": [
        {
          "name": "count",
          "type": "uint256"
        }
      ],
      "payable": false,
      "stateMutability": "view",
      "type": "function"
    },
    {
      "constant": false,
      "inputs": [
        {
          "name": "_exchangeIdx",
          "type": "uint256"
        },
        {
          "name": "_encryptedDataKey",
          "type": "bytes32"
        }
      ],
      "name": "acceptPrivateDataExchange",
      "outputs": [],
      "payable": true,
      "stateMutability": "payable",
      "type": "function"
    },
    {
      "constant": true,
      "inputs": [
        {
          "name": "_address",
          "type": "address"
        }
      ],
      "name": "isFactProviderInWhitelist",
      "outputs": [
        {
          "name": "",
          "type": "bool"
        }
      ],
      "payable": false,
      "stateMutability": "view",
      "type": "function"
    },
    {
      "constant": false,
      "inputs": [
        {
          "name": "_key",
          "type": "bytes32"
        }
      ],
      "name": "deleteInt",
      "outputs": [],
      "payable": false,
      "stateMutability": "nonpayable",
      "type": "function"
    },
    {
      "constant": true,
      "inputs": [],
      "name": "owner",
      "outputs": [
        {
          "name": "",
          "type": "address"
        }
      ],
      "payable": false,
      "stateMutability": "view",
      "type": "function"
    },
    {
      "constant": true,
      "inputs": [
        {
          "name": "_factProvider",
          "type": "address"
        },
        {
          "name": "_key",
          "type": "bytes32"
        }
      ],
      "name": "getInt",
      "outputs": [
        {
          "name": "success",
          "type": "bool"
        },
        {
          "name": "value",
          "type": "int256"
        }
      ],
      "payable": false,
      "stateMutability": "view",
      "type": "function"
    },
    {
      "constant": true,
      "inputs": [
        {
          "name": "_factProvider",
          "type": "address"
        },
        {
          "name": "_key",
          "type": "bytes32"
        }
      ],
      "name": "getBool",
      "outputs": [
        {
          "name": "success",
          "type": "bool"
        },
        {
          "name": "value",
          "type": "bool"
        }
      ],
      "payable": false,
      "stateMutability": "view",
      "type": "function"
    },
    {
      "constant": false,
      "inputs": [
        {
          "name": "_key",
          "type": "bytes32"
        }
      ],
      "name": "deleteTxDataBlockNumber",
      "outputs": [],
      "payable": false,
      "stateMutability": "nonpayable",
      "type": "function"
    },
    {
      "constant": true,
      "inputs": [],
      "name": "privateDataExchangeProposeTimeout",
      "outputs": [
        {
          "name": "",
          "type": "uint256"
        }
      ],
      "payable": false,
      "stateMutability": "view",
      "type": "function"
    },
    {
      "constant": false,
      "inputs": [
        {
          "name": "_key",
          "type": "bytes32"
        },
        {
          "name": "_value",
          "type": "bool"
        }
      ],
      "name": "setBool",
      "outputs": [],
      "payable": false,
      "stateMutability": "nonpayable",
      "type": "function"
    },
    {
      "constant": false,
      "inputs": [
        {
          "name": "_address",
          "type": "address"
        }
      ],
      "name": "addFactProviderToWhitelist",
      "outputs": [],
      "payable": false,
      "stateMutability": "nonpayable",
      "type": "function"
    },
    {
      "constant": false,
      "inputs": [
        {
          "name": "_key",
          "type": "bytes32"
        },
        {
          "name": "_value",
          "type": "address"
        }
      ],
      "name": "setAddress",
      "outputs": [],
      "payable": false,
      "stateMutability": "nonpayable",
      "type": "function"
    },
    {
      "constant": true,
      "inputs": [],
      "name": "openPrivateDataExchangesCount",
      "outputs": [
        {
          "name": "",
          "type": "uint256"
        }
      ],
      "payable": false,
      "stateMutability": "view",
      "type": "function"
    },
    {
      "constant": false,
      "inputs": [
        {
          "name": "_factProvider",
          "type": "address"
        },
        {
          "name": "_key",
          "type": "bytes32"
        },
        {
          "name": "_encryptedExchangeKey",
          "type": "bytes"
        },
        {
          "name": "_exchangeKeyHash",
          "type": "bytes32"
        }
      ],
      "name": "proposePrivateDataExchange",
      "outputs": [],
      "payable": true,
      "stateMutability": "payable",
      "type": "function"
    },
    {
      "constant": false,
      "inputs": [
        {
          "name": "_key",
          "type": "bytes32"
        },
        {
          "name": "_value",
          "type": "uint256"
        }
      ],
      "name": "setUint",
      "outputs": [],
      "payable": false,
      "stateMutability": "nonpayable",
      "type": "function"
    },
    {
      "constant": false,
      "inputs": [
        {
          "name": "_key",
          "type": "bytes32"
        }
      ],
      "name": "deleteUint",
      "outputs": [],
      "payable": false,
      "stateMutability": "nonpayable",
      "type": "function"
    },
    {
      "constant": true,
      "inputs": [],
      "name": "pendingOwner",
      "outputs": [
        {
          "name": "",
          "type": "address"
        }
      ],
      "payable": false,
      "stateMutability": "view",
      "type": "function"
    },
    {
      "constant": true,
      "inputs": [
        {
          "name": "_factProvider",
          "type": "address"
        },
        {
          "name": "_key",
          "type": "bytes32"
        }
      ],
      "name": "getString",
      "outputs": [
        {
          "name": "success",
          "type": "bool"
        },
        {
          "name": "value",
          "type": "string"
        }
      ],
      "payable": false,
      "stateMutability": "view",
      "type": "function"
    },
    {
      "constant": false,
      "inputs": [
        {
          "name": "_key",
          "type": "bytes32"
        },
        {
          "name": "_dataIPFSHash",
          "type": "string"
        },
        {
          "name": "_dataKeyHash",
          "type": "bytes32"
        }
      ],
      "name": "setPrivateDataHashes",
      "outputs": [],
      "payable": false,
      "stateMutability": "nonpayable",
      "type": "function"
    },
    {
      "constant": false,
      "inputs": [
        {
          "name": "newOwner",
          "type": "address"
        }
      ],
      "name": "transferOwnership",
      "outputs": [],
      "payable": false,
      "stateMutability": "nonpayable",
      "type": "function"
    },
    {
      "constant": false,
      "inputs": [
        {
          "name": "_key",
          "type": "bytes32"
        }
      ],
      "name": "deleteString",
      "outputs": [],
      "payable": false,
      "stateMutability": "nonpayable",
      "type": "function"
    },
    {
      "constant": false,
      "inputs": [
        {
          "name": "_exchangeIdx",
          "type": "uint256"
        },
        {
          "name": "_exchangeKey",
          "type": "bytes32"
        }
      ],
      "name": "disputePrivateDataExchange",
      "outputs": [],
      "payable": false,
      "stateMutability": "nonpayable",
      "type": "function"
    },
    {
      "anonymous": false,
      "inputs": [
        {
          "indexed": true,
          "name": "factProvider",
          "type": "address"
        },
        {
          "indexed": true,
          "name": "key",
          "type": "bytes32"
        }
      ],
      "name": "PrivateDataHashesUpdated",
      "type": "event"
    },
    {
      "anonymous": false,
      "inputs": [
        {
          "indexed": true,
          "name": "factProvider",
          "type": "address"
        },
        {
          "indexed": true,
          "name": "key",
          "type": "bytes32"
        }
      ],
      "name": "PrivateDataHashesDeleted",
      "type": "event"
    },
    {
      "anonymous": false,
      "inputs": [
        {
          "indexed": true,
          "name": "exchangeIdx",
          "type": "uint256"
        },
        {
          "indexed": true,
          "name": "dataRequester",
          "type": "address"
        },
        {
          "indexed": true,
          "name": "passportOwner",
          "type": "address"
        }
      ],
      "name": "PrivateDataExchangeProposed",
      "type": "event"
    },
    {
      "anonymous": false,
      "inputs": [
        {
          "indexed": true,
          "name": "exchangeIdx",
          "type": "uint256"
        },
        {
          "indexed": true,
          "name": "dataRequester",
          "type": "address"
        },
        {
          "indexed": true,
          "name": "passportOwner",
          "type": "address"
        }
      ],
      "name": "PrivateDataExchangeAccepted",
      "type": "event"
    },
    {
      "anonymous": false,
      "inputs": [
        {
          "indexed": true,
          "name": "exchangeIdx",
          "type": "uint256"
        }
      ],
      "name": "PrivateDataExchangeClosed",
      "type": "event"
    },
    {
      "anonymous": false,
      "inputs": [
        {
          "indexed": true,
          "name": "exchangeIdx",
          "type": "uint256"
        },
        {
          "indexed": true,
          "name": "successful",
          "type": "bool"
        },
        {
          "indexed": true,
          "name": "cheater",
          "type": "address"
        }
      ],
      "name": "PrivateDataExchangeDisputed",
      "type": "event"
    },
    {
      "anonymous": false,
      "inputs": [
        {
          "indexed": true,
          "name": "factProvider",
          "type": "address"
        },
        {
          "indexed": true,
          "name": "key",
          "type": "bytes32"
        }
      ],
      "name": "IPFSHashUpdated",
      "type": "event"
    },
    {
      "anonymous": false,
      "inputs": [
        {
          "indexed": true,
          "name": "factProvider",
          "type": "address"
        },
        {
          "indexed": true,
          "name": "key",
          "type": "bytes32"
        }
      ],
      "name": "IPFSHashDeleted",
      "type": "event"
    },
    {
      "anonymous": false,
      "inputs": [
        {
          "indexed": true,
          "name": "factProvider",
          "type": "address"
        },
        {
          "indexed": true,
          "name": "key",
          "type": "bytes32"
        }
      ],
      "name": "TxDataUpdated",
      "type": "event"
    },
    {
      "anonymous": false,
      "inputs": [
        {
          "indexed": true,
          "name": "factProvider",
          "type": "address"
        },
        {
          "indexed": true,
          "name": "key",
          "type": "bytes32"
        }
      ],
      "name": "TxDataDeleted",
      "type": "event"
    },
    {
      "anonymous": false,
      "inputs": [
        {
          "indexed": true,
          "name": "factProvider",
          "type": "address"
        },
        {
          "indexed": true,
          "name": "key",
          "type": "bytes32"
        }
      ],
      "name": "BytesUpdated",
      "type": "event"
    },
    {
      "anonymous": false,
      "inputs": [
        {
          "indexed": true,
          "name": "factProvider",
          "type": "address"
        },
        {
          "indexed": true,
          "name": "key",
          "type": "bytes32"
        }
      ],
      "name": "BytesDeleted",
      "type": "event"
    },
    {
      "anonymous": false,
      "inputs": [
        {
          "indexed": true,
          "name": "factProvider",
          "type": "address"
        },
        {
          "indexed": true,
          "name": "key",
          "type": "bytes32"
        }
      ],
      "name": "StringUpdated",
      "type": "event"
    },
    {
      "anonymous": false,
      "inputs": [
        {
          "indexed": true,
          "name": "factProvider",
          "type": "address"
        },
        {
          "indexed": true,
          "name": "key",
          "type": "bytes32"
        }
      ],
      "name": "StringDeleted",
      "type": "event"
    },
    {
      "anonymous": false,
      "inputs": [
        {
          "indexed": true,
          "name": "factProvider",
          "type": "address"
        },
        {
          "indexed": true,
          "name": "key",
          "type": "bytes32"
        }
      ],
      "name": "BoolUpdated",
      "type": "event"
    },
    {
      "anonymous": false,
      "inputs": [
        {
          "indexed": true,
          "name": "factProvider",
          "type": "address"
        },
        {
          "indexed": true,
          "name": "key",
          "type": "bytes32"
        }
      ],
      "name": "BoolDeleted",
      "type": "event"
    },
    {
      "anonymous": false,
      "inputs": [
        {
          "indexed": true,
          "name": "factProvider",
          "type": "address"
        },
        {
          "indexed": true,
          "name": "key",
          "type": "bytes32"
        }
      ],
      "name": "IntUpdated",
      "type": "event"
    },
    {
      "anonymous": false,
      "inputs": [
        {
          "indexed": true,
          "name": "factProvider",
          "type": "address"
        },
        {
          "indexed": true,
          "name": "key",
          "type": "bytes32"
        }
      ],
      "name": "IntDeleted",
      "type": "event"
    },
    {
      "anonymous": false,
      "inputs": [
        {
          "indexed": true,
          "name": "factProvider",
          "type": "address"
        },
        {
          "indexed": true,
          "name": "key",
          "type": "bytes32"
        }
      ],
      "name": "UintUpdated",
      "type": "event"
    },
    {
      "anonymous": false,
      "inputs": [
        {
          "indexed": true,
          "name": "factProvider",
          "type": "address"
        },
        {
          "indexed": true,
          "name": "key",
          "type": "bytes32"
        }
      ],
      "name": "UintDeleted",
      "type": "event"
    },
    {
      "anonymous": false,
      "inputs": [
        {
          "indexed": true,
          "name": "factProvider",
          "type": "address"
        },
        {
          "indexed": true,
          "name": "key",
          "type": "bytes32"
        }
      ],
      "name": "AddressUpdated",
      "type": "event"
    },
    {
      "anonymous": false,
      "inputs": [
        {
          "indexed": true,
          "name": "factProvider",
          "type": "address"
        },
        {
          "indexed": true,
          "name": "key",
          "type": "bytes32"
        }
      ],
      "name": "AddressDeleted",
      "type": "event"
    },
    {
      "anonymous": false,
      "inputs": [
        {
          "indexed": true,
          "name": "onlyWhitelist",
          "type": "bool"
        }
      ],
      "name": "WhitelistOnlyPermissionSet",
      "type": "event"
    },
    {
      "anonymous": false,
      "inputs": [
        {
          "indexed": true,
          "name": "factProvider",
          "type": "address"
        }
      ],
      "name": "WhitelistFactProviderAdded",
      "type": "event"
    },
    {
      "anonymous": false,
      "inputs": [
        {
          "indexed": true,
          "name": "factProvider",
          "type": "address"
        }
      ],
      "name": "WhitelistFactProviderRemoved",
      "type": "event"
    },
    {
      "anonymous": false,
      "inputs": [
        {
          "indexed": true,
          "name": "previousOwner",
          "type": "address"
        }
      ],
      "name": "OwnershipRenounced",
      "type": "event"
    },
    {
      "anonymous": false,
      "inputs": [
        {
          "indexed": true,
          "name": "previousOwner",
          "type": "address"
        },
        {
          "indexed": true,
          "name": "newOwner",
          "type": "address"
        }
      ],
      "name": "OwnershipTransferred",
      "type": "event"
    }
  ],
  "bytecode": "0x608060405260405180807f6f72672e6d6f6e657468612e70726f78792e706175736564000000000000000081525060180190506040518091039020600019167f9e7945c55c116aa3404b99fe56db7af9613d3b899554a437c2616a4749a94d8a600102600019161415156200007057fe5b60405180807f6f72672e6d6f6e657468612e70726f78792e6f776e657200000000000000000081525060170190506040518091039020600019167f3ca57e4b51fc2e18497b219410298879868edada7e6fe5132c8feceb0a080d2260010260001916141515620000dc57fe5b620000f63362000168640100000000026401000000009004565b60405180807f6f72672e6d6f6e657468612e70726f78792e70656e64696e674f776e65720000815250601e0190506040518091039020600019167fcfd0c6ea5352192d7d4c5d4e7a73c5da12c871730cb60ff57879cbe7b403bb52600102600019161415156200016257fe5b62000197565b60007f3ca57e4b51fc2e18497b219410298879868edada7e6fe5132c8feceb0a080d2260010290508181555050565b6150a280620001a76000396000f300608060405260043610610246576000357c0100000000000000000000000000000000000000000000000000000000900463ffffffff16806306427a881461024b57806308c50498146102785780630a256525146102a55780630e14a376146102d0578063174a627714610301578063208881581461037157806322b96b63146103cc578063257781e7146104a15780632b42a89a146104d25780632c62ff2d146105015780632db27bd2146105325780632e28d084146106165780633e49bed01461065f5780634e71e0c81461069a5780635b2a372d146106b1578063616b59f6146106fa57806361a2d0761461072b57806363019d1d1461075a5780636556f7671461078b5780636bfc8bb5146108605780636d4e7802146108a95780636e899550146108ec5780636f618f9a14610935578063715018a614610b465780637165855214610b5d5780637ac4ed6414610bcd5780637dd291e414610c6957806386ca9a7c14610c945780638ae44a0814610cc25780638c16009514610d1d5780638da5cb5b14610d4e57806395ee8bae14610da55780639d74b37d14610e15578063a2b6cbe114610e89578063ab338e3614610eba578063abfdcced14610ee5578063ac0aeb1a14610f22578063ca446dd914610f65578063caa95f1b14610fb6578063cea332cc14610fe1578063e2a4853a1461104b578063e2b202bf14611086578063e30c3978146110b7578063e318de731461110e578063e75a836a146111e3578063f2fde38b1461123a578063f6bb3cc41461127d578063fc2d0584146112ae575b600080fd5b34801561025757600080fd5b50610276600480360381019080803590602001909291905050506112e9565b005b34801561028457600080fd5b506102a360048036038101908080359060200190929190505050611654565b005b3480156102b157600080fd5b506102ba6119c6565b6040518082815260200191505060405180910390f35b3480156102dc57600080fd5b506102ff60048036038101908080356000191690602001909291905050506119cd565b005b34801561030d57600080fd5b50610350600480360381019080803573ffffffffffffffffffffffffffffffffffffffff16906020019092919080356000191690602001909291905050506119d9565b60405180831515151581526020018281526020019250505060405180910390f35b34801561037d57600080fd5b506103b2600480360381019080803573ffffffffffffffffffffffffffffffffffffffff1690602001909291905050506119f1565b604051808215151515815260200191505060405180910390f35b3480156103d857600080fd5b5061041b600480360381019080803573ffffffffffffffffffffffffffffffffffffffff1690602001909291908035600019169060200190929190505050611a9c565b604051808315151515815260200180602001828103825283818151815260200191508051906020019080838360005b8381101561046557808201518184015260208101905061044a565b50505050905090810190601f1680156104925780820380516001836020036101000a031916815260200191505b50935050505060405180910390f35b3480156104ad57600080fd5b506104d06004803603810190808035600019169060200190929190505050611ab5565b005b3480156104de57600080fd5b506104ff600480360381019080803515159060200190929190505050611ac1565b005b34801561050d57600080fd5b506105306004803603810190808035600019169060200190929190505050611b4e565b005b34801561053e57600080fd5b50610581600480360381019080803573ffffffffffffffffffffffffffffffffffffffff1690602001909291908035600019169060200190929190505050611b5a565b6040518084151515158152602001806020018360001916600019168152602001828103825284818151815260200191508051906020019080838360005b838110156105d95780820151818401526020810190506105be565b50505050905090810190601f1680156106065780820380516001836020036101000a031916815260200191505b5094505050505060405180910390f35b34801561062257600080fd5b5061065d6004803603810190808035600019169060200190929190803590602001908201803590602001919091929391929390505050611b77565b005b34801561066b57600080fd5b50610698600480360381019080803560001916906020019092919080359060200190929190505050611bb8565b005b3480156106a657600080fd5b506106af611bc6565b005b3480156106bd57600080fd5b506106f86004803603810190808035600019169060200190929190803590602001908201803590602001919091929391929390505050611d08565b005b34801561070657600080fd5b506107296004803603810190808035600019169060200190929190505050611e06565b005b34801561073757600080fd5b50610740611e12565b604051808215151515815260200191505060405180910390f35b34801561076657600080fd5b506107896004803603810190808035600019169060200190929190505050611e29565b005b34801561079757600080fd5b506107da600480360381019080803573ffffffffffffffffffffffffffffffffffffffff1690602001909291908035600019169060200190929190505050611e35565b604051808315151515815260200180602001828103825283818151815260200191508051906020019080838360005b83811015610824578082015181840152602081019050610809565b50505050905090810190601f1680156108515780820380516001836020036101000a031916815260200191505b50935050505060405180910390f35b34801561086c57600080fd5b506108a76004803603810190808035600019169060200190929190803590602001908201803590602001919091929391929390505050611e4e565b005b3480156108b557600080fd5b506108ea600480360381019080803573ffffffffffffffffffffffffffffffffffffffff169060200190929190505050611e8f565b005b3480156108f857600080fd5b506109336004803603810190808035600019169060200190929190803590602001908201803590602001919091929391929390505050611f65565b005b34801561094157600080fd5b5061096060048036038101908080359060200190929190505050611fa6565b604051808e73ffffffffffffffffffffffffffffffffffffffff1673ffffffffffffffffffffffffffffffffffffffff1681526020018d81526020018c73ffffffffffffffffffffffffffffffffffffffff1673ffffffffffffffffffffffffffffffffffffffff1681526020018b81526020018a73ffffffffffffffffffffffffffffffffffffffff1673ffffffffffffffffffffffffffffffffffffffff16815260200189600019166000191681526020018060200188600019166000191681526020018060200187600019166000191681526020018660001916600019168152602001856002811115610a5257fe5b60ff16815260200184815260200183810383528a818151815260200191508051906020019080838360005b83811015610a98578082015181840152602081019050610a7d565b50505050905090810190601f168015610ac55780820380516001836020036101000a031916815260200191505b50838103825288818151815260200191508051906020019080838360005b83811015610afe578082015181840152602081019050610ae3565b50505050905090810190601f168015610b2b5780820380516001836020036101000a031916815260200191505b509f5050505050505050505050505050505060405180910390f35b348015610b5257600080fd5b50610b5b6121b8565b005b348015610b6957600080fd5b50610bac600480360381019080803573ffffffffffffffffffffffffffffffffffffffff16906020019092919080356000191690602001909291905050506122cc565b60405180831515151581526020018281526020019250505060405180910390f35b348015610bd957600080fd5b50610c1c600480360381019080803573ffffffffffffffffffffffffffffffffffffffff16906020019092919080356000191690602001909291905050506122e4565b60405180831515151581526020018273ffffffffffffffffffffffffffffffffffffffff1673ffffffffffffffffffffffffffffffffffffffff1681526020019250505060405180910390f35b348015610c7557600080fd5b50610c7e6122fc565b6040518082815260200191505060405180910390f35b610cc0600480360381019080803590602001909291908035600019169060200190929190505050612309565b005b348015610cce57600080fd5b50610d03600480360381019080803573ffffffffffffffffffffffffffffffffffffffff16906020019092919050505061272b565b604051808215151515815260200191505060405180910390f35b348015610d2957600080fd5b50610d4c6004803603810190808035600019169060200190929190505050612781565b005b348015610d5a57600080fd5b50610d6361278d565b604051808273ffffffffffffffffffffffffffffffffffffffff1673ffffffffffffffffffffffffffffffffffffffff16815260200191505060405180910390f35b348015610db157600080fd5b50610df4600480360381019080803573ffffffffffffffffffffffffffffffffffffffff169060200190929190803560001916906020019092919050505061279c565b60405180831515151581526020018281526020019250505060405180910390f35b348015610e2157600080fd5b50610e64600480360381019080803573ffffffffffffffffffffffffffffffffffffffff16906020019092919080356000191690602001909291905050506127b4565b6040518083151515158152602001821515151581526020019250505060405180910390f35b348015610e9557600080fd5b50610eb860048036038101908080356000191690602001909291905050506127cc565b005b348015610ec657600080fd5b50610ecf6128a2565b6040518082815260200191505060405180910390f35b348015610ef157600080fd5b50610f2060048036038101908080356000191690602001909291908035151590602001909291905050506128a9565b005b348015610f2e57600080fd5b50610f63600480360381019080803573ffffffffffffffffffffffffffffffffffffffff1690602001909291905050506128b7565b005b348015610f7157600080fd5b50610fb46004803603810190808035600019169060200190929190803573ffffffffffffffffffffffffffffffffffffffff169060200190929190505050612996565b005b348015610fc257600080fd5b50610fcb6129a4565b6040518082815260200191505060405180910390f35b611049600480360381019080803573ffffffffffffffffffffffffffffffffffffffff169060200190929190803560001916906020019092919080359060200190820180359060200191909192939192939080356000191690602001909291905050506129aa565b005b34801561105757600080fd5b50611084600480360381019080803560001916906020019092919080359060200190929190505050612d8c565b005b34801561109257600080fd5b506110b56004803603810190808035600019169060200190929190505050612d9a565b005b3480156110c357600080fd5b506110cc612da6565b604051808273ffffffffffffffffffffffffffffffffffffffff1673ffffffffffffffffffffffffffffffffffffffff16815260200191505060405180910390f35b34801561111a57600080fd5b5061115d600480360381019080803573ffffffffffffffffffffffffffffffffffffffff1690602001909291908035600019169060200190929190505050612db5565b604051808315151515815260200180602001828103825283818151815260200191508051906020019080838360005b838110156111a757808201518184015260208101905061118c565b50505050905090810190601f1680156111d45780820380516001836020036101000a031916815260200191505b50935050505060405180910390f35b3480156111ef57600080fd5b5061123860048036038101908080356000191690602001909291908035906020019082018035906020019190919293919293908035600019169060200190929190505050612dce565b005b34801561124657600080fd5b5061127b600480360381019080803573ffffffffffffffffffffffffffffffffffffffff169060200190929190505050612e11565b005b34801561128957600080fd5b506112ac6004803603810190808035600019169060200190929190505050612edb565b005b3480156112ba57600080fd5b506112e7600480360381019080803590602001909291908035600019169060200190929190505050612ee7565b005b600080600c8054905083101515611368576040517f08c379a00000000000000000000000000000000000000000000000000000000081526004018080602001828103825260168152602001807f696e76616c69642065786368616e676520696e6465780000000000000000000081525060200191505060405180910390fd5b600c8381548110151561137757fe5b90600052602060002090600d0201915081600b0160009054906101000a900460ff1660028111156113a457fe5b6002808111156113b057fe5b14151561144b576040517f08c379a00000000000000000000000000000000000000000000000000000000081526004018080602001828103825260228152602001807f65786368616e6765206d75737420626520696e2061636365707465642073746181526020017f746500000000000000000000000000000000000000000000000000000000000081525060400191505060405180910390fd5b81600c0154611458613531565b11806114b357508160000160009054906101000a900473ffffffffffffffffffffffffffffffffffffffff1673ffffffffffffffffffffffffffffffffffffffff163373ffffffffffffffffffffffffffffffffffffffff16145b1515611573576040517f08c379a00000000000000000000000000000000000000000000000000000000081526004018080602001828103825260448152602001807f65786368616e6765206d7573742062652065697468657220657870697265642081526020017f6f722062652066696e697368656420627920746865206461746120726571756581526020017f737465720000000000000000000000000000000000000000000000000000000081525060600191505060405180910390fd5b600082600b0160006101000a81548160ff0219169083600281111561159457fe5b02179055506115b48260030154836001015461356190919063ffffffff16565b90508160020160009054906101000a900473ffffffffffffffffffffffffffffffffffffffff1673ffffffffffffffffffffffffffffffffffffffff166108fc829081150290604051600060405180830381858888f19350505050151561161a57600080fd5b61162261357f565b827f5d1a7ae2ffda31cae15ed5129d32260ef2a270a21325f536f7954ed297e52c8e60405160405180910390a2505050565b6000600c80549050821015156116d2576040517f08c379a00000000000000000000000000000000000000000000000000000000081526004018080602001828103825260168152602001807f696e76616c69642065786368616e676520696e6465780000000000000000000081525060200191505060405180910390fd5b600c828154811015156116e157fe5b90600052602060002090600d0201905080600b0160009054906101000a900460ff16600281111561170e57fe5b6001600281111561171b57fe5b1415156117b6576040517f08c379a00000000000000000000000000000000000000000000000000000000081526004018080602001828103825260228152602001807f65786368616e6765206d75737420626520696e2070726f706f7365642073746181526020017f746500000000000000000000000000000000000000000000000000000000000081525060400191505060405180910390fd5b8060000160009054906101000a900473ffffffffffffffffffffffffffffffffffffffff1673ffffffffffffffffffffffffffffffffffffffff163373ffffffffffffffffffffffffffffffffffffffff1614151561187d576040517f08c379a000000000000000000000000000000000000000000000000000000000815260040180806020018281038252601b8152602001807f6f6e6c7920646174612072657175657374657220616c6c6f776564000000000081525060200191505060405180910390fd5b80600c015461188a613531565b1115156118ff576040517f08c379a00000000000000000000000000000000000000000000000000000000081526004018080602001828103825260188152602001807f65786368616e6765206d7573742062652065787069726564000000000000000081525060200191505060405180910390fd5b600081600b0160006101000a81548160ff0219169083600281111561192057fe5b02179055508060000160009054906101000a900473ffffffffffffffffffffffffffffffffffffffff1673ffffffffffffffffffffffffffffffffffffffff166108fc82600101549081150290604051600060405180830381858888f19350505050151561198d57600080fd5b61199561357f565b817f5d1a7ae2ffda31cae15ed5129d32260ef2a270a21325f536f7954ed297e52c8e60405160405180910390a25050565b6201518081565b6119d6816135a4565b50565b6000806119e68484613698565b915091509250929050565b6000600760009054906101000a900460ff161580611a585750600860008373ffffffffffffffffffffffffffffffffffffffff1673ffffffffffffffffffffffffffffffffffffffff16815260200190815260200160002060009054906101000a900460ff165b80611a955750611a6661371a565b73ffffffffffffffffffffffffffffffffffffffff168273ffffffffffffffffffffffffffffffffffffffff16145b9050919050565b60006060611aaa848461374b565b915091509250929050565b611abe81613869565b50565b611ac961371a565b73ffffffffffffffffffffffffffffffffffffffff163373ffffffffffffffffffffffffffffffffffffffff16141515611b0257600080fd5b80600760006101000a81548160ff0219169083151502179055508015157f6e1eb3fa845047cf9d5fd1deb1b7770b4e26163dd4d88cefb14fe7964a70059560405160405180910390a250565b611b5781613947565b50565b600060606000611b6a8585613a29565b9250925092509250925092565b611bb38383838080601f016020809104026020016040519081016040528093929190818152602001838380828437820191505050505050613b55565b505050565b611bc28282613c65565b5050565b611bce613d62565b73ffffffffffffffffffffffffffffffffffffffff163373ffffffffffffffffffffffffffffffffffffffff16141515611c0757600080fd5b611c0f613d93565b151515611c84576040517f08c379a000000000000000000000000000000000000000000000000000000000815260040180806020018281038252601d8152602001807f636f6e74726163742073686f756c64206e6f742062652070617573656400000081525060200191505060405180910390fd5b611c8c613d62565b73ffffffffffffffffffffffffffffffffffffffff16611caa61371a565b73ffffffffffffffffffffffffffffffffffffffff167f8be0079c531659141344cd1fd0a4f28419497f9722a3daafe3b4186f6b6457e060405160405180910390a3611cfc611cf7613d62565b613dc4565b611d066000613df3565b565b611d11336119f1565b1515611d1c57600080fd5b604080519081016040528060011515815260200143815250600660003373ffffffffffffffffffffffffffffffffffffffff1673ffffffffffffffffffffffffffffffffffffffff1681526020019081526020016000206000856000191660001916815260200190815260200160002060008201518160000160006101000a81548160ff0219169083151502179055506020820151816001015590505082600019163373ffffffffffffffffffffffffffffffffffffffff167fcbde9cd310365ff3de3ad9cb44ed688d8880c7b1d15df733a73880fb84d032de60405160405180910390a3505050565b611e0f81613e22565b50565b6000600760009054906101000a900460ff16905090565b611e3281613f00565b50565b60006060611e438484613fed565b915091509250929050565b611e8a8383838080601f01602080910402602001604051908101604052809392919081815260200183838082843782019150505050505061410b565b505050565b611e9761371a565b73ffffffffffffffffffffffffffffffffffffffff163373ffffffffffffffffffffffffffffffffffffffff16141515611ed057600080fd5b600860008273ffffffffffffffffffffffffffffffffffffffff1673ffffffffffffffffffffffffffffffffffffffff16815260200190815260200160002060006101000a81549060ff02191690558073ffffffffffffffffffffffffffffffffffffffff167f5bf47f016603dfff957e6086bd9a350212686e8f1d9208b3db47c5a3107c787860405160405180910390a250565b611fa18383838080601f01602080910402602001604051908101604052809392919081815260200183838082843782019150505050505061421b565b505050565b600c81815481101515611fb557fe5b90600052602060002090600d02016000915090508060000160009054906101000a900473ffffffffffffffffffffffffffffffffffffffff16908060010154908060020160009054906101000a900473ffffffffffffffffffffffffffffffffffffffff16908060030154908060040160009054906101000a900473ffffffffffffffffffffffffffffffffffffffff1690806005015490806006018054600181600116156101000203166002900480601f0160208091040260200160405190810160405280929190818152602001828054600181600116156101000203166002900480156120e55780601f106120ba576101008083540402835291602001916120e5565b820191906000526020600020905b8154815290600101906020018083116120c857829003601f168201915b505050505090806007015490806008018054600181600116156101000203166002900480601f0160208091040260200160405190810160405280929190818152602001828054600181600116156101000203166002900480156121895780601f1061215e57610100808354040283529160200191612189565b820191906000526020600020905b81548152906001019060200180831161216c57829003601f168201915b50505050509080600901549080600a01549080600b0160009054906101000a900460ff169080600c015490508d565b6121c061371a565b73ffffffffffffffffffffffffffffffffffffffff163373ffffffffffffffffffffffffffffffffffffffff161415156121f957600080fd5b612201613d93565b151515612276576040517f08c379a000000000000000000000000000000000000000000000000000000000815260040180806020018281038252601d8152602001807f636f6e74726163742073686f756c64206e6f742062652070617573656400000081525060200191505060405180910390fd5b61227e61371a565b73ffffffffffffffffffffffffffffffffffffffff167ff8df31144d9c2f0f6b59d69b8b98abd5459d07f2742c4df920b25aae33c6482060405160405180910390a26122ca6000613dc4565b565b6000806122d9848461432b565b915091509250929050565b6000806122f184846143ad565b915091509250929050565b6000600c80549050905090565b6000600c8054905083101515612387576040517f08c379a00000000000000000000000000000000000000000000000000000000081526004018080602001828103825260168152602001807f696e76616c69642065786368616e676520696e6465780000000000000000000081525060200191505060405180910390fd5b600c8381548110151561239657fe5b90600052602060002090600d020190508060020160009054906101000a900473ffffffffffffffffffffffffffffffffffffffff1673ffffffffffffffffffffffffffffffffffffffff163373ffffffffffffffffffffffffffffffffffffffff1614151561246d576040517f08c379a000000000000000000000000000000000000000000000000000000000815260040180806020018281038252601b8152602001807f6f6e6c792070617373706f7274206f776e657220616c6c6f776564000000000081525060200191505060405180910390fd5b80600b0160009054906101000a900460ff16600281111561248a57fe5b6001600281111561249757fe5b141515612532576040517f08c379a00000000000000000000000000000000000000000000000000000000081526004018080602001828103825260228152602001807f65786368616e6765206d75737420626520696e2070726f706f7365642073746181526020017f746500000000000000000000000000000000000000000000000000000000000081525060400191505060405180910390fd5b806001015434101515156125d4576040517f08c379a000000000000000000000000000000000000000000000000000000000815260040180806020018281038252602c8152602001807f6e65656420746f207374616b65206174206c656173742064617461207265717581526020017f657374657220616d6f756e74000000000000000000000000000000000000000081525060400191505060405180910390fd5b80600c01546125e1613531565b101515612656576040517f08c379a00000000000000000000000000000000000000000000000000000000081526004018080602001828103825260168152602001807f65786368616e676520737461746520657870697265640000000000000000000081525060200191505060405180910390fd5b3481600301819055508181600a018160001916905550600281600b0160006101000a81548160ff0219169083600281111561268d57fe5b02179055506201518061269e613531565b0181600c01819055503373ffffffffffffffffffffffffffffffffffffffff168160000160009054906101000a900473ffffffffffffffffffffffffffffffffffffffff1673ffffffffffffffffffffffffffffffffffffffff16847f843dda373d0d243dce80a6cd203b9cbba8576d036c7eb937f9de36ebe6e8b02360405160405180910390a4505050565b6000600860008373ffffffffffffffffffffffffffffffffffffffff1673ffffffffffffffffffffffffffffffffffffffff16815260200190815260200160002060009054906101000a900460ff169050919050565b61278a8161444e565b50565b600061279761371a565b905090565b6000806127a98484614524565b915091509250929050565b6000806127c184846145a6565b915091509250929050565b6127d5336119f1565b15156127e057600080fd5b600660003373ffffffffffffffffffffffffffffffffffffffff1673ffffffffffffffffffffffffffffffffffffffff16815260200190815260200160002060008260001916600019168152602001908152602001600020600080820160006101000a81549060ff02191690556001820160009055505080600019163373ffffffffffffffffffffffffffffffffffffffff167f9b9532c8ba5879554dee7c3e9374bd26dbfb2f79cf7f247bcf90648fc81fc16460405160405180910390a350565b6201518081565b6128b38282614635565b5050565b6128bf61371a565b73ffffffffffffffffffffffffffffffffffffffff163373ffffffffffffffffffffffffffffffffffffffff161415156128f857600080fd5b6001600860008373ffffffffffffffffffffffffffffffffffffffff1673ffffffffffffffffffffffffffffffffffffffff16815260200190815260200160002060006101000a81548160ff0219169083151502179055508073ffffffffffffffffffffffffffffffffffffffff167fff8ac5f0e9cdc8f7ffbbc29ab1301ee649cf01cf7a6a9265a2d90587612c417560405160405180910390a250565b6129a0828261474a565b5050565b600b5481565b6000606060008060006129bb614dff565b60006129c78c8c613a29565b965096509650861515612a42576040517f08c379a00000000000000000000000000000000000000000000000000000000081526004018080602001828103825260178152602001807f707269766174652064617461206d75737420657869737400000000000000000081525060200191505060405180910390fd5b612a4a61371a565b93506101a0604051908101604052803373ffffffffffffffffffffffffffffffffffffffff1681526020013481526020018573ffffffffffffffffffffffffffffffffffffffff168152602001600081526020018d73ffffffffffffffffffffffffffffffffffffffff1681526020018c600019168152602001878152602001866000191681526020018b8b8080601f0160208091040260200160405190810160405280939291908181526020018383808284378201915050505050508152602001896000191681526020018460001916815260200160016002811115612b2d57fe5b815260200162015180612b3e613531565b018152509150600c829080600181540180825580915050906001820390600052602060002090600d02016000909192909190915060008201518160000160006101000a81548173ffffffffffffffffffffffffffffffffffffffff021916908373ffffffffffffffffffffffffffffffffffffffff1602179055506020820151816001015560408201518160020160006101000a81548173ffffffffffffffffffffffffffffffffffffffff021916908373ffffffffffffffffffffffffffffffffffffffff1602179055506060820151816003015560808201518160040160006101000a81548173ffffffffffffffffffffffffffffffffffffffff021916908373ffffffffffffffffffffffffffffffffffffffff16021790555060a0820151816005019060001916905560c0820151816006019080519060200190612c87929190614ec1565b5060e08201518160070190600019169055610100820151816008019080519060200190612cb5929190614f41565b50610120820151816009019060001916905561014082015181600a019060001916905561016082015181600b0160006101000a81548160ff02191690836002811115612cfd57fe5b021790555061018082015181600c0155505050612d18614899565b6001600c805490500390508373ffffffffffffffffffffffffffffffffffffffff163373ffffffffffffffffffffffffffffffffffffffff16827fabe53237e9ea366da7fa5507ac62db22bd446d6b66bcff4a6d6c1b11e9af198360405160405180910390a4505050505050505050505050565b612d9682826148bd565b5050565b612da3816149ba565b50565b6000612db0613d62565b905090565b60006060612dc38484614a90565b915091509250929050565b612e0b8484848080601f01602080910402602001604051908101604052809392919081815260200183838082843782019150505050505083614bae565b50505050565b612e1961371a565b73ffffffffffffffffffffffffffffffffffffffff163373ffffffffffffffffffffffffffffffffffffffff16141515612e5257600080fd5b612e5a613d93565b151515612ecf576040517f08c379a000000000000000000000000000000000000000000000000000000000815260040180806020018281038252601d8152602001807f636f6e74726163742073686f756c64206e6f742062652070617573656400000081525060200191505060405180910390fd5b612ed881613df3565b50565b612ee481614cf2565b50565b6000806000806000600c8054905087101515612f6b576040517f08c379a00000000000000000000000000000000000000000000000000000000081526004018080602001828103825260168152602001807f696e76616c69642065786368616e676520696e6465780000000000000000000081525060200191505060405180910390fd5b600c87815481101515612f7a57fe5b90600052602060002090600d0201945084600b0160009054906101000a900460ff166002811115612fa757fe5b600280811115612fb357fe5b14151561304e576040517f08c379a00000000000000000000000000000000000000000000000000000000081526004018080602001828103825260228152602001807f65786368616e6765206d75737420626520696e2061636365707465642073746181526020017f746500000000000000000000000000000000000000000000000000000000000081525060400191505060405180910390fd5b8460000160009054906101000a900473ffffffffffffffffffffffffffffffffffffffff1673ffffffffffffffffffffffffffffffffffffffff163373ffffffffffffffffffffffffffffffffffffffff16141515613115576040517f08c379a000000000000000000000000000000000000000000000000000000000815260040180806020018281038252601b8152602001807f6f6e6c7920646174612072657175657374657220616c6c6f776564000000000081525060200191505060405180910390fd5b84600c0154613122613531565b101515613197576040517f08c379a000000000000000000000000000000000000000000000000000000000815260040180806020018281038252601c8152602001807f65786368616e6765206d757374206e6f7420626520657870697265640000000081525060200191505060405180910390fd5b846009015460001916866040516020018082600019166000191681526020019150506040516020818303038152906040526040518082805190602001908083835b6020831015156131fd57805182526020820191506020810190506020830392506131d8565b6001836020036101000a0380198251168184511680821785525050505050509050019150506040518091039020600019161415156132a3576040517f08c379a000000000000000000000000000000000000000000000000000000000815260040180806020018281038252601c8152602001807f65786368616e6765206b65792068617368206d757374206d617463680000000081525060200191505060405180910390fd5b84600a015486189350846007015460001916846040516020018082600019166000191681526020019150506040516020818303038152906040526040518082805190602001908083835b60208310151561331257805182526020820191506020810190506020830392506132ed565b6001836020036101000a038019825116818451168082178552505050505050905001915050604051809103902060001916149250600085600b0160006101000a81548160ff0219169083600281111561336757fe5b02179055506133878560030154866001015461356190919063ffffffff16565b9150821561341f578460020160009054906101000a900473ffffffffffffffffffffffffffffffffffffffff1673ffffffffffffffffffffffffffffffffffffffff166108fc839081150290604051600060405180830381858888f1935050505015156133f357600080fd5b8460000160009054906101000a900473ffffffffffffffffffffffffffffffffffffffff1690506134ab565b8460000160009054906101000a900473ffffffffffffffffffffffffffffffffffffffff1673ffffffffffffffffffffffffffffffffffffffff166108fc839081150290604051600060405180830381858888f19350505050151561348357600080fd5b8460020160009054906101000a900473ffffffffffffffffffffffffffffffffffffffff1690505b6134b361357f565b867f5d1a7ae2ffda31cae15ed5129d32260ef2a270a21325f536f7954ed297e52c8e60405160405180910390a28073ffffffffffffffffffffffffffffffffffffffff1683151515887f540941e0fc2370abde0bfa6ddbb49188469597e518416fa24327f39469c9b2ec60405160405180910390a450505050505050565b600080429050670214e8348c4f000081111561355a57633b9aca008181151561355657fe5b0490505b8091505090565b600080828401905083811015151561357557fe5b8091505092915050565b6000600b600081546001900391905081905514156135a2576135a16000614dd0565b5b565b6135ad336119f1565b15156135b857600080fd5b6000803373ffffffffffffffffffffffffffffffffffffffff1673ffffffffffffffffffffffffffffffffffffffff16815260200190815260200160002060008260001916600019168152602001908152602001600020600080820160006101000a81549060ff02191690556000820160016101000a81549073ffffffffffffffffffffffffffffffffffffffff0219169055505080600019163373ffffffffffffffffffffffffffffffffffffffff167fed9474c4702ee9da4d0d2085840fafed5912b8e13daf1d6ea341ebe98803aec260405160405180910390a350565b6000806000600660008673ffffffffffffffffffffffffffffffffffffffff1673ffffffffffffffffffffffffffffffffffffffff1681526020019081526020016000206000856000191660001916815260200190815260200160002090508060000160009054906101000a900460ff16816001015492509250509250929050565b6000807f3ca57e4b51fc2e18497b219410298879868edada7e6fe5132c8feceb0a080d226001029050805491505090565b600060606000600960008673ffffffffffffffffffffffffffffffffffffffff1673ffffffffffffffffffffffffffffffffffffffff1681526020019081526020016000206000856000191660001916815260200190815260200160002090508060000160009054906101000a900460ff1681600101808054600181600116156101000203166002900480601f0160208091040260200160405190810160405280929190818152602001828054600181600116156101000203166002900480156138565780601f1061382b57610100808354040283529160200191613856565b820191906000526020600020905b81548152906001019060200180831161383957829003601f168201915b5050505050905092509250509250929050565b613872336119f1565b151561387d57600080fd5b600960003373ffffffffffffffffffffffffffffffffffffffff1673ffffffffffffffffffffffffffffffffffffffff16815260200190815260200160002060008260001916600019168152602001908152602001600020600080820160006101000a81549060ff02191690556001820160006138fa9190614fc1565b505080600019163373ffffffffffffffffffffffffffffffffffffffff167f140278d2322b9671bf293aea878e7717c46d5b7cd955e3e426ee67e01b90165460405160405180910390a350565b613950336119f1565b151561395b57600080fd5b600360003373ffffffffffffffffffffffffffffffffffffffff1673ffffffffffffffffffffffffffffffffffffffff16815260200190815260200160002060008260001916600019168152602001908152602001600020600080820160006101000a81549060ff02191690556000820160016101000a81549060ff0219169055505080600019163373ffffffffffffffffffffffffffffffffffffffff167f191bd7fc1f22ce6b74b7d7e42126f0ed225b109728607c99971de9e78b0db6eb60405160405180910390a350565b60006060600080600a60008773ffffffffffffffffffffffffffffffffffffffff1673ffffffffffffffffffffffffffffffffffffffff1681526020019081526020016000206000866000191660001916815260200190815260200160002090508060000160009054906101000a900460ff16816001016000018260010160010154818054600181600116156101000203166002900480601f016020809104026020016040519081016040528092919081815260200182805460018160011615610100020316600290048015613b405780601f10613b1557610100808354040283529160200191613b40565b820191906000526020600020905b815481529060010190602001808311613b2357829003601f168201915b50505050509150935093509350509250925092565b613b5e336119f1565b1515613b6957600080fd5b604080519081016040528060011515815260200182815250600560003373ffffffffffffffffffffffffffffffffffffffff1673ffffffffffffffffffffffffffffffffffffffff1681526020019081526020016000206000846000191660001916815260200190815260200160002060008201518160000160006101000a81548160ff0219169083151502179055506020820151816001019080519060200190613c15929190614f41565b5090505081600019163373ffffffffffffffffffffffffffffffffffffffff167fee56af66250a5cbba377132a356dc403d520776e30969594927024c44af8440b60405160405180910390a35050565b613c6e336119f1565b1515613c7957600080fd5b604080519081016040528060011515815260200182815250600260003373ffffffffffffffffffffffffffffffffffffffff1673ffffffffffffffffffffffffffffffffffffffff1681526020019081526020016000206000846000191660001916815260200190815260200160002060008201518160000160006101000a81548160ff0219169083151502179055506020820151816001015590505081600019163373ffffffffffffffffffffffffffffffffffffffff167fdb4ad6a3ed2bdacbae02da45a5bb54192cdb7d72648674d13e08d2fc4c45ac6660405160405180910390a35050565b6000807fcfd0c6ea5352192d7d4c5d4e7a73c5da12c871730cb60ff57879cbe7b403bb526001029050805491505090565b6000807f9e7945c55c116aa3404b99fe56db7af9613d3b899554a437c2616a4749a94d8a6001029050805491505090565b60007f3ca57e4b51fc2e18497b219410298879868edada7e6fe5132c8feceb0a080d2260010290508181555050565b60007fcfd0c6ea5352192d7d4c5d4e7a73c5da12c871730cb60ff57879cbe7b403bb5260010290508181555050565b613e2b336119f1565b1515613e3657600080fd5b600560003373ffffffffffffffffffffffffffffffffffffffff1673ffffffffffffffffffffffffffffffffffffffff16815260200190815260200160002060008260001916600019168152602001908152602001600020600080820160006101000a81549060ff0219169055600182016000613eb39190615009565b505080600019163373ffffffffffffffffffffffffffffffffffffffff167f0eaf95ab41777ff88e28181b1c43418524616bcef6d37c3b216015b5548cb10860405160405180910390a350565b613f09336119f1565b1515613f1457600080fd5b600a60003373ffffffffffffffffffffffffffffffffffffffff1673ffffffffffffffffffffffffffffffffffffffff16815260200190815260200160002060008260001916600019168152602001908152602001600020600080820160006101000a81549060ff02191690556001820160008082016000613f969190614fc1565b60018201600090555050505080600019163373ffffffffffffffffffffffffffffffffffffffff167f9cad6db22e9f7e2a3441e18ef08567fa48da09796f593ded4222f0a315f9860160405160405180910390a350565b600060606000600560008673ffffffffffffffffffffffffffffffffffffffff1673ffffffffffffffffffffffffffffffffffffffff1681526020019081526020016000206000856000191660001916815260200190815260200160002090508060000160009054906101000a900460ff1681600101808054600181600116156101000203166002900480601f0160208091040260200160405190810160405280929190818152602001828054600181600116156101000203166002900480156140f85780601f106140cd576101008083540402835291602001916140f8565b820191906000526020600020905b8154815290600101906020018083116140db57829003601f168201915b5050505050905092509250509250929050565b614114336119f1565b151561411f57600080fd5b604080519081016040528060011515815260200182815250600960003373ffffffffffffffffffffffffffffffffffffffff1673ffffffffffffffffffffffffffffffffffffffff1681526020019081526020016000206000846000191660001916815260200190815260200160002060008201518160000160006101000a81548160ff02191690831515021790555060208201518160010190805190602001906141cb929190614ec1565b5090505081600019163373ffffffffffffffffffffffffffffffffffffffff167fdb23beee028623a85d5af1d247423ca471d20e499b131cd5e5c76277eaa2ad5b60405160405180910390a35050565b614224336119f1565b151561422f57600080fd5b604080519081016040528060011515815260200182815250600460003373ffffffffffffffffffffffffffffffffffffffff1673ffffffffffffffffffffffffffffffffffffffff1681526020019081526020016000206000846000191660001916815260200190815260200160002060008201518160000160006101000a81548160ff02191690831515021790555060208201518160010190805190602001906142db929190614ec1565b5090505081600019163373ffffffffffffffffffffffffffffffffffffffff167f43e6b7e3323b4598401023341c086c07c3ff5577f594b5aab9c065f2c3c9d59060405160405180910390a35050565b6000806000600160008673ffffffffffffffffffffffffffffffffffffffff1673ffffffffffffffffffffffffffffffffffffffff1681526020019081526020016000206000856000191660001916815260200190815260200160002090508060000160009054906101000a900460ff16816001015492509250509250929050565b60008060008060008673ffffffffffffffffffffffffffffffffffffffff1673ffffffffffffffffffffffffffffffffffffffff1681526020019081526020016000206000856000191660001916815260200190815260200160002090508060000160009054906101000a900460ff168160000160019054906101000a900473ffffffffffffffffffffffffffffffffffffffff1692509250509250929050565b614457336119f1565b151561446257600080fd5b600260003373ffffffffffffffffffffffffffffffffffffffff1673ffffffffffffffffffffffffffffffffffffffff16815260200190815260200160002060008260001916600019168152602001908152602001600020600080820160006101000a81549060ff02191690556001820160009055505080600019163373ffffffffffffffffffffffffffffffffffffffff167f3c3ff48e02e407eb1e78310d11b5e3f9e735263a9cafc2bcf4aa981b8ecb32a560405160405180910390a350565b6000806000600260008673ffffffffffffffffffffffffffffffffffffffff1673ffffffffffffffffffffffffffffffffffffffff1681526020019081526020016000206000856000191660001916815260200190815260200160002090508060000160009054906101000a900460ff16816001015492509250509250929050565b6000806000600360008673ffffffffffffffffffffffffffffffffffffffff1673ffffffffffffffffffffffffffffffffffffffff1681526020019081526020016000206000856000191660001916815260200190815260200160002090508060000160009054906101000a900460ff168160000160019054906101000a900460ff1692509250509250929050565b61463e336119f1565b151561464957600080fd5b6040805190810160405280600115158152602001821515815250600360003373ffffffffffffffffffffffffffffffffffffffff1673ffffffffffffffffffffffffffffffffffffffff1681526020019081526020016000206000846000191660001916815260200190815260200160002060008201518160000160006101000a81548160ff02191690831515021790555060208201518160000160016101000a81548160ff02191690831515021790555090505081600019163373ffffffffffffffffffffffffffffffffffffffff167f68cc3496efaac4c1f2c0cd52da916138f6c5fc541992f05d97423a89b6914ae560405160405180910390a35050565b614753336119f1565b151561475e57600080fd5b60408051908101604052806001151581526020018273ffffffffffffffffffffffffffffffffffffffff168152506000803373ffffffffffffffffffffffffffffffffffffffff1673ffffffffffffffffffffffffffffffffffffffff1681526020019081526020016000206000846000191660001916815260200190815260200160002060008201518160000160006101000a81548160ff02191690831515021790555060208201518160000160016101000a81548173ffffffffffffffffffffffffffffffffffffffff021916908373ffffffffffffffffffffffffffffffffffffffff16021790555090505081600019163373ffffffffffffffffffffffffffffffffffffffff167f8e7e6ab6c4613205e833e1faf5415d78dd10130a8828f729c08036e2a7a6277060405160405180910390a35050565b6001600b6000815460010191905081905514156148bb576148ba6001614dd0565b5b565b6148c6336119f1565b15156148d157600080fd5b604080519081016040528060011515815260200182815250600160003373ffffffffffffffffffffffffffffffffffffffff1673ffffffffffffffffffffffffffffffffffffffff1681526020019081526020016000206000846000191660001916815260200190815260200160002060008201518160000160006101000a81548160ff0219169083151502179055506020820151816001015590505081600019163373ffffffffffffffffffffffffffffffffffffffff167fff76cb7634629f8d05011ab2a58380dfc0743157a70ba4173f866e113eca75c060405160405180910390a35050565b6149c3336119f1565b15156149ce57600080fd5b600160003373ffffffffffffffffffffffffffffffffffffffff1673ffffffffffffffffffffffffffffffffffffffff16815260200190815260200160002060008260001916600019168152602001908152602001600020600080820160006101000a81549060ff02191690556001820160009055505080600019163373ffffffffffffffffffffffffffffffffffffffff167fd5f853f7aaba549b5a46be1de24cac4c20e716b4c603d24b2b0b7b5d97ca1c4d60405160405180910390a350565b600060606000600460008673ffffffffffffffffffffffffffffffffffffffff1673ffffffffffffffffffffffffffffffffffffffff1681526020019081526020016000206000856000191660001916815260200190815260200160002090508060000160009054906101000a900460ff1681600101808054600181600116156101000203166002900480601f016020809104026020016040519081016040528092919081815260200182805460018160011615610100020316600290048015614b9b5780601f10614b7057610100808354040283529160200191614b9b565b820191906000526020600020905b815481529060010190602001808311614b7e57829003601f168201915b5050505050905092509250509250929050565b614bb7336119f1565b1515614bc257600080fd5b604080519081016040528060011515815260200160408051908101604052808581526020018460001916815250815250600a60003373ffffffffffffffffffffffffffffffffffffffff1673ffffffffffffffffffffffffffffffffffffffff1681526020019081526020016000206000856000191660001916815260200190815260200160002060008201518160000160006101000a81548160ff0219169083151502179055506020820151816001016000820151816000019080519060200190614c8f929190614ec1565b5060208201518160010190600019169055505090505082600019163373ffffffffffffffffffffffffffffffffffffffff167f0ed4013fbc8174781b18a7aa1cce7d589bc1fc3509941835787881ed2ab8b48e60405160405180910390a3505050565b614cfb336119f1565b1515614d0657600080fd5b600460003373ffffffffffffffffffffffffffffffffffffffff1673ffffffffffffffffffffffffffffffffffffffff16815260200190815260200160002060008260001916600019168152602001908152602001600020600080820160006101000a81549060ff0219169055600182016000614d839190614fc1565b505080600019163373ffffffffffffffffffffffffffffffffffffffff167f491a0e0281af9fc88ff024cffc24db22eddd4f826cb30d84936592967dc9237c60405160405180910390a350565b60007f9e7945c55c116aa3404b99fe56db7af9613d3b899554a437c2616a4749a94d8a60010290508181555050565b6101a060405190810160405280600073ffffffffffffffffffffffffffffffffffffffff16815260200160008152602001600073ffffffffffffffffffffffffffffffffffffffff16815260200160008152602001600073ffffffffffffffffffffffffffffffffffffffff16815260200160008019168152602001606081526020016000801916815260200160608152602001600080191681526020016000801916815260200160006002811115614eb457fe5b8152602001600081525090565b828054600181600116156101000203166002900490600052602060002090601f016020900481019282601f10614f0257805160ff1916838001178555614f30565b82800160010185558215614f30579182015b82811115614f2f578251825591602001919060010190614f14565b5b509050614f3d9190615051565b5090565b828054600181600116156101000203166002900490600052602060002090601f016020900481019282601f10614f8257805160ff1916838001178555614fb0565b82800160010185558215614fb0579182015b82811115614faf578251825591602001919060010190614f94565b5b509050614fbd9190615051565b5090565b50805460018160011615610100020316600290046000825580601f10614fe75750615006565b601f0160209004906000526020600020908101906150059190615051565b5b50565b50805460018160011615610100020316600290046000825580601f1061502f575061504e565b601f01602090049060005260206000209081019061504d9190615051565b5b50565b61507391905b8082111561506f576000816000905550600101615057565b5090565b905600a165627a7a723058209b1639294664bbf0fddb756df581106ec14871697f2eb1659a16e237e3b649ef0029",
  "source": "pragma solidity ^0.4.24;\r\n\r\nimport \"./ownership/ClaimableProxy.sol\";\r\nimport \"./IPassportLogic.sol\";\r\nimport \"./storage/AddressStorageLogic.sol\";\r\nimport \"./storage/UintStorageLogic.sol\";\r\nimport \"./storage/IntStorageLogic.sol\";\r\nimport \"./storage/BoolStorageLogic.sol\";\r\nimport \"./storage/StringStorageLogic.sol\";\r\nimport \"./storage/BytesStorageLogic.sol\";\r\nimport \"./storage/TxDataStorageLogic.sol\";\r\nimport \"./storage/IPFSStorageLogic.sol\";\r\nimport \"./storage/PrivateDataStorageLogic.sol\";\r\n\r\ncontract PassportLogic\r\nis IPassportLogic\r\n, ClaimableProxy\r\n, AddressStorageLogic\r\n, UintStorageLogic\r\n, IntStorageLogic\r\n, BoolStorageLogic\r\n, StringStorageLogic\r\n, BytesStorageLogic\r\n, TxDataStorageLogic\r\n, IPFSStorageLogic\r\n, PrivateDataStorageLogic\r\n{}",
  "sourcePath": "c:\\UNICEF\\dev\\connect-bc\\bids-api\\blockchain\\contracts\\PassportLogic.sol",
  "compiler": {
    "name": "solc",
    "version": "0.4.25+commit.59dbf8f1.Emscripten.clang"
  },
  "schemaVersion": "3.0.23",
  "updatedAt": "2020-04-28T17:42:08.498Z",
  "devdoc": {
    "methods": {
      "acceptPrivateDataExchange(uint256,bytes32)": {
        "params": {
          "_encryptedDataKey": "The data symmetric key XORed with the exchange key"
        }
      },
      "claimOwnership()": {
        "details": "Allows the pendingOwner address to finalize the transfer.\r"
      },
      "deleteAddress(bytes32)": {
        "params": {
          "_key": "The key for the record"
        }
      },
      "deleteBool(bytes32)": {
        "params": {
          "_key": "The key for the record"
        }
      },
      "deleteBytes(bytes32)": {
        "params": {
          "_key": "The key for the record"
        }
      },
      "deleteIPFSHash(bytes32)": {
        "params": {
          "_key": "The key for the record"
        }
      },
      "deleteInt(bytes32)": {
        "params": {
          "_key": "The key for the record"
        }
      },
      "deletePrivateDataHashes(bytes32)": {
        "params": {
          "_key": "The key for the record"
        }
      },
      "deleteString(bytes32)": {
        "params": {
          "_key": "The key for the record"
        }
      },
      "deleteTxDataBlockNumber(bytes32)": {
        "params": {
          "_key": "The key for the record"
        }
      },
      "deleteUint(bytes32)": {
        "params": {
          "_key": "The key for the record"
        }
      },
      "disputePrivateDataExchange(uint256,bytes32)": {
        "params": {
          "_exchangeKey": "The unencrypted exchange session key"
        }
      },
      "finishPrivateDataExchange(uint256)": {
        "params": {
          "_exchangeIdx": "The private data exchange index"
        }
      },
      "getAddress(address,bytes32)": {
        "params": {
          "_key": "The key for the record"
        }
      },
      "getBool(address,bytes32)": {
        "params": {
          "_key": "The key for the record"
        }
      },
      "getBytes(address,bytes32)": {
        "params": {
          "_key": "The key for the record"
        }
      },
      "getIPFSHash(address,bytes32)": {
        "params": {
          "_key": "The key for the record"
        }
      },
      "getInt(address,bytes32)": {
        "params": {
          "_key": "The key for the record"
        }
      },
      "getPrivateDataExchangesCount()": {
        "details": "returns the number of private data exchanges created.\r"
      },
      "getPrivateDataHashes(address,bytes32)": {
        "params": {
          "_key": "The key for the record"
        }
      },
      "getString(address,bytes32)": {
        "params": {
          "_key": "The key for the record"
        }
      },
      "getTxDataBlockNumber(address,bytes32)": {
        "params": {
          "_key": "The key for the record"
        }
      },
      "getUint(address,bytes32)": {
        "params": {
          "_key": "The key for the record"
        }
      },
      "owner()": {
        "return": "The owner address.\r"
      },
      "proposePrivateDataExchange(address,bytes32,bytes,bytes32)": {
        "params": {
          "_exchangeKeyHash": "The hash of exchange session key"
        }
      },
      "renounceOwnership()": {
        "details": "Allows the current owner to relinquish control of the contract.\r"
      },
      "setAddress(bytes32,address)": {
        "params": {
          "_value": "The value for the record"
        }
      },
      "setBool(bytes32,bool)": {
        "params": {
          "_value": "The value for the record"
        }
      },
      "setBytes(bytes32,bytes)": {
        "params": {
          "_value": "The value for the record"
        }
      },
      "setIPFSHash(bytes32,string)": {
        "params": {
          "_value": "The value for the record"
        }
      },
      "setInt(bytes32,int256)": {
        "params": {
          "_value": "The value for the record"
        }
      },
      "setPrivateDataHashes(bytes32,string,bytes32)": {
        "params": {
          "_dataKeyHash": "The hash of symmetric key that was used to encrypt the data"
        }
      },
      "setString(bytes32,string)": {
        "params": {
          "_value": "The value for the record"
        }
      },
      "setUint(bytes32,uint256)": {
        "params": {
          "_value": "The value for the record"
        }
      },
      "timeoutPrivateDataExchange(uint256)": {
        "params": {
          "_exchangeIdx": "The private data exchange index"
        }
      },
      "transferOwnership(address)": {
        "details": "Allows the current owner to set the pendingOwner address.\r",
        "params": {
          "newOwner": "The address to transfer ownership to.\r"
        }
      }
    }
  },
  "userdoc": {
    "methods": {
      "addFactProviderToWhitelist(address)": {
        "notice": "Allows owner to add fact provider to whitelist.\r"
      },
      "isAllowedFactProvider(address)": {
        "notice": "Returns true when the given address is an allowed fact provider.\r"
      },
      "isFactProviderInWhitelist(address)": {
        "notice": "Returns true if fact provider is added to the whitelist.\r"
      },
      "isWhitelistOnlyPermissionSet()": {
        "notice": "Returns true when a whitelist of fact providers is enabled.\r"
      },
      "removeFactProviderFromWhitelist(address)": {
        "notice": "Allows owner to remove fact provider from whitelist.\r"
      },
      "renounceOwnership()": {
        "notice": "Renouncing to ownership will leave the contract without an owner.\r It will not be possible to call the functions with the `onlyOwner`\r modifier anymore.\r"
      },
      "setTxDataBlockNumber(bytes32,bytes)": {
        "notice": "it would remain in the ABI file."
      },
      "setWhitelistOnlyPermission(bool)": {
        "notice": "Enables or disables the use of a whitelist of fact providers.\r"
      }
    }
  }
}