{
  "contractName": "Passport",
  "abi": [
    {
      "constant": false,
      "inputs": [],
      "name": "claimOwnership",
      "outputs": [],
      "payable": false,
      "stateMutability": "nonpayable",
      "type": "function"
    },
    {
      "constant": false,
      "inputs": [],
      "name": "renounceOwnership",
      "outputs": [],
      "payable": false,
      "stateMutability": "nonpayable",
      "type": "function"
    },
    {
      "constant": false,
      "inputs": [],
      "name": "destroy",
      "outputs": [],
      "payable": false,
      "stateMutability": "nonpayable",
      "type": "function"
    },
    {
      "constant": true,
      "inputs": [],
      "name": "owner",
      "outputs": [
        {
          "name": "",
          "type": "address"
        }
      ],
      "payable": false,
      "stateMutability": "view",
      "type": "function"
    },
    {
      "constant": true,
      "inputs": [],
      "name": "pendingOwner",
      "outputs": [
        {
          "name": "",
          "type": "address"
        }
      ],
      "payable": false,
      "stateMutability": "view",
      "type": "function"
    },
    {
      "constant": false,
      "inputs": [
        {
          "name": "newOwner",
          "type": "address"
        }
      ],
      "name": "transferOwnership",
      "outputs": [],
      "payable": false,
      "stateMutability": "nonpayable",
      "type": "function"
    },
    {
      "constant": false,
      "inputs": [
        {
          "name": "_recipient",
          "type": "address"
        }
      ],
      "name": "destroyAndSend",
      "outputs": [],
      "payable": false,
      "stateMutability": "nonpayable",
      "type": "function"
    },
    {
      "inputs": [
        {
          "name": "_registry",
          "type": "address"
        }
      ],
      "payable": false,
      "stateMutability": "nonpayable",
      "type": "constructor"
    },
    {
      "payable": true,
      "stateMutability": "payable",
      "type": "fallback"
    },
    {
      "anonymous": false,
      "inputs": [
        {
          "indexed": true,
          "name": "previousRegistry",
          "type": "address"
        },
        {
          "indexed": true,
          "name": "newRegistry",
          "type": "address"
        }
      ],
      "name": "PassportLogicRegistryChanged",
      "type": "event"
    },
    {
      "anonymous": false,
      "inputs": [
        {
          "indexed": true,
          "name": "previousOwner",
          "type": "address"
        }
      ],
      "name": "OwnershipRenounced",
      "type": "event"
    },
    {
      "anonymous": false,
      "inputs": [
        {
          "indexed": true,
          "name": "previousOwner",
          "type": "address"
        },
        {
          "indexed": true,
          "name": "newOwner",
          "type": "address"
        }
      ],
      "name": "OwnershipTransferred",
      "type": "event"
    },
    {
      "constant": true,
      "inputs": [],
      "name": "getPassportLogicRegistry",
      "outputs": [
        {
          "name": "",
          "type": "address"
        }
      ],
      "payable": false,
      "stateMutability": "view",
      "type": "function"
    }
  ],
  "bytecode": "0x608060405234801561001057600080fd5b50604051602080610cef8339810180604052810190808051906020019092919050505060405180807f6f72672e6d6f6e657468612e70726f78792e706175736564000000000000000081525060180190506040518091039020600019167f9e7945c55c116aa3404b99fe56db7af9613d3b899554a437c2616a4749a94d8a6001026000191614151561009e57fe5b60405180807f6f72672e6d6f6e657468612e70726f78792e6f776e657200000000000000000081525060170190506040518091039020600019167f3ca57e4b51fc2e18497b219410298879868edada7e6fe5132c8feceb0a080d226001026000191614151561010957fe5b6101213361023b640100000000026401000000009004565b60405180807f6f72672e6d6f6e657468612e70726f78792e70656e64696e674f776e65720000815250601e0190506040518091039020600019167fcfd0c6ea5352192d7d4c5d4e7a73c5da12c871730cb60ff57879cbe7b403bb526001026000191614151561018c57fe5b60405180807f6f72672e6d6f6e657468612e70617373706f72742e70726f78792e726567697381526020017f747279000000000000000000000000000000000000000000000000000000000081525060230190506040518091039020600019167fa04bab69e45aeb4c94a78ba5bc1be67ef28977c4fdf815a30b829a794eb67a4a6001026000191614151561021d57fe5b6102358161026a640100000000026401000000009004565b5061034d565b60007f3ca57e4b51fc2e18497b219410298879868edada7e6fe5132c8feceb0a080d2260010290508181555050565b6000808273ffffffffffffffffffffffffffffffffffffffff1614151515610320576040517f08c379a00000000000000000000000000000000000000000000000000000000081526004018080602001828103825260258152602001807f43616e6e6f742073657420726567697374727920746f2061207a65726f20616481526020017f647265737300000000000000000000000000000000000000000000000000000081525060400191505060405180910390fd5b7fa04bab69e45aeb4c94a78ba5bc1be67ef28977c4fdf815a30b829a794eb67a4a60010290508181555050565b6109938061035c6000396000f30060806040526004361061008e576000357c0100000000000000000000000000000000000000000000000000000000900463ffffffff1680634e71e0c8146100a0578063715018a6146100b757806383197ef0146100ce57806386d5c5f9146100e55780638da5cb5b1461013c578063e30c397814610193578063f2fde38b146101ea578063f5074f411461022d575b61009e610099610270565b61031d565b005b3480156100ac57600080fd5b506100b5610343565b005b3480156100c357600080fd5b506100cc610485565b005b3480156100da57600080fd5b506100e3610599565b005b3480156100f157600080fd5b506100fa610677565b604051808273ffffffffffffffffffffffffffffffffffffffff1673ffffffffffffffffffffffffffffffffffffffff16815260200191505060405180910390f35b34801561014857600080fd5b50610151610686565b604051808273ffffffffffffffffffffffffffffffffffffffff1673ffffffffffffffffffffffffffffffffffffffff16815260200191505060405180910390f35b34801561019f57600080fd5b506101a8610695565b604051808273ffffffffffffffffffffffffffffffffffffffff1673ffffffffffffffffffffffffffffffffffffffff16815260200191505060405180910390f35b3480156101f657600080fd5b5061022b600480360381019080803573ffffffffffffffffffffffffffffffffffffffff1690602001909291905050506106a4565b005b34801561023957600080fd5b5061026e600480360381019080803573ffffffffffffffffffffffffffffffffffffffff16906020019092919050505061076e565b005b600061027a610845565b73ffffffffffffffffffffffffffffffffffffffff1663609725ef6040518163ffffffff167c0100000000000000000000000000000000000000000000000000000000028152600401602060405180830381600087803b1580156102dd57600080fd5b505af11580156102f1573d6000803e3d6000fd5b505050506040513d602081101561030757600080fd5b8101908080519060200190929190505050905090565b3660008037600080366000845af43d6000803e806000811461033e573d6000f35b3d6000fd5b61034b610876565b73ffffffffffffffffffffffffffffffffffffffff163373ffffffffffffffffffffffffffffffffffffffff1614151561038457600080fd5b61038c6108a7565b151515610401576040517f08c379a000000000000000000000000000000000000000000000000000000000815260040180806020018281038252601d8152602001807f636f6e74726163742073686f756c64206e6f742062652070617573656400000081525060200191505060405180910390fd5b610409610876565b73ffffffffffffffffffffffffffffffffffffffff166104276108d8565b73ffffffffffffffffffffffffffffffffffffffff167f8be0079c531659141344cd1fd0a4f28419497f9722a3daafe3b4186f6b6457e060405160405180910390a3610479610474610876565b610909565b6104836000610938565b565b61048d6108d8565b73ffffffffffffffffffffffffffffffffffffffff163373ffffffffffffffffffffffffffffffffffffffff161415156104c657600080fd5b6104ce6108a7565b151515610543576040517f08c379a000000000000000000000000000000000000000000000000000000000815260040180806020018281038252601d8152602001807f636f6e74726163742073686f756c64206e6f742062652070617573656400000081525060200191505060405180910390fd5b61054b6108d8565b73ffffffffffffffffffffffffffffffffffffffff167ff8df31144d9c2f0f6b59d69b8b98abd5459d07f2742c4df920b25aae33c6482060405160405180910390a26105976000610909565b565b6105a16108d8565b73ffffffffffffffffffffffffffffffffffffffff163373ffffffffffffffffffffffffffffffffffffffff161415156105da57600080fd5b6105e26108a7565b151515610657576040517f08c379a000000000000000000000000000000000000000000000000000000000815260040180806020018281038252601d8152602001807f636f6e74726163742073686f756c64206e6f742062652070617573656400000081525060200191505060405180910390fd5b61065f6108d8565b73ffffffffffffffffffffffffffffffffffffffff16ff5b6000610681610845565b905090565b60006106906108d8565b905090565b600061069f610876565b905090565b6106ac6108d8565b73ffffffffffffffffffffffffffffffffffffffff163373ffffffffffffffffffffffffffffffffffffffff161415156106e557600080fd5b6106ed6108a7565b151515610762576040517f08c379a000000000000000000000000000000000000000000000000000000000815260040180806020018281038252601d8152602001807f636f6e74726163742073686f756c64206e6f742062652070617573656400000081525060200191505060405180910390fd5b61076b81610938565b50565b6107766108d8565b73ffffffffffffffffffffffffffffffffffffffff163373ffffffffffffffffffffffffffffffffffffffff161415156107af57600080fd5b6107b76108a7565b15151561082c576040517f08c379a000000000000000000000000000000000000000000000000000000000815260040180806020018281038252601d8152602001807f636f6e74726163742073686f756c64206e6f742062652070617573656400000081525060200191505060405180910390fd5b8073ffffffffffffffffffffffffffffffffffffffff16ff5b6000807fa04bab69e45aeb4c94a78ba5bc1be67ef28977c4fdf815a30b829a794eb67a4a6001029050805491505090565b6000807fcfd0c6ea5352192d7d4c5d4e7a73c5da12c871730cb60ff57879cbe7b403bb526001029050805491505090565b6000807f9e7945c55c116aa3404b99fe56db7af9613d3b899554a437c2616a4749a94d8a6001029050805491505090565b6000807f3ca57e4b51fc2e18497b219410298879868edada7e6fe5132c8feceb0a080d226001029050805491505090565b60007f3ca57e4b51fc2e18497b219410298879868edada7e6fe5132c8feceb0a080d2260010290508181555050565b60007fcfd0c6ea5352192d7d4c5d4e7a73c5da12c871730cb60ff57879cbe7b403bb52600102905081815550505600a165627a7a72305820ef8aa6fe34bf1e904f8ddf2f82a4bceb47b7340d5d70c42b729a8df5752b598d0029",
  "source": "pragma solidity ^0.4.24;\r\n\r\nimport \"./ownership/ClaimableProxy.sol\";\r\nimport \"./lifecycle/DestructibleProxy.sol\";\r\nimport \"./IPassportLogicRegistry.sol\";\r\nimport \"./upgradeability/Proxy.sol\";\r\n\r\n/**\r\n * @title Passport\r\n */\r\ncontract Passport is Proxy, ClaimableProxy, DestructibleProxy {\r\n\r\n    event PassportLogicRegistryChanged(\r\n        address indexed previousRegistry,\r\n        address indexed newRegistry\r\n    );\r\n\r\n    /**\r\n     * @dev Storage slot with the address of the current registry of the passport implementations.\r\n     * This is the keccak-256 hash of \"org.monetha.passport.proxy.registry\", and is\r\n     * validated in the constructor.\r\n     */\r\n    bytes32 private constant REGISTRY_SLOT = 0xa04bab69e45aeb4c94a78ba5bc1be67ef28977c4fdf815a30b829a794eb67a4a;\r\n\r\n    /**\r\n     * @dev Contract constructor.\r\n     * @param _registry Address of the passport implementations registry.\r\n     */\r\n    constructor(IPassportLogicRegistry _registry) public {\r\n        assert(REGISTRY_SLOT == keccak256(\"org.monetha.passport.proxy.registry\"));\r\n\r\n        _setRegistry(_registry);\r\n    }\r\n\r\n    /**\r\n     * @return the address of passport logic registry.\r\n     */\r\n    function getPassportLogicRegistry() public view returns (address) {\r\n        return _getRegistry();\r\n    }\r\n\r\n    /**\r\n     * @dev Returns the current passport logic implementation (used in Proxy fallback function to delegate call\r\n     * to passport logic implementation).\r\n     * @return Address of the current passport implementation\r\n     */\r\n    function _implementation() internal view returns (address) {\r\n        return _getRegistry().getCurrentPassportLogic();\r\n    }\r\n\r\n    /**\r\n     * @dev Returns the current passport implementations registry.\r\n     * @return Address of the current implementation\r\n     */\r\n    function _getRegistry() internal view returns (IPassportLogicRegistry reg) {\r\n        bytes32 slot = REGISTRY_SLOT;\r\n        assembly {\r\n            reg := sload(slot)\r\n        }\r\n    }\r\n\r\n    function _setRegistry(IPassportLogicRegistry _registry) internal {\r\n        require(address(_registry) != 0x0, \"Cannot set registry to a zero address\");\r\n\r\n        bytes32 slot = REGISTRY_SLOT;\r\n        assembly {\r\n            sstore(slot, _registry)\r\n        }\r\n    }\r\n}",
  "sourcePath": "c:\\UNICEF\\dev\\connect-bc\\bids-api\\blockchain\\contracts\\Passport.sol",
  "compiler": {
    "name": "solc",
    "version": "0.4.25+commit.59dbf8f1.Emscripten.clang"
  },
  "schemaVersion": "3.0.23",
  "updatedAt": "2020-04-28T17:42:08.489Z",
  "devdoc": {
    "methods": {
      "claimOwnership()": {
        "details": "Allows the pendingOwner address to finalize the transfer.\r"
      },
      "destroy()": {
        "details": "Transfers the current balance to the owner and terminates the contract.\r"
      },
      "getPassportLogicRegistry()": {
        "return": "the address of passport logic registry.\r"
      },
      "owner()": {
        "return": "The owner address.\r"
      },
      "renounceOwnership()": {
        "details": "Allows the current owner to relinquish control of the contract.\r"
      },
      "transferOwnership(address)": {
        "details": "Allows the current owner to set the pendingOwner address.\r",
        "params": {
          "newOwner": "The address to transfer ownership to.\r"
        }
      }
    },
    "title": "Passport\r"
  },
  "userdoc": {
    "methods": {
      "renounceOwnership()": {
        "notice": "Renouncing to ownership will leave the contract without an owner.\r It will not be possible to call the functions with the `onlyOwner`\r modifier anymore.\r"
      }
    }
  }
}