{
  "contractName": "PausableProxyMock",
  "abi": [
    {
      "constant": true,
      "inputs": [],
      "name": "count",
      "outputs": [
        {
          "name": "",
          "type": "int256"
        }
      ],
      "payable": false,
      "stateMutability": "view",
      "type": "function"
    },
    {
      "payable": true,
      "stateMutability": "payable",
      "type": "fallback"
    },
    {
      "constant": false,
      "inputs": [],
      "name": "pause",
      "outputs": [],
      "payable": false,
      "stateMutability": "nonpayable",
      "type": "function"
    },
    {
      "constant": false,
      "inputs": [],
      "name": "unpause",
      "outputs": [],
      "payable": false,
      "stateMutability": "nonpayable",
      "type": "function"
    },
    {
      "constant": false,
      "inputs": [],
      "name": "callableWhenNotPaused",
      "outputs": [],
      "payable": false,
      "stateMutability": "nonpayable",
      "type": "function"
    },
    {
      "constant": false,
      "inputs": [],
      "name": "callableWhenPaused",
      "outputs": [],
      "payable": false,
      "stateMutability": "nonpayable",
      "type": "function"
    }
  ],
  "bytecode": "0x608060405260405180807f6f72672e6d6f6e657468612e70726f78792e706175736564000000000000000081525060180190506040518091039020600019167f9e7945c55c116aa3404b99fe56db7af9613d3b899554a437c2616a4749a94d8a6001026000191614151561006f57fe5b6102c08061007e6000396000f30060806040526004361061006d576000357c0100000000000000000000000000000000000000000000000000000000900463ffffffff16806306661abd1461006f5780633f4ba83a1461009a5780638456cb59146100b157806389c7d598146100c8578063d846a5b1146100df575b005b34801561007b57600080fd5b506100846100f6565b6040518082815260200191505060405180910390f35b3480156100a657600080fd5b506100af6100fc565b005b3480156100bd57600080fd5b506100c6610108565b005b3480156100d457600080fd5b506100dd610114565b005b3480156100eb57600080fd5b506100f46101a4565b005b60005481565b6101066000610234565b565b6101126001610234565b565b61011c610263565b1515610190576040517f08c379a00000000000000000000000000000000000000000000000000000000081526004018080602001828103825260198152602001807f636f6e74726163742073686f756c64206265207061757365640000000000000081525060200191505060405180910390fd5b600080815480929190600190039190505550565b6101ac610263565b151515610221576040517f08c379a000000000000000000000000000000000000000000000000000000000815260040180806020018281038252601d8152602001807f636f6e74726163742073686f756c64206e6f742062652070617573656400000081525060200191505060405180910390fd5b6000808154809291906001019190505550565b60007f9e7945c55c116aa3404b99fe56db7af9613d3b899554a437c2616a4749a94d8a60010290508181555050565b6000807f9e7945c55c116aa3404b99fe56db7af9613d3b899554a437c2616a4749a94d8a60010290508054915050905600a165627a7a72305820f34f914a1a0f36072b6b25eb38d0b6a1a401e7b6c41bd6f90d15d67a9c69d1bb0029",
  "source": "pragma solidity ^0.4.24;\r\n\r\nimport \"../lifecycle/PausableProxy.sol\";\r\n\r\ncontract PausableProxyMock is PausableProxy {\r\n    int256 public count;\r\n\r\n    function() payable public {}\r\n\r\n    function pause() public {\r\n        _setPaused(true);\r\n    }\r\n\r\n    function unpause() public {\r\n        _setPaused(false);\r\n    }\r\n\r\n    function callableWhenNotPaused() public whenNotPaused {\r\n        count++;\r\n    }\r\n\r\n    function callableWhenPaused() public whenPaused {\r\n        count--;\r\n    }\r\n}",
  "sourcePath": "c:\\UNICEF\\dev\\connect-bc\\bids-api\\blockchain\\contracts\\mocks\\PausableProxyMock.sol",
  "compiler": {
    "name": "solc",
    "version": "0.4.25+commit.59dbf8f1.Emscripten.clang"
  },
  "schemaVersion": "3.0.23",
  "updatedAt": "2020-04-28T17:42:08.543Z",
  "devdoc": {
    "methods": {}
  },
  "userdoc": {
    "methods": {}
  }
}