{
  "contractName": "PrivateDataStorageLogic",
  "abi": [
    {
      "constant": true,
      "inputs": [],
      "name": "privateDataExchangeAcceptTimeout",
      "outputs": [
        {
          "name": "",
          "type": "uint256"
        }
      ],
      "payable": false,
      "stateMutability": "view",
      "type": "function"
    },
    {
      "constant": true,
      "inputs": [
        {
          "name": "_address",
          "type": "address"
        }
      ],
      "name": "isAllowedFactProvider",
      "outputs": [
        {
          "name": "",
          "type": "bool"
        }
      ],
      "payable": false,
      "stateMutability": "view",
      "type": "function"
    },
    {
      "constant": false,
      "inputs": [
        {
          "name": "_onlyWhitelist",
          "type": "bool"
        }
      ],
      "name": "setWhitelistOnlyPermission",
      "outputs": [],
      "payable": false,
      "stateMutability": "nonpayable",
      "type": "function"
    },
    {
      "constant": false,
      "inputs": [],
      "name": "claimOwnership",
      "outputs": [],
      "payable": false,
      "stateMutability": "nonpayable",
      "type": "function"
    },
    {
      "constant": true,
      "inputs": [],
      "name": "isWhitelistOnlyPermissionSet",
      "outputs": [
        {
          "name": "",
          "type": "bool"
        }
      ],
      "payable": false,
      "stateMutability": "view",
      "type": "function"
    },
    {
      "constant": false,
      "inputs": [
        {
          "name": "_address",
          "type": "address"
        }
      ],
      "name": "removeFactProviderFromWhitelist",
      "outputs": [],
      "payable": false,
      "stateMutability": "nonpayable",
      "type": "function"
    },
    {
      "constant": true,
      "inputs": [
        {
          "name": "",
          "type": "uint256"
        }
      ],
      "name": "privateDataExchanges",
      "outputs": [
        {
          "name": "dataRequester",
          "type": "address"
        },
        {
          "name": "dataRequesterValue",
          "type": "uint256"
        },
        {
          "name": "passportOwner",
          "type": "address"
        },
        {
          "name": "passportOwnerValue",
          "type": "uint256"
        },
        {
          "name": "factProvider",
          "type": "address"
        },
        {
          "name": "key",
          "type": "bytes32"
        },
        {
          "name": "dataIPFSHash",
          "type": "string"
        },
        {
          "name": "dataKeyHash",
          "type": "bytes32"
        },
        {
          "name": "encryptedExchangeKey",
          "type": "bytes"
        },
        {
          "name": "exchangeKeyHash",
          "type": "bytes32"
        },
        {
          "name": "encryptedDataKey",
          "type": "bytes32"
        },
        {
          "name": "state",
          "type": "uint8"
        },
        {
          "name": "stateExpired",
          "type": "uint256"
        }
      ],
      "payable": false,
      "stateMutability": "view",
      "type": "function"
    },
    {
      "constant": false,
      "inputs": [],
      "name": "renounceOwnership",
      "outputs": [],
      "payable": false,
      "stateMutability": "nonpayable",
      "type": "function"
    },
    {
      "constant": true,
      "inputs": [
        {
          "name": "_address",
          "type": "address"
        }
      ],
      "name": "isFactProviderInWhitelist",
      "outputs": [
        {
          "name": "",
          "type": "bool"
        }
      ],
      "payable": false,
      "stateMutability": "view",
      "type": "function"
    },
    {
      "constant": true,
      "inputs": [],
      "name": "owner",
      "outputs": [
        {
          "name": "",
          "type": "address"
        }
      ],
      "payable": false,
      "stateMutability": "view",
      "type": "function"
    },
    {
      "constant": true,
      "inputs": [],
      "name": "privateDataExchangeProposeTimeout",
      "outputs": [
        {
          "name": "",
          "type": "uint256"
        }
      ],
      "payable": false,
      "stateMutability": "view",
      "type": "function"
    },
    {
      "constant": false,
      "inputs": [
        {
          "name": "_address",
          "type": "address"
        }
      ],
      "name": "addFactProviderToWhitelist",
      "outputs": [],
      "payable": false,
      "stateMutability": "nonpayable",
      "type": "function"
    },
    {
      "constant": true,
      "inputs": [],
      "name": "openPrivateDataExchangesCount",
      "outputs": [
        {
          "name": "",
          "type": "uint256"
        }
      ],
      "payable": false,
      "stateMutability": "view",
      "type": "function"
    },
    {
      "constant": true,
      "inputs": [],
      "name": "pendingOwner",
      "outputs": [
        {
          "name": "",
          "type": "address"
        }
      ],
      "payable": false,
      "stateMutability": "view",
      "type": "function"
    },
    {
      "constant": false,
      "inputs": [
        {
          "name": "newOwner",
          "type": "address"
        }
      ],
      "name": "transferOwnership",
      "outputs": [],
      "payable": false,
      "stateMutability": "nonpayable",
      "type": "function"
    },
    {
      "anonymous": false,
      "inputs": [
        {
          "indexed": true,
          "name": "factProvider",
          "type": "address"
        },
        {
          "indexed": true,
          "name": "key",
          "type": "bytes32"
        }
      ],
      "name": "PrivateDataHashesUpdated",
      "type": "event"
    },
    {
      "anonymous": false,
      "inputs": [
        {
          "indexed": true,
          "name": "factProvider",
          "type": "address"
        },
        {
          "indexed": true,
          "name": "key",
          "type": "bytes32"
        }
      ],
      "name": "PrivateDataHashesDeleted",
      "type": "event"
    },
    {
      "anonymous": false,
      "inputs": [
        {
          "indexed": true,
          "name": "exchangeIdx",
          "type": "uint256"
        },
        {
          "indexed": true,
          "name": "dataRequester",
          "type": "address"
        },
        {
          "indexed": true,
          "name": "passportOwner",
          "type": "address"
        }
      ],
      "name": "PrivateDataExchangeProposed",
      "type": "event"
    },
    {
      "anonymous": false,
      "inputs": [
        {
          "indexed": true,
          "name": "exchangeIdx",
          "type": "uint256"
        },
        {
          "indexed": true,
          "name": "dataRequester",
          "type": "address"
        },
        {
          "indexed": true,
          "name": "passportOwner",
          "type": "address"
        }
      ],
      "name": "PrivateDataExchangeAccepted",
      "type": "event"
    },
    {
      "anonymous": false,
      "inputs": [
        {
          "indexed": true,
          "name": "exchangeIdx",
          "type": "uint256"
        }
      ],
      "name": "PrivateDataExchangeClosed",
      "type": "event"
    },
    {
      "anonymous": false,
      "inputs": [
        {
          "indexed": true,
          "name": "exchangeIdx",
          "type": "uint256"
        },
        {
          "indexed": true,
          "name": "successful",
          "type": "bool"
        },
        {
          "indexed": true,
          "name": "cheater",
          "type": "address"
        }
      ],
      "name": "PrivateDataExchangeDisputed",
      "type": "event"
    },
    {
      "anonymous": false,
      "inputs": [
        {
          "indexed": true,
          "name": "onlyWhitelist",
          "type": "bool"
        }
      ],
      "name": "WhitelistOnlyPermissionSet",
      "type": "event"
    },
    {
      "anonymous": false,
      "inputs": [
        {
          "indexed": true,
          "name": "factProvider",
          "type": "address"
        }
      ],
      "name": "WhitelistFactProviderAdded",
      "type": "event"
    },
    {
      "anonymous": false,
      "inputs": [
        {
          "indexed": true,
          "name": "factProvider",
          "type": "address"
        }
      ],
      "name": "WhitelistFactProviderRemoved",
      "type": "event"
    },
    {
      "anonymous": false,
      "inputs": [
        {
          "indexed": true,
          "name": "previousOwner",
          "type": "address"
        }
      ],
      "name": "OwnershipRenounced",
      "type": "event"
    },
    {
      "anonymous": false,
      "inputs": [
        {
          "indexed": true,
          "name": "previousOwner",
          "type": "address"
        },
        {
          "indexed": true,
          "name": "newOwner",
          "type": "address"
        }
      ],
      "name": "OwnershipTransferred",
      "type": "event"
    },
    {
      "constant": false,
      "inputs": [
        {
          "name": "_key",
          "type": "bytes32"
        },
        {
          "name": "_dataIPFSHash",
          "type": "string"
        },
        {
          "name": "_dataKeyHash",
          "type": "bytes32"
        }
      ],
      "name": "setPrivateDataHashes",
      "outputs": [],
      "payable": false,
      "stateMutability": "nonpayable",
      "type": "function"
    },
    {
      "constant": false,
      "inputs": [
        {
          "name": "_key",
          "type": "bytes32"
        }
      ],
      "name": "deletePrivateDataHashes",
      "outputs": [],
      "payable": false,
      "stateMutability": "nonpayable",
      "type": "function"
    },
    {
      "constant": true,
      "inputs": [
        {
          "name": "_factProvider",
          "type": "address"
        },
        {
          "name": "_key",
          "type": "bytes32"
        }
      ],
      "name": "getPrivateDataHashes",
      "outputs": [
        {
          "name": "success",
          "type": "bool"
        },
        {
          "name": "dataIPFSHash",
          "type": "string"
        },
        {
          "name": "dataKeyHash",
          "type": "bytes32"
        }
      ],
      "payable": false,
      "stateMutability": "view",
      "type": "function"
    },
    {
      "constant": true,
      "inputs": [],
      "name": "getPrivateDataExchangesCount",
      "outputs": [
        {
          "name": "count",
          "type": "uint256"
        }
      ],
      "payable": false,
      "stateMutability": "view",
      "type": "function"
    },
    {
      "constant": false,
      "inputs": [
        {
          "name": "_factProvider",
          "type": "address"
        },
        {
          "name": "_key",
          "type": "bytes32"
        },
        {
          "name": "_encryptedExchangeKey",
          "type": "bytes"
        },
        {
          "name": "_exchangeKeyHash",
          "type": "bytes32"
        }
      ],
      "name": "proposePrivateDataExchange",
      "outputs": [],
      "payable": true,
      "stateMutability": "payable",
      "type": "function"
    },
    {
      "constant": false,
      "inputs": [
        {
          "name": "_exchangeIdx",
          "type": "uint256"
        },
        {
          "name": "_encryptedDataKey",
          "type": "bytes32"
        }
      ],
      "name": "acceptPrivateDataExchange",
      "outputs": [],
      "payable": true,
      "stateMutability": "payable",
      "type": "function"
    },
    {
      "constant": false,
      "inputs": [
        {
          "name": "_exchangeIdx",
          "type": "uint256"
        }
      ],
      "name": "finishPrivateDataExchange",
      "outputs": [],
      "payable": false,
      "stateMutability": "nonpayable",
      "type": "function"
    },
    {
      "constant": false,
      "inputs": [
        {
          "name": "_exchangeIdx",
          "type": "uint256"
        }
      ],
      "name": "timeoutPrivateDataExchange",
      "outputs": [],
      "payable": false,
      "stateMutability": "nonpayable",
      "type": "function"
    },
    {
      "constant": false,
      "inputs": [
        {
          "name": "_exchangeIdx",
          "type": "uint256"
        },
        {
          "name": "_exchangeKey",
          "type": "bytes32"
        }
      ],
      "name": "disputePrivateDataExchange",
      "outputs": [],
      "payable": false,
      "stateMutability": "nonpayable",
      "type": "function"
    }
  ],
  "bytecode": "0x608060405260405180807f6f72672e6d6f6e657468612e70726f78792e706175736564000000000000000081525060180190506040518091039020600019167f9e7945c55c116aa3404b99fe56db7af9613d3b899554a437c2616a4749a94d8a600102600019161415156200007057fe5b60405180807f6f72672e6d6f6e657468612e70726f78792e6f776e657200000000000000000081525060170190506040518091039020600019167f3ca57e4b51fc2e18497b219410298879868edada7e6fe5132c8feceb0a080d2260010260001916141515620000dc57fe5b620000f63362000168640100000000026401000000009004565b60405180807f6f72672e6d6f6e657468612e70726f78792e70656e64696e674f776e65720000815250601e0190506040518091039020600019167fcfd0c6ea5352192d7d4c5d4e7a73c5da12c871730cb60ff57879cbe7b403bb52600102600019161415156200016257fe5b62000197565b60007f3ca57e4b51fc2e18497b219410298879868edada7e6fe5132c8feceb0a080d2260010290508181555050565b612f2380620001a76000396000f30060806040526004361061013e576000357c0100000000000000000000000000000000000000000000000000000000900463ffffffff16806306427a881461014357806308c50498146101705780630a2565251461019d57806320888158146101c85780632b42a89a146102235780632db27bd2146102525780634e71e0c81461033657806361a2d0761461034d57806363019d1d1461037c5780636d4e7802146103ad5780636f618f9a146103f0578063715018a6146106015780637dd291e41461061857806386ca9a7c146106435780638ae44a08146106715780638da5cb5b146106cc578063ab338e3614610723578063ac0aeb1a1461074e578063caa95f1b14610791578063cea332cc146107bc578063e30c397814610826578063e75a836a1461087d578063f2fde38b146108d4578063fc2d058414610917575b600080fd5b34801561014f57600080fd5b5061016e60048036038101908080359060200190929190505050610952565b005b34801561017c57600080fd5b5061019b60048036038101908080359060200190929190505050610cbd565b005b3480156101a957600080fd5b506101b261102f565b6040518082815260200191505060405180910390f35b3480156101d457600080fd5b50610209600480360381019080803573ffffffffffffffffffffffffffffffffffffffff169060200190929190505050611036565b604051808215151515815260200191505060405180910390f35b34801561022f57600080fd5b506102506004803603810190808035151590602001909291905050506110e1565b005b34801561025e57600080fd5b506102a1600480360381019080803573ffffffffffffffffffffffffffffffffffffffff169060200190929190803560001916906020019092919050505061116e565b6040518084151515158152602001806020018360001916600019168152602001828103825284818151815260200191508051906020019080838360005b838110156102f95780820151818401526020810190506102de565b50505050905090810190601f1680156103265780820380516001836020036101000a031916815260200191505b5094505050505060405180910390f35b34801561034257600080fd5b5061034b61118b565b005b34801561035957600080fd5b506103626112cd565b604051808215151515815260200191505060405180910390f35b34801561038857600080fd5b506103ab60048036038101908080356000191690602001909291905050506112e4565b005b3480156103b957600080fd5b506103ee600480360381019080803573ffffffffffffffffffffffffffffffffffffffff1690602001909291905050506112f0565b005b3480156103fc57600080fd5b5061041b600480360381019080803590602001909291905050506113c6565b604051808e73ffffffffffffffffffffffffffffffffffffffff1673ffffffffffffffffffffffffffffffffffffffff1681526020018d81526020018c73ffffffffffffffffffffffffffffffffffffffff1673ffffffffffffffffffffffffffffffffffffffff1681526020018b81526020018a73ffffffffffffffffffffffffffffffffffffffff1673ffffffffffffffffffffffffffffffffffffffff1681526020018960001916600019168152602001806020018860001916600019168152602001806020018760001916600019168152602001866000191660001916815260200185600281111561050d57fe5b60ff16815260200184815260200183810383528a818151815260200191508051906020019080838360005b83811015610553578082015181840152602081019050610538565b50505050905090810190601f1680156105805780820380516001836020036101000a031916815260200191505b50838103825288818151815260200191508051906020019080838360005b838110156105b957808201518184015260208101905061059e565b50505050905090810190601f1680156105e65780820380516001836020036101000a031916815260200191505b509f5050505050505050505050505050505060405180910390f35b34801561060d57600080fd5b506106166115d8565b005b34801561062457600080fd5b5061062d6116ec565b6040518082815260200191505060405180910390f35b61066f6004803603810190808035906020019092919080356000191690602001909291905050506116f9565b005b34801561067d57600080fd5b506106b2600480360381019080803573ffffffffffffffffffffffffffffffffffffffff169060200190929190505050611b1b565b604051808215151515815260200191505060405180910390f35b3480156106d857600080fd5b506106e1611b71565b604051808273ffffffffffffffffffffffffffffffffffffffff1673ffffffffffffffffffffffffffffffffffffffff16815260200191505060405180910390f35b34801561072f57600080fd5b50610738611b80565b6040518082815260200191505060405180910390f35b34801561075a57600080fd5b5061078f600480360381019080803573ffffffffffffffffffffffffffffffffffffffff169060200190929190505050611b87565b005b34801561079d57600080fd5b506107a6611c66565b6040518082815260200191505060405180910390f35b610824600480360381019080803573ffffffffffffffffffffffffffffffffffffffff16906020019092919080356000191690602001909291908035906020019082018035906020019190919293919293908035600019169060200190929190505050611c6c565b005b34801561083257600080fd5b5061083b61204e565b604051808273ffffffffffffffffffffffffffffffffffffffff1673ffffffffffffffffffffffffffffffffffffffff16815260200191505060405180910390f35b34801561088957600080fd5b506108d26004803603810190808035600019169060200190929190803590602001908201803590602001919091929391929390803560001916906020019092919050505061205d565b005b3480156108e057600080fd5b50610915600480360381019080803573ffffffffffffffffffffffffffffffffffffffff1690602001909291905050506120a0565b005b34801561092357600080fd5b5061095060048036038101908080359060200190929190803560001916906020019092919050505061216a565b005b600080600c80549050831015156109d1576040517f08c379a00000000000000000000000000000000000000000000000000000000081526004018080602001828103825260168152602001807f696e76616c69642065786368616e676520696e6465780000000000000000000081525060200191505060405180910390fd5b600c838154811015156109e057fe5b90600052602060002090600d0201915081600b0160009054906101000a900460ff166002811115610a0d57fe5b600280811115610a1957fe5b141515610ab4576040517f08c379a00000000000000000000000000000000000000000000000000000000081526004018080602001828103825260228152602001807f65786368616e6765206d75737420626520696e2061636365707465642073746181526020017f746500000000000000000000000000000000000000000000000000000000000081525060400191505060405180910390fd5b81600c0154610ac16127b4565b1180610b1c57508160000160009054906101000a900473ffffffffffffffffffffffffffffffffffffffff1673ffffffffffffffffffffffffffffffffffffffff163373ffffffffffffffffffffffffffffffffffffffff16145b1515610bdc576040517f08c379a00000000000000000000000000000000000000000000000000000000081526004018080602001828103825260448152602001807f65786368616e6765206d7573742062652065697468657220657870697265642081526020017f6f722062652066696e697368656420627920746865206461746120726571756581526020017f737465720000000000000000000000000000000000000000000000000000000081525060600191505060405180910390fd5b600082600b0160006101000a81548160ff02191690836002811115610bfd57fe5b0217905550610c1d826003015483600101546127e490919063ffffffff16565b90508160020160009054906101000a900473ffffffffffffffffffffffffffffffffffffffff1673ffffffffffffffffffffffffffffffffffffffff166108fc829081150290604051600060405180830381858888f193505050501515610c8357600080fd5b610c8b612802565b827f5d1a7ae2ffda31cae15ed5129d32260ef2a270a21325f536f7954ed297e52c8e60405160405180910390a2505050565b6000600c8054905082101515610d3b576040517f08c379a00000000000000000000000000000000000000000000000000000000081526004018080602001828103825260168152602001807f696e76616c69642065786368616e676520696e6465780000000000000000000081525060200191505060405180910390fd5b600c82815481101515610d4a57fe5b90600052602060002090600d0201905080600b0160009054906101000a900460ff166002811115610d7757fe5b60016002811115610d8457fe5b141515610e1f576040517f08c379a00000000000000000000000000000000000000000000000000000000081526004018080602001828103825260228152602001807f65786368616e6765206d75737420626520696e2070726f706f7365642073746181526020017f746500000000000000000000000000000000000000000000000000000000000081525060400191505060405180910390fd5b8060000160009054906101000a900473ffffffffffffffffffffffffffffffffffffffff1673ffffffffffffffffffffffffffffffffffffffff163373ffffffffffffffffffffffffffffffffffffffff16141515610ee6576040517f08c379a000000000000000000000000000000000000000000000000000000000815260040180806020018281038252601b8152602001807f6f6e6c7920646174612072657175657374657220616c6c6f776564000000000081525060200191505060405180910390fd5b80600c0154610ef36127b4565b111515610f68576040517f08c379a00000000000000000000000000000000000000000000000000000000081526004018080602001828103825260188152602001807f65786368616e6765206d7573742062652065787069726564000000000000000081525060200191505060405180910390fd5b600081600b0160006101000a81548160ff02191690836002811115610f8957fe5b02179055508060000160009054906101000a900473ffffffffffffffffffffffffffffffffffffffff1673ffffffffffffffffffffffffffffffffffffffff166108fc82600101549081150290604051600060405180830381858888f193505050501515610ff657600080fd5b610ffe612802565b817f5d1a7ae2ffda31cae15ed5129d32260ef2a270a21325f536f7954ed297e52c8e60405160405180910390a25050565b6201518081565b6000600760009054906101000a900460ff16158061109d5750600860008373ffffffffffffffffffffffffffffffffffffffff1673ffffffffffffffffffffffffffffffffffffffff16815260200190815260200160002060009054906101000a900460ff165b806110da57506110ab612827565b73ffffffffffffffffffffffffffffffffffffffff168273ffffffffffffffffffffffffffffffffffffffff16145b9050919050565b6110e9612827565b73ffffffffffffffffffffffffffffffffffffffff163373ffffffffffffffffffffffffffffffffffffffff1614151561112257600080fd5b80600760006101000a81548160ff0219169083151502179055508015157f6e1eb3fa845047cf9d5fd1deb1b7770b4e26163dd4d88cefb14fe7964a70059560405160405180910390a250565b60006060600061117e8585612858565b9250925092509250925092565b611193612984565b73ffffffffffffffffffffffffffffffffffffffff163373ffffffffffffffffffffffffffffffffffffffff161415156111cc57600080fd5b6111d46129b5565b151515611249576040517f08c379a000000000000000000000000000000000000000000000000000000000815260040180806020018281038252601d8152602001807f636f6e74726163742073686f756c64206e6f742062652070617573656400000081525060200191505060405180910390fd5b611251612984565b73ffffffffffffffffffffffffffffffffffffffff1661126f612827565b73ffffffffffffffffffffffffffffffffffffffff167f8be0079c531659141344cd1fd0a4f28419497f9722a3daafe3b4186f6b6457e060405160405180910390a36112c16112bc612984565b6129e6565b6112cb6000612a15565b565b6000600760009054906101000a900460ff16905090565b6112ed81612a44565b50565b6112f8612827565b73ffffffffffffffffffffffffffffffffffffffff163373ffffffffffffffffffffffffffffffffffffffff1614151561133157600080fd5b600860008273ffffffffffffffffffffffffffffffffffffffff1673ffffffffffffffffffffffffffffffffffffffff16815260200190815260200160002060006101000a81549060ff02191690558073ffffffffffffffffffffffffffffffffffffffff167f5bf47f016603dfff957e6086bd9a350212686e8f1d9208b3db47c5a3107c787860405160405180910390a250565b600c818154811015156113d557fe5b90600052602060002090600d02016000915090508060000160009054906101000a900473ffffffffffffffffffffffffffffffffffffffff16908060010154908060020160009054906101000a900473ffffffffffffffffffffffffffffffffffffffff16908060030154908060040160009054906101000a900473ffffffffffffffffffffffffffffffffffffffff1690806005015490806006018054600181600116156101000203166002900480601f0160208091040260200160405190810160405280929190818152602001828054600181600116156101000203166002900480156115055780601f106114da57610100808354040283529160200191611505565b820191906000526020600020905b8154815290600101906020018083116114e857829003601f168201915b505050505090806007015490806008018054600181600116156101000203166002900480601f0160208091040260200160405190810160405280929190818152602001828054600181600116156101000203166002900480156115a95780601f1061157e576101008083540402835291602001916115a9565b820191906000526020600020905b81548152906001019060200180831161158c57829003601f168201915b50505050509080600901549080600a01549080600b0160009054906101000a900460ff169080600c015490508d565b6115e0612827565b73ffffffffffffffffffffffffffffffffffffffff163373ffffffffffffffffffffffffffffffffffffffff1614151561161957600080fd5b6116216129b5565b151515611696576040517f08c379a000000000000000000000000000000000000000000000000000000000815260040180806020018281038252601d8152602001807f636f6e74726163742073686f756c64206e6f742062652070617573656400000081525060200191505060405180910390fd5b61169e612827565b73ffffffffffffffffffffffffffffffffffffffff167ff8df31144d9c2f0f6b59d69b8b98abd5459d07f2742c4df920b25aae33c6482060405160405180910390a26116ea60006129e6565b565b6000600c80549050905090565b6000600c8054905083101515611777576040517f08c379a00000000000000000000000000000000000000000000000000000000081526004018080602001828103825260168152602001807f696e76616c69642065786368616e676520696e6465780000000000000000000081525060200191505060405180910390fd5b600c8381548110151561178657fe5b90600052602060002090600d020190508060020160009054906101000a900473ffffffffffffffffffffffffffffffffffffffff1673ffffffffffffffffffffffffffffffffffffffff163373ffffffffffffffffffffffffffffffffffffffff1614151561185d576040517f08c379a000000000000000000000000000000000000000000000000000000000815260040180806020018281038252601b8152602001807f6f6e6c792070617373706f7274206f776e657220616c6c6f776564000000000081525060200191505060405180910390fd5b80600b0160009054906101000a900460ff16600281111561187a57fe5b6001600281111561188757fe5b141515611922576040517f08c379a00000000000000000000000000000000000000000000000000000000081526004018080602001828103825260228152602001807f65786368616e6765206d75737420626520696e2070726f706f7365642073746181526020017f746500000000000000000000000000000000000000000000000000000000000081525060400191505060405180910390fd5b806001015434101515156119c4576040517f08c379a000000000000000000000000000000000000000000000000000000000815260040180806020018281038252602c8152602001807f6e65656420746f207374616b65206174206c656173742064617461207265717581526020017f657374657220616d6f756e74000000000000000000000000000000000000000081525060400191505060405180910390fd5b80600c01546119d16127b4565b101515611a46576040517f08c379a00000000000000000000000000000000000000000000000000000000081526004018080602001828103825260168152602001807f65786368616e676520737461746520657870697265640000000000000000000081525060200191505060405180910390fd5b3481600301819055508181600a018160001916905550600281600b0160006101000a81548160ff02191690836002811115611a7d57fe5b021790555062015180611a8e6127b4565b0181600c01819055503373ffffffffffffffffffffffffffffffffffffffff168160000160009054906101000a900473ffffffffffffffffffffffffffffffffffffffff1673ffffffffffffffffffffffffffffffffffffffff16847f843dda373d0d243dce80a6cd203b9cbba8576d036c7eb937f9de36ebe6e8b02360405160405180910390a4505050565b6000600860008373ffffffffffffffffffffffffffffffffffffffff1673ffffffffffffffffffffffffffffffffffffffff16815260200190815260200160002060009054906101000a900460ff169050919050565b6000611b7b612827565b905090565b6201518081565b611b8f612827565b73ffffffffffffffffffffffffffffffffffffffff163373ffffffffffffffffffffffffffffffffffffffff16141515611bc857600080fd5b6001600860008373ffffffffffffffffffffffffffffffffffffffff1673ffffffffffffffffffffffffffffffffffffffff16815260200190815260200160002060006101000a81548160ff0219169083151502179055508073ffffffffffffffffffffffffffffffffffffffff167fff8ac5f0e9cdc8f7ffbbc29ab1301ee649cf01cf7a6a9265a2d90587612c417560405160405180910390a250565b600b5481565b600060606000806000611c7d612cc8565b6000611c898c8c612858565b965096509650861515611d04576040517f08c379a00000000000000000000000000000000000000000000000000000000081526004018080602001828103825260178152602001807f707269766174652064617461206d75737420657869737400000000000000000081525060200191505060405180910390fd5b611d0c612827565b93506101a0604051908101604052803373ffffffffffffffffffffffffffffffffffffffff1681526020013481526020018573ffffffffffffffffffffffffffffffffffffffff168152602001600081526020018d73ffffffffffffffffffffffffffffffffffffffff1681526020018c600019168152602001878152602001866000191681526020018b8b8080601f0160208091040260200160405190810160405280939291908181526020018383808284378201915050505050508152602001896000191681526020018460001916815260200160016002811115611def57fe5b815260200162015180611e006127b4565b018152509150600c829080600181540180825580915050906001820390600052602060002090600d02016000909192909190915060008201518160000160006101000a81548173ffffffffffffffffffffffffffffffffffffffff021916908373ffffffffffffffffffffffffffffffffffffffff1602179055506020820151816001015560408201518160020160006101000a81548173ffffffffffffffffffffffffffffffffffffffff021916908373ffffffffffffffffffffffffffffffffffffffff1602179055506060820151816003015560808201518160040160006101000a81548173ffffffffffffffffffffffffffffffffffffffff021916908373ffffffffffffffffffffffffffffffffffffffff16021790555060a0820151816005019060001916905560c0820151816006019080519060200190611f49929190612d8a565b5060e08201518160070190600019169055610100820151816008019080519060200190611f77929190612e0a565b50610120820151816009019060001916905561014082015181600a019060001916905561016082015181600b0160006101000a81548160ff02191690836002811115611fbf57fe5b021790555061018082015181600c0155505050611fda612b31565b6001600c805490500390508373ffffffffffffffffffffffffffffffffffffffff163373ffffffffffffffffffffffffffffffffffffffff16827fabe53237e9ea366da7fa5507ac62db22bd446d6b66bcff4a6d6c1b11e9af198360405160405180910390a4505050505050505050505050565b6000612058612984565b905090565b61209a8484848080601f01602080910402602001604051908101604052809392919081815260200183838082843782019150505050505083612b55565b50505050565b6120a8612827565b73ffffffffffffffffffffffffffffffffffffffff163373ffffffffffffffffffffffffffffffffffffffff161415156120e157600080fd5b6120e96129b5565b15151561215e576040517f08c379a000000000000000000000000000000000000000000000000000000000815260040180806020018281038252601d8152602001807f636f6e74726163742073686f756c64206e6f742062652070617573656400000081525060200191505060405180910390fd5b61216781612a15565b50565b6000806000806000600c80549050871015156121ee576040517f08c379a00000000000000000000000000000000000000000000000000000000081526004018080602001828103825260168152602001807f696e76616c69642065786368616e676520696e6465780000000000000000000081525060200191505060405180910390fd5b600c878154811015156121fd57fe5b90600052602060002090600d0201945084600b0160009054906101000a900460ff16600281111561222a57fe5b60028081111561223657fe5b1415156122d1576040517f08c379a00000000000000000000000000000000000000000000000000000000081526004018080602001828103825260228152602001807f65786368616e6765206d75737420626520696e2061636365707465642073746181526020017f746500000000000000000000000000000000000000000000000000000000000081525060400191505060405180910390fd5b8460000160009054906101000a900473ffffffffffffffffffffffffffffffffffffffff1673ffffffffffffffffffffffffffffffffffffffff163373ffffffffffffffffffffffffffffffffffffffff16141515612398576040517f08c379a000000000000000000000000000000000000000000000000000000000815260040180806020018281038252601b8152602001807f6f6e6c7920646174612072657175657374657220616c6c6f776564000000000081525060200191505060405180910390fd5b84600c01546123a56127b4565b10151561241a576040517f08c379a000000000000000000000000000000000000000000000000000000000815260040180806020018281038252601c8152602001807f65786368616e6765206d757374206e6f7420626520657870697265640000000081525060200191505060405180910390fd5b846009015460001916866040516020018082600019166000191681526020019150506040516020818303038152906040526040518082805190602001908083835b602083101515612480578051825260208201915060208101905060208303925061245b565b6001836020036101000a038019825116818451168082178552505050505050905001915050604051809103902060001916141515612526576040517f08c379a000000000000000000000000000000000000000000000000000000000815260040180806020018281038252601c8152602001807f65786368616e6765206b65792068617368206d757374206d617463680000000081525060200191505060405180910390fd5b84600a015486189350846007015460001916846040516020018082600019166000191681526020019150506040516020818303038152906040526040518082805190602001908083835b6020831015156125955780518252602082019150602081019050602083039250612570565b6001836020036101000a038019825116818451168082178552505050505050905001915050604051809103902060001916149250600085600b0160006101000a81548160ff021916908360028111156125ea57fe5b021790555061260a856003015486600101546127e490919063ffffffff16565b915082156126a2578460020160009054906101000a900473ffffffffffffffffffffffffffffffffffffffff1673ffffffffffffffffffffffffffffffffffffffff166108fc839081150290604051600060405180830381858888f19350505050151561267657600080fd5b8460000160009054906101000a900473ffffffffffffffffffffffffffffffffffffffff16905061272e565b8460000160009054906101000a900473ffffffffffffffffffffffffffffffffffffffff1673ffffffffffffffffffffffffffffffffffffffff166108fc839081150290604051600060405180830381858888f19350505050151561270657600080fd5b8460020160009054906101000a900473ffffffffffffffffffffffffffffffffffffffff1690505b612736612802565b867f5d1a7ae2ffda31cae15ed5129d32260ef2a270a21325f536f7954ed297e52c8e60405160405180910390a28073ffffffffffffffffffffffffffffffffffffffff1683151515887f540941e0fc2370abde0bfa6ddbb49188469597e518416fa24327f39469c9b2ec60405160405180910390a450505050505050565b600080429050670214e8348c4f00008111156127dd57633b9aca00818115156127d957fe5b0490505b8091505090565b60008082840190508381101515156127f857fe5b8091505092915050565b6000600b60008154600190039190508190551415612825576128246000612c99565b5b565b6000807f3ca57e4b51fc2e18497b219410298879868edada7e6fe5132c8feceb0a080d226001029050805491505090565b60006060600080600a60008773ffffffffffffffffffffffffffffffffffffffff1673ffffffffffffffffffffffffffffffffffffffff1681526020019081526020016000206000866000191660001916815260200190815260200160002090508060000160009054906101000a900460ff16816001016000018260010160010154818054600181600116156101000203166002900480601f01602080910402602001604051908101604052809291908181526020018280546001816001161561010002031660029004801561296f5780601f106129445761010080835404028352916020019161296f565b820191906000526020600020905b81548152906001019060200180831161295257829003601f168201915b50505050509150935093509350509250925092565b6000807fcfd0c6ea5352192d7d4c5d4e7a73c5da12c871730cb60ff57879cbe7b403bb526001029050805491505090565b6000807f9e7945c55c116aa3404b99fe56db7af9613d3b899554a437c2616a4749a94d8a6001029050805491505090565b60007f3ca57e4b51fc2e18497b219410298879868edada7e6fe5132c8feceb0a080d2260010290508181555050565b60007fcfd0c6ea5352192d7d4c5d4e7a73c5da12c871730cb60ff57879cbe7b403bb5260010290508181555050565b612a4d33611036565b1515612a5857600080fd5b600a60003373ffffffffffffffffffffffffffffffffffffffff1673ffffffffffffffffffffffffffffffffffffffff16815260200190815260200160002060008260001916600019168152602001908152602001600020600080820160006101000a81549060ff02191690556001820160008082016000612ada9190612e8a565b60018201600090555050505080600019163373ffffffffffffffffffffffffffffffffffffffff167f9cad6db22e9f7e2a3441e18ef08567fa48da09796f593ded4222f0a315f9860160405160405180910390a350565b6001600b600081546001019190508190551415612b5357612b526001612c99565b5b565b612b5e33611036565b1515612b6957600080fd5b604080519081016040528060011515815260200160408051908101604052808581526020018460001916815250815250600a60003373ffffffffffffffffffffffffffffffffffffffff1673ffffffffffffffffffffffffffffffffffffffff1681526020019081526020016000206000856000191660001916815260200190815260200160002060008201518160000160006101000a81548160ff0219169083151502179055506020820151816001016000820151816000019080519060200190612c36929190612d8a565b5060208201518160010190600019169055505090505082600019163373ffffffffffffffffffffffffffffffffffffffff167f0ed4013fbc8174781b18a7aa1cce7d589bc1fc3509941835787881ed2ab8b48e60405160405180910390a3505050565b60007f9e7945c55c116aa3404b99fe56db7af9613d3b899554a437c2616a4749a94d8a60010290508181555050565b6101a060405190810160405280600073ffffffffffffffffffffffffffffffffffffffff16815260200160008152602001600073ffffffffffffffffffffffffffffffffffffffff16815260200160008152602001600073ffffffffffffffffffffffffffffffffffffffff16815260200160008019168152602001606081526020016000801916815260200160608152602001600080191681526020016000801916815260200160006002811115612d7d57fe5b8152602001600081525090565b828054600181600116156101000203166002900490600052602060002090601f016020900481019282601f10612dcb57805160ff1916838001178555612df9565b82800160010185558215612df9579182015b82811115612df8578251825591602001919060010190612ddd565b5b509050612e069190612ed2565b5090565b828054600181600116156101000203166002900490600052602060002090601f016020900481019282601f10612e4b57805160ff1916838001178555612e79565b82800160010185558215612e79579182015b82811115612e78578251825591602001919060010190612e5d565b5b509050612e869190612ed2565b5090565b50805460018160011615610100020316600290046000825580601f10612eb05750612ecf565b601f016020900490600052602060002090810190612ece9190612ed2565b5b50565b612ef491905b80821115612ef0576000816000905550600101612ed8565b5090565b905600a165627a7a723058208397bcee31aca381f466b9316d654fd739e4e5c08d524f148cb676d592b2fd320029",
  "source": "pragma solidity ^0.4.24;\n\nimport \"../openzeppelin-solidity/contracts/math/SafeMath.sol\";\n\nimport \"./Storage.sol\";\n\ncontract PrivateDataStorageLogic is Storage {\n    using SafeMath for uint256;\n\n    event PrivateDataHashesUpdated(address indexed factProvider, bytes32 indexed key);\n    event PrivateDataHashesDeleted(address indexed factProvider, bytes32 indexed key);\n\n    event PrivateDataExchangeProposed(uint256 indexed exchangeIdx, address indexed dataRequester, address indexed passportOwner);\n    event PrivateDataExchangeAccepted(uint256 indexed exchangeIdx, address indexed dataRequester, address indexed passportOwner);\n    event PrivateDataExchangeClosed(uint256 indexed exchangeIdx);\n    event PrivateDataExchangeDisputed(uint256 indexed exchangeIdx, bool indexed successful, address indexed cheater);\n\n    uint256 constant public privateDataExchangeProposeTimeout = 1 days;\n    uint256 constant public privateDataExchangeAcceptTimeout = 1 days;\n\n    /// @param _key The key for the record\n    /// @param _dataIPFSHash The IPFS hash of encrypted private data\n    /// @param _dataKeyHash The hash of symmetric key that was used to encrypt the data\n    function setPrivateDataHashes(bytes32 _key, string _dataIPFSHash, bytes32 _dataKeyHash) external {\n        _setPrivateDataHashes(_key, _dataIPFSHash, _dataKeyHash);\n    }\n\n    /// @param _key The key for the record\n    function deletePrivateDataHashes(bytes32 _key) external {\n        _deletePrivateDataHashes(_key);\n    }\n\n    /// @param _factProvider The fact provider\n    /// @param _key The key for the record\n    function getPrivateDataHashes(address _factProvider, bytes32 _key) external view returns (bool success, string memory dataIPFSHash, bytes32 dataKeyHash) {\n        return _getPrivateDataHashes(_factProvider, _key);\n    }\n\n    /**\n     * @dev returns the number of private data exchanges created.\n     */\n    function getPrivateDataExchangesCount() public view returns (uint256 count) {\n        return privateDataExchanges.length;\n    }\n\n    /// @param _factProvider The fact provider\n    /// @param _key The key for the record\n    /// @param _encryptedExchangeKey The encrypted exchange session key (only passport owner can decrypt it)\n    /// @param _exchangeKeyHash The hash of exchange session key\n    function proposePrivateDataExchange(\n        address _factProvider,\n        bytes32 _key,\n        bytes _encryptedExchangeKey,\n        bytes32 _exchangeKeyHash\n    ) external payable {\n        (bool success, string memory dataIPFSHash, bytes32 dataKeyHash) = _getPrivateDataHashes(_factProvider, _key);\n        require(success, \"private data must exist\");\n\n        address passportOwner = _getOwner();\n        bytes32 encryptedDataKey;\n        PrivateDataExchange memory exchange = PrivateDataExchange({\n            dataRequester : msg.sender,\n            dataRequesterValue : msg.value,\n            passportOwner : passportOwner,\n            passportOwnerValue : 0,\n            factProvider : _factProvider,\n            key : _key,\n            dataIPFSHash : dataIPFSHash,\n            dataKeyHash : dataKeyHash,\n            encryptedExchangeKey : _encryptedExchangeKey,\n            exchangeKeyHash : _exchangeKeyHash,\n            encryptedDataKey : encryptedDataKey,\n            state : PrivateDataExchangeState.Proposed,\n            stateExpired : _nowSeconds() + privateDataExchangeProposeTimeout\n            });\n        privateDataExchanges.push(exchange);\n\n        _incOpenPrivateDataExchangesCount();\n\n        uint256 exchangeIdx = privateDataExchanges.length - 1;\n        emit PrivateDataExchangeProposed(exchangeIdx, msg.sender, passportOwner);\n    }\n\n    /// @param _exchangeIdx The private data exchange index\n    /// @param _encryptedDataKey The data symmetric key XORed with the exchange key\n    function acceptPrivateDataExchange(uint256 _exchangeIdx, bytes32 _encryptedDataKey) external payable {\n        require(_exchangeIdx < privateDataExchanges.length, \"invalid exchange index\");\n        PrivateDataExchange storage exchange = privateDataExchanges[_exchangeIdx];\n        require(msg.sender == exchange.passportOwner, \"only passport owner allowed\");\n        require(PrivateDataExchangeState.Proposed == exchange.state, \"exchange must be in proposed state\");\n        require(msg.value >= exchange.dataRequesterValue, \"need to stake at least data requester amount\");\n        require(_nowSeconds() < exchange.stateExpired, \"exchange state expired\");\n\n        exchange.passportOwnerValue = msg.value;\n        exchange.encryptedDataKey = _encryptedDataKey;\n        exchange.state = PrivateDataExchangeState.Accepted;\n        exchange.stateExpired = _nowSeconds() + privateDataExchangeAcceptTimeout;\n\n        emit PrivateDataExchangeAccepted(_exchangeIdx, exchange.dataRequester, msg.sender);\n    }\n\n    /// @param _exchangeIdx The private data exchange index\n    function finishPrivateDataExchange(uint256 _exchangeIdx) external {\n        require(_exchangeIdx < privateDataExchanges.length, \"invalid exchange index\");\n        PrivateDataExchange storage exchange = privateDataExchanges[_exchangeIdx];\n        require(PrivateDataExchangeState.Accepted == exchange.state, \"exchange must be in accepted state\");\n        require(_nowSeconds() > exchange.stateExpired || msg.sender == exchange.dataRequester, \"exchange must be either expired or be finished by the data requester\");\n\n        exchange.state = PrivateDataExchangeState.Closed;\n\n        // transfer all exchange staked money to passport owner\n        uint256 val = exchange.dataRequesterValue.add(exchange.passportOwnerValue);\n        require(exchange.passportOwner.send(val));\n\n        _decOpenPrivateDataExchangesCount();\n\n        emit PrivateDataExchangeClosed(_exchangeIdx);\n    }\n\n    /// @param _exchangeIdx The private data exchange index\n    function timeoutPrivateDataExchange(uint256 _exchangeIdx) external {\n        require(_exchangeIdx < privateDataExchanges.length, \"invalid exchange index\");\n        PrivateDataExchange storage exchange = privateDataExchanges[_exchangeIdx];\n        require(PrivateDataExchangeState.Proposed == exchange.state, \"exchange must be in proposed state\");\n        require(msg.sender == exchange.dataRequester, \"only data requester allowed\");\n        require(_nowSeconds() > exchange.stateExpired, \"exchange must be expired\");\n\n        exchange.state = PrivateDataExchangeState.Closed;\n\n        // return staked amount to data requester\n        require(exchange.dataRequester.send(exchange.dataRequesterValue));\n\n        _decOpenPrivateDataExchangesCount();\n\n        emit PrivateDataExchangeClosed(_exchangeIdx);\n    }\n\n    /// @param _exchangeIdx The private data exchange index\n    /// @param _exchangeKey The unencrypted exchange session key\n    function disputePrivateDataExchange(uint256 _exchangeIdx, bytes32 _exchangeKey) external {\n        require(_exchangeIdx < privateDataExchanges.length, \"invalid exchange index\");\n        PrivateDataExchange storage exchange = privateDataExchanges[_exchangeIdx];\n        require(PrivateDataExchangeState.Accepted == exchange.state, \"exchange must be in accepted state\");\n        require(msg.sender == exchange.dataRequester, \"only data requester allowed\");\n        require(_nowSeconds() < exchange.stateExpired, \"exchange must not be expired\");\n        require(keccak256(abi.encodePacked(_exchangeKey)) == exchange.exchangeKeyHash, \"exchange key hash must match\");\n\n        bytes32 dataKey = _exchangeKey ^ exchange.encryptedDataKey;\n        // data symmetric key is XORed with exchange key\n        bool validDataKey = keccak256(abi.encodePacked(dataKey)) == exchange.dataKeyHash;\n\n        exchange.state = PrivateDataExchangeState.Closed;\n\n        uint256 val = exchange.dataRequesterValue.add(exchange.passportOwnerValue);\n\n        address cheater;\n        if (validDataKey) {// the data key was valid -> data requester cheated\n            require(exchange.passportOwner.send(val));\n            cheater = exchange.dataRequester;\n        } else {// the data key is invalid -> passport owner cheated\n            require(exchange.dataRequester.send(val));\n            cheater = exchange.passportOwner;\n        }\n\n        _decOpenPrivateDataExchangesCount();\n\n        emit PrivateDataExchangeClosed(_exchangeIdx);\n        emit PrivateDataExchangeDisputed(_exchangeIdx, !validDataKey, cheater);\n    }\n\n    function _incOpenPrivateDataExchangesCount() internal {\n        if (++openPrivateDataExchangesCount == 1) {\n            // don't allow passport owner to transfer ownership and destroy passport when there are open exchanges\n            _setPaused(true);\n        }\n    }\n\n    function _decOpenPrivateDataExchangesCount() internal {\n        if (--openPrivateDataExchangesCount == 0) {\n            // allow passport owner to transfer ownership and destroy passport when all exchanges are closed\n            _setPaused(false);\n        }\n    }\n\n    function _setPrivateDataHashes(bytes32 _key, string memory _dataIPFSHash, bytes32 _dataKeyHash) allowedFactProvider internal {\n        privateDataStorage[msg.sender][_key] = PrivateDataValue({\n            initialized : true,\n            value : PrivateData({\n                dataIPFSHash : _dataIPFSHash,\n                dataKeyHash : _dataKeyHash\n                })\n            });\n        emit PrivateDataHashesUpdated(msg.sender, _key);\n    }\n\n    function _deletePrivateDataHashes(bytes32 _key) allowedFactProvider internal {\n        delete privateDataStorage[msg.sender][_key];\n        emit PrivateDataHashesDeleted(msg.sender, _key);\n    }\n\n    function _getPrivateDataHashes(address _factProvider, bytes32 _key) internal view returns (bool success, string memory dataIPFSHash, bytes32 dataKeyHash) {\n        PrivateDataValue storage initValue = privateDataStorage[_factProvider][_key];\n        return (initValue.initialized, initValue.value.dataIPFSHash, initValue.value.dataKeyHash);\n    }\n\n    function _nowSeconds() private view returns(uint256) {\n        uint256 t = now;\n\n        // In Quorum blockchain timestamp is in nanoseconds, not seconds:\n        // https://github.com/jpmorganchase/quorum/issues/713\n        // https://github.com/jpmorganchase/quorum/issues/190\n        if (t > 150000000000000000) {\n            t /= 1000000000;\n        }\n\n        return t;\n    }\n}",
  "sourcePath": "/Users/mehranhydary/Desktop/dev/connect-bc/bids-api/blockchain/contracts/storage/PrivateDataStorageLogic.sol",
  "compiler": {
    "name": "solc",
    "version": "0.4.25+commit.59dbf8f1.Emscripten.clang"
  },
  "schemaVersion": "3.0.0",
  "updatedAt": "2019-09-20T21:39:24.038Z",
  "devdoc": {
    "methods": {
      "acceptPrivateDataExchange(uint256,bytes32)": {
        "params": {
          "_encryptedDataKey": "The data symmetric key XORed with the exchange key",
          "_exchangeIdx": "The private data exchange index"
        }
      },
      "claimOwnership()": {
        "details": "Allows the pendingOwner address to finalize the transfer."
      },
      "deletePrivateDataHashes(bytes32)": {
        "params": {
          "_key": "The key for the record"
        }
      },
      "disputePrivateDataExchange(uint256,bytes32)": {
        "params": {
          "_exchangeIdx": "The private data exchange index",
          "_exchangeKey": "The unencrypted exchange session key"
        }
      },
      "finishPrivateDataExchange(uint256)": {
        "params": {
          "_exchangeIdx": "The private data exchange index"
        }
      },
      "getPrivateDataExchangesCount()": {
        "details": "returns the number of private data exchanges created."
      },
      "getPrivateDataHashes(address,bytes32)": {
        "params": {
          "_factProvider": "The fact provider",
          "_key": "The key for the record"
        }
      },
      "owner()": {
        "return": "The owner address."
      },
      "proposePrivateDataExchange(address,bytes32,bytes,bytes32)": {
        "params": {
          "_encryptedExchangeKey": "The encrypted exchange session key (only passport owner can decrypt it)",
          "_exchangeKeyHash": "The hash of exchange session key",
          "_factProvider": "The fact provider",
          "_key": "The key for the record"
        }
      },
      "renounceOwnership()": {
        "details": "Allows the current owner to relinquish control of the contract."
      },
      "setPrivateDataHashes(bytes32,string,bytes32)": {
        "params": {
          "_dataIPFSHash": "The IPFS hash of encrypted private data",
          "_dataKeyHash": "The hash of symmetric key that was used to encrypt the data",
          "_key": "The key for the record"
        }
      },
      "timeoutPrivateDataExchange(uint256)": {
        "params": {
          "_exchangeIdx": "The private data exchange index"
        }
      },
      "transferOwnership(address)": {
        "details": "Allows the current owner to set the pendingOwner address.",
        "params": {
          "newOwner": "The address to transfer ownership to."
        }
      }
    }
  },
  "userdoc": {
    "methods": {
      "addFactProviderToWhitelist(address)": {
        "notice": "Allows owner to add fact provider to whitelist."
      },
      "isAllowedFactProvider(address)": {
        "notice": "Returns true when the given address is an allowed fact provider."
      },
      "isFactProviderInWhitelist(address)": {
        "notice": "Returns true if fact provider is added to the whitelist."
      },
      "isWhitelistOnlyPermissionSet()": {
        "notice": "Returns true when a whitelist of fact providers is enabled."
      },
      "removeFactProviderFromWhitelist(address)": {
        "notice": "Allows owner to remove fact provider from whitelist."
      },
      "renounceOwnership()": {
        "notice": "Renouncing to ownership will leave the contract without an owner. It will not be possible to call the functions with the `onlyOwner` modifier anymore."
      },
      "setWhitelistOnlyPermission(bool)": {
        "notice": "Enables or disables the use of a whitelist of fact providers."
      }
    }
  }
}