{
  "contractName": "PullPayment",
  "abi": [
    {
      "constant": true,
      "inputs": [],
      "name": "totalPayments",
      "outputs": [
        {
          "name": "",
          "type": "uint256"
        }
      ],
      "payable": false,
      "stateMutability": "view",
      "type": "function"
    },
    {
      "constant": true,
      "inputs": [
        {
          "name": "",
          "type": "address"
        }
      ],
      "name": "payments",
      "outputs": [
        {
          "name": "",
          "type": "uint256"
        }
      ],
      "payable": false,
      "stateMutability": "view",
      "type": "function"
    },
    {
      "constant": false,
      "inputs": [],
      "name": "withdrawPayments",
      "outputs": [],
      "payable": false,
      "stateMutability": "nonpayable",
      "type": "function"
    }
  ],
  "bytecode": "0x608060405234801561001057600080fd5b50610274806100206000396000f300608060405260043610610056576000357c0100000000000000000000000000000000000000000000000000000000900463ffffffff1680625b44871461005b5780636103d70b14610086578063e2982c211461009d575b600080fd5b34801561006757600080fd5b506100706100f4565b6040518082815260200191505060405180910390f35b34801561009257600080fd5b5061009b6100fa565b005b3480156100a957600080fd5b506100de600480360381019080803573ffffffffffffffffffffffffffffffffffffffff169060200190929190505050610217565b6040518082815260200191505060405180910390f35b60015481565b6000803391506000808373ffffffffffffffffffffffffffffffffffffffff1673ffffffffffffffffffffffffffffffffffffffff1681526020019081526020016000205490506000811415151561015157600080fd5b803073ffffffffffffffffffffffffffffffffffffffff16311015151561017757600080fd5b61018c8160015461022f90919063ffffffff16565b60018190555060008060008473ffffffffffffffffffffffffffffffffffffffff1673ffffffffffffffffffffffffffffffffffffffff168152602001908152602001600020819055508173ffffffffffffffffffffffffffffffffffffffff166108fc829081150290604051600060405180830381858888f19350505050151561021357fe5b5050565b60006020528060005260406000206000915090505481565b600082821115151561023d57fe5b8183039050929150505600a165627a7a723058206223c5d13585411faa89c7e4859f9984f340ac8cb22dbde3452c571c83c4b99a0029",
  "source": "pragma solidity ^0.4.11;\r\n\r\n\r\nimport '../math/SafeMath.sol';\r\n\r\n\r\n/**\r\n * @title PullPayment\r\n * @dev Base contract supporting async send for pull payments. Inherit from this\r\n * contract and use asyncSend instead of send.\r\n */\r\ncontract PullPayment {\r\n  using SafeMath for uint256;\r\n\r\n  mapping(address => uint256) public payments;\r\n  uint256 public totalPayments;\r\n\r\n  /**\r\n  * @dev Called by the payer to store the sent amount as credit to be pulled.\r\n  * @param dest The destination address of the funds.\r\n  * @param amount The amount to transfer.\r\n  */\r\n  function asyncSend(address dest, uint256 amount) internal {\r\n    payments[dest] = payments[dest].add(amount);\r\n    totalPayments = totalPayments.add(amount);\r\n  }\r\n\r\n  /**\r\n  * @dev withdraw accumulated balance, called by payee.\r\n  */\r\n  function withdrawPayments() public {\r\n    address payee = msg.sender;\r\n    uint256 payment = payments[payee];\r\n\r\n    require(payment != 0);\r\n    require(this.balance >= payment);\r\n\r\n    totalPayments = totalPayments.sub(payment);\r\n    payments[payee] = 0;\r\n\r\n    assert(payee.send(payment));\r\n  }\r\n}\r\n",
  "sourcePath": "c:\\UNICEF\\dev\\connect-bc\\bids-api\\blockchain\\contracts\\openzeppelin-solidity\\contracts\\payment\\PullPayment.sol",
  "compiler": {
    "name": "solc",
    "version": "0.4.25+commit.59dbf8f1.Emscripten.clang"
  },
  "schemaVersion": "3.0.23",
  "updatedAt": "2020-04-28T17:42:08.672Z",
  "devdoc": {
    "methods": {
      "withdrawPayments()": {
        "details": "withdraw accumulated balance, called by payee.\r"
      }
    },
    "title": "PullPayment\r"
  },
  "userdoc": {
    "methods": {}
  }
}