{
  "contractName": "Storage",
  "abi": [
    {
      "constant": false,
      "inputs": [],
      "name": "claimOwnership",
      "outputs": [],
      "payable": false,
      "stateMutability": "nonpayable",
      "type": "function"
    },
    {
      "constant": true,
      "inputs": [
        {
          "name": "",
          "type": "uint256"
        }
      ],
      "name": "privateDataExchanges",
      "outputs": [
        {
          "name": "dataRequester",
          "type": "address"
        },
        {
          "name": "dataRequesterValue",
          "type": "uint256"
        },
        {
          "name": "passportOwner",
          "type": "address"
        },
        {
          "name": "passportOwnerValue",
          "type": "uint256"
        },
        {
          "name": "factProvider",
          "type": "address"
        },
        {
          "name": "key",
          "type": "bytes32"
        },
        {
          "name": "dataIPFSHash",
          "type": "string"
        },
        {
          "name": "dataKeyHash",
          "type": "bytes32"
        },
        {
          "name": "encryptedExchangeKey",
          "type": "bytes"
        },
        {
          "name": "exchangeKeyHash",
          "type": "bytes32"
        },
        {
          "name": "encryptedDataKey",
          "type": "bytes32"
        },
        {
          "name": "state",
          "type": "uint8"
        },
        {
          "name": "stateExpired",
          "type": "uint256"
        }
      ],
      "payable": false,
      "stateMutability": "view",
      "type": "function"
    },
    {
      "constant": false,
      "inputs": [],
      "name": "renounceOwnership",
      "outputs": [],
      "payable": false,
      "stateMutability": "nonpayable",
      "type": "function"
    },
    {
      "constant": true,
      "inputs": [],
      "name": "owner",
      "outputs": [
        {
          "name": "",
          "type": "address"
        }
      ],
      "payable": false,
      "stateMutability": "view",
      "type": "function"
    },
    {
      "constant": true,
      "inputs": [],
      "name": "openPrivateDataExchangesCount",
      "outputs": [
        {
          "name": "",
          "type": "uint256"
        }
      ],
      "payable": false,
      "stateMutability": "view",
      "type": "function"
    },
    {
      "constant": true,
      "inputs": [],
      "name": "pendingOwner",
      "outputs": [
        {
          "name": "",
          "type": "address"
        }
      ],
      "payable": false,
      "stateMutability": "view",
      "type": "function"
    },
    {
      "constant": false,
      "inputs": [
        {
          "name": "newOwner",
          "type": "address"
        }
      ],
      "name": "transferOwnership",
      "outputs": [],
      "payable": false,
      "stateMutability": "nonpayable",
      "type": "function"
    },
    {
      "anonymous": false,
      "inputs": [
        {
          "indexed": true,
          "name": "onlyWhitelist",
          "type": "bool"
        }
      ],
      "name": "WhitelistOnlyPermissionSet",
      "type": "event"
    },
    {
      "anonymous": false,
      "inputs": [
        {
          "indexed": true,
          "name": "factProvider",
          "type": "address"
        }
      ],
      "name": "WhitelistFactProviderAdded",
      "type": "event"
    },
    {
      "anonymous": false,
      "inputs": [
        {
          "indexed": true,
          "name": "factProvider",
          "type": "address"
        }
      ],
      "name": "WhitelistFactProviderRemoved",
      "type": "event"
    },
    {
      "anonymous": false,
      "inputs": [
        {
          "indexed": true,
          "name": "previousOwner",
          "type": "address"
        }
      ],
      "name": "OwnershipRenounced",
      "type": "event"
    },
    {
      "anonymous": false,
      "inputs": [
        {
          "indexed": true,
          "name": "previousOwner",
          "type": "address"
        },
        {
          "indexed": true,
          "name": "newOwner",
          "type": "address"
        }
      ],
      "name": "OwnershipTransferred",
      "type": "event"
    },
    {
      "constant": true,
      "inputs": [
        {
          "name": "_address",
          "type": "address"
        }
      ],
      "name": "isAllowedFactProvider",
      "outputs": [
        {
          "name": "",
          "type": "bool"
        }
      ],
      "payable": false,
      "stateMutability": "view",
      "type": "function"
    },
    {
      "constant": true,
      "inputs": [],
      "name": "isWhitelistOnlyPermissionSet",
      "outputs": [
        {
          "name": "",
          "type": "bool"
        }
      ],
      "payable": false,
      "stateMutability": "view",
      "type": "function"
    },
    {
      "constant": false,
      "inputs": [
        {
          "name": "_onlyWhitelist",
          "type": "bool"
        }
      ],
      "name": "setWhitelistOnlyPermission",
      "outputs": [],
      "payable": false,
      "stateMutability": "nonpayable",
      "type": "function"
    },
    {
      "constant": true,
      "inputs": [
        {
          "name": "_address",
          "type": "address"
        }
      ],
      "name": "isFactProviderInWhitelist",
      "outputs": [
        {
          "name": "",
          "type": "bool"
        }
      ],
      "payable": false,
      "stateMutability": "view",
      "type": "function"
    },
    {
      "constant": false,
      "inputs": [
        {
          "name": "_address",
          "type": "address"
        }
      ],
      "name": "addFactProviderToWhitelist",
      "outputs": [],
      "payable": false,
      "stateMutability": "nonpayable",
      "type": "function"
    },
    {
      "constant": false,
      "inputs": [
        {
          "name": "_address",
          "type": "address"
        }
      ],
      "name": "removeFactProviderFromWhitelist",
      "outputs": [],
      "payable": false,
      "stateMutability": "nonpayable",
      "type": "function"
    }
  ],
  "bytecode": "0x608060405260405180807f6f72672e6d6f6e657468612e70726f78792e706175736564000000000000000081525060180190506040518091039020600019167f9e7945c55c116aa3404b99fe56db7af9613d3b899554a437c2616a4749a94d8a6001026000191614151561006f57fe5b60405180807f6f72672e6d6f6e657468612e70726f78792e6f776e657200000000000000000081525060170190506040518091039020600019167f3ca57e4b51fc2e18497b219410298879868edada7e6fe5132c8feceb0a080d22600102600019161415156100da57fe5b6100f233610162640100000000026401000000009004565b60405180807f6f72672e6d6f6e657468612e70726f78792e70656e64696e674f776e65720000815250601e0190506040518091039020600019167fcfd0c6ea5352192d7d4c5d4e7a73c5da12c871730cb60ff57879cbe7b403bb526001026000191614151561015d57fe5b610191565b60007f3ca57e4b51fc2e18497b219410298879868edada7e6fe5132c8feceb0a080d2260010290508181555050565b610f8c806101a06000396000f3006080604052600436106100c5576000357c0100000000000000000000000000000000000000000000000000000000900463ffffffff16806320888158146100ca5780632b42a89a146101255780634e71e0c81461015457806361a2d0761461016b5780636d4e78021461019a5780636f618f9a146101dd578063715018a6146103ee5780638ae44a08146104055780638da5cb5b14610460578063ac0aeb1a146104b7578063caa95f1b146104fa578063e30c397814610525578063f2fde38b1461057c575b600080fd5b3480156100d657600080fd5b5061010b600480360381019080803573ffffffffffffffffffffffffffffffffffffffff1690602001909291905050506105bf565b604051808215151515815260200191505060405180910390f35b34801561013157600080fd5b5061015260048036038101908080351515906020019092919050505061066a565b005b34801561016057600080fd5b506101696106f7565b005b34801561017757600080fd5b50610180610839565b604051808215151515815260200191505060405180910390f35b3480156101a657600080fd5b506101db600480360381019080803573ffffffffffffffffffffffffffffffffffffffff169060200190929190505050610850565b005b3480156101e957600080fd5b5061020860048036038101908080359060200190929190505050610926565b604051808e73ffffffffffffffffffffffffffffffffffffffff1673ffffffffffffffffffffffffffffffffffffffff1681526020018d81526020018c73ffffffffffffffffffffffffffffffffffffffff1673ffffffffffffffffffffffffffffffffffffffff1681526020018b81526020018a73ffffffffffffffffffffffffffffffffffffffff1673ffffffffffffffffffffffffffffffffffffffff168152602001896000191660001916815260200180602001886000191660001916815260200180602001876000191660001916815260200186600019166000191681526020018560028111156102fa57fe5b60ff16815260200184815260200183810383528a818151815260200191508051906020019080838360005b83811015610340578082015181840152602081019050610325565b50505050905090810190601f16801561036d5780820380516001836020036101000a031916815260200191505b50838103825288818151815260200191508051906020019080838360005b838110156103a657808201518184015260208101905061038b565b50505050905090810190601f1680156103d35780820380516001836020036101000a031916815260200191505b509f5050505050505050505050505050505060405180910390f35b3480156103fa57600080fd5b50610403610b38565b005b34801561041157600080fd5b50610446600480360381019080803573ffffffffffffffffffffffffffffffffffffffff169060200190929190505050610c4c565b604051808215151515815260200191505060405180910390f35b34801561046c57600080fd5b50610475610ca2565b604051808273ffffffffffffffffffffffffffffffffffffffff1673ffffffffffffffffffffffffffffffffffffffff16815260200191505060405180910390f35b3480156104c357600080fd5b506104f8600480360381019080803573ffffffffffffffffffffffffffffffffffffffff169060200190929190505050610cb1565b005b34801561050657600080fd5b5061050f610d90565b6040518082815260200191505060405180910390f35b34801561053157600080fd5b5061053a610d96565b604051808273ffffffffffffffffffffffffffffffffffffffff1673ffffffffffffffffffffffffffffffffffffffff16815260200191505060405180910390f35b34801561058857600080fd5b506105bd600480360381019080803573ffffffffffffffffffffffffffffffffffffffff169060200190929190505050610da5565b005b6000600760009054906101000a900460ff1615806106265750600860008373ffffffffffffffffffffffffffffffffffffffff1673ffffffffffffffffffffffffffffffffffffffff16815260200190815260200160002060009054906101000a900460ff165b806106635750610634610e6f565b73ffffffffffffffffffffffffffffffffffffffff168273ffffffffffffffffffffffffffffffffffffffff16145b9050919050565b610672610e6f565b73ffffffffffffffffffffffffffffffffffffffff163373ffffffffffffffffffffffffffffffffffffffff161415156106ab57600080fd5b80600760006101000a81548160ff0219169083151502179055508015157f6e1eb3fa845047cf9d5fd1deb1b7770b4e26163dd4d88cefb14fe7964a70059560405160405180910390a250565b6106ff610ea0565b73ffffffffffffffffffffffffffffffffffffffff163373ffffffffffffffffffffffffffffffffffffffff1614151561073857600080fd5b610740610ed1565b1515156107b5576040517f08c379a000000000000000000000000000000000000000000000000000000000815260040180806020018281038252601d8152602001807f636f6e74726163742073686f756c64206e6f742062652070617573656400000081525060200191505060405180910390fd5b6107bd610ea0565b73ffffffffffffffffffffffffffffffffffffffff166107db610e6f565b73ffffffffffffffffffffffffffffffffffffffff167f8be0079c531659141344cd1fd0a4f28419497f9722a3daafe3b4186f6b6457e060405160405180910390a361082d610828610ea0565b610f02565b6108376000610f31565b565b6000600760009054906101000a900460ff16905090565b610858610e6f565b73ffffffffffffffffffffffffffffffffffffffff163373ffffffffffffffffffffffffffffffffffffffff1614151561089157600080fd5b600860008273ffffffffffffffffffffffffffffffffffffffff1673ffffffffffffffffffffffffffffffffffffffff16815260200190815260200160002060006101000a81549060ff02191690558073ffffffffffffffffffffffffffffffffffffffff167f5bf47f016603dfff957e6086bd9a350212686e8f1d9208b3db47c5a3107c787860405160405180910390a250565b600c8181548110151561093557fe5b90600052602060002090600d02016000915090508060000160009054906101000a900473ffffffffffffffffffffffffffffffffffffffff16908060010154908060020160009054906101000a900473ffffffffffffffffffffffffffffffffffffffff16908060030154908060040160009054906101000a900473ffffffffffffffffffffffffffffffffffffffff1690806005015490806006018054600181600116156101000203166002900480601f016020809104026020016040519081016040528092919081815260200182805460018160011615610100020316600290048015610a655780601f10610a3a57610100808354040283529160200191610a65565b820191906000526020600020905b815481529060010190602001808311610a4857829003601f168201915b505050505090806007015490806008018054600181600116156101000203166002900480601f016020809104026020016040519081016040528092919081815260200182805460018160011615610100020316600290048015610b095780601f10610ade57610100808354040283529160200191610b09565b820191906000526020600020905b815481529060010190602001808311610aec57829003601f168201915b50505050509080600901549080600a01549080600b0160009054906101000a900460ff169080600c015490508d565b610b40610e6f565b73ffffffffffffffffffffffffffffffffffffffff163373ffffffffffffffffffffffffffffffffffffffff16141515610b7957600080fd5b610b81610ed1565b151515610bf6576040517f08c379a000000000000000000000000000000000000000000000000000000000815260040180806020018281038252601d8152602001807f636f6e74726163742073686f756c64206e6f742062652070617573656400000081525060200191505060405180910390fd5b610bfe610e6f565b73ffffffffffffffffffffffffffffffffffffffff167ff8df31144d9c2f0f6b59d69b8b98abd5459d07f2742c4df920b25aae33c6482060405160405180910390a2610c4a6000610f02565b565b6000600860008373ffffffffffffffffffffffffffffffffffffffff1673ffffffffffffffffffffffffffffffffffffffff16815260200190815260200160002060009054906101000a900460ff169050919050565b6000610cac610e6f565b905090565b610cb9610e6f565b73ffffffffffffffffffffffffffffffffffffffff163373ffffffffffffffffffffffffffffffffffffffff16141515610cf257600080fd5b6001600860008373ffffffffffffffffffffffffffffffffffffffff1673ffffffffffffffffffffffffffffffffffffffff16815260200190815260200160002060006101000a81548160ff0219169083151502179055508073ffffffffffffffffffffffffffffffffffffffff167fff8ac5f0e9cdc8f7ffbbc29ab1301ee649cf01cf7a6a9265a2d90587612c417560405160405180910390a250565b600b5481565b6000610da0610ea0565b905090565b610dad610e6f565b73ffffffffffffffffffffffffffffffffffffffff163373ffffffffffffffffffffffffffffffffffffffff16141515610de657600080fd5b610dee610ed1565b151515610e63576040517f08c379a000000000000000000000000000000000000000000000000000000000815260040180806020018281038252601d8152602001807f636f6e74726163742073686f756c64206e6f742062652070617573656400000081525060200191505060405180910390fd5b610e6c81610f31565b50565b6000807f3ca57e4b51fc2e18497b219410298879868edada7e6fe5132c8feceb0a080d226001029050805491505090565b6000807fcfd0c6ea5352192d7d4c5d4e7a73c5da12c871730cb60ff57879cbe7b403bb526001029050805491505090565b6000807f9e7945c55c116aa3404b99fe56db7af9613d3b899554a437c2616a4749a94d8a6001029050805491505090565b60007f3ca57e4b51fc2e18497b219410298879868edada7e6fe5132c8feceb0a080d2260010290508181555050565b60007fcfd0c6ea5352192d7d4c5d4e7a73c5da12c871730cb60ff57879cbe7b403bb52600102905081815550505600a165627a7a72305820db61d401b869c4b2b2b0648cc2bcabd7deee2351c27fbd933cbf20c7a05421360029",
  "source": "pragma solidity ^0.4.24;\r\n\r\nimport \"../ownership/ClaimableProxy.sol\";\r\n\r\n// Storage contracts holds all state.\r\n// Do not change the order of the fields, аdd new fields to the end of the contract!\r\ncontract Storage is ClaimableProxy\r\n{\r\n    /***************************************************************************\r\n     *** STORAGE VARIABLES. DO NOT REORDER!!! ADD NEW VARIABLE TO THE END!!! ***\r\n     ***************************************************************************/\r\n\r\n    struct AddressValue {\r\n        bool initialized;\r\n        address value;\r\n    }\r\n\r\n    mapping(address => mapping(bytes32 => AddressValue)) internal addressStorage;\r\n\r\n    struct UintValue {\r\n        bool initialized;\r\n        uint value;\r\n    }\r\n\r\n    mapping(address => mapping(bytes32 => UintValue)) internal uintStorage;\r\n\r\n    struct IntValue {\r\n        bool initialized;\r\n        int value;\r\n    }\r\n\r\n    mapping(address => mapping(bytes32 => IntValue)) internal intStorage;\r\n\r\n    struct BoolValue {\r\n        bool initialized;\r\n        bool value;\r\n    }\r\n\r\n    mapping(address => mapping(bytes32 => BoolValue)) internal boolStorage;\r\n\r\n    struct StringValue {\r\n        bool initialized;\r\n        string value;\r\n    }\r\n\r\n    mapping(address => mapping(bytes32 => StringValue)) internal stringStorage;\r\n\r\n    struct BytesValue {\r\n        bool initialized;\r\n        bytes value;\r\n    }\r\n\r\n    mapping(address => mapping(bytes32 => BytesValue)) internal bytesStorage;\r\n\r\n    struct BlockNumberValue {\r\n        bool initialized;\r\n        uint blockNumber;\r\n    }\r\n\r\n    mapping(address => mapping(bytes32 => BlockNumberValue)) internal txBytesStorage;\r\n\r\n    bool private onlyFactProviderFromWhitelistAllowed;\r\n    mapping(address => bool) private factProviderWhitelist;\r\n\r\n    struct IPFSHashValue {\r\n        bool initialized;\r\n        string value;\r\n    }\r\n\r\n    mapping(address => mapping(bytes32 => IPFSHashValue)) internal ipfsHashStorage;\r\n\r\n    struct PrivateData {\r\n        string dataIPFSHash; // The IPFS hash of encrypted private data\r\n        bytes32 dataKeyHash; // The hash of symmetric key that was used to encrypt the data\r\n    }\r\n\r\n    struct PrivateDataValue {\r\n        bool initialized;\r\n        PrivateData value;\r\n    }\r\n\r\n    mapping(address => mapping(bytes32 => PrivateDataValue)) internal privateDataStorage;\r\n\r\n    enum PrivateDataExchangeState {Closed, Proposed, Accepted}\r\n\r\n    struct PrivateDataExchange {\r\n        address dataRequester;          // The address of the data requester\r\n        uint256 dataRequesterValue;     // The amount staked by the data requester\r\n        address passportOwner;          // The address of the passport owner at the time of the data exchange proposition\r\n        uint256 passportOwnerValue;     // Tha amount staked by the passport owner\r\n        address factProvider;           // The private data provider\r\n        bytes32 key;                    // the key for the private data record\r\n        string dataIPFSHash;            // The IPFS hash of encrypted private data\r\n        bytes32 dataKeyHash;            // The hash of data symmetric key that was used to encrypt the data\r\n        bytes encryptedExchangeKey;     // The encrypted exchange session key (only passport owner can decrypt it)\r\n        bytes32 exchangeKeyHash;        // The hash of exchange session key\r\n        bytes32 encryptedDataKey;       // The data symmetric key XORed with the exchange key\r\n        PrivateDataExchangeState state; // The state of private data exchange\r\n        uint256 stateExpired;           // The state expiration timestamp\r\n    }\r\n\r\n    uint public openPrivateDataExchangesCount; // the count of open private data exchanges TODO: use it in contract destruction/ownership transfer logic\r\n    PrivateDataExchange[] public privateDataExchanges;\r\n\r\n    /***************************************************************************\r\n     *** END OF SECTION OF STORAGE VARIABLES                                 ***\r\n     ***************************************************************************/\r\n\r\n    event WhitelistOnlyPermissionSet(bool indexed onlyWhitelist);\r\n    event WhitelistFactProviderAdded(address indexed factProvider);\r\n    event WhitelistFactProviderRemoved(address indexed factProvider);\r\n\r\n    /**\r\n     *  Restrict methods in such way, that they can be invoked only by allowed fact provider.\r\n     */\r\n    modifier allowedFactProvider() {\r\n        require(isAllowedFactProvider(msg.sender));\r\n        _;\r\n    }\r\n\r\n    /**\r\n     *  Returns true when the given address is an allowed fact provider.\r\n     */\r\n    function isAllowedFactProvider(address _address) public view returns (bool) {\r\n        return !onlyFactProviderFromWhitelistAllowed || factProviderWhitelist[_address] || _address == _getOwner();\r\n    }\r\n\r\n    /**\r\n     *  Returns true when a whitelist of fact providers is enabled.\r\n     */\r\n    function isWhitelistOnlyPermissionSet() external view returns (bool) {\r\n        return onlyFactProviderFromWhitelistAllowed;\r\n    }\r\n\r\n    /**\r\n     *  Enables or disables the use of a whitelist of fact providers.\r\n     */\r\n    function setWhitelistOnlyPermission(bool _onlyWhitelist) onlyOwner external {\r\n        onlyFactProviderFromWhitelistAllowed = _onlyWhitelist;\r\n        emit WhitelistOnlyPermissionSet(_onlyWhitelist);\r\n    }\r\n\r\n    /**\r\n     *  Returns true if fact provider is added to the whitelist.\r\n     */\r\n    function isFactProviderInWhitelist(address _address) external view returns (bool) {\r\n        return factProviderWhitelist[_address];\r\n    }\r\n\r\n    /**\r\n     *  Allows owner to add fact provider to whitelist.\r\n     */\r\n    function addFactProviderToWhitelist(address _address) onlyOwner external {\r\n        factProviderWhitelist[_address] = true;\r\n        emit WhitelistFactProviderAdded(_address);\r\n    }\r\n\r\n    /**\r\n     *  Allows owner to remove fact provider from whitelist.\r\n     */\r\n    function removeFactProviderFromWhitelist(address _address) onlyOwner external {\r\n        delete factProviderWhitelist[_address];\r\n        emit WhitelistFactProviderRemoved(_address);\r\n    }\r\n}",
  "sourcePath": "c:\\UNICEF\\dev\\connect-bc\\bids-api\\blockchain\\contracts\\storage\\Storage.sol",
  "compiler": {
    "name": "solc",
    "version": "0.4.25+commit.59dbf8f1.Emscripten.clang"
  },
  "schemaVersion": "3.0.23",
  "updatedAt": "2020-04-28T17:42:08.804Z",
  "devdoc": {
    "methods": {
      "claimOwnership()": {
        "details": "Allows the pendingOwner address to finalize the transfer.\r"
      },
      "owner()": {
        "return": "The owner address.\r"
      },
      "renounceOwnership()": {
        "details": "Allows the current owner to relinquish control of the contract.\r"
      },
      "transferOwnership(address)": {
        "details": "Allows the current owner to set the pendingOwner address.\r",
        "params": {
          "newOwner": "The address to transfer ownership to.\r"
        }
      }
    }
  },
  "userdoc": {
    "methods": {
      "addFactProviderToWhitelist(address)": {
        "notice": "Allows owner to add fact provider to whitelist.\r"
      },
      "isAllowedFactProvider(address)": {
        "notice": "Returns true when the given address is an allowed fact provider.\r"
      },
      "isFactProviderInWhitelist(address)": {
        "notice": "Returns true if fact provider is added to the whitelist.\r"
      },
      "isWhitelistOnlyPermissionSet()": {
        "notice": "Returns true when a whitelist of fact providers is enabled.\r"
      },
      "removeFactProviderFromWhitelist(address)": {
        "notice": "Allows owner to remove fact provider from whitelist.\r"
      },
      "renounceOwnership()": {
        "notice": "Renouncing to ownership will leave the contract without an owner.\r It will not be possible to call the functions with the `onlyOwner`\r modifier anymore.\r"
      },
      "setWhitelistOnlyPermission(bool)": {
        "notice": "Enables or disables the use of a whitelist of fact providers.\r"
      }
    }
  }
}