{
  "contractName": "TokenTimelock",
  "abi": [
    {
      "constant": true,
      "inputs": [],
      "name": "beneficiary",
      "outputs": [
        {
          "name": "",
          "type": "address"
        }
      ],
      "payable": false,
      "stateMutability": "view",
      "type": "function"
    },
    {
      "constant": true,
      "inputs": [],
      "name": "releaseTime",
      "outputs": [
        {
          "name": "",
          "type": "uint64"
        }
      ],
      "payable": false,
      "stateMutability": "view",
      "type": "function"
    },
    {
      "constant": true,
      "inputs": [],
      "name": "token",
      "outputs": [
        {
          "name": "",
          "type": "address"
        }
      ],
      "payable": false,
      "stateMutability": "view",
      "type": "function"
    },
    {
      "inputs": [
        {
          "name": "_token",
          "type": "address"
        },
        {
          "name": "_beneficiary",
          "type": "address"
        },
        {
          "name": "_releaseTime",
          "type": "uint64"
        }
      ],
      "payable": false,
      "stateMutability": "nonpayable",
      "type": "constructor"
    },
    {
      "constant": false,
      "inputs": [],
      "name": "claim",
      "outputs": [],
      "payable": false,
      "stateMutability": "nonpayable",
      "type": "function"
    },
    {
      "constant": false,
      "inputs": [],
      "name": "release",
      "outputs": [],
      "payable": false,
      "stateMutability": "nonpayable",
      "type": "function"
    }
  ],
  "bytecode": "0x608060405234801561001057600080fd5b50604051606080610634833981018060405281019080805190602001909291908051906020019092919080519060200190929190505050428167ffffffffffffffff1611151561005f57600080fd5b826000806101000a81548173ffffffffffffffffffffffffffffffffffffffff021916908373ffffffffffffffffffffffffffffffffffffffff16021790555081600160006101000a81548173ffffffffffffffffffffffffffffffffffffffff021916908373ffffffffffffffffffffffffffffffffffffffff16021790555080600160146101000a81548167ffffffffffffffff021916908367ffffffffffffffff1602179055505050506105198061011b6000396000f30060806040526004361061006d576000357c0100000000000000000000000000000000000000000000000000000000900463ffffffff16806338af3eed146100725780634e71d92d146100c957806386d1a69f146100e0578063b91d4001146100f7578063fc0c546a14610136575b600080fd5b34801561007e57600080fd5b5061008761018d565b604051808273ffffffffffffffffffffffffffffffffffffffff1673ffffffffffffffffffffffffffffffffffffffff16815260200191505060405180910390f35b3480156100d557600080fd5b506100de6101b3565b005b3480156100ec57600080fd5b506100f5610219565b005b34801561010357600080fd5b5061010c6103c3565b604051808267ffffffffffffffff1667ffffffffffffffff16815260200191505060405180910390f35b34801561014257600080fd5b5061014b6103dd565b604051808273ffffffffffffffffffffffffffffffffffffffff1673ffffffffffffffffffffffffffffffffffffffff16815260200191505060405180910390f35b600160009054906101000a900473ffffffffffffffffffffffffffffffffffffffff1681565b600160009054906101000a900473ffffffffffffffffffffffffffffffffffffffff1673ffffffffffffffffffffffffffffffffffffffff163373ffffffffffffffffffffffffffffffffffffffff1614151561020f57600080fd5b610217610219565b565b6000600160149054906101000a900467ffffffffffffffff1667ffffffffffffffff16421015151561024a57600080fd5b6000809054906101000a900473ffffffffffffffffffffffffffffffffffffffff1673ffffffffffffffffffffffffffffffffffffffff166370a08231306040518263ffffffff167c0100000000000000000000000000000000000000000000000000000000028152600401808273ffffffffffffffffffffffffffffffffffffffff1673ffffffffffffffffffffffffffffffffffffffff168152602001915050602060405180830381600087803b15801561030657600080fd5b505af115801561031a573d6000803e3d6000fd5b505050506040513d602081101561033057600080fd5b8101908080519060200190929190505050905060008111151561035257600080fd5b6103c0600160009054906101000a900473ffffffffffffffffffffffffffffffffffffffff16826000809054906101000a900473ffffffffffffffffffffffffffffffffffffffff1673ffffffffffffffffffffffffffffffffffffffff166104029092919063ffffffff16565b50565b600160149054906101000a900467ffffffffffffffff1681565b6000809054906101000a900473ffffffffffffffffffffffffffffffffffffffff1681565b8273ffffffffffffffffffffffffffffffffffffffff1663a9059cbb83836040518363ffffffff167c0100000000000000000000000000000000000000000000000000000000028152600401808373ffffffffffffffffffffffffffffffffffffffff1673ffffffffffffffffffffffffffffffffffffffff16815260200182815260200192505050602060405180830381600087803b1580156104a557600080fd5b505af11580156104b9573d6000803e3d6000fd5b505050506040513d60208110156104cf57600080fd5b810190808051906020019092919050505015156104e857fe5b5050505600a165627a7a72305820df9cf784f1ef6b14cb33e539e8fca5c404fdc6fec1c93629524fa4dbc59ccf7a0029",
  "source": "pragma solidity ^0.4.11;\r\n\r\n\r\nimport './ERC20Basic.sol';\r\nimport \"../token/SafeERC20.sol\";\r\n\r\n/**\r\n * @title TokenTimelock\r\n * @dev TokenTimelock is a token holder contract that will allow a\r\n * beneficiary to extract the tokens after a given release time\r\n */\r\ncontract TokenTimelock {\r\n  using SafeERC20 for ERC20Basic;\r\n\r\n  // ERC20 basic token contract being held\r\n  ERC20Basic public token;\r\n\r\n  // beneficiary of tokens after they are released\r\n  address public beneficiary;\r\n\r\n  // timestamp when token release is enabled\r\n  uint64 public releaseTime;\r\n\r\n  function TokenTimelock(ERC20Basic _token, address _beneficiary, uint64 _releaseTime) {\r\n    require(_releaseTime > now);\r\n    token = _token;\r\n    beneficiary = _beneficiary;\r\n    releaseTime = _releaseTime;\r\n  }\r\n\r\n  /**\r\n   * @notice Transfers tokens held by timelock to beneficiary.\r\n   * Deprecated: please use TokenTimelock#release instead.\r\n   */\r\n  function claim() public {\r\n    require(msg.sender == beneficiary);\r\n    release();\r\n  }\r\n\r\n  /**\r\n   * @notice Transfers tokens held by timelock to beneficiary.\r\n   */\r\n  function release() public {\r\n    require(now >= releaseTime);\r\n\r\n    uint256 amount = token.balanceOf(this);\r\n    require(amount > 0);\r\n\r\n    token.safeTransfer(beneficiary, amount);\r\n  }\r\n}\r\n",
  "sourcePath": "c:\\UNICEF\\dev\\connect-bc\\bids-api\\blockchain\\contracts\\openzeppelin-solidity\\contracts\\token\\TokenTimelock.sol",
  "compiler": {
    "name": "solc",
    "version": "0.4.25+commit.59dbf8f1.Emscripten.clang"
  },
  "schemaVersion": "3.0.23",
  "updatedAt": "2020-04-28T17:42:08.716Z",
  "devdoc": {
    "methods": {},
    "title": "TokenTimelock\r"
  },
  "userdoc": {
    "methods": {
      "claim()": {
        "notice": "Transfers tokens held by timelock to beneficiary.\r Deprecated: please use TokenTimelock#release instead.\r"
      },
      "release()": {
        "notice": "Transfers tokens held by timelock to beneficiary.\r"
      }
    }
  }
}