{
  "contractName": "TokenDestructible",
  "abi": [
    {
      "constant": true,
      "inputs": [],
      "name": "owner",
      "outputs": [
        {
          "name": "",
          "type": "address"
        }
      ],
      "payable": false,
      "stateMutability": "view",
      "type": "function"
    },
    {
      "constant": false,
      "inputs": [
        {
          "name": "newOwner",
          "type": "address"
        }
      ],
      "name": "transferOwnership",
      "outputs": [],
      "payable": false,
      "stateMutability": "nonpayable",
      "type": "function"
    },
    {
      "inputs": [],
      "payable": true,
      "stateMutability": "payable",
      "type": "constructor"
    },
    {
      "anonymous": false,
      "inputs": [
        {
          "indexed": true,
          "name": "previousOwner",
          "type": "address"
        },
        {
          "indexed": true,
          "name": "newOwner",
          "type": "address"
        }
      ],
      "name": "OwnershipTransferred",
      "type": "event"
    },
    {
      "constant": false,
      "inputs": [
        {
          "name": "tokens",
          "type": "address[]"
        }
      ],
      "name": "destroy",
      "outputs": [],
      "payable": false,
      "stateMutability": "nonpayable",
      "type": "function"
    }
  ],
  "bytecode": "0x6080604052336000806101000a81548173ffffffffffffffffffffffffffffffffffffffff021916908373ffffffffffffffffffffffffffffffffffffffff1602179055506105a9806100536000396000f300608060405260043610610057576000357c0100000000000000000000000000000000000000000000000000000000900463ffffffff1680638da5cb5b1461005c578063c6786e5a146100b3578063f2fde38b14610119575b600080fd5b34801561006857600080fd5b5061007161015c565b604051808273ffffffffffffffffffffffffffffffffffffffff1673ffffffffffffffffffffffffffffffffffffffff16815260200191505060405180910390f35b3480156100bf57600080fd5b5061011760048036038101908080359060200190820180359060200190808060200260200160405190810160405280939291908181526020018383602002808284378201915050505050509192919290505050610181565b005b34801561012557600080fd5b5061015a600480360381019080803573ffffffffffffffffffffffffffffffffffffffff169060200190929190505050610428565b005b6000809054906101000a900473ffffffffffffffffffffffffffffffffffffffff1681565b60008060008060009054906101000a900473ffffffffffffffffffffffffffffffffffffffff1673ffffffffffffffffffffffffffffffffffffffff163373ffffffffffffffffffffffffffffffffffffffff161415156101e157600080fd5b600092505b83518310156103ee5783838151811015156101fd57fe5b9060200190602002015191508173ffffffffffffffffffffffffffffffffffffffff166370a08231306040518263ffffffff167c0100000000000000000000000000000000000000000000000000000000028152600401808273ffffffffffffffffffffffffffffffffffffffff1673ffffffffffffffffffffffffffffffffffffffff168152602001915050602060405180830381600087803b1580156102a457600080fd5b505af11580156102b8573d6000803e3d6000fd5b505050506040513d60208110156102ce57600080fd5b810190808051906020019092919050505090508173ffffffffffffffffffffffffffffffffffffffff1663a9059cbb6000809054906101000a900473ffffffffffffffffffffffffffffffffffffffff16836040518363ffffffff167c0100000000000000000000000000000000000000000000000000000000028152600401808373ffffffffffffffffffffffffffffffffffffffff1673ffffffffffffffffffffffffffffffffffffffff16815260200182815260200192505050602060405180830381600087803b1580156103a557600080fd5b505af11580156103b9573d6000803e3d6000fd5b505050506040513d60208110156103cf57600080fd5b81019080805190602001909291905050505082806001019350506101e6565b6000809054906101000a900473ffffffffffffffffffffffffffffffffffffffff1673ffffffffffffffffffffffffffffffffffffffff16ff5b6000809054906101000a900473ffffffffffffffffffffffffffffffffffffffff1673ffffffffffffffffffffffffffffffffffffffff163373ffffffffffffffffffffffffffffffffffffffff1614151561048357600080fd5b600073ffffffffffffffffffffffffffffffffffffffff168173ffffffffffffffffffffffffffffffffffffffff16141515156104bf57600080fd5b8073ffffffffffffffffffffffffffffffffffffffff166000809054906101000a900473ffffffffffffffffffffffffffffffffffffffff1673ffffffffffffffffffffffffffffffffffffffff167f8be0079c531659141344cd1fd0a4f28419497f9722a3daafe3b4186f6b6457e060405160405180910390a3806000806101000a81548173ffffffffffffffffffffffffffffffffffffffff021916908373ffffffffffffffffffffffffffffffffffffffff160217905550505600a165627a7a7230582034e8dded528b2539912539a42dce76c75a6ca17a8e2d6755b34c9eb41be2d33f0029",
  "source": "pragma solidity ^0.4.11;\r\n\r\n\r\nimport \"../ownership/Ownable.sol\";\r\nimport \"../token/ERC20Basic.sol\";\r\n\r\n/**\r\n * @title TokenDestructible:\r\n * @author Remco Bloemen <remco@2π.com>\r\n * @dev Base contract that can be destroyed by owner. All funds in contract including\r\n * listed tokens will be sent to the owner.\r\n */\r\ncontract TokenDestructible is Ownable {\r\n\r\n  function TokenDestructible() payable { }\r\n\r\n  /**\r\n   * @notice Terminate contract and refund to owner\r\n   * @param tokens List of addresses of ERC20 or ERC20Basic token contracts to\r\n   refund.\r\n   * @notice The called token contracts could try to re-enter this contract. Only\r\n   supply token contracts you trust.\r\n   */\r\n  function destroy(address[] tokens) onlyOwner public {\r\n\r\n    // Transfer tokens to owner\r\n    for(uint256 i = 0; i < tokens.length; i++) {\r\n      ERC20Basic token = ERC20Basic(tokens[i]);\r\n      uint256 balance = token.balanceOf(this);\r\n      token.transfer(owner, balance);\r\n    }\r\n\r\n    // Transfer Eth to owner and terminate contract\r\n    selfdestruct(owner);\r\n  }\r\n}\r\n",
  "sourcePath": "c:\\UNICEF\\dev\\connect-bc\\bids-api\\blockchain\\contracts\\openzeppelin-solidity\\contracts\\lifecycle\\TokenDestructible.sol",
  "compiler": {
    "name": "solc",
    "version": "0.4.25+commit.59dbf8f1.Emscripten.clang"
  },
  "schemaVersion": "3.0.23",
  "updatedAt": "2020-04-28T17:42:08.618Z",
  "devdoc": {
    "author": "Remco Bloemen <remco@2π.com>\r",
    "methods": {
      "destroy(address[])": {
        "params": {
          "tokens": "List of addresses of ERC20 or ERC20Basic token contracts to\r refund.\r"
        }
      },
      "transferOwnership(address)": {
        "details": "Allows the current owner to transfer control of the contract to a newOwner.\r",
        "params": {
          "newOwner": "The address to transfer ownership to.\r"
        }
      }
    },
    "title": "TokenDestructible:\r"
  },
  "userdoc": {
    "methods": {
      "destroy(address[])": {
        "notice": "Terminate contract and refund to owner\rThe called token contracts could try to re-enter this contract. Only\r supply token contracts you trust.\r"
      }
    }
  }
}