{
  "contractName": "VestedToken",
  "abi": [
    {
      "constant": false,
      "inputs": [
        {
          "name": "_spender",
          "type": "address"
        },
        {
          "name": "_value",
          "type": "uint256"
        }
      ],
      "name": "approve",
      "outputs": [
        {
          "name": "",
          "type": "bool"
        }
      ],
      "payable": false,
      "stateMutability": "nonpayable",
      "type": "function"
    },
    {
      "constant": true,
      "inputs": [],
      "name": "totalSupply",
      "outputs": [
        {
          "name": "",
          "type": "uint256"
        }
      ],
      "payable": false,
      "stateMutability": "view",
      "type": "function"
    },
    {
      "constant": false,
      "inputs": [
        {
          "name": "_from",
          "type": "address"
        },
        {
          "name": "_to",
          "type": "address"
        },
        {
          "name": "_value",
          "type": "uint256"
        }
      ],
      "name": "transferFrom",
      "outputs": [
        {
          "name": "",
          "type": "bool"
        }
      ],
      "payable": false,
      "stateMutability": "nonpayable",
      "type": "function"
    },
    {
      "constant": true,
      "inputs": [
        {
          "name": "",
          "type": "address"
        },
        {
          "name": "",
          "type": "uint256"
        }
      ],
      "name": "grants",
      "outputs": [
        {
          "name": "granter",
          "type": "address"
        },
        {
          "name": "value",
          "type": "uint256"
        },
        {
          "name": "cliff",
          "type": "uint64"
        },
        {
          "name": "vesting",
          "type": "uint64"
        },
        {
          "name": "start",
          "type": "uint64"
        },
        {
          "name": "revokable",
          "type": "bool"
        },
        {
          "name": "burnsOnRevoke",
          "type": "bool"
        }
      ],
      "payable": false,
      "stateMutability": "view",
      "type": "function"
    },
    {
      "constant": false,
      "inputs": [
        {
          "name": "_spender",
          "type": "address"
        },
        {
          "name": "_subtractedValue",
          "type": "uint256"
        }
      ],
      "name": "decreaseApproval",
      "outputs": [
        {
          "name": "success",
          "type": "bool"
        }
      ],
      "payable": false,
      "stateMutability": "nonpayable",
      "type": "function"
    },
    {
      "constant": true,
      "inputs": [
        {
          "name": "_owner",
          "type": "address"
        }
      ],
      "name": "balanceOf",
      "outputs": [
        {
          "name": "balance",
          "type": "uint256"
        }
      ],
      "payable": false,
      "stateMutability": "view",
      "type": "function"
    },
    {
      "constant": false,
      "inputs": [
        {
          "name": "_to",
          "type": "address"
        },
        {
          "name": "_value",
          "type": "uint256"
        }
      ],
      "name": "transfer",
      "outputs": [
        {
          "name": "",
          "type": "bool"
        }
      ],
      "payable": false,
      "stateMutability": "nonpayable",
      "type": "function"
    },
    {
      "constant": false,
      "inputs": [
        {
          "name": "_spender",
          "type": "address"
        },
        {
          "name": "_addedValue",
          "type": "uint256"
        }
      ],
      "name": "increaseApproval",
      "outputs": [
        {
          "name": "success",
          "type": "bool"
        }
      ],
      "payable": false,
      "stateMutability": "nonpayable",
      "type": "function"
    },
    {
      "constant": true,
      "inputs": [
        {
          "name": "_owner",
          "type": "address"
        },
        {
          "name": "_spender",
          "type": "address"
        }
      ],
      "name": "allowance",
      "outputs": [
        {
          "name": "remaining",
          "type": "uint256"
        }
      ],
      "payable": false,
      "stateMutability": "view",
      "type": "function"
    },
    {
      "anonymous": false,
      "inputs": [
        {
          "indexed": true,
          "name": "from",
          "type": "address"
        },
        {
          "indexed": true,
          "name": "to",
          "type": "address"
        },
        {
          "indexed": false,
          "name": "value",
          "type": "uint256"
        },
        {
          "indexed": false,
          "name": "grantId",
          "type": "uint256"
        }
      ],
      "name": "NewTokenGrant",
      "type": "event"
    },
    {
      "anonymous": false,
      "inputs": [
        {
          "indexed": true,
          "name": "owner",
          "type": "address"
        },
        {
          "indexed": true,
          "name": "spender",
          "type": "address"
        },
        {
          "indexed": false,
          "name": "value",
          "type": "uint256"
        }
      ],
      "name": "Approval",
      "type": "event"
    },
    {
      "anonymous": false,
      "inputs": [
        {
          "indexed": true,
          "name": "from",
          "type": "address"
        },
        {
          "indexed": true,
          "name": "to",
          "type": "address"
        },
        {
          "indexed": false,
          "name": "value",
          "type": "uint256"
        }
      ],
      "name": "Transfer",
      "type": "event"
    },
    {
      "constant": false,
      "inputs": [
        {
          "name": "_to",
          "type": "address"
        },
        {
          "name": "_value",
          "type": "uint256"
        },
        {
          "name": "_start",
          "type": "uint64"
        },
        {
          "name": "_cliff",
          "type": "uint64"
        },
        {
          "name": "_vesting",
          "type": "uint64"
        },
        {
          "name": "_revokable",
          "type": "bool"
        },
        {
          "name": "_burnsOnRevoke",
          "type": "bool"
        }
      ],
      "name": "grantVestedTokens",
      "outputs": [],
      "payable": false,
      "stateMutability": "nonpayable",
      "type": "function"
    },
    {
      "constant": false,
      "inputs": [
        {
          "name": "_holder",
          "type": "address"
        },
        {
          "name": "_grantId",
          "type": "uint256"
        }
      ],
      "name": "revokeTokenGrant",
      "outputs": [],
      "payable": false,
      "stateMutability": "nonpayable",
      "type": "function"
    },
    {
      "constant": true,
      "inputs": [
        {
          "name": "holder",
          "type": "address"
        },
        {
          "name": "time",
          "type": "uint64"
        }
      ],
      "name": "transferableTokens",
      "outputs": [
        {
          "name": "",
          "type": "uint256"
        }
      ],
      "payable": false,
      "stateMutability": "view",
      "type": "function"
    },
    {
      "constant": true,
      "inputs": [
        {
          "name": "_holder",
          "type": "address"
        }
      ],
      "name": "tokenGrantsCount",
      "outputs": [
        {
          "name": "index",
          "type": "uint256"
        }
      ],
      "payable": false,
      "stateMutability": "view",
      "type": "function"
    },
    {
      "constant": true,
      "inputs": [
        {
          "name": "tokens",
          "type": "uint256"
        },
        {
          "name": "time",
          "type": "uint256"
        },
        {
          "name": "start",
          "type": "uint256"
        },
        {
          "name": "cliff",
          "type": "uint256"
        },
        {
          "name": "vesting",
          "type": "uint256"
        }
      ],
      "name": "calculateVestedTokens",
      "outputs": [
        {
          "name": "",
          "type": "uint256"
        }
      ],
      "payable": false,
      "stateMutability": "view",
      "type": "function"
    },
    {
      "constant": true,
      "inputs": [
        {
          "name": "_holder",
          "type": "address"
        },
        {
          "name": "_grantId",
          "type": "uint256"
        }
      ],
      "name": "tokenGrant",
      "outputs": [
        {
          "name": "granter",
          "type": "address"
        },
        {
          "name": "value",
          "type": "uint256"
        },
        {
          "name": "vested",
          "type": "uint256"
        },
        {
          "name": "start",
          "type": "uint64"
        },
        {
          "name": "cliff",
          "type": "uint64"
        },
        {
          "name": "vesting",
          "type": "uint64"
        },
        {
          "name": "revokable",
          "type": "bool"
        },
        {
          "name": "burnsOnRevoke",
          "type": "bool"
        }
      ],
      "payable": false,
      "stateMutability": "view",
      "type": "function"
    },
    {
      "constant": true,
      "inputs": [
        {
          "name": "holder",
          "type": "address"
        }
      ],
      "name": "lastTokenIsTransferableDate",
      "outputs": [
        {
          "name": "date",
          "type": "uint64"
        }
      ],
      "payable": false,
      "stateMutability": "view",
      "type": "function"
    }
  ],
  "bytecode": "0x6080604052601460035534801561001557600080fd5b5061281b806100256000396000f3006080604052600436106100e6576000357c0100000000000000000000000000000000000000000000000000000000900463ffffffff16806302a72a4c146100eb578063095ea7b31461014257806318160ddd146101a757806323b872dd146101d25780632c71e60a14610257578063600e85b71461035257806366188463146104545780636c182e99146104b957806370a08231146105245780639754a4d91461057b578063a9059cbb1461061c578063d347c20514610681578063d73dd623146106ec578063dd62ed3e14610751578063df3c211b146107c8578063eb944e4c14610831575b600080fd5b3480156100f757600080fd5b5061012c600480360381019080803573ffffffffffffffffffffffffffffffffffffffff16906020019092919050505061087e565b6040518082815260200191505060405180910390f35b34801561014e57600080fd5b5061018d600480360381019080803573ffffffffffffffffffffffffffffffffffffffff169060200190929190803590602001909291905050506108ca565b604051808215151515815260200191505060405180910390f35b3480156101b357600080fd5b506101bc6109bc565b6040518082815260200191505060405180910390f35b3480156101de57600080fd5b5061023d600480360381019080803573ffffffffffffffffffffffffffffffffffffffff169060200190929190803573ffffffffffffffffffffffffffffffffffffffff169060200190929190803590602001909291905050506109c2565b604051808215151515815260200191505060405180910390f35b34801561026357600080fd5b506102a2600480360381019080803573ffffffffffffffffffffffffffffffffffffffff169060200190929190803590602001909291905050506109f4565b604051808873ffffffffffffffffffffffffffffffffffffffff1673ffffffffffffffffffffffffffffffffffffffff1681526020018781526020018667ffffffffffffffff1667ffffffffffffffff1681526020018567ffffffffffffffff1667ffffffffffffffff1681526020018467ffffffffffffffff1667ffffffffffffffff168152602001831515151581526020018215151515815260200197505050505050505060405180910390f35b34801561035e57600080fd5b5061039d600480360381019080803573ffffffffffffffffffffffffffffffffffffffff16906020019092919080359060200190929190505050610ac8565b604051808973ffffffffffffffffffffffffffffffffffffffff1673ffffffffffffffffffffffffffffffffffffffff1681526020018881526020018781526020018667ffffffffffffffff1667ffffffffffffffff1681526020018567ffffffffffffffff1667ffffffffffffffff1681526020018467ffffffffffffffff1667ffffffffffffffff16815260200183151515158152602001821515151581526020019850505050505050505060405180910390f35b34801561046057600080fd5b5061049f600480360381019080803573ffffffffffffffffffffffffffffffffffffffff16906020019092919080359060200190929190505050610d2b565b604051808215151515815260200191505060405180910390f35b3480156104c557600080fd5b506104fa600480360381019080803573ffffffffffffffffffffffffffffffffffffffff169060200190929190505050610fbc565b604051808267ffffffffffffffff1667ffffffffffffffff16815260200191505060405180910390f35b34801561053057600080fd5b50610565600480360381019080803573ffffffffffffffffffffffffffffffffffffffff1690602001909291905050506110a7565b6040518082815260200191505060405180910390f35b34801561058757600080fd5b5061061a600480360381019080803573ffffffffffffffffffffffffffffffffffffffff16906020019092919080359060200190929190803567ffffffffffffffff169060200190929190803567ffffffffffffffff169060200190929190803567ffffffffffffffff1690602001909291908035151590602001909291908035151590602001909291905050506110f0565b005b34801561062857600080fd5b50610667600480360381019080803573ffffffffffffffffffffffffffffffffffffffff169060200190929190803590602001909291905050506113d7565b604051808215151515815260200191505060405180910390f35b34801561068d57600080fd5b506106d6600480360381019080803573ffffffffffffffffffffffffffffffffffffffff169060200190929190803567ffffffffffffffff169060200190929190505050611407565b6040518082815260200191505060405180910390f35b3480156106f857600080fd5b50610737600480360381019080803573ffffffffffffffffffffffffffffffffffffffff1690602001909291908035906020019092919050505061162c565b604051808215151515815260200191505060405180910390f35b34801561075d57600080fd5b506107b2600480360381019080803573ffffffffffffffffffffffffffffffffffffffff169060200190929190803573ffffffffffffffffffffffffffffffffffffffff169060200190929190505050611828565b6040518082815260200191505060405180910390f35b3480156107d457600080fd5b5061081b60048036038101908080359060200190929190803590602001909291908035906020019092919080359060200190929190803590602001909291905050506118af565b6040518082815260200191505060405180910390f35b34801561083d57600080fd5b5061087c600480360381019080803573ffffffffffffffffffffffffffffffffffffffff16906020019092919080359060200190929190505050611909565b005b6000600460008373ffffffffffffffffffffffffffffffffffffffff1673ffffffffffffffffffffffffffffffffffffffff168152602001908152602001600020805490509050919050565b600081600260003373ffffffffffffffffffffffffffffffffffffffff1673ffffffffffffffffffffffffffffffffffffffff16815260200190815260200160002060008573ffffffffffffffffffffffffffffffffffffffff1673ffffffffffffffffffffffffffffffffffffffff168152602001908152602001600020819055508273ffffffffffffffffffffffffffffffffffffffff163373ffffffffffffffffffffffffffffffffffffffff167f8c5be1e5ebec7d5bd14f71427d1e84f3dd0314c0f7b2291e5b200ac8c7c3b925846040518082815260200191505060405180910390a36001905092915050565b60005481565b600083826109d08242611407565b81111515156109de57600080fd5b6109e98686866120dc565b925050509392505050565b600460205281600052604060002081815481101515610a0f57fe5b9060005260206000209060030201600091509150508060000160009054906101000a900473ffffffffffffffffffffffffffffffffffffffff16908060010154908060020160009054906101000a900467ffffffffffffffff16908060020160089054906101000a900467ffffffffffffffff16908060020160109054906101000a900467ffffffffffffffff16908060020160189054906101000a900460ff16908060020160199054906101000a900460ff16905087565b6000806000806000806000806000600460008c73ffffffffffffffffffffffffffffffffffffffff1673ffffffffffffffffffffffffffffffffffffffff1681526020019081526020016000208a815481101515610b2257fe5b906000526020600020906003020190508060000160009054906101000a900473ffffffffffffffffffffffffffffffffffffffff169850806001015497508060020160109054906101000a900467ffffffffffffffff1695508060020160009054906101000a900467ffffffffffffffff1694508060020160089054906101000a900467ffffffffffffffff1693508060020160189054906101000a900460ff1692508060020160199054906101000a900460ff169150610d1b8160e060405190810160405290816000820160009054906101000a900473ffffffffffffffffffffffffffffffffffffffff1673ffffffffffffffffffffffffffffffffffffffff1673ffffffffffffffffffffffffffffffffffffffff168152602001600182015481526020016002820160009054906101000a900467ffffffffffffffff1667ffffffffffffffff1667ffffffffffffffff1681526020016002820160089054906101000a900467ffffffffffffffff1667ffffffffffffffff1667ffffffffffffffff1681526020016002820160109054906101000a900467ffffffffffffffff1667ffffffffffffffff1667ffffffffffffffff1681526020016002820160189054906101000a900460ff161515151581526020016002820160199054906101000a900460ff161515151581525050426123c8565b9650509295985092959890939650565b600080600260003373ffffffffffffffffffffffffffffffffffffffff1673ffffffffffffffffffffffffffffffffffffffff16815260200190815260200160002060008573ffffffffffffffffffffffffffffffffffffffff1673ffffffffffffffffffffffffffffffffffffffff16815260200190815260200160002054905080831115610e3c576000600260003373ffffffffffffffffffffffffffffffffffffffff1673ffffffffffffffffffffffffffffffffffffffff16815260200190815260200160002060008673ffffffffffffffffffffffffffffffffffffffff1673ffffffffffffffffffffffffffffffffffffffff16815260200190815260200160002081905550610ed0565b610e4f838261241790919063ffffffff16565b600260003373ffffffffffffffffffffffffffffffffffffffff1673ffffffffffffffffffffffffffffffffffffffff16815260200190815260200160002060008673ffffffffffffffffffffffffffffffffffffffff1673ffffffffffffffffffffffffffffffffffffffff168152602001908152602001600020819055505b8373ffffffffffffffffffffffffffffffffffffffff163373ffffffffffffffffffffffffffffffffffffffff167f8c5be1e5ebec7d5bd14f71427d1e84f3dd0314c0f7b2291e5b200ac8c7c3b925600260003373ffffffffffffffffffffffffffffffffffffffff1673ffffffffffffffffffffffffffffffffffffffff16815260200190815260200160002060008873ffffffffffffffffffffffffffffffffffffffff1673ffffffffffffffffffffffffffffffffffffffff168152602001908152602001600020546040518082815260200191505060405180910390a3600191505092915050565b6000806000429250600460008573ffffffffffffffffffffffffffffffffffffffff1673ffffffffffffffffffffffffffffffffffffffff168152602001908152602001600020805490509150600090505b818110156110a057611091600460008673ffffffffffffffffffffffffffffffffffffffff1673ffffffffffffffffffffffffffffffffffffffff1681526020019081526020016000208281548110151561106557fe5b906000526020600020906003020160020160089054906101000a900467ffffffffffffffff1684612430565b9250808060010191505061100e565b5050919050565b6000600160008373ffffffffffffffffffffffffffffffffffffffff1673ffffffffffffffffffffffffffffffffffffffff168152602001908152602001600020549050919050565b60008567ffffffffffffffff168567ffffffffffffffff161015801561112a57508467ffffffffffffffff168467ffffffffffffffff1610155b151561113557600080fd5b6003546111418961087e565b10151561114d57600080fd5b600460008973ffffffffffffffffffffffffffffffffffffffff1673ffffffffffffffffffffffffffffffffffffffff16815260200190815260200160002060e060405190810160405280856111a45760006111a6565b335b73ffffffffffffffffffffffffffffffffffffffff1681526020018981526020018767ffffffffffffffff1681526020018667ffffffffffffffff1681526020018867ffffffffffffffff16815260200185151581526020018415158152509080600181540180825580915050906001820390600052602060002090600302016000909192909190915060008201518160000160006101000a81548173ffffffffffffffffffffffffffffffffffffffff021916908373ffffffffffffffffffffffffffffffffffffffff1602179055506020820151816001015560408201518160020160006101000a81548167ffffffffffffffff021916908367ffffffffffffffff16021790555060608201518160020160086101000a81548167ffffffffffffffff021916908367ffffffffffffffff16021790555060808201518160020160106101000a81548167ffffffffffffffff021916908367ffffffffffffffff16021790555060a08201518160020160186101000a81548160ff02191690831515021790555060c08201518160020160196101000a81548160ff0219169083151502179055505050905061135c88886113d7565b508773ffffffffffffffffffffffffffffffffffffffff163373ffffffffffffffffffffffffffffffffffffffff167ff9565aecd648a0466ffb964a79eeccdf1120ad6276189c687a6e9fe73984d9bb8960018503604051808381526020018281526020019250505060405180910390a35050505050505050565b600033826113e58242611407565b81111515156113f357600080fd5b6113fd858561245e565b9250505092915050565b60008060008060006114188761087e565b935060008414156114345761142d8787612634565b9450611622565b60009250600091505b838210156115f8576115e9836115e4600460008b73ffffffffffffffffffffffffffffffffffffffff1673ffffffffffffffffffffffffffffffffffffffff1681526020019081526020016000208581548110151561149857fe5b906000526020600020906003020160e060405190810160405290816000820160009054906101000a900473ffffffffffffffffffffffffffffffffffffffff1673ffffffffffffffffffffffffffffffffffffffff1673ffffffffffffffffffffffffffffffffffffffff168152602001600182015481526020016002820160009054906101000a900467ffffffffffffffff1667ffffffffffffffff1667ffffffffffffffff1681526020016002820160089054906101000a900467ffffffffffffffff1667ffffffffffffffff1667ffffffffffffffff1681526020016002820160109054906101000a900467ffffffffffffffff1667ffffffffffffffff1667ffffffffffffffff1681526020016002820160189054906101000a900460ff161515151581526020016002820160199054906101000a900460ff16151515158152505089612647565b612671565b9250818060010192505061143d565b61160a611604886110a7565b84612417565b905061161f8161161a8989612634565b61268f565b94505b5050505092915050565b60006116bd82600260003373ffffffffffffffffffffffffffffffffffffffff1673ffffffffffffffffffffffffffffffffffffffff16815260200190815260200160002060008673ffffffffffffffffffffffffffffffffffffffff1673ffffffffffffffffffffffffffffffffffffffff1681526020019081526020016000205461267190919063ffffffff16565b600260003373ffffffffffffffffffffffffffffffffffffffff1673ffffffffffffffffffffffffffffffffffffffff16815260200190815260200160002060008573ffffffffffffffffffffffffffffffffffffffff1673ffffffffffffffffffffffffffffffffffffffff168152602001908152602001600020819055508273ffffffffffffffffffffffffffffffffffffffff163373ffffffffffffffffffffffffffffffffffffffff167f8c5be1e5ebec7d5bd14f71427d1e84f3dd0314c0f7b2291e5b200ac8c7c3b925600260003373ffffffffffffffffffffffffffffffffffffffff1673ffffffffffffffffffffffffffffffffffffffff16815260200190815260200160002060008773ffffffffffffffffffffffffffffffffffffffff1673ffffffffffffffffffffffffffffffffffffffff168152602001908152602001600020546040518082815260200191505060405180910390a36001905092915050565b6000600260008473ffffffffffffffffffffffffffffffffffffffff1673ffffffffffffffffffffffffffffffffffffffff16815260200190815260200160002060008373ffffffffffffffffffffffffffffffffffffffff1673ffffffffffffffffffffffffffffffffffffffff16815260200190815260200160002054905092915050565b600080838610156118c357600091506118ff565b82861015156118d4578691506118ff565b6118f96118ea886118e58989612417565b6126a8565b6118f48588612417565b6126db565b90508091505b5095945050505050565b6000806000600460008673ffffffffffffffffffffffffffffffffffffffff1673ffffffffffffffffffffffffffffffffffffffff1681526020019081526020016000208481548110151561195a57fe5b906000526020600020906003020192508260020160189054906101000a900460ff16151561198757600080fd5b3373ffffffffffffffffffffffffffffffffffffffff168360000160009054906101000a900473ffffffffffffffffffffffffffffffffffffffff1673ffffffffffffffffffffffffffffffffffffffff161415156119e557600080fd5b8260020160199054906101000a900460ff16611a015733611a05565b61dead5b9150611b498360e060405190810160405290816000820160009054906101000a900473ffffffffffffffffffffffffffffffffffffffff1673ffffffffffffffffffffffffffffffffffffffff1673ffffffffffffffffffffffffffffffffffffffff168152602001600182015481526020016002820160009054906101000a900467ffffffffffffffff1667ffffffffffffffff1667ffffffffffffffff1681526020016002820160089054906101000a900467ffffffffffffffff1667ffffffffffffffff1667ffffffffffffffff1681526020016002820160109054906101000a900467ffffffffffffffff1667ffffffffffffffff1667ffffffffffffffff1681526020016002820160189054906101000a900460ff161515151581526020016002820160199054906101000a900460ff16151515158152505042612647565b9050600460008673ffffffffffffffffffffffffffffffffffffffff1673ffffffffffffffffffffffffffffffffffffffff16815260200190815260200160002084815481101515611b9757fe5b9060005260206000209060030201600080820160006101000a81549073ffffffffffffffffffffffffffffffffffffffff021916905560018201600090556002820160006101000a81549067ffffffffffffffff02191690556002820160086101000a81549067ffffffffffffffff02191690556002820160106101000a81549067ffffffffffffffff02191690556002820160186101000a81549060ff02191690556002820160196101000a81549060ff02191690555050600460008673ffffffffffffffffffffffffffffffffffffffff1673ffffffffffffffffffffffffffffffffffffffff168152602001908152602001600020611ce56001600460008973ffffffffffffffffffffffffffffffffffffffff1673ffffffffffffffffffffffffffffffffffffffff1681526020019081526020016000208054905061241790919063ffffffff16565b815481101515611cf157fe5b9060005260206000209060030201600460008773ffffffffffffffffffffffffffffffffffffffff1673ffffffffffffffffffffffffffffffffffffffff16815260200190815260200160002085815481101515611d4b57fe5b90600052602060002090600302016000820160009054906101000a900473ffffffffffffffffffffffffffffffffffffffff168160000160006101000a81548173ffffffffffffffffffffffffffffffffffffffff021916908373ffffffffffffffffffffffffffffffffffffffff160217905550600182015481600101556002820160009054906101000a900467ffffffffffffffff168160020160006101000a81548167ffffffffffffffff021916908367ffffffffffffffff1602179055506002820160089054906101000a900467ffffffffffffffff168160020160086101000a81548167ffffffffffffffff021916908367ffffffffffffffff1602179055506002820160109054906101000a900467ffffffffffffffff168160020160106101000a81548167ffffffffffffffff021916908367ffffffffffffffff1602179055506002820160189054906101000a900460ff168160020160186101000a81548160ff0219169083151502179055506002820160199054906101000a900460ff168160020160196101000a81548160ff0219169083151502179055509050506001600460008773ffffffffffffffffffffffffffffffffffffffff1673ffffffffffffffffffffffffffffffffffffffff16815260200190815260200160002081818054905003915081611f4591906126f6565b50611f9881600160008573ffffffffffffffffffffffffffffffffffffffff1673ffffffffffffffffffffffffffffffffffffffff1681526020019081526020016000205461267190919063ffffffff16565b600160008473ffffffffffffffffffffffffffffffffffffffff1673ffffffffffffffffffffffffffffffffffffffff1681526020019081526020016000208190555061202d81600160008873ffffffffffffffffffffffffffffffffffffffff1673ffffffffffffffffffffffffffffffffffffffff1681526020019081526020016000205461241790919063ffffffff16565b600160008773ffffffffffffffffffffffffffffffffffffffff1673ffffffffffffffffffffffffffffffffffffffff168152602001908152602001600020819055508173ffffffffffffffffffffffffffffffffffffffff168573ffffffffffffffffffffffffffffffffffffffff167fddf252ad1be2c89b69c2b068fc378daa952ba7f163c4a11628f55a4df523b3ef836040518082815260200191505060405180910390a35050505050565b600080600073ffffffffffffffffffffffffffffffffffffffff168473ffffffffffffffffffffffffffffffffffffffff161415151561211b57600080fd5b600260008673ffffffffffffffffffffffffffffffffffffffff1673ffffffffffffffffffffffffffffffffffffffff16815260200190815260200160002060003373ffffffffffffffffffffffffffffffffffffffff1673ffffffffffffffffffffffffffffffffffffffff1681526020019081526020016000205490506121ec83600160008873ffffffffffffffffffffffffffffffffffffffff1673ffffffffffffffffffffffffffffffffffffffff1681526020019081526020016000205461241790919063ffffffff16565b600160008773ffffffffffffffffffffffffffffffffffffffff1673ffffffffffffffffffffffffffffffffffffffff1681526020019081526020016000208190555061228183600160008773ffffffffffffffffffffffffffffffffffffffff1673ffffffffffffffffffffffffffffffffffffffff1681526020019081526020016000205461267190919063ffffffff16565b600160008673ffffffffffffffffffffffffffffffffffffffff1673ffffffffffffffffffffffffffffffffffffffff168152602001908152602001600020819055506122d7838261241790919063ffffffff16565b600260008773ffffffffffffffffffffffffffffffffffffffff1673ffffffffffffffffffffffffffffffffffffffff16815260200190815260200160002060003373ffffffffffffffffffffffffffffffffffffffff1673ffffffffffffffffffffffffffffffffffffffff168152602001908152602001600020819055508373ffffffffffffffffffffffffffffffffffffffff168573ffffffffffffffffffffffffffffffffffffffff167fddf252ad1be2c89b69c2b068fc378daa952ba7f163c4a11628f55a4df523b3ef856040518082815260200191505060405180910390a360019150509392505050565b600061240f83602001518367ffffffffffffffff16856080015167ffffffffffffffff16866040015167ffffffffffffffff16876060015167ffffffffffffffff166118af565b905092915050565b600082821115151561242557fe5b818303905092915050565b60008167ffffffffffffffff168367ffffffffffffffff1610156124545781612456565b825b905092915050565b60008073ffffffffffffffffffffffffffffffffffffffff168373ffffffffffffffffffffffffffffffffffffffff161415151561249b57600080fd5b6124ed82600160003373ffffffffffffffffffffffffffffffffffffffff1673ffffffffffffffffffffffffffffffffffffffff1681526020019081526020016000205461241790919063ffffffff16565b600160003373ffffffffffffffffffffffffffffffffffffffff1673ffffffffffffffffffffffffffffffffffffffff1681526020019081526020016000208190555061258282600160008673ffffffffffffffffffffffffffffffffffffffff1673ffffffffffffffffffffffffffffffffffffffff1681526020019081526020016000205461267190919063ffffffff16565b600160008573ffffffffffffffffffffffffffffffffffffffff1673ffffffffffffffffffffffffffffffffffffffff168152602001908152602001600020819055508273ffffffffffffffffffffffffffffffffffffffff163373ffffffffffffffffffffffffffffffffffffffff167fddf252ad1be2c89b69c2b068fc378daa952ba7f163c4a11628f55a4df523b3ef846040518082815260200191505060405180910390a36001905092915050565b600061263f836110a7565b905092915050565b600061266961265684846123c8565b846020015161241790919063ffffffff16565b905092915050565b600080828401905083811015151561268557fe5b8091505092915050565b600081831061269e57816126a0565b825b905092915050565b600080828402905060008414806126c957508284828115156126c657fe5b04145b15156126d157fe5b8091505092915050565b60008082848115156126e957fe5b0490508091505092915050565b815481835581811115612723576003028160030283600052602060002091820191016127229190612728565b5b505050565b6127ec91905b808211156127e857600080820160006101000a81549073ffffffffffffffffffffffffffffffffffffffff021916905560018201600090556002820160006101000a81549067ffffffffffffffff02191690556002820160086101000a81549067ffffffffffffffff02191690556002820160106101000a81549067ffffffffffffffff02191690556002820160186101000a81549060ff02191690556002820160196101000a81549060ff02191690555060030161272e565b5090565b905600a165627a7a72305820d5bfd140dcceb2ebe01f58dca770604c6049a51605c0420046ee0a4cf14230d40029",
  "source": "pragma solidity ^0.4.11;\r\n\r\nimport \"../math/Math.sol\";\r\nimport \"./StandardToken.sol\";\r\nimport \"./LimitedTransferToken.sol\";\r\n\r\n/**\r\n * @title Vested token\r\n * @dev Tokens that can be vested for a group of addresses.\r\n */\r\ncontract VestedToken is StandardToken, LimitedTransferToken {\r\n\r\n  uint256 MAX_GRANTS_PER_ADDRESS = 20;\r\n\r\n  struct TokenGrant {\r\n    address granter;     // 20 bytes\r\n    uint256 value;       // 32 bytes\r\n    uint64 cliff;\r\n    uint64 vesting;\r\n    uint64 start;        // 3 * 8 = 24 bytes\r\n    bool revokable;\r\n    bool burnsOnRevoke;  // 2 * 1 = 2 bits? or 2 bytes?\r\n  } // total 78 bytes = 3 sstore per operation (32 per sstore)\r\n\r\n  mapping (address => TokenGrant[]) public grants;\r\n\r\n  event NewTokenGrant(address indexed from, address indexed to, uint256 value, uint256 grantId);\r\n\r\n  /**\r\n   * @dev Grant tokens to a specified address\r\n   * @param _to address The address which the tokens will be granted to.\r\n   * @param _value uint256 The amount of tokens to be granted.\r\n   * @param _start uint64 Time of the beginning of the grant.\r\n   * @param _cliff uint64 Time of the cliff period.\r\n   * @param _vesting uint64 The vesting period.\r\n   */\r\n  function grantVestedTokens(\r\n    address _to,\r\n    uint256 _value,\r\n    uint64 _start,\r\n    uint64 _cliff,\r\n    uint64 _vesting,\r\n    bool _revokable,\r\n    bool _burnsOnRevoke\r\n  ) public {\r\n\r\n    // Check for date inconsistencies that may cause unexpected behavior\r\n    require(_cliff >= _start && _vesting >= _cliff);\r\n\r\n    require(tokenGrantsCount(_to) < MAX_GRANTS_PER_ADDRESS);   // To prevent a user being spammed and have his balance locked (out of gas attack when calculating vesting).\r\n\r\n    uint256 count = grants[_to].push(\r\n                TokenGrant(\r\n                  _revokable ? msg.sender : 0, // avoid storing an extra 20 bytes when it is non-revokable\r\n                  _value,\r\n                  _cliff,\r\n                  _vesting,\r\n                  _start,\r\n                  _revokable,\r\n                  _burnsOnRevoke\r\n                )\r\n              );\r\n\r\n    transfer(_to, _value);\r\n\r\n    NewTokenGrant(msg.sender, _to, _value, count - 1);\r\n  }\r\n\r\n  /**\r\n   * @dev Revoke the grant of tokens of a specifed address.\r\n   * @param _holder The address which will have its tokens revoked.\r\n   * @param _grantId The id of the token grant.\r\n   */\r\n  function revokeTokenGrant(address _holder, uint256 _grantId) public {\r\n    TokenGrant storage grant = grants[_holder][_grantId];\r\n\r\n    require(grant.revokable);\r\n    require(grant.granter == msg.sender); // Only granter can revoke it\r\n\r\n    address receiver = grant.burnsOnRevoke ? 0xdead : msg.sender;\r\n\r\n    uint256 nonVested = nonVestedTokens(grant, uint64(now));\r\n\r\n    // remove grant from array\r\n    delete grants[_holder][_grantId];\r\n    grants[_holder][_grantId] = grants[_holder][grants[_holder].length.sub(1)];\r\n    grants[_holder].length -= 1;\r\n\r\n    balances[receiver] = balances[receiver].add(nonVested);\r\n    balances[_holder] = balances[_holder].sub(nonVested);\r\n\r\n    Transfer(_holder, receiver, nonVested);\r\n  }\r\n\r\n\r\n  /**\r\n   * @dev Calculate the total amount of transferable tokens of a holder at a given time\r\n   * @param holder address The address of the holder\r\n   * @param time uint64 The specific time.\r\n   * @return An uint256 representing a holder's total amount of transferable tokens.\r\n   */\r\n  function transferableTokens(address holder, uint64 time) public constant returns (uint256) {\r\n    uint256 grantIndex = tokenGrantsCount(holder);\r\n\r\n    if (grantIndex == 0) return super.transferableTokens(holder, time); // shortcut for holder without grants\r\n\r\n    // Iterate through all the grants the holder has, and add all non-vested tokens\r\n    uint256 nonVested = 0;\r\n    for (uint256 i = 0; i < grantIndex; i++) {\r\n      nonVested = SafeMath.add(nonVested, nonVestedTokens(grants[holder][i], time));\r\n    }\r\n\r\n    // Balance - totalNonVested is the amount of tokens a holder can transfer at any given time\r\n    uint256 vestedTransferable = SafeMath.sub(balanceOf(holder), nonVested);\r\n\r\n    // Return the minimum of how many vested can transfer and other value\r\n    // in case there are other limiting transferability factors (default is balanceOf)\r\n    return Math.min256(vestedTransferable, super.transferableTokens(holder, time));\r\n  }\r\n\r\n  /**\r\n   * @dev Check the amount of grants that an address has.\r\n   * @param _holder The holder of the grants.\r\n   * @return A uint256 representing the total amount of grants.\r\n   */\r\n  function tokenGrantsCount(address _holder) public constant returns (uint256 index) {\r\n    return grants[_holder].length;\r\n  }\r\n\r\n  /**\r\n   * @dev Calculate amount of vested tokens at a specific time\r\n   * @param tokens uint256 The amount of tokens granted\r\n   * @param time uint64 The time to be checked\r\n   * @param start uint64 The time representing the beginning of the grant\r\n   * @param cliff uint64  The cliff period, the period before nothing can be paid out\r\n   * @param vesting uint64 The vesting period\r\n   * @return An uint256 representing the amount of vested tokens of a specific grant\r\n   *  transferableTokens\r\n   *   |                         _/--------   vestedTokens rect\r\n   *   |                       _/\r\n   *   |                     _/\r\n   *   |                   _/\r\n   *   |                 _/\r\n   *   |                /\r\n   *   |              .|\r\n   *   |            .  |\r\n   *   |          .    |\r\n   *   |        .      |\r\n   *   |      .        |\r\n   *   |    .          |\r\n   *   +===+===========+---------+----------> time\r\n   *      Start       Cliff    Vesting\r\n   */\r\n  function calculateVestedTokens(\r\n    uint256 tokens,\r\n    uint256 time,\r\n    uint256 start,\r\n    uint256 cliff,\r\n    uint256 vesting) public constant returns (uint256)\r\n    {\r\n      // Shortcuts for before cliff and after vesting cases.\r\n      if (time < cliff) return 0;\r\n      if (time >= vesting) return tokens;\r\n\r\n      // Interpolate all vested tokens.\r\n      // As before cliff the shortcut returns 0, we can use just calculate a value\r\n      // in the vesting rect (as shown in above's figure)\r\n\r\n      // vestedTokens = (tokens * (time - start)) / (vesting - start)\r\n      uint256 vestedTokens = SafeMath.div(\r\n                                    SafeMath.mul(\r\n                                      tokens,\r\n                                      SafeMath.sub(time, start)\r\n                                      ),\r\n                                    SafeMath.sub(vesting, start)\r\n                                    );\r\n\r\n      return vestedTokens;\r\n  }\r\n\r\n  /**\r\n   * @dev Get all information about a specific grant.\r\n   * @param _holder The address which will have its tokens revoked.\r\n   * @param _grantId The id of the token grant.\r\n   * @return Returns all the values that represent a TokenGrant(address, value, start, cliff,\r\n   * revokability, burnsOnRevoke, and vesting) plus the vested value at the current time.\r\n   */\r\n  function tokenGrant(address _holder, uint256 _grantId) public constant returns (address granter, uint256 value, uint256 vested, uint64 start, uint64 cliff, uint64 vesting, bool revokable, bool burnsOnRevoke) {\r\n    TokenGrant storage grant = grants[_holder][_grantId];\r\n\r\n    granter = grant.granter;\r\n    value = grant.value;\r\n    start = grant.start;\r\n    cliff = grant.cliff;\r\n    vesting = grant.vesting;\r\n    revokable = grant.revokable;\r\n    burnsOnRevoke = grant.burnsOnRevoke;\r\n\r\n    vested = vestedTokens(grant, uint64(now));\r\n  }\r\n\r\n  /**\r\n   * @dev Get the amount of vested tokens at a specific time.\r\n   * @param grant TokenGrant The grant to be checked.\r\n   * @param time The time to be checked\r\n   * @return An uint256 representing the amount of vested tokens of a specific grant at a specific time.\r\n   */\r\n  function vestedTokens(TokenGrant grant, uint64 time) private constant returns (uint256) {\r\n    return calculateVestedTokens(\r\n      grant.value,\r\n      uint256(time),\r\n      uint256(grant.start),\r\n      uint256(grant.cliff),\r\n      uint256(grant.vesting)\r\n    );\r\n  }\r\n\r\n  /**\r\n   * @dev Calculate the amount of non vested tokens at a specific time.\r\n   * @param grant TokenGrant The grant to be checked.\r\n   * @param time uint64 The time to be checked\r\n   * @return An uint256 representing the amount of non vested tokens of a specific grant on the\r\n   * passed time frame.\r\n   */\r\n  function nonVestedTokens(TokenGrant grant, uint64 time) private constant returns (uint256) {\r\n    return grant.value.sub(vestedTokens(grant, time));\r\n  }\r\n\r\n  /**\r\n   * @dev Calculate the date when the holder can transfer all its tokens\r\n   * @param holder address The address of the holder\r\n   * @return An uint256 representing the date of the last transferable tokens.\r\n   */\r\n  function lastTokenIsTransferableDate(address holder) public constant returns (uint64 date) {\r\n    date = uint64(now);\r\n    uint256 grantIndex = grants[holder].length;\r\n    for (uint256 i = 0; i < grantIndex; i++) {\r\n      date = Math.max64(grants[holder][i].vesting, date);\r\n    }\r\n  }\r\n}\r\n",
  "sourcePath": "c:\\UNICEF\\dev\\connect-bc\\bids-api\\blockchain\\contracts\\openzeppelin-solidity\\contracts\\token\\VestedToken.sol",
  "compiler": {
    "name": "solc",
    "version": "0.4.25+commit.59dbf8f1.Emscripten.clang"
  },
  "schemaVersion": "3.0.23",
  "updatedAt": "2020-04-28T17:42:08.726Z",
  "devdoc": {
    "methods": {
      "allowance(address,address)": {
        "details": "Function to check the amount of tokens that an owner allowed to a spender.\r",
        "params": {
          "_owner": "address The address which owns the funds.\r",
          "_spender": "address The address which will spend the funds.\r"
        },
        "return": "A uint256 specifying the amount of tokens still available for the spender.\r"
      },
      "approve(address,uint256)": {
        "details": "Approve the passed address to spend the specified amount of tokens on behalf of msg.sender.\r    * Beware that changing an allowance with this method brings the risk that someone may use both the old\r and the new allowance by unfortunate transaction ordering. One possible solution to mitigate this\r race condition is to first reduce the spender's allowance to 0 and set the desired value afterwards:\r https://github.com/ethereum/EIPs/issues/20#issuecomment-263524729\r",
        "params": {
          "_spender": "The address which will spend the funds.\r",
          "_value": "The amount of tokens to be spent.\r"
        }
      },
      "balanceOf(address)": {
        "details": "Gets the balance of the specified address.\r",
        "params": {
          "_owner": "The address to query the the balance of.\r"
        },
        "return": "An uint256 representing the amount owned by the passed address.\r"
      },
      "calculateVestedTokens(uint256,uint256,uint256,uint256,uint256)": {
        "details": "Calculate amount of vested tokens at a specific time\r",
        "params": {
          "cliff": "uint64  The cliff period, the period before nothing can be paid out\r",
          "start": "uint64 The time representing the beginning of the grant\r",
          "time": "uint64 The time to be checked\r",
          "tokens": "uint256 The amount of tokens granted\r",
          "vesting": "uint64 The vesting period\r"
        },
        "return": "An uint256 representing the amount of vested tokens of a specific grant\r transferableTokens\r  |                         _/--------   vestedTokens rect\r  |                       _/\r  |                     _/\r  |                   _/\r  |                 _/\r  |                /\r  |              .|\r  |            .  |\r  |          .    |\r  |        .      |\r  |      .        |\r  |    .          |\r  +===+===========+---------+----------> time\r     Start       Cliff    Vesting\r"
      },
      "grantVestedTokens(address,uint256,uint64,uint64,uint64,bool,bool)": {
        "details": "Grant tokens to a specified address\r",
        "params": {
          "_cliff": "uint64 Time of the cliff period.\r",
          "_start": "uint64 Time of the beginning of the grant.\r",
          "_to": "address The address which the tokens will be granted to.\r",
          "_value": "uint256 The amount of tokens to be granted.\r",
          "_vesting": "uint64 The vesting period.\r"
        }
      },
      "lastTokenIsTransferableDate(address)": {
        "details": "Calculate the date when the holder can transfer all its tokens\r",
        "params": {
          "holder": "address The address of the holder\r"
        },
        "return": "An uint256 representing the date of the last transferable tokens.\r"
      },
      "revokeTokenGrant(address,uint256)": {
        "details": "Revoke the grant of tokens of a specifed address.\r",
        "params": {
          "_grantId": "The id of the token grant.\r",
          "_holder": "The address which will have its tokens revoked.\r"
        }
      },
      "tokenGrant(address,uint256)": {
        "details": "Get all information about a specific grant.\r",
        "params": {
          "_grantId": "The id of the token grant.\r",
          "_holder": "The address which will have its tokens revoked.\r"
        },
        "return": "Returns all the values that represent a TokenGrant(address, value, start, cliff,\r revokability, burnsOnRevoke, and vesting) plus the vested value at the current time.\r"
      },
      "tokenGrantsCount(address)": {
        "details": "Check the amount of grants that an address has.\r",
        "params": {
          "_holder": "The holder of the grants.\r"
        },
        "return": "A uint256 representing the total amount of grants.\r"
      },
      "transfer(address,uint256)": {
        "details": "Checks modifier and allows transfer if tokens are not locked.\r",
        "params": {
          "_to": "The address that will receive the tokens.\r",
          "_value": "The amount of tokens to be transferred.\r"
        }
      },
      "transferFrom(address,address,uint256)": {
        "details": "Checks modifier and allows transfer if tokens are not locked.\r",
        "params": {
          "_from": "The address that will send the tokens.\r",
          "_to": "The address that will receive the tokens.\r",
          "_value": "The amount of tokens to be transferred.\r"
        }
      },
      "transferableTokens(address,uint64)": {
        "details": "Calculate the total amount of transferable tokens of a holder at a given time\r",
        "params": {
          "holder": "address The address of the holder\r",
          "time": "uint64 The specific time.\r"
        },
        "return": "An uint256 representing a holder's total amount of transferable tokens.\r"
      }
    },
    "title": "Vested token\r"
  },
  "userdoc": {
    "methods": {
      "increaseApproval(address,uint256)": {
        "notice": "approve should be called when allowed[_spender] == 0. To increment\r allowed value is better to use this function to avoid 2 calls (and wait until\r the first transaction is mined)\r From MonolithDAO Token.sol\r"
      }
    }
  }
}